{"contracts/XAIAgentDRC20.sol":{"XAIAgentDRC20":{"abi":[{"inputs":[{"internalType":"uint256","name":"_initialTokenPrice","type":"uint256"},{"internalType":"address","name":"_dbcTokenAddress","type":"address"},{"internalType":"address","name":"_xaaPoolAddress","type":"address"},{"internalType":"address","name":"_ecosystemAddress","type":"address"},{"internalType":"address","name":"_creatorAddress","type":"address"}],"stateMutability":"nonpayable","type":"constructor"},{"anonymous":false,"inputs":[{"indexed":true,"internalType":"address","name":"owner","type":"address"},{"indexed":true,"internalType":"address","name":"spender","type":"address"},{"indexed":false,"internalType":"uint256","name":"value","type":"uint256"}],"name":"Approval","type":"event"},{"anonymous":false,"inputs":[{"indexed":true,"internalType":"address","name":"investor","type":"address"},{"indexed":false,"internalType":"uint256","name":"amount","type":"uint256"}],"name":"DBCRefunded","type":"event"},{"anonymous":false,"inputs":[{"indexed":false,"internalType":"uint256","name":"totalInvested","type":"uint256"}],"name":"InvestmentEnded","type":"event"},{"anonymous":false,"inputs":[{"indexed":true,"internalType":"address","name":"investor","type":"address"},{"indexed":false,"internalType":"uint256","name":"amount","type":"uint256"}],"name":"InvestmentReceived","type":"event"},{"anonymous":false,"inputs":[{"indexed":false,"internalType":"uint256","name":"startTime","type":"uint256"},{"indexed":false,"internalType":"uint256","name":"endTime","type":"uint256"}],"name":"InvestmentStarted","type":"event"},{"anonymous":false,"inputs":[{"indexed":true,"internalType":"address","name":"previousOwner","type":"address"},{"indexed":true,"internalType":"address","name":"newOwner","type":"address"}],"name":"OwnershipTransferred","type":"event"},{"anonymous":false,"inputs":[{"indexed":true,"internalType":"address","name":"tokenAddress","type":"address"},{"indexed":false,"internalType":"uint256","name":"tokenAmount","type":"uint256"},{"indexed":false,"internalType":"uint256","name":"dbcAmount","type":"uint256"}],"name":"PoolCreated","type":"event"},{"anonymous":false,"inputs":[{"indexed":true,"internalType":"address","name":"tokenAddress","type":"address"},{"indexed":false,"internalType":"uint256","name":"lockedAmount","type":"uint256"}],"name":"PoolLocked","type":"event"},{"anonymous":false,"inputs":[{"indexed":true,"internalType":"address","name":"investor","type":"address"},{"indexed":false,"internalType":"uint256","name":"amount","type":"uint256"}],"name":"TokensDistributed","type":"event"},{"anonymous":false,"inputs":[{"indexed":true,"internalType":"address","name":"wallet","type":"address"},{"indexed":false,"internalType":"uint256","name":"amount","type":"uint256"},{"indexed":false,"internalType":"uint256","name":"unlockTime","type":"uint256"}],"name":"TokensLocked","type":"event"},{"anonymous":false,"inputs":[{"indexed":true,"internalType":"address","name":"from","type":"address"},{"indexed":true,"internalType":"address","name":"to","type":"address"},{"indexed":false,"internalType":"uint256","name":"value","type":"uint256"}],"name":"Transfer","type":"event"},{"inputs":[],"name":"CREATOR_ALLOCATION","outputs":[{"internalType":"uint256","name":"","type":"uint256"}],"stateMutability":"view","type":"function"},{"inputs":[],"name":"CREATOR_LOCK_DURATION","outputs":[{"internalType":"uint256","name":"","type":"uint256"}],"stateMutability":"view","type":"function"},{"inputs":[],"name":"DBC_POOL_INVESTOR","outputs":[{"internalType":"uint256","name":"","type":"uint256"}],"stateMutability":"view","type":"function"},{"inputs":[],"name":"DBC_POOL_PERMANENT","outputs":[{"internalType":"uint256","name":"","type":"uint256"}],"stateMutability":"view","type":"function"},{"inputs":[],"name":"ECOSYSTEM_ALLOCATION","outputs":[{"internalType":"uint256","name":"","type":"uint256"}],"stateMutability":"view","type":"function"},{"inputs":[],"name":"ECOSYSTEM_LOCK_DURATION","outputs":[{"internalType":"uint256","name":"","type":"uint256"}],"stateMutability":"view","type":"function"},{"inputs":[],"name":"INITIAL_MARKET_VALUE","outputs":[{"internalType":"uint256","name":"","type":"uint256"}],"stateMutability":"view","type":"function"},{"inputs":[],"name":"INVESTMENT_DURATION","outputs":[{"internalType":"uint256","name":"","type":"uint256"}],"stateMutability":"view","type":"function"},{"inputs":[],"name":"MIN_MARKET_VALUE","outputs":[{"internalType":"uint256","name":"","type":"uint256"}],"stateMutability":"view","type":"function"},{"inputs":[],"name":"PERMANENT_LOCK_DURATION","outputs":[{"internalType":"uint256","name":"","type":"uint256"}],"stateMutability":"view","type":"function"},{"inputs":[],"name":"TARGET_DBC_VALUE","outputs":[{"internalType":"uint256","name":"","type":"uint256"}],"stateMutability":"view","type":"function"},{"inputs":[],"name":"XAA_POOL_ALLOCATION","outputs":[{"internalType":"uint256","name":"","type":"uint256"}],"stateMutability":"view","type":"function"},{"inputs":[{"internalType":"address","name":"owner","type":"address"},{"internalType":"address","name":"spender","type":"address"}],"name":"allowance","outputs":[{"internalType":"uint256","name":"","type":"uint256"}],"stateMutability":"view","type":"function"},{"inputs":[{"internalType":"address","name":"spender","type":"address"},{"internalType":"uint256","name":"amount","type":"uint256"}],"name":"approve","outputs":[{"internalType":"bool","name":"","type":"bool"}],"stateMutability":"nonpayable","type":"function"},{"inputs":[{"internalType":"address","name":"account","type":"address"}],"name":"balanceOf","outputs":[{"internalType":"uint256","name":"","type":"uint256"}],"stateMutability":"view","type":"function"},{"inputs":[{"internalType":"uint256","name":"amount","type":"uint256"}],"name":"burn","outputs":[],"stateMutability":"nonpayable","type":"function"},{"inputs":[{"internalType":"address","name":"account","type":"address"},{"internalType":"uint256","name":"amount","type":"uint256"}],"name":"burnFrom","outputs":[],"stateMutability":"nonpayable","type":"function"},{"inputs":[{"internalType":"address","name":"from","type":"address"}],"name":"calculateLockedAmount","outputs":[{"internalType":"uint256","name":"","type":"uint256"}],"stateMutability":"view","type":"function"},{"inputs":[],"name":"creatorAddress","outputs":[{"internalType":"address","name":"","type":"address"}],"stateMutability":"view","type":"function"},{"inputs":[],"name":"dbcPool","outputs":[{"internalType":"address","name":"tokenAddress","type":"address"},{"internalType":"uint256","name":"tokenAmount","type":"uint256"},{"internalType":"uint256","name":"dbcAmount","type":"uint256"},{"internalType":"bool","name":"isLocked","type":"bool"}],"stateMutability":"view","type":"function"},{"inputs":[],"name":"dbcToken","outputs":[{"internalType":"contract IERC20","name":"","type":"address"}],"stateMutability":"view","type":"function"},{"inputs":[],"name":"decimals","outputs":[{"internalType":"uint8","name":"","type":"uint8"}],"stateMutability":"view","type":"function"},{"inputs":[{"internalType":"address","name":"spender","type":"address"},{"internalType":"uint256","name":"subtractedValue","type":"uint256"}],"name":"decreaseAllowance","outputs":[{"internalType":"bool","name":"","type":"bool"}],"stateMutability":"nonpayable","type":"function"},{"inputs":[],"name":"ecosystemAddress","outputs":[{"internalType":"address","name":"","type":"address"}],"stateMutability":"view","type":"function"},{"inputs":[],"name":"endInvestment","outputs":[],"stateMutability":"nonpayable","type":"function"},{"inputs":[{"internalType":"address","name":"account","type":"address"}],"name":"getAvailableBalance","outputs":[{"internalType":"uint256","name":"total","type":"uint256"},{"internalType":"uint256","name":"available","type":"uint256"}],"stateMutability":"view","type":"function"},{"inputs":[{"internalType":"address","name":"investor","type":"address"}],"name":"getInvestmentAmount","outputs":[{"internalType":"uint256","name":"","type":"uint256"}],"stateMutability":"view","type":"function"},{"inputs":[],"name":"getInvestorCount","outputs":[{"internalType":"uint256","name":"","type":"uint256"}],"stateMutability":"view","type":"function"},{"inputs":[{"internalType":"address","name":"spender","type":"address"},{"internalType":"uint256","name":"addedValue","type":"uint256"}],"name":"increaseAllowance","outputs":[{"internalType":"bool","name":"","type":"bool"}],"stateMutability":"nonpayable","type":"function"},{"inputs":[],"name":"initialTokenPrice","outputs":[{"internalType":"uint256","name":"","type":"uint256"}],"stateMutability":"view","type":"function"},{"inputs":[{"internalType":"uint256","name":"amount","type":"uint256"}],"name":"invest","outputs":[],"stateMutability":"nonpayable","type":"function"},{"inputs":[],"name":"investmentEndTime","outputs":[{"internalType":"uint256","name":"","type":"uint256"}],"stateMutability":"view","type":"function"},{"inputs":[],"name":"investmentOpen","outputs":[{"internalType":"bool","name":"","type":"bool"}],"stateMutability":"view","type":"function"},{"inputs":[],"name":"investmentStartTime","outputs":[{"internalType":"uint256","name":"","type":"uint256"}],"stateMutability":"view","type":"function"},{"inputs":[{"internalType":"address","name":"","type":"address"}],"name":"investments","outputs":[{"internalType":"uint256","name":"","type":"uint256"}],"stateMutability":"view","type":"function"},{"inputs":[],"name":"name","outputs":[{"internalType":"string","name":"","type":"string"}],"stateMutability":"view","type":"function"},{"inputs":[],"name":"owner","outputs":[{"internalType":"address","name":"","type":"address"}],"stateMutability":"view","type":"function"},{"inputs":[],"name":"renounceOwnership","outputs":[],"stateMutability":"nonpayable","type":"function"},{"inputs":[],"name":"startInvestment","outputs":[],"stateMutability":"nonpayable","type":"function"},{"inputs":[],"name":"symbol","outputs":[{"internalType":"string","name":"","type":"string"}],"stateMutability":"view","type":"function"},{"inputs":[{"internalType":"address","name":"to","type":"address"},{"internalType":"uint256","name":"amount","type":"uint256"},{"internalType":"uint256","name":"duration","type":"uint256"}],"name":"testLockTokens","outputs":[],"stateMutability":"nonpayable","type":"function"},{"inputs":[],"name":"tokensDistributed","outputs":[{"internalType":"bool","name":"","type":"bool"}],"stateMutability":"view","type":"function"},{"inputs":[],"name":"totalDBCInvested","outputs":[{"internalType":"uint256","name":"","type":"uint256"}],"stateMutability":"view","type":"function"},{"inputs":[],"name":"totalSupply","outputs":[{"internalType":"uint256","name":"","type":"uint256"}],"stateMutability":"view","type":"function"},{"inputs":[{"internalType":"address","name":"to","type":"address"},{"internalType":"uint256","name":"amount","type":"uint256"}],"name":"transfer","outputs":[{"internalType":"bool","name":"","type":"bool"}],"stateMutability":"nonpayable","type":"function"},{"inputs":[{"internalType":"address","name":"from","type":"address"},{"internalType":"address","name":"to","type":"address"},{"internalType":"uint256","name":"amount","type":"uint256"}],"name":"transferFrom","outputs":[{"internalType":"bool","name":"","type":"bool"}],"stateMutability":"nonpayable","type":"function"},{"inputs":[{"internalType":"address","name":"newOwner","type":"address"}],"name":"transferOwnership","outputs":[],"stateMutability":"nonpayable","type":"function"},{"inputs":[],"name":"xaaPool","outputs":[{"internalType":"address","name":"tokenAddress","type":"address"},{"internalType":"uint256","name":"tokenAmount","type":"uint256"},{"internalType":"uint256","name":"dbcAmount","type":"uint256"},{"internalType":"bool","name":"isLocked","type":"bool"}],"stateMutability":"view","type":"function"},{"inputs":[],"name":"xaaPoolAddress","outputs":[{"internalType":"address","name":"","type":"address"}],"stateMutability":"view","type":"function"}],"evm":{"bytecode":{"linkReferences":{},"object":"60806040523480156200001157600080fd5b50604051620028ef380380620028ef8339810160408190526200003491620003e7565b604051806040016040528060098152602001682c20a0902a37b5b2b760b91b8152506040518060400160405280600381526020016258414160e81b8152508160039081620000839190620004f4565b506004620000928282620004f4565b5050600160055550620000a533620002b0565b6001600160a01b038416620001015760405162461bcd60e51b815260206004820152601960248201527f496e76616c69642044424320746f6b656e20616464726573730000000000000060448201526064015b60405180910390fd5b6001600160a01b038316620001595760405162461bcd60e51b815260206004820152601860248201527f496e76616c69642058414120706f6f6c206164647265737300000000000000006044820152606401620000f8565b6001600160a01b038216620001b15760405162461bcd60e51b815260206004820152601960248201527f496e76616c69642065636f73797374656d2061646472657373000000000000006044820152606401620000f8565b6001600160a01b038116620002095760405162461bcd60e51b815260206004820152601760248201527f496e76616c69642063726561746f7220616464726573730000000000000000006044820152606401620000f8565b600c8054610100600160a81b0319166101006001600160a01b038781169190910291909117909155600a869055600d80546001600160a01b031990811686841617909155600e80548216858416179055600f80549091169183169190911790556008805460ff19169055620002a53062000281601290565b6200028e90600a620006d5565b6200029f9064e8d4a51000620006ed565b62000302565b50505050506200071d565b600680546001600160a01b038381166001600160a01b0319831681179093556040519116919082907f8be0079c531659141344cd1fd0a4f28419497f9722a3daafe3b4186f6b6457e090600090a35050565b6001600160a01b0382166200035a5760405162461bcd60e51b815260206004820152601f60248201527f45524332303a206d696e7420746f20746865207a65726f2061646472657373006044820152606401620000f8565b80600260008282546200036e919062000707565b90915550506001600160a01b038216600081815260208181526040808320805486019055518481527fddf252ad1be2c89b69c2b068fc378daa952ba7f163c4a11628f55a4df523b3ef910160405180910390a35050565b505050565b80516001600160a01b0381168114620003e257600080fd5b919050565b600080600080600060a086880312156200040057600080fd5b855194506200041260208701620003ca565b93506200042260408701620003ca565b92506200043260608701620003ca565b91506200044260808701620003ca565b90509295509295909350565b634e487b7160e01b600052604160045260246000fd5b600181811c908216806200047957607f821691505b6020821081036200049a57634e487b7160e01b600052602260045260246000fd5b50919050565b601f821115620003c5576000816000526020600020601f850160051c81016020861015620004cb5750805b601f850160051c820191505b81811015620004ec57828155600101620004d7565b505050505050565b81516001600160401b038111156200051057620005106200044e565b620005288162000521845462000464565b84620004a0565b602080601f831160018114620005605760008415620005475750858301515b600019600386901b1c1916600185901b178555620004ec565b600085815260208120601f198616915b82811015620005915788860151825594840194600190910190840162000570565b5085821015620005b05787850151600019600388901b60f8161c191681555b5050505050600190811b01905550565b634e487b7160e01b600052601160045260246000fd5b600181815b8085111562000617578160001904821115620005fb57620005fb620005c0565b808516156200060957918102915b93841c9390800290620005db565b509250929050565b6000826200063057506001620006cf565b816200063f57506000620006cf565b8160018114620006585760028114620006635762000683565b6001915050620006cf565b60ff841115620006775762000677620005c0565b50506001821b620006cf565b5060208310610133831016604e8410600b8410161715620006a8575081810a620006cf565b620006b48383620005d6565b8060001904821115620006cb57620006cb620005c0565b0290505b92915050565b6000620006e660ff8416836200061f565b9392505050565b8082028115828204841417620006cf57620006cf620005c0565b80820180821115620006cf57620006cf620005c0565b6121c2806200072d6000396000f3fe608060405234801561001057600080fd5b50600436106102bb5760003560e01c806379cc679011610182578063add78ad0116100e9578063dcd8bc41116100a2578063e487709d1161007c578063e487709d14610628578063e927fc5c14610631578063ee84258414610644578063f2fde38b1461064d57600080fd5b8063dcd8bc4114610602578063dd62ed3e1461060b578063e0ea29441461061e57600080fd5b8063add78ad0146105a9578063afa98831146105b2578063b95b43bf146105c5578063c43d8aa6146105cf578063c980270d146105d7578063d2d8ca56146105e057600080fd5b806396b988621161013b57806396b9886214610537578063971f368d146105575780639fb0ca071461056a578063a18b567414610572578063a457c2d714610583578063a9059cbb1461059657600080fd5b806379cc6790146104f25780637e23ecc2146105055780638da5cb5b1461051657806390534f24146103e257806395d89b4114610527578063960524e31461052f57600080fd5b80632d6fa4b2116102265780636c24a76f116101df5780636c24a76f1461046857806370a0823114610490578063715018a6146104b95780637346069d146104c157806373ef8387146104d25780637905e5a8146104df57600080fd5b80632d6fa4b2146103f4578063313ce5671461041d578063395093511461042c57806342966c681461043f5780634498c446146104525780636234ba271461045c57600080fd5b806318160ddd1161027857806318160ddd1461039a57806323b872dd146103a257806327d2f915146103b55780632afcf480146103cd5780632bc73063146103e25780632ca0228a146103eb57600080fd5b806302ce3d67146102c057806306a5cb3a146102dc57806306fdde0314610307578063095ea7b31461031c578063152e84a71461033f57806317defd8f1461034c575b600080fd5b6102c96101f481565b6040519081526020015b60405180910390f35b600e546102ef906001600160a01b031681565b6040516001600160a01b0390911681526020016102d3565b61030f610660565b6040516102d39190611f1a565b61032f61032a366004611f85565b6106f2565b60405190151581526020016102d3565b600c5461032f9060ff1681565b601754601854601954601a5461036e936001600160a01b031692919060ff1684565b604080516001600160a01b039095168552602085019390935291830152151560608201526080016102d3565b6002546102c9565b61032f6103b0366004611faf565b61070c565b600c546102ef9061010090046001600160a01b031681565b6103e06103db366004611feb565b610840565b005b6102c96103e881565b6102c9600a5481565b6102c9610402366004612004565b6001600160a01b031660009081526011602052604090205490565b604051601281526020016102d3565b61032f61043a366004611f85565b610ad2565b6103e061044d366004611feb565b610af4565b6102c962278d0081565b6102c9640757b12c0081565b61047b610476366004612004565b610afe565b604080519283526020830191909152016102d3565b6102c961049e366004612004565b6001600160a01b031660009081526020819052604090205490565b6103e0610b36565b6102c969054b40b1f852bda0000081565b60085461032f9060ff1681565b6103e06104ed36600461201f565b610b4a565b6103e0610500366004611f85565b610b5a565b6102c9690fe1c215e8f838e0000081565b6006546001600160a01b03166102ef565b61030f610b73565b6010546102c9565b6102c9610545366004612004565b60116020526000908152604090205481565b6102c9610565366004612004565b610b82565b6103e0610c1a565b6102c969152d02c7e14af680000081565b61032f610591366004611f85565b611352565b61032f6105a4366004611f85565b6113d8565b6102c96109c481565b600d546102ef906001600160a01b031681565b6102c96203f48081565b6103e06114fc565b6102c9600b5481565b60135460145460155460165461036e936001600160a01b031692919060ff1684565b6102c960075481565b6102c9610619366004612052565b6115c0565b6102c962ed4e0081565b6102c961138881565b600f546102ef906001600160a01b031681565b6102c960095481565b6103e061065b366004612004565b6115eb565b60606003805461066f90612085565b80601f016020809104026020016040519081016040528092919081815260200182805461069b90612085565b80156106e85780601f106106bd576101008083540402835291602001916106e8565b820191906000526020600020905b8154815290600101906020018083116106cb57829003601f168201915b5050505050905090565b600033610700818585611661565b60019150505b92915050565b60006001600160a01b0383166107695760405162461bcd60e51b815260206004820152601f60248201527f45524332303a207472616e7366657220746f207a65726f20616464726573730060448201526064015b60405180910390fd5b600082116107b95760405162461bcd60e51b815260206004820181905260248201527f5472616e7366657220616d6f756e74206d75737420626520706f7369746976656044820152606401610760565b6001600160a01b0384166000908152601260205260409020541561082d576107e18483611785565b61082d5760405162461bcd60e51b815260206004820152601d60248201527f496e73756666696369656e7420756e6c6f636b65642062616c616e63650000006044820152606401610760565b6108388484846117ca565b949350505050565b6108486117e3565b60085460ff166108905760405162461bcd60e51b815260206004820152601360248201527224b73b32b9ba36b2b73a103737ba1037b832b760691b6044820152606401610760565b600b5442106108e15760405162461bcd60e51b815260206004820152601760248201527f496e766573746d656e7420706572696f6420656e6465640000000000000000006044820152606401610760565b6000811161092b5760405162461bcd60e51b8152602060048201526017602482015276416d6f756e74206d75737420626520706f73697469766560481b6044820152606401610760565b600c546040516323b872dd60e01b8152336004820152306024820152604481018390526101009091046001600160a01b0316906323b872dd906064016020604051808303816000875af1158015610986573d6000803e3d6000fd5b505050506040513d601f19601f820116820180604052508101906109aa91906120bf565b6109ec5760405162461bcd60e51b8152602060048201526013602482015272111090c81d1c985b9cd9995c8819985a5b1959606a1b6044820152606401610760565b336000908152601160205260408120549003610a4557601080546001810182556000919091527f1b6847dc741a1b0cd08d278845f9d819d87b734759afb55fe2de5cb82a9ae6720180546001600160a01b031916331790555b33600090815260116020526040902054610a5f908261183c565b33600090815260116020526040902055600954610a7c908261183c565b60095560405181815233907f7135637f5e782b6b2ed97949ee4a45a8c7a56c48f46aa929872aff79109c131a9060200160405180910390a2600b544210610ac557610ac5610c1a565b610acf6001600555565b50565b600033610700818585610ae583836115c0565b610aef91906120f7565b611661565b610acf3382611848565b6001600160a01b0381166000908152602081905260408120549080610b2284610b82565b9050610b2e838261197a565b915050915091565b610b3e611986565b610b4860006119e0565b565b610b55838383611a32565b505050565b610b65823383611c1b565b610b6f8282611848565b5050565b60606004805461066f90612085565b6001600160a01b038116600090815260126020526040812081805b8254811015610c1257828181548110610bb857610bb861210a565b906000526020600020906003020160020154421015610c0a57610c07838281548110610be657610be661210a565b9060005260206000209060030201600101548361183c90919063ffffffff16565b91505b600101610b9d565b509392505050565b60085460ff16610c625760405162461bcd60e51b815260206004820152601360248201527224b73b32b9ba36b2b73a103737ba1037b832b760691b6044820152606401610760565b600b54421015610cb45760405162461bcd60e51b815260206004820152601b60248201527f496e766573746d656e7420706572696f64206e6f7420656e64656400000000006044820152606401610760565b600c5460ff1615610d075760405162461bcd60e51b815260206004820152601a60248201527f546f6b656e7320616c72656164792064697374726962757465640000000000006044820152606401610760565b6008805460ff19908116909155600c8054909116600117905569152d02c7e14af68000006000610d45612710610d3f846103e8611c95565b90611ca1565b90506000610d5b612710610d3f856101f4611c95565b90506000610d71612710610d3f866103e8611c95565b90506000610d87612710610d3f87611388611c95565b90506000610d9d612710610d3f886109c4611c95565b600f54909150610db6906001600160a01b031686611cad565b600f54610dd0906001600160a01b03168662278d00611a32565b600f546040518681526001600160a01b039091169060008051602061216d8339815191529060200160405180910390a2600d54610e16906001600160a01b031685611cad565b600d54610e32906001600160a01b031685640757b12c00611a32565b604080516080810182523080825260208201879052600082840181905260016060909301839052601380546001600160a01b03191690921790915560148790556015556016805460ff19169091179055600d5490516001600160a01b03919091169060008051602061216d83398151915290610eb19087815260200190565b60405180910390a2604080518581526000602082015230917f620f7d92e94f37e846b7a037fa45c886f3ab726b58c6531813825a47ad4eec50910160405180910390a2600e54610f0a906001600160a01b031684611cad565b600e54610f24906001600160a01b03168462ed4e00611a32565b600e546040518481526001600160a01b039091169060008051602061216d8339815191529060200160405180910390a260095460009015611078576000610f6a60095490565b9050600069054b40b1f852bda000008210610f8e5750670de0b6b3a7640000610fb1565b610fae69054b40b1f852bda00000610d3f84670de0b6b3a7640000611c95565b90505b610fc7670de0b6b3a7640000610d3f8684611c95565b925060005b60105481101561107457600060108281548110610feb57610feb61210a565b60009182526020808320909101546009546001600160a01b039091168084526011909252604083205491935061102691610d3f908990611c95565b9050801561106a576110388282611cad565b816001600160a01b031660008051602061216d8339815191528260405161106191815260200190565b60405180910390a25b5050600101610fcc565b5050505b600061108e611087848461197a565b859061183c565b6040805160808101825230808252602080830185905260095483850181905260016060909401849052601780546001600160a01b0319168417905560188690556019819055601a805460ff19169094179093558351858152908101929092529293507f620f7d92e94f37e846b7a037fa45c886f3ab726b58c6531813825a47ad4eec50910160405180910390a260405181815230907f82ab8ae7f98a9010f180c0ad679a83f4fa19c087feb670d62ae653b6961564c09060200160405180910390a269054b40b1f852bda00000600954111561130d5760095460009061119490610d3f670de0b6b3a764000061118e8369054b40b1f852bda0000061197a565b90611c95565b905060005b60105481101561130a576000601082815481106111b8576111b861210a565b60009182526020808320909101546001600160a01b0316808352601190915260408220549092506111f790670de0b6b3a764000090610d3f9087611c95565b9050801561130057600c5460405163a9059cbb60e01b81526001600160a01b038481166004830152602482018490526101009092049091169063a9059cbb906044016020604051808303816000875af1158015611258573d6000803e3d6000fd5b505050506040513d601f19601f8201168201806040525081019061127c91906120bf565b6112bc5760405162461bcd60e51b8152602060048201526011602482015270111090c81c99599d5b990819985a5b1959607a1b6044820152606401610760565b816001600160a01b03167fd9ef5f62eac648c8c4072b06f58431f46ffd893ff1cea2aab8ccde01b557bc19826040516112f791815260200190565b60405180910390a25b5050600101611199565b50505b7fa5312aa2758835a367a1d72034e51ac82b29dee733a5f5eed3a51f6f2f5bc53a60095460405161134091815260200190565b60405180910390a15050505050505050565b6000338161136082866115c0565b9050838110156113c05760405162461bcd60e51b815260206004820152602560248201527f45524332303a2064656372656173656420616c6c6f77616e63652062656c6f77604482015264207a65726f60d81b6064820152608401610760565b6113cd8286868403611661565b506001949350505050565b60006001600160a01b0383166114305760405162461bcd60e51b815260206004820152601f60248201527f45524332303a207472616e7366657220746f207a65726f2061646472657373006044820152606401610760565b600082116114805760405162461bcd60e51b815260206004820181905260248201527f5472616e7366657220616d6f756e74206d75737420626520706f7369746976656044820152606401610760565b33600090815260126020526040902054156114eb5761149f3383611785565b6114eb5760405162461bcd60e51b815260206004820152601d60248201527f496e73756666696369656e7420756e6c6f636b65642062616c616e63650000006044820152606401610760565b6114f58383611d6c565b9392505050565b611504611986565b60085460ff16156115575760405162461bcd60e51b815260206004820152601a60248201527f496e766573746d656e7420616c726561647920737461727465640000000000006044820152606401610760565b42600781905561156b906203f480906120f7565b600b8190556008805460ff191660011790556007546040517f0be3ba938ea6553428c5a838b72ee53805d227fc093444cb9ef98fd0c016be00926115b6928252602082015260400190565b60405180910390a1565b6001600160a01b03918216600090815260016020908152604080832093909416825291909152205490565b6115f3611986565b6001600160a01b0381166116585760405162461bcd60e51b815260206004820152602660248201527f4f776e61626c653a206e6577206f776e657220697320746865207a65726f206160448201526564647265737360d01b6064820152608401610760565b610acf816119e0565b6001600160a01b0383166116c35760405162461bcd60e51b8152602060048201526024808201527f45524332303a20617070726f76652066726f6d20746865207a65726f206164646044820152637265737360e01b6064820152608401610760565b6001600160a01b0382166117245760405162461bcd60e51b815260206004820152602260248201527f45524332303a20617070726f766520746f20746865207a65726f206164647265604482015261737360f01b6064820152608401610760565b6001600160a01b0383811660008181526001602090815260408083209487168084529482529182902085905590518481527f8c5be1e5ebec7d5bd14f71427d1e84f3dd0314c0f7b2291e5b200ac8c7c3b925910160405180910390a3505050565b60008061179184610b82565b905060006117be826117b8876001600160a01b031660009081526020819052604090205490565b9061197a565b90931115949350505050565b6000336117d8858285611c1b565b6113cd858585611d76565b6002600554036118355760405162461bcd60e51b815260206004820152601f60248201527f5265656e7472616e637947756172643a207265656e7472616e742063616c6c006044820152606401610760565b6002600555565b60006114f582846120f7565b6001600160a01b0382166118a85760405162461bcd60e51b815260206004820152602160248201527f45524332303a206275726e2066726f6d20746865207a65726f206164647265736044820152607360f81b6064820152608401610760565b6001600160a01b0382166000908152602081905260409020548181101561191c5760405162461bcd60e51b815260206004820152602260248201527f45524332303a206275726e20616d6f756e7420657863656564732062616c616e604482015261636560f01b6064820152608401610760565b6001600160a01b0383166000818152602081815260408083208686039055600280548790039055518581529192917fddf252ad1be2c89b69c2b068fc378daa952ba7f163c4a11628f55a4df523b3ef910160405180910390a3505050565b60006114f58284612120565b6006546001600160a01b03163314610b485760405162461bcd60e51b815260206004820181905260248201527f4f776e61626c653a2063616c6c6572206973206e6f7420746865206f776e65726044820152606401610760565b600680546001600160a01b038381166001600160a01b0319831681179093556040519116919082907f8be0079c531659141344cd1fd0a4f28419497f9722a3daafe3b4186f6b6457e090600090a35050565b6001600160a01b038316611a7a5760405162461bcd60e51b815260206004820152600f60248201526e496e76616c6964206164647265737360881b6044820152606401610760565b60008211611ac45760405162461bcd60e51b8152602060048201526017602482015276416d6f756e74206d75737420626520706f73697469766560481b6044820152606401610760565b60008111611b145760405162461bcd60e51b815260206004820152601e60248201527f4c6f636b206475726174696f6e206d75737420626520706f73697469766500006044820152606401610760565b6001600160a01b03831660009081526012602052604090208054606411611b755760405162461bcd60e51b8152602060048201526015602482015274546f6f206d616e79206c6f636b20656e747269657360581b6044820152606401610760565b426000611b8284836120f7565b604080516060810182528481526020808201898152828401858152885460018082018b5560008b815285902095516003909202909501908155915193820193909355915160029092019190915581518881529081018390529192506001600160a01b038816917fd741e738a23fd18a03a26522320d9fc6cac1fed483e215ea9150fbc2fc43385d910160405180910390a2505050505050565b6000611c2784846115c0565b90506000198114611c8f5781811015611c825760405162461bcd60e51b815260206004820152601d60248201527f45524332303a20696e73756666696369656e7420616c6c6f77616e63650000006044820152606401610760565b611c8f8484848403611661565b50505050565b60006114f58284612133565b60006114f5828461214a565b6001600160a01b038216611d035760405162461bcd60e51b815260206004820152601f60248201527f45524332303a206d696e7420746f20746865207a65726f2061646472657373006044820152606401610760565b8060026000828254611d1591906120f7565b90915550506001600160a01b038216600081815260208181526040808320805486019055518481527fddf252ad1be2c89b69c2b068fc378daa952ba7f163c4a11628f55a4df523b3ef910160405180910390a35050565b6000336107008185855b6001600160a01b038316611dda5760405162461bcd60e51b815260206004820152602560248201527f45524332303a207472616e736665722066726f6d20746865207a65726f206164604482015264647265737360d81b6064820152608401610760565b6001600160a01b038216611e3c5760405162461bcd60e51b815260206004820152602360248201527f45524332303a207472616e7366657220746f20746865207a65726f206164647260448201526265737360e81b6064820152608401610760565b6001600160a01b03831660009081526020819052604090205481811015611eb45760405162461bcd60e51b815260206004820152602660248201527f45524332303a207472616e7366657220616d6f756e7420657863656564732062604482015265616c616e636560d01b6064820152608401610760565b6001600160a01b03848116600081815260208181526040808320878703905593871680835291849020805487019055925185815290927fddf252ad1be2c89b69c2b068fc378daa952ba7f163c4a11628f55a4df523b3ef910160405180910390a3611c8f565b60006020808352835180602085015260005b81811015611f4857858101830151858201604001528201611f2c565b506000604082860101526040601f19601f8301168501019250505092915050565b80356001600160a01b0381168114611f8057600080fd5b919050565b60008060408385031215611f9857600080fd5b611fa183611f69565b946020939093013593505050565b600080600060608486031215611fc457600080fd5b611fcd84611f69565b9250611fdb60208501611f69565b9150604084013590509250925092565b600060208284031215611ffd57600080fd5b5035919050565b60006020828403121561201657600080fd5b6114f582611f69565b60008060006060848603121561203457600080fd5b61203d84611f69565b95602085013595506040909401359392505050565b6000806040838503121561206557600080fd5b61206e83611f69565b915061207c60208401611f69565b90509250929050565b600181811c9082168061209957607f821691505b6020821081036120b957634e487b7160e01b600052602260045260246000fd5b50919050565b6000602082840312156120d157600080fd5b815180151581146114f557600080fd5b634e487b7160e01b600052601160045260246000fd5b80820180821115610706576107066120e1565b634e487b7160e01b600052603260045260246000fd5b81810381811115610706576107066120e1565b8082028115828204841417610706576107066120e1565b60008261216757634e487b7160e01b600052601260045260246000fd5b50049056fe16b0da2ffcb90c6723317bd637d9aad7f04711f42bbe0ac0918ebe10f1f9001ca2646970667358221220ba4acb177e186eaf4774e5c4e4559da06c375967b7bb63473ab0cb97fcd6e83264736f6c63430008160033","opcodes":"PUSH1 0x80 PUSH1 0x40 MSTORE CALLVALUE DUP1 ISZERO PUSH3 0x11 JUMPI PUSH1 0x0 DUP1 REVERT JUMPDEST POP PUSH1 0x40 MLOAD PUSH3 0x28EF CODESIZE SUB DUP1 PUSH3 0x28EF DUP4 CODECOPY DUP2 ADD PUSH1 0x40 DUP2 SWAP1 MSTORE PUSH3 0x34 SWAP2 PUSH3 0x3E7 JUMP JUMPDEST PUSH1 0x40 MLOAD DUP1 PUSH1 0x40 ADD PUSH1 0x40 MSTORE DUP1 PUSH1 0x9 DUP2 MSTORE PUSH1 0x20 ADD PUSH9 0x2C20A0902A37B5B2B7 PUSH1 0xB9 SHL DUP2 MSTORE POP PUSH1 0x40 MLOAD DUP1 PUSH1 0x40 ADD PUSH1 0x40 MSTORE DUP1 PUSH1 0x3 DUP2 MSTORE PUSH1 0x20 ADD PUSH3 0x584141 PUSH1 0xE8 SHL DUP2 MSTORE POP DUP2 PUSH1 0x3 SWAP1 DUP2 PUSH3 0x83 SWAP2 SWAP1 PUSH3 0x4F4 JUMP JUMPDEST POP PUSH1 0x4 PUSH3 0x92 DUP3 DUP3 PUSH3 0x4F4 JUMP JUMPDEST POP POP PUSH1 0x1 PUSH1 0x5 SSTORE POP PUSH3 0xA5 CALLER PUSH3 0x2B0 JUMP JUMPDEST PUSH1 0x1 PUSH1 0x1 PUSH1 0xA0 SHL SUB DUP5 AND PUSH3 0x101 JUMPI PUSH1 0x40 MLOAD PUSH3 0x461BCD PUSH1 0xE5 SHL DUP2 MSTORE PUSH1 0x20 PUSH1 0x4 DUP3 ADD MSTORE PUSH1 0x19 PUSH1 0x24 DUP3 ADD MSTORE PUSH32 0x496E76616C69642044424320746F6B656E206164647265737300000000000000 PUSH1 0x44 DUP3 ADD MSTORE PUSH1 0x64 ADD JUMPDEST PUSH1 0x40 MLOAD DUP1 SWAP2 SUB SWAP1 REVERT JUMPDEST PUSH1 0x1 PUSH1 0x1 PUSH1 0xA0 SHL SUB DUP4 AND PUSH3 0x159 JUMPI PUSH1 0x40 MLOAD PUSH3 0x461BCD PUSH1 0xE5 SHL DUP2 MSTORE PUSH1 0x20 PUSH1 0x4 DUP3 ADD MSTORE PUSH1 0x18 PUSH1 0x24 DUP3 ADD MSTORE PUSH32 0x496E76616C69642058414120706F6F6C20616464726573730000000000000000 PUSH1 0x44 DUP3 ADD MSTORE PUSH1 0x64 ADD PUSH3 0xF8 JUMP JUMPDEST PUSH1 0x1 PUSH1 0x1 PUSH1 0xA0 SHL SUB DUP3 AND PUSH3 0x1B1 JUMPI PUSH1 0x40 MLOAD PUSH3 0x461BCD PUSH1 0xE5 SHL DUP2 MSTORE PUSH1 0x20 PUSH1 0x4 DUP3 ADD MSTORE PUSH1 0x19 PUSH1 0x24 DUP3 ADD MSTORE PUSH32 0x496E76616C69642065636F73797374656D206164647265737300000000000000 PUSH1 0x44 DUP3 ADD MSTORE PUSH1 0x64 ADD PUSH3 0xF8 JUMP JUMPDEST PUSH1 0x1 PUSH1 0x1 PUSH1 0xA0 SHL SUB DUP2 AND PUSH3 0x209 JUMPI PUSH1 0x40 MLOAD PUSH3 0x461BCD PUSH1 0xE5 SHL DUP2 MSTORE PUSH1 0x20 PUSH1 0x4 DUP3 ADD MSTORE PUSH1 0x17 PUSH1 0x24 DUP3 ADD MSTORE PUSH32 0x496E76616C69642063726561746F722061646472657373000000000000000000 PUSH1 0x44 DUP3 ADD MSTORE PUSH1 0x64 ADD PUSH3 0xF8 JUMP JUMPDEST PUSH1 0xC DUP1 SLOAD PUSH2 0x100 PUSH1 0x1 PUSH1 0xA8 SHL SUB NOT AND PUSH2 0x100 PUSH1 0x1 PUSH1 0x1 PUSH1 0xA0 SHL SUB DUP8 DUP2 AND SWAP2 SWAP1 SWAP2 MUL SWAP2 SWAP1 SWAP2 OR SWAP1 SWAP2 SSTORE PUSH1 0xA DUP7 SWAP1 SSTORE PUSH1 0xD DUP1 SLOAD PUSH1 0x1 PUSH1 0x1 PUSH1 0xA0 SHL SUB NOT SWAP1 DUP2 AND DUP7 DUP5 AND OR SWAP1 SWAP2 SSTORE PUSH1 0xE DUP1 SLOAD DUP3 AND DUP6 DUP5 AND OR SWAP1 SSTORE PUSH1 0xF DUP1 SLOAD SWAP1 SWAP2 AND SWAP2 DUP4 AND SWAP2 SWAP1 SWAP2 OR SWAP1 SSTORE PUSH1 0x8 DUP1 SLOAD PUSH1 0xFF NOT AND SWAP1 SSTORE PUSH3 0x2A5 ADDRESS PUSH3 0x281 PUSH1 0x12 SWAP1 JUMP JUMPDEST PUSH3 0x28E SWAP1 PUSH1 0xA PUSH3 0x6D5 JUMP JUMPDEST PUSH3 0x29F SWAP1 PUSH5 0xE8D4A51000 PUSH3 0x6ED JUMP JUMPDEST PUSH3 0x302 JUMP JUMPDEST POP POP POP POP POP PUSH3 0x71D JUMP JUMPDEST PUSH1 0x6 DUP1 SLOAD PUSH1 0x1 PUSH1 0x1 PUSH1 0xA0 SHL SUB DUP4 DUP2 AND PUSH1 0x1 PUSH1 0x1 PUSH1 0xA0 SHL SUB NOT DUP4 AND DUP2 OR SWAP1 SWAP4 SSTORE PUSH1 0x40 MLOAD SWAP2 AND SWAP2 SWAP1 DUP3 SWAP1 PUSH32 0x8BE0079C531659141344CD1FD0A4F28419497F9722A3DAAFE3B4186F6B6457E0 SWAP1 PUSH1 0x0 SWAP1 LOG3 POP POP JUMP JUMPDEST PUSH1 0x1 PUSH1 0x1 PUSH1 0xA0 SHL SUB DUP3 AND PUSH3 0x35A JUMPI PUSH1 0x40 MLOAD PUSH3 0x461BCD PUSH1 0xE5 SHL DUP2 MSTORE PUSH1 0x20 PUSH1 0x4 DUP3 ADD MSTORE PUSH1 0x1F PUSH1 0x24 DUP3 ADD MSTORE PUSH32 0x45524332303A206D696E7420746F20746865207A65726F206164647265737300 PUSH1 0x44 DUP3 ADD MSTORE PUSH1 0x64 ADD PUSH3 0xF8 JUMP JUMPDEST DUP1 PUSH1 0x2 PUSH1 0x0 DUP3 DUP3 SLOAD PUSH3 0x36E SWAP2 SWAP1 PUSH3 0x707 JUMP JUMPDEST SWAP1 SWAP2 SSTORE POP POP PUSH1 0x1 PUSH1 0x1 PUSH1 0xA0 SHL SUB DUP3 AND PUSH1 0x0 DUP2 DUP2 MSTORE PUSH1 0x20 DUP2 DUP2 MSTORE PUSH1 0x40 DUP1 DUP4 KECCAK256 DUP1 SLOAD DUP7 ADD SWAP1 SSTORE MLOAD DUP5 DUP2 MSTORE PUSH32 0xDDF252AD1BE2C89B69C2B068FC378DAA952BA7F163C4A11628F55A4DF523B3EF SWAP2 ADD PUSH1 0x40 MLOAD DUP1 SWAP2 SUB SWAP1 LOG3 POP POP JUMP JUMPDEST POP POP POP JUMP JUMPDEST DUP1 MLOAD PUSH1 0x1 PUSH1 0x1 PUSH1 0xA0 SHL SUB DUP2 AND DUP2 EQ PUSH3 0x3E2 JUMPI PUSH1 0x0 DUP1 REVERT JUMPDEST SWAP2 SWAP1 POP JUMP JUMPDEST PUSH1 0x0 DUP1 PUSH1 0x0 DUP1 PUSH1 0x0 PUSH1 0xA0 DUP7 DUP9 SUB SLT ISZERO PUSH3 0x400 JUMPI PUSH1 0x0 DUP1 REVERT JUMPDEST DUP6 MLOAD SWAP5 POP PUSH3 0x412 PUSH1 0x20 DUP8 ADD PUSH3 0x3CA JUMP JUMPDEST SWAP4 POP PUSH3 0x422 PUSH1 0x40 DUP8 ADD PUSH3 0x3CA JUMP JUMPDEST SWAP3 POP PUSH3 0x432 PUSH1 0x60 DUP8 ADD PUSH3 0x3CA JUMP JUMPDEST SWAP2 POP PUSH3 0x442 PUSH1 0x80 DUP8 ADD PUSH3 0x3CA JUMP JUMPDEST SWAP1 POP SWAP3 SWAP6 POP SWAP3 SWAP6 SWAP1 SWAP4 POP JUMP JUMPDEST PUSH4 0x4E487B71 PUSH1 0xE0 SHL PUSH1 0x0 MSTORE PUSH1 0x41 PUSH1 0x4 MSTORE PUSH1 0x24 PUSH1 0x0 REVERT JUMPDEST PUSH1 0x1 DUP2 DUP2 SHR SWAP1 DUP3 AND DUP1 PUSH3 0x479 JUMPI PUSH1 0x7F DUP3 AND SWAP2 POP JUMPDEST PUSH1 0x20 DUP3 LT DUP2 SUB PUSH3 0x49A JUMPI PUSH4 0x4E487B71 PUSH1 0xE0 SHL PUSH1 0x0 MSTORE PUSH1 0x22 PUSH1 0x4 MSTORE PUSH1 0x24 PUSH1 0x0 REVERT JUMPDEST POP SWAP2 SWAP1 POP JUMP JUMPDEST PUSH1 0x1F DUP3 GT ISZERO PUSH3 0x3C5 JUMPI PUSH1 0x0 DUP2 PUSH1 0x0 MSTORE PUSH1 0x20 PUSH1 0x0 KECCAK256 PUSH1 0x1F DUP6 ADD PUSH1 0x5 SHR DUP2 ADD PUSH1 0x20 DUP7 LT ISZERO PUSH3 0x4CB JUMPI POP DUP1 JUMPDEST PUSH1 0x1F DUP6 ADD PUSH1 0x5 SHR DUP3 ADD SWAP2 POP JUMPDEST DUP2 DUP2 LT ISZERO PUSH3 0x4EC JUMPI DUP3 DUP2 SSTORE PUSH1 0x1 ADD PUSH3 0x4D7 JUMP JUMPDEST POP POP POP POP POP POP JUMP JUMPDEST DUP2 MLOAD PUSH1 0x1 PUSH1 0x1 PUSH1 0x40 SHL SUB DUP2 GT ISZERO PUSH3 0x510 JUMPI PUSH3 0x510 PUSH3 0x44E JUMP JUMPDEST PUSH3 0x528 DUP2 PUSH3 0x521 DUP5 SLOAD PUSH3 0x464 JUMP JUMPDEST DUP5 PUSH3 0x4A0 JUMP JUMPDEST PUSH1 0x20 DUP1 PUSH1 0x1F DUP4 GT PUSH1 0x1 DUP2 EQ PUSH3 0x560 JUMPI PUSH1 0x0 DUP5 ISZERO PUSH3 0x547 JUMPI POP DUP6 DUP4 ADD MLOAD JUMPDEST PUSH1 0x0 NOT PUSH1 0x3 DUP7 SWAP1 SHL SHR NOT AND PUSH1 0x1 DUP6 SWAP1 SHL OR DUP6 SSTORE PUSH3 0x4EC JUMP JUMPDEST PUSH1 0x0 DUP6 DUP2 MSTORE PUSH1 0x20 DUP2 KECCAK256 PUSH1 0x1F NOT DUP7 AND SWAP2 JUMPDEST DUP3 DUP2 LT ISZERO PUSH3 0x591 JUMPI DUP9 DUP7 ADD MLOAD DUP3 SSTORE SWAP5 DUP5 ADD SWAP5 PUSH1 0x1 SWAP1 SWAP2 ADD SWAP1 DUP5 ADD PUSH3 0x570 JUMP JUMPDEST POP DUP6 DUP3 LT ISZERO PUSH3 0x5B0 JUMPI DUP8 DUP6 ADD MLOAD PUSH1 0x0 NOT PUSH1 0x3 DUP9 SWAP1 SHL PUSH1 0xF8 AND SHR NOT AND DUP2 SSTORE JUMPDEST POP POP POP POP POP PUSH1 0x1 SWAP1 DUP2 SHL ADD SWAP1 SSTORE POP JUMP JUMPDEST PUSH4 0x4E487B71 PUSH1 0xE0 SHL PUSH1 0x0 MSTORE PUSH1 0x11 PUSH1 0x4 MSTORE PUSH1 0x24 PUSH1 0x0 REVERT JUMPDEST PUSH1 0x1 DUP2 DUP2 JUMPDEST DUP1 DUP6 GT ISZERO PUSH3 0x617 JUMPI DUP2 PUSH1 0x0 NOT DIV DUP3 GT ISZERO PUSH3 0x5FB JUMPI PUSH3 0x5FB PUSH3 0x5C0 JUMP JUMPDEST DUP1 DUP6 AND ISZERO PUSH3 0x609 JUMPI SWAP2 DUP2 MUL SWAP2 JUMPDEST SWAP4 DUP5 SHR SWAP4 SWAP1 DUP1 MUL SWAP1 PUSH3 0x5DB JUMP JUMPDEST POP SWAP3 POP SWAP3 SWAP1 POP JUMP JUMPDEST PUSH1 0x0 DUP3 PUSH3 0x630 JUMPI POP PUSH1 0x1 PUSH3 0x6CF JUMP JUMPDEST DUP2 PUSH3 0x63F JUMPI POP PUSH1 0x0 PUSH3 0x6CF JUMP JUMPDEST DUP2 PUSH1 0x1 DUP2 EQ PUSH3 0x658 JUMPI PUSH1 0x2 DUP2 EQ PUSH3 0x663 JUMPI PUSH3 0x683 JUMP JUMPDEST PUSH1 0x1 SWAP2 POP POP PUSH3 0x6CF JUMP JUMPDEST PUSH1 0xFF DUP5 GT ISZERO PUSH3 0x677 JUMPI PUSH3 0x677 PUSH3 0x5C0 JUMP JUMPDEST POP POP PUSH1 0x1 DUP3 SHL PUSH3 0x6CF JUMP JUMPDEST POP PUSH1 0x20 DUP4 LT PUSH2 0x133 DUP4 LT AND PUSH1 0x4E DUP5 LT PUSH1 0xB DUP5 LT AND OR ISZERO PUSH3 0x6A8 JUMPI POP DUP2 DUP2 EXP PUSH3 0x6CF JUMP JUMPDEST PUSH3 0x6B4 DUP4 DUP4 PUSH3 0x5D6 JUMP JUMPDEST DUP1 PUSH1 0x0 NOT DIV DUP3 GT ISZERO PUSH3 0x6CB JUMPI PUSH3 0x6CB PUSH3 0x5C0 JUMP JUMPDEST MUL SWAP1 POP JUMPDEST SWAP3 SWAP2 POP POP JUMP JUMPDEST PUSH1 0x0 PUSH3 0x6E6 PUSH1 0xFF DUP5 AND DUP4 PUSH3 0x61F JUMP JUMPDEST SWAP4 SWAP3 POP POP POP JUMP JUMPDEST DUP1 DUP3 MUL DUP2 ISZERO DUP3 DUP3 DIV DUP5 EQ OR PUSH3 0x6CF JUMPI PUSH3 0x6CF PUSH3 0x5C0 JUMP JUMPDEST DUP1 DUP3 ADD DUP1 DUP3 GT ISZERO PUSH3 0x6CF JUMPI PUSH3 0x6CF PUSH3 0x5C0 JUMP JUMPDEST PUSH2 0x21C2 DUP1 PUSH3 0x72D PUSH1 0x0 CODECOPY PUSH1 0x0 RETURN INVALID PUSH1 0x80 PUSH1 0x40 MSTORE CALLVALUE DUP1 ISZERO PUSH2 0x10 JUMPI PUSH1 0x0 DUP1 REVERT JUMPDEST POP PUSH1 0x4 CALLDATASIZE LT PUSH2 0x2BB JUMPI PUSH1 0x0 CALLDATALOAD PUSH1 0xE0 SHR DUP1 PUSH4 0x79CC6790 GT PUSH2 0x182 JUMPI DUP1 PUSH4 0xADD78AD0 GT PUSH2 0xE9 JUMPI DUP1 PUSH4 0xDCD8BC41 GT PUSH2 0xA2 JUMPI DUP1 PUSH4 0xE487709D GT PUSH2 0x7C JUMPI DUP1 PUSH4 0xE487709D EQ PUSH2 0x628 JUMPI DUP1 PUSH4 0xE927FC5C EQ PUSH2 0x631 JUMPI DUP1 PUSH4 0xEE842584 EQ PUSH2 0x644 JUMPI DUP1 PUSH4 0xF2FDE38B EQ PUSH2 0x64D JUMPI PUSH1 0x0 DUP1 REVERT JUMPDEST DUP1 PUSH4 0xDCD8BC41 EQ PUSH2 0x602 JUMPI DUP1 PUSH4 0xDD62ED3E EQ PUSH2 0x60B JUMPI DUP1 PUSH4 0xE0EA2944 EQ PUSH2 0x61E JUMPI PUSH1 0x0 DUP1 REVERT JUMPDEST DUP1 PUSH4 0xADD78AD0 EQ PUSH2 0x5A9 JUMPI DUP1 PUSH4 0xAFA98831 EQ PUSH2 0x5B2 JUMPI DUP1 PUSH4 0xB95B43BF EQ PUSH2 0x5C5 JUMPI DUP1 PUSH4 0xC43D8AA6 EQ PUSH2 0x5CF JUMPI DUP1 PUSH4 0xC980270D EQ PUSH2 0x5D7 JUMPI DUP1 PUSH4 0xD2D8CA56 EQ PUSH2 0x5E0 JUMPI PUSH1 0x0 DUP1 REVERT JUMPDEST DUP1 PUSH4 0x96B98862 GT PUSH2 0x13B JUMPI DUP1 PUSH4 0x96B98862 EQ PUSH2 0x537 JUMPI DUP1 PUSH4 0x971F368D EQ PUSH2 0x557 JUMPI DUP1 PUSH4 0x9FB0CA07 EQ PUSH2 0x56A JUMPI DUP1 PUSH4 0xA18B5674 EQ PUSH2 0x572 JUMPI DUP1 PUSH4 0xA457C2D7 EQ PUSH2 0x583 JUMPI DUP1 PUSH4 0xA9059CBB EQ PUSH2 0x596 JUMPI PUSH1 0x0 DUP1 REVERT JUMPDEST DUP1 PUSH4 0x79CC6790 EQ PUSH2 0x4F2 JUMPI DUP1 PUSH4 0x7E23ECC2 EQ PUSH2 0x505 JUMPI DUP1 PUSH4 0x8DA5CB5B EQ PUSH2 0x516 JUMPI DUP1 PUSH4 0x90534F24 EQ PUSH2 0x3E2 JUMPI DUP1 PUSH4 0x95D89B41 EQ PUSH2 0x527 JUMPI DUP1 PUSH4 0x960524E3 EQ PUSH2 0x52F JUMPI PUSH1 0x0 DUP1 REVERT JUMPDEST DUP1 PUSH4 0x2D6FA4B2 GT PUSH2 0x226 JUMPI DUP1 PUSH4 0x6C24A76F GT PUSH2 0x1DF JUMPI DUP1 PUSH4 0x6C24A76F EQ PUSH2 0x468 JUMPI DUP1 PUSH4 0x70A08231 EQ PUSH2 0x490 JUMPI DUP1 PUSH4 0x715018A6 EQ PUSH2 0x4B9 JUMPI DUP1 PUSH4 0x7346069D EQ PUSH2 0x4C1 JUMPI DUP1 PUSH4 0x73EF8387 EQ PUSH2 0x4D2 JUMPI DUP1 PUSH4 0x7905E5A8 EQ PUSH2 0x4DF JUMPI PUSH1 0x0 DUP1 REVERT JUMPDEST DUP1 PUSH4 0x2D6FA4B2 EQ PUSH2 0x3F4 JUMPI DUP1 PUSH4 0x313CE567 EQ PUSH2 0x41D JUMPI DUP1 PUSH4 0x39509351 EQ PUSH2 0x42C JUMPI DUP1 PUSH4 0x42966C68 EQ PUSH2 0x43F JUMPI DUP1 PUSH4 0x4498C446 EQ PUSH2 0x452 JUMPI DUP1 PUSH4 0x6234BA27 EQ PUSH2 0x45C JUMPI PUSH1 0x0 DUP1 REVERT JUMPDEST DUP1 PUSH4 0x18160DDD GT PUSH2 0x278 JUMPI DUP1 PUSH4 0x18160DDD EQ PUSH2 0x39A JUMPI DUP1 PUSH4 0x23B872DD EQ PUSH2 0x3A2 JUMPI DUP1 PUSH4 0x27D2F915 EQ PUSH2 0x3B5 JUMPI DUP1 PUSH4 0x2AFCF480 EQ PUSH2 0x3CD JUMPI DUP1 PUSH4 0x2BC73063 EQ PUSH2 0x3E2 JUMPI DUP1 PUSH4 0x2CA0228A EQ PUSH2 0x3EB JUMPI PUSH1 0x0 DUP1 REVERT JUMPDEST DUP1 PUSH4 0x2CE3D67 EQ PUSH2 0x2C0 JUMPI DUP1 PUSH4 0x6A5CB3A EQ PUSH2 0x2DC JUMPI DUP1 PUSH4 0x6FDDE03 EQ PUSH2 0x307 JUMPI DUP1 PUSH4 0x95EA7B3 EQ PUSH2 0x31C JUMPI DUP1 PUSH4 0x152E84A7 EQ PUSH2 0x33F JUMPI DUP1 PUSH4 0x17DEFD8F EQ PUSH2 0x34C JUMPI JUMPDEST PUSH1 0x0 DUP1 REVERT JUMPDEST PUSH2 0x2C9 PUSH2 0x1F4 DUP2 JUMP JUMPDEST PUSH1 0x40 MLOAD SWAP1 DUP2 MSTORE PUSH1 0x20 ADD JUMPDEST PUSH1 0x40 MLOAD DUP1 SWAP2 SUB SWAP1 RETURN JUMPDEST PUSH1 0xE SLOAD PUSH2 0x2EF SWAP1 PUSH1 0x1 PUSH1 0x1 PUSH1 0xA0 SHL SUB AND DUP2 JUMP JUMPDEST PUSH1 0x40 MLOAD PUSH1 0x1 PUSH1 0x1 PUSH1 0xA0 SHL SUB SWAP1 SWAP2 AND DUP2 MSTORE PUSH1 0x20 ADD PUSH2 0x2D3 JUMP JUMPDEST PUSH2 0x30F PUSH2 0x660 JUMP JUMPDEST PUSH1 0x40 MLOAD PUSH2 0x2D3 SWAP2 SWAP1 PUSH2 0x1F1A JUMP JUMPDEST PUSH2 0x32F PUSH2 0x32A CALLDATASIZE PUSH1 0x4 PUSH2 0x1F85 JUMP JUMPDEST PUSH2 0x6F2 JUMP JUMPDEST PUSH1 0x40 MLOAD SWAP1 ISZERO ISZERO DUP2 MSTORE PUSH1 0x20 ADD PUSH2 0x2D3 JUMP JUMPDEST PUSH1 0xC SLOAD PUSH2 0x32F SWAP1 PUSH1 0xFF AND DUP2 JUMP JUMPDEST PUSH1 0x17 SLOAD PUSH1 0x18 SLOAD PUSH1 0x19 SLOAD PUSH1 0x1A SLOAD PUSH2 0x36E SWAP4 PUSH1 0x1 PUSH1 0x1 PUSH1 0xA0 SHL SUB AND SWAP3 SWAP2 SWAP1 PUSH1 0xFF AND DUP5 JUMP JUMPDEST PUSH1 0x40 DUP1 MLOAD PUSH1 0x1 PUSH1 0x1 PUSH1 0xA0 SHL SUB SWAP1 SWAP6 AND DUP6 MSTORE PUSH1 0x20 DUP6 ADD SWAP4 SWAP1 SWAP4 MSTORE SWAP2 DUP4 ADD MSTORE ISZERO ISZERO PUSH1 0x60 DUP3 ADD MSTORE PUSH1 0x80 ADD PUSH2 0x2D3 JUMP JUMPDEST PUSH1 0x2 SLOAD PUSH2 0x2C9 JUMP JUMPDEST PUSH2 0x32F PUSH2 0x3B0 CALLDATASIZE PUSH1 0x4 PUSH2 0x1FAF JUMP JUMPDEST PUSH2 0x70C JUMP JUMPDEST PUSH1 0xC SLOAD PUSH2 0x2EF SWAP1 PUSH2 0x100 SWAP1 DIV PUSH1 0x1 PUSH1 0x1 PUSH1 0xA0 SHL SUB AND DUP2 JUMP JUMPDEST PUSH2 0x3E0 PUSH2 0x3DB CALLDATASIZE PUSH1 0x4 PUSH2 0x1FEB JUMP JUMPDEST PUSH2 0x840 JUMP JUMPDEST STOP JUMPDEST PUSH2 0x2C9 PUSH2 0x3E8 DUP2 JUMP JUMPDEST PUSH2 0x2C9 PUSH1 0xA SLOAD DUP2 JUMP JUMPDEST PUSH2 0x2C9 PUSH2 0x402 CALLDATASIZE PUSH1 0x4 PUSH2 0x2004 JUMP JUMPDEST PUSH1 0x1 PUSH1 0x1 PUSH1 0xA0 SHL SUB AND PUSH1 0x0 SWAP1 DUP2 MSTORE PUSH1 0x11 PUSH1 0x20 MSTORE PUSH1 0x40 SWAP1 KECCAK256 SLOAD SWAP1 JUMP JUMPDEST PUSH1 0x40 MLOAD PUSH1 0x12 DUP2 MSTORE PUSH1 0x20 ADD PUSH2 0x2D3 JUMP JUMPDEST PUSH2 0x32F PUSH2 0x43A CALLDATASIZE PUSH1 0x4 PUSH2 0x1F85 JUMP JUMPDEST PUSH2 0xAD2 JUMP JUMPDEST PUSH2 0x3E0 PUSH2 0x44D CALLDATASIZE PUSH1 0x4 PUSH2 0x1FEB JUMP JUMPDEST PUSH2 0xAF4 JUMP JUMPDEST PUSH2 0x2C9 PUSH3 0x278D00 DUP2 JUMP JUMPDEST PUSH2 0x2C9 PUSH5 0x757B12C00 DUP2 JUMP JUMPDEST PUSH2 0x47B PUSH2 0x476 CALLDATASIZE PUSH1 0x4 PUSH2 0x2004 JUMP JUMPDEST PUSH2 0xAFE JUMP JUMPDEST PUSH1 0x40 DUP1 MLOAD SWAP3 DUP4 MSTORE PUSH1 0x20 DUP4 ADD SWAP2 SWAP1 SWAP2 MSTORE ADD PUSH2 0x2D3 JUMP JUMPDEST PUSH2 0x2C9 PUSH2 0x49E CALLDATASIZE PUSH1 0x4 PUSH2 0x2004 JUMP JUMPDEST PUSH1 0x1 PUSH1 0x1 PUSH1 0xA0 SHL SUB AND PUSH1 0x0 SWAP1 DUP2 MSTORE PUSH1 0x20 DUP2 SWAP1 MSTORE PUSH1 0x40 SWAP1 KECCAK256 SLOAD SWAP1 JUMP JUMPDEST PUSH2 0x3E0 PUSH2 0xB36 JUMP JUMPDEST PUSH2 0x2C9 PUSH10 0x54B40B1F852BDA00000 DUP2 JUMP JUMPDEST PUSH1 0x8 SLOAD PUSH2 0x32F SWAP1 PUSH1 0xFF AND DUP2 JUMP JUMPDEST PUSH2 0x3E0 PUSH2 0x4ED CALLDATASIZE PUSH1 0x4 PUSH2 0x201F JUMP JUMPDEST PUSH2 0xB4A JUMP JUMPDEST PUSH2 0x3E0 PUSH2 0x500 CALLDATASIZE PUSH1 0x4 PUSH2 0x1F85 JUMP JUMPDEST PUSH2 0xB5A JUMP JUMPDEST PUSH2 0x2C9 PUSH10 0xFE1C215E8F838E00000 DUP2 JUMP JUMPDEST PUSH1 0x6 SLOAD PUSH1 0x1 PUSH1 0x1 PUSH1 0xA0 SHL SUB AND PUSH2 0x2EF JUMP JUMPDEST PUSH2 0x30F PUSH2 0xB73 JUMP JUMPDEST PUSH1 0x10 SLOAD PUSH2 0x2C9 JUMP JUMPDEST PUSH2 0x2C9 PUSH2 0x545 CALLDATASIZE PUSH1 0x4 PUSH2 0x2004 JUMP JUMPDEST PUSH1 0x11 PUSH1 0x20 MSTORE PUSH1 0x0 SWAP1 DUP2 MSTORE PUSH1 0x40 SWAP1 KECCAK256 SLOAD DUP2 JUMP JUMPDEST PUSH2 0x2C9 PUSH2 0x565 CALLDATASIZE PUSH1 0x4 PUSH2 0x2004 JUMP JUMPDEST PUSH2 0xB82 JUMP JUMPDEST PUSH2 0x3E0 PUSH2 0xC1A JUMP JUMPDEST PUSH2 0x2C9 PUSH10 0x152D02C7E14AF6800000 DUP2 JUMP JUMPDEST PUSH2 0x32F PUSH2 0x591 CALLDATASIZE PUSH1 0x4 PUSH2 0x1F85 JUMP JUMPDEST PUSH2 0x1352 JUMP JUMPDEST PUSH2 0x32F PUSH2 0x5A4 CALLDATASIZE PUSH1 0x4 PUSH2 0x1F85 JUMP JUMPDEST PUSH2 0x13D8 JUMP JUMPDEST PUSH2 0x2C9 PUSH2 0x9C4 DUP2 JUMP JUMPDEST PUSH1 0xD SLOAD PUSH2 0x2EF SWAP1 PUSH1 0x1 PUSH1 0x1 PUSH1 0xA0 SHL SUB AND DUP2 JUMP JUMPDEST PUSH2 0x2C9 PUSH3 0x3F480 DUP2 JUMP JUMPDEST PUSH2 0x3E0 PUSH2 0x14FC JUMP JUMPDEST PUSH2 0x2C9 PUSH1 0xB SLOAD DUP2 JUMP JUMPDEST PUSH1 0x13 SLOAD PUSH1 0x14 SLOAD PUSH1 0x15 SLOAD PUSH1 0x16 SLOAD PUSH2 0x36E SWAP4 PUSH1 0x1 PUSH1 0x1 PUSH1 0xA0 SHL SUB AND SWAP3 SWAP2 SWAP1 PUSH1 0xFF AND DUP5 JUMP JUMPDEST PUSH2 0x2C9 PUSH1 0x7 SLOAD DUP2 JUMP JUMPDEST PUSH2 0x2C9 PUSH2 0x619 CALLDATASIZE PUSH1 0x4 PUSH2 0x2052 JUMP JUMPDEST PUSH2 0x15C0 JUMP JUMPDEST PUSH2 0x2C9 PUSH3 0xED4E00 DUP2 JUMP JUMPDEST PUSH2 0x2C9 PUSH2 0x1388 DUP2 JUMP JUMPDEST PUSH1 0xF SLOAD PUSH2 0x2EF SWAP1 PUSH1 0x1 PUSH1 0x1 PUSH1 0xA0 SHL SUB AND DUP2 JUMP JUMPDEST PUSH2 0x2C9 PUSH1 0x9 SLOAD DUP2 JUMP JUMPDEST PUSH2 0x3E0 PUSH2 0x65B CALLDATASIZE PUSH1 0x4 PUSH2 0x2004 JUMP JUMPDEST PUSH2 0x15EB JUMP JUMPDEST PUSH1 0x60 PUSH1 0x3 DUP1 SLOAD PUSH2 0x66F SWAP1 PUSH2 0x2085 JUMP JUMPDEST DUP1 PUSH1 0x1F ADD PUSH1 0x20 DUP1 SWAP2 DIV MUL PUSH1 0x20 ADD PUSH1 0x40 MLOAD SWAP1 DUP2 ADD PUSH1 0x40 MSTORE DUP1 SWAP3 SWAP2 SWAP1 DUP2 DUP2 MSTORE PUSH1 0x20 ADD DUP3 DUP1 SLOAD PUSH2 0x69B SWAP1 PUSH2 0x2085 JUMP JUMPDEST DUP1 ISZERO PUSH2 0x6E8 JUMPI DUP1 PUSH1 0x1F LT PUSH2 0x6BD JUMPI PUSH2 0x100 DUP1 DUP4 SLOAD DIV MUL DUP4 MSTORE SWAP2 PUSH1 0x20 ADD SWAP2 PUSH2 0x6E8 JUMP JUMPDEST DUP3 ADD SWAP2 SWAP1 PUSH1 0x0 MSTORE PUSH1 0x20 PUSH1 0x0 KECCAK256 SWAP1 JUMPDEST DUP2 SLOAD DUP2 MSTORE SWAP1 PUSH1 0x1 ADD SWAP1 PUSH1 0x20 ADD DUP1 DUP4 GT PUSH2 0x6CB JUMPI DUP3 SWAP1 SUB PUSH1 0x1F AND DUP3 ADD SWAP2 JUMPDEST POP POP POP POP POP SWAP1 POP SWAP1 JUMP JUMPDEST PUSH1 0x0 CALLER PUSH2 0x700 DUP2 DUP6 DUP6 PUSH2 0x1661 JUMP JUMPDEST PUSH1 0x1 SWAP2 POP POP JUMPDEST SWAP3 SWAP2 POP POP JUMP JUMPDEST PUSH1 0x0 PUSH1 0x1 PUSH1 0x1 PUSH1 0xA0 SHL SUB DUP4 AND PUSH2 0x769 JUMPI PUSH1 0x40 MLOAD PUSH3 0x461BCD PUSH1 0xE5 SHL DUP2 MSTORE PUSH1 0x20 PUSH1 0x4 DUP3 ADD MSTORE PUSH1 0x1F PUSH1 0x24 DUP3 ADD MSTORE PUSH32 0x45524332303A207472616E7366657220746F207A65726F206164647265737300 PUSH1 0x44 DUP3 ADD MSTORE PUSH1 0x64 ADD JUMPDEST PUSH1 0x40 MLOAD DUP1 SWAP2 SUB SWAP1 REVERT JUMPDEST PUSH1 0x0 DUP3 GT PUSH2 0x7B9 JUMPI PUSH1 0x40 MLOAD PUSH3 0x461BCD PUSH1 0xE5 SHL DUP2 MSTORE PUSH1 0x20 PUSH1 0x4 DUP3 ADD DUP2 SWAP1 MSTORE PUSH1 0x24 DUP3 ADD MSTORE PUSH32 0x5472616E7366657220616D6F756E74206D75737420626520706F736974697665 PUSH1 0x44 DUP3 ADD MSTORE PUSH1 0x64 ADD PUSH2 0x760 JUMP JUMPDEST PUSH1 0x1 PUSH1 0x1 PUSH1 0xA0 SHL SUB DUP5 AND PUSH1 0x0 SWAP1 DUP2 MSTORE PUSH1 0x12 PUSH1 0x20 MSTORE PUSH1 0x40 SWAP1 KECCAK256 SLOAD ISZERO PUSH2 0x82D JUMPI PUSH2 0x7E1 DUP5 DUP4 PUSH2 0x1785 JUMP JUMPDEST PUSH2 0x82D JUMPI PUSH1 0x40 MLOAD PUSH3 0x461BCD PUSH1 0xE5 SHL DUP2 MSTORE PUSH1 0x20 PUSH1 0x4 DUP3 ADD MSTORE PUSH1 0x1D PUSH1 0x24 DUP3 ADD MSTORE PUSH32 0x496E73756666696369656E7420756E6C6F636B65642062616C616E6365000000 PUSH1 0x44 DUP3 ADD MSTORE PUSH1 0x64 ADD PUSH2 0x760 JUMP JUMPDEST PUSH2 0x838 DUP5 DUP5 DUP5 PUSH2 0x17CA JUMP JUMPDEST SWAP5 SWAP4 POP POP POP POP JUMP JUMPDEST PUSH2 0x848 PUSH2 0x17E3 JUMP JUMPDEST PUSH1 0x8 SLOAD PUSH1 0xFF AND PUSH2 0x890 JUMPI PUSH1 0x40 MLOAD PUSH3 0x461BCD PUSH1 0xE5 SHL DUP2 MSTORE PUSH1 0x20 PUSH1 0x4 DUP3 ADD MSTORE PUSH1 0x13 PUSH1 0x24 DUP3 ADD MSTORE PUSH19 0x24B73B32B9BA36B2B73A103737BA1037B832B7 PUSH1 0x69 SHL PUSH1 0x44 DUP3 ADD MSTORE PUSH1 0x64 ADD PUSH2 0x760 JUMP JUMPDEST PUSH1 0xB SLOAD TIMESTAMP LT PUSH2 0x8E1 JUMPI PUSH1 0x40 MLOAD PUSH3 0x461BCD PUSH1 0xE5 SHL DUP2 MSTORE PUSH1 0x20 PUSH1 0x4 DUP3 ADD MSTORE PUSH1 0x17 PUSH1 0x24 DUP3 ADD MSTORE PUSH32 0x496E766573746D656E7420706572696F6420656E646564000000000000000000 PUSH1 0x44 DUP3 ADD MSTORE PUSH1 0x64 ADD PUSH2 0x760 JUMP JUMPDEST PUSH1 0x0 DUP2 GT PUSH2 0x92B JUMPI PUSH1 0x40 MLOAD PUSH3 0x461BCD PUSH1 0xE5 SHL DUP2 MSTORE PUSH1 0x20 PUSH1 0x4 DUP3 ADD MSTORE PUSH1 0x17 PUSH1 0x24 DUP3 ADD MSTORE PUSH23 0x416D6F756E74206D75737420626520706F736974697665 PUSH1 0x48 SHL PUSH1 0x44 DUP3 ADD MSTORE PUSH1 0x64 ADD PUSH2 0x760 JUMP JUMPDEST PUSH1 0xC SLOAD PUSH1 0x40 MLOAD PUSH4 0x23B872DD PUSH1 0xE0 SHL DUP2 MSTORE CALLER PUSH1 0x4 DUP3 ADD MSTORE ADDRESS PUSH1 0x24 DUP3 ADD MSTORE PUSH1 0x44 DUP2 ADD DUP4 SWAP1 MSTORE PUSH2 0x100 SWAP1 SWAP2 DIV PUSH1 0x1 PUSH1 0x1 PUSH1 0xA0 SHL SUB AND SWAP1 PUSH4 0x23B872DD SWAP1 PUSH1 0x64 ADD PUSH1 0x20 PUSH1 0x40 MLOAD DUP1 DUP4 SUB DUP2 PUSH1 0x0 DUP8 GAS CALL ISZERO DUP1 ISZERO PUSH2 0x986 JUMPI RETURNDATASIZE PUSH1 0x0 DUP1 RETURNDATACOPY RETURNDATASIZE PUSH1 0x0 REVERT JUMPDEST POP POP POP POP PUSH1 0x40 MLOAD RETURNDATASIZE PUSH1 0x1F NOT PUSH1 0x1F DUP3 ADD AND DUP3 ADD DUP1 PUSH1 0x40 MSTORE POP DUP2 ADD SWAP1 PUSH2 0x9AA SWAP2 SWAP1 PUSH2 0x20BF JUMP JUMPDEST PUSH2 0x9EC JUMPI PUSH1 0x40 MLOAD PUSH3 0x461BCD PUSH1 0xE5 SHL DUP2 MSTORE PUSH1 0x20 PUSH1 0x4 DUP3 ADD MSTORE PUSH1 0x13 PUSH1 0x24 DUP3 ADD MSTORE PUSH19 0x111090C81D1C985B9CD9995C8819985A5B1959 PUSH1 0x6A SHL PUSH1 0x44 DUP3 ADD MSTORE PUSH1 0x64 ADD PUSH2 0x760 JUMP JUMPDEST CALLER PUSH1 0x0 SWAP1 DUP2 MSTORE PUSH1 0x11 PUSH1 0x20 MSTORE PUSH1 0x40 DUP2 KECCAK256 SLOAD SWAP1 SUB PUSH2 0xA45 JUMPI PUSH1 0x10 DUP1 SLOAD PUSH1 0x1 DUP2 ADD DUP3 SSTORE PUSH1 0x0 SWAP2 SWAP1 SWAP2 MSTORE PUSH32 0x1B6847DC741A1B0CD08D278845F9D819D87B734759AFB55FE2DE5CB82A9AE672 ADD DUP1 SLOAD PUSH1 0x1 PUSH1 0x1 PUSH1 0xA0 SHL SUB NOT AND CALLER OR SWAP1 SSTORE JUMPDEST CALLER PUSH1 0x0 SWAP1 DUP2 MSTORE PUSH1 0x11 PUSH1 0x20 MSTORE PUSH1 0x40 SWAP1 KECCAK256 SLOAD PUSH2 0xA5F SWAP1 DUP3 PUSH2 0x183C JUMP JUMPDEST CALLER PUSH1 0x0 SWAP1 DUP2 MSTORE PUSH1 0x11 PUSH1 0x20 MSTORE PUSH1 0x40 SWAP1 KECCAK256 SSTORE PUSH1 0x9 SLOAD PUSH2 0xA7C SWAP1 DUP3 PUSH2 0x183C JUMP JUMPDEST PUSH1 0x9 SSTORE PUSH1 0x40 MLOAD DUP2 DUP2 MSTORE CALLER SWAP1 PUSH32 0x7135637F5E782B6B2ED97949EE4A45A8C7A56C48F46AA929872AFF79109C131A SWAP1 PUSH1 0x20 ADD PUSH1 0x40 MLOAD DUP1 SWAP2 SUB SWAP1 LOG2 PUSH1 0xB SLOAD TIMESTAMP LT PUSH2 0xAC5 JUMPI PUSH2 0xAC5 PUSH2 0xC1A JUMP JUMPDEST PUSH2 0xACF PUSH1 0x1 PUSH1 0x5 SSTORE JUMP JUMPDEST POP JUMP JUMPDEST PUSH1 0x0 CALLER PUSH2 0x700 DUP2 DUP6 DUP6 PUSH2 0xAE5 DUP4 DUP4 PUSH2 0x15C0 JUMP JUMPDEST PUSH2 0xAEF SWAP2 SWAP1 PUSH2 0x20F7 JUMP JUMPDEST PUSH2 0x1661 JUMP JUMPDEST PUSH2 0xACF CALLER DUP3 PUSH2 0x1848 JUMP JUMPDEST PUSH1 0x1 PUSH1 0x1 PUSH1 0xA0 SHL SUB DUP2 AND PUSH1 0x0 SWAP1 DUP2 MSTORE PUSH1 0x20 DUP2 SWAP1 MSTORE PUSH1 0x40 DUP2 KECCAK256 SLOAD SWAP1 DUP1 PUSH2 0xB22 DUP5 PUSH2 0xB82 JUMP JUMPDEST SWAP1 POP PUSH2 0xB2E DUP4 DUP3 PUSH2 0x197A JUMP JUMPDEST SWAP2 POP POP SWAP2 POP SWAP2 JUMP JUMPDEST PUSH2 0xB3E PUSH2 0x1986 JUMP JUMPDEST PUSH2 0xB48 PUSH1 0x0 PUSH2 0x19E0 JUMP JUMPDEST JUMP JUMPDEST PUSH2 0xB55 DUP4 DUP4 DUP4 PUSH2 0x1A32 JUMP JUMPDEST POP POP POP JUMP JUMPDEST PUSH2 0xB65 DUP3 CALLER DUP4 PUSH2 0x1C1B JUMP JUMPDEST PUSH2 0xB6F DUP3 DUP3 PUSH2 0x1848 JUMP JUMPDEST POP POP JUMP JUMPDEST PUSH1 0x60 PUSH1 0x4 DUP1 SLOAD PUSH2 0x66F SWAP1 PUSH2 0x2085 JUMP JUMPDEST PUSH1 0x1 PUSH1 0x1 PUSH1 0xA0 SHL SUB DUP2 AND PUSH1 0x0 SWAP1 DUP2 MSTORE PUSH1 0x12 PUSH1 0x20 MSTORE PUSH1 0x40 DUP2 KECCAK256 DUP2 DUP1 JUMPDEST DUP3 SLOAD DUP2 LT ISZERO PUSH2 0xC12 JUMPI DUP3 DUP2 DUP2 SLOAD DUP2 LT PUSH2 0xBB8 JUMPI PUSH2 0xBB8 PUSH2 0x210A JUMP JUMPDEST SWAP1 PUSH1 0x0 MSTORE PUSH1 0x20 PUSH1 0x0 KECCAK256 SWAP1 PUSH1 0x3 MUL ADD PUSH1 0x2 ADD SLOAD TIMESTAMP LT ISZERO PUSH2 0xC0A JUMPI PUSH2 0xC07 DUP4 DUP3 DUP2 SLOAD DUP2 LT PUSH2 0xBE6 JUMPI PUSH2 0xBE6 PUSH2 0x210A JUMP JUMPDEST SWAP1 PUSH1 0x0 MSTORE PUSH1 0x20 PUSH1 0x0 KECCAK256 SWAP1 PUSH1 0x3 MUL ADD PUSH1 0x1 ADD SLOAD DUP4 PUSH2 0x183C SWAP1 SWAP2 SWAP1 PUSH4 0xFFFFFFFF AND JUMP JUMPDEST SWAP2 POP JUMPDEST PUSH1 0x1 ADD PUSH2 0xB9D JUMP JUMPDEST POP SWAP4 SWAP3 POP POP POP JUMP JUMPDEST PUSH1 0x8 SLOAD PUSH1 0xFF AND PUSH2 0xC62 JUMPI PUSH1 0x40 MLOAD PUSH3 0x461BCD PUSH1 0xE5 SHL DUP2 MSTORE PUSH1 0x20 PUSH1 0x4 DUP3 ADD MSTORE PUSH1 0x13 PUSH1 0x24 DUP3 ADD MSTORE PUSH19 0x24B73B32B9BA36B2B73A103737BA1037B832B7 PUSH1 0x69 SHL PUSH1 0x44 DUP3 ADD MSTORE PUSH1 0x64 ADD PUSH2 0x760 JUMP JUMPDEST PUSH1 0xB SLOAD TIMESTAMP LT ISZERO PUSH2 0xCB4 JUMPI PUSH1 0x40 MLOAD PUSH3 0x461BCD PUSH1 0xE5 SHL DUP2 MSTORE PUSH1 0x20 PUSH1 0x4 DUP3 ADD MSTORE PUSH1 0x1B PUSH1 0x24 DUP3 ADD MSTORE PUSH32 0x496E766573746D656E7420706572696F64206E6F7420656E6465640000000000 PUSH1 0x44 DUP3 ADD MSTORE PUSH1 0x64 ADD PUSH2 0x760 JUMP JUMPDEST PUSH1 0xC SLOAD PUSH1 0xFF AND ISZERO PUSH2 0xD07 JUMPI PUSH1 0x40 MLOAD PUSH3 0x461BCD PUSH1 0xE5 SHL DUP2 MSTORE PUSH1 0x20 PUSH1 0x4 DUP3 ADD MSTORE PUSH1 0x1A PUSH1 0x24 DUP3 ADD MSTORE PUSH32 0x546F6B656E7320616C7265616479206469737472696275746564000000000000 PUSH1 0x44 DUP3 ADD MSTORE PUSH1 0x64 ADD PUSH2 0x760 JUMP JUMPDEST PUSH1 0x8 DUP1 SLOAD PUSH1 0xFF NOT SWAP1 DUP2 AND SWAP1 SWAP2 SSTORE PUSH1 0xC DUP1 SLOAD SWAP1 SWAP2 AND PUSH1 0x1 OR SWAP1 SSTORE PUSH10 0x152D02C7E14AF6800000 PUSH1 0x0 PUSH2 0xD45 PUSH2 0x2710 PUSH2 0xD3F DUP5 PUSH2 0x3E8 PUSH2 0x1C95 JUMP JUMPDEST SWAP1 PUSH2 0x1CA1 JUMP JUMPDEST SWAP1 POP PUSH1 0x0 PUSH2 0xD5B PUSH2 0x2710 PUSH2 0xD3F DUP6 PUSH2 0x1F4 PUSH2 0x1C95 JUMP JUMPDEST SWAP1 POP PUSH1 0x0 PUSH2 0xD71 PUSH2 0x2710 PUSH2 0xD3F DUP7 PUSH2 0x3E8 PUSH2 0x1C95 JUMP JUMPDEST SWAP1 POP PUSH1 0x0 PUSH2 0xD87 PUSH2 0x2710 PUSH2 0xD3F DUP8 PUSH2 0x1388 PUSH2 0x1C95 JUMP JUMPDEST SWAP1 POP PUSH1 0x0 PUSH2 0xD9D PUSH2 0x2710 PUSH2 0xD3F DUP9 PUSH2 0x9C4 PUSH2 0x1C95 JUMP JUMPDEST PUSH1 0xF SLOAD SWAP1 SWAP2 POP PUSH2 0xDB6 SWAP1 PUSH1 0x1 PUSH1 0x1 PUSH1 0xA0 SHL SUB AND DUP7 PUSH2 0x1CAD JUMP JUMPDEST PUSH1 0xF SLOAD PUSH2 0xDD0 SWAP1 PUSH1 0x1 PUSH1 0x1 PUSH1 0xA0 SHL SUB AND DUP7 PUSH3 0x278D00 PUSH2 0x1A32 JUMP JUMPDEST PUSH1 0xF SLOAD PUSH1 0x40 MLOAD DUP7 DUP2 MSTORE PUSH1 0x1 PUSH1 0x1 PUSH1 0xA0 SHL SUB SWAP1 SWAP2 AND SWAP1 PUSH1 0x0 DUP1 MLOAD PUSH1 0x20 PUSH2 0x216D DUP4 CODECOPY DUP2 MLOAD SWAP2 MSTORE SWAP1 PUSH1 0x20 ADD PUSH1 0x40 MLOAD DUP1 SWAP2 SUB SWAP1 LOG2 PUSH1 0xD SLOAD PUSH2 0xE16 SWAP1 PUSH1 0x1 PUSH1 0x1 PUSH1 0xA0 SHL SUB AND DUP6 PUSH2 0x1CAD JUMP JUMPDEST PUSH1 0xD SLOAD PUSH2 0xE32 SWAP1 PUSH1 0x1 PUSH1 0x1 PUSH1 0xA0 SHL SUB AND DUP6 PUSH5 0x757B12C00 PUSH2 0x1A32 JUMP JUMPDEST PUSH1 0x40 DUP1 MLOAD PUSH1 0x80 DUP2 ADD DUP3 MSTORE ADDRESS DUP1 DUP3 MSTORE PUSH1 0x20 DUP3 ADD DUP8 SWAP1 MSTORE PUSH1 0x0 DUP3 DUP5 ADD DUP2 SWAP1 MSTORE PUSH1 0x1 PUSH1 0x60 SWAP1 SWAP4 ADD DUP4 SWAP1 MSTORE PUSH1 0x13 DUP1 SLOAD PUSH1 0x1 PUSH1 0x1 PUSH1 0xA0 SHL SUB NOT AND SWAP1 SWAP3 OR SWAP1 SWAP2 SSTORE PUSH1 0x14 DUP8 SWAP1 SSTORE PUSH1 0x15 SSTORE PUSH1 0x16 DUP1 SLOAD PUSH1 0xFF NOT AND SWAP1 SWAP2 OR SWAP1 SSTORE PUSH1 0xD SLOAD SWAP1 MLOAD PUSH1 0x1 PUSH1 0x1 PUSH1 0xA0 SHL SUB SWAP2 SWAP1 SWAP2 AND SWAP1 PUSH1 0x0 DUP1 MLOAD PUSH1 0x20 PUSH2 0x216D DUP4 CODECOPY DUP2 MLOAD SWAP2 MSTORE SWAP1 PUSH2 0xEB1 SWAP1 DUP8 DUP2 MSTORE PUSH1 0x20 ADD SWAP1 JUMP JUMPDEST PUSH1 0x40 MLOAD DUP1 SWAP2 SUB SWAP1 LOG2 PUSH1 0x40 DUP1 MLOAD DUP6 DUP2 MSTORE PUSH1 0x0 PUSH1 0x20 DUP3 ADD MSTORE ADDRESS SWAP2 PUSH32 0x620F7D92E94F37E846B7A037FA45C886F3AB726B58C6531813825A47AD4EEC50 SWAP2 ADD PUSH1 0x40 MLOAD DUP1 SWAP2 SUB SWAP1 LOG2 PUSH1 0xE SLOAD PUSH2 0xF0A SWAP1 PUSH1 0x1 PUSH1 0x1 PUSH1 0xA0 SHL SUB AND DUP5 PUSH2 0x1CAD JUMP JUMPDEST PUSH1 0xE SLOAD PUSH2 0xF24 SWAP1 PUSH1 0x1 PUSH1 0x1 PUSH1 0xA0 SHL SUB AND DUP5 PUSH3 0xED4E00 PUSH2 0x1A32 JUMP JUMPDEST PUSH1 0xE SLOAD PUSH1 0x40 MLOAD DUP5 DUP2 MSTORE PUSH1 0x1 PUSH1 0x1 PUSH1 0xA0 SHL SUB SWAP1 SWAP2 AND SWAP1 PUSH1 0x0 DUP1 MLOAD PUSH1 0x20 PUSH2 0x216D DUP4 CODECOPY DUP2 MLOAD SWAP2 MSTORE SWAP1 PUSH1 0x20 ADD PUSH1 0x40 MLOAD DUP1 SWAP2 SUB SWAP1 LOG2 PUSH1 0x9 SLOAD PUSH1 0x0 SWAP1 ISZERO PUSH2 0x1078 JUMPI PUSH1 0x0 PUSH2 0xF6A PUSH1 0x9 SLOAD SWAP1 JUMP JUMPDEST SWAP1 POP PUSH1 0x0 PUSH10 0x54B40B1F852BDA00000 DUP3 LT PUSH2 0xF8E JUMPI POP PUSH8 0xDE0B6B3A7640000 PUSH2 0xFB1 JUMP JUMPDEST PUSH2 0xFAE PUSH10 0x54B40B1F852BDA00000 PUSH2 0xD3F DUP5 PUSH8 0xDE0B6B3A7640000 PUSH2 0x1C95 JUMP JUMPDEST SWAP1 POP JUMPDEST PUSH2 0xFC7 PUSH8 0xDE0B6B3A7640000 PUSH2 0xD3F DUP7 DUP5 PUSH2 0x1C95 JUMP JUMPDEST SWAP3 POP PUSH1 0x0 JUMPDEST PUSH1 0x10 SLOAD DUP2 LT ISZERO PUSH2 0x1074 JUMPI PUSH1 0x0 PUSH1 0x10 DUP3 DUP2 SLOAD DUP2 LT PUSH2 0xFEB JUMPI PUSH2 0xFEB PUSH2 0x210A JUMP JUMPDEST PUSH1 0x0 SWAP2 DUP3 MSTORE PUSH1 0x20 DUP1 DUP4 KECCAK256 SWAP1 SWAP2 ADD SLOAD PUSH1 0x9 SLOAD PUSH1 0x1 PUSH1 0x1 PUSH1 0xA0 SHL SUB SWAP1 SWAP2 AND DUP1 DUP5 MSTORE PUSH1 0x11 SWAP1 SWAP3 MSTORE PUSH1 0x40 DUP4 KECCAK256 SLOAD SWAP2 SWAP4 POP PUSH2 0x1026 SWAP2 PUSH2 0xD3F SWAP1 DUP10 SWAP1 PUSH2 0x1C95 JUMP JUMPDEST SWAP1 POP DUP1 ISZERO PUSH2 0x106A JUMPI PUSH2 0x1038 DUP3 DUP3 PUSH2 0x1CAD JUMP JUMPDEST DUP2 PUSH1 0x1 PUSH1 0x1 PUSH1 0xA0 SHL SUB AND PUSH1 0x0 DUP1 MLOAD PUSH1 0x20 PUSH2 0x216D DUP4 CODECOPY DUP2 MLOAD SWAP2 MSTORE DUP3 PUSH1 0x40 MLOAD PUSH2 0x1061 SWAP2 DUP2 MSTORE PUSH1 0x20 ADD SWAP1 JUMP JUMPDEST PUSH1 0x40 MLOAD DUP1 SWAP2 SUB SWAP1 LOG2 JUMPDEST POP POP PUSH1 0x1 ADD PUSH2 0xFCC JUMP JUMPDEST POP POP POP JUMPDEST PUSH1 0x0 PUSH2 0x108E PUSH2 0x1087 DUP5 DUP5 PUSH2 0x197A JUMP JUMPDEST DUP6 SWAP1 PUSH2 0x183C JUMP JUMPDEST PUSH1 0x40 DUP1 MLOAD PUSH1 0x80 DUP2 ADD DUP3 MSTORE ADDRESS DUP1 DUP3 MSTORE PUSH1 0x20 DUP1 DUP4 ADD DUP6 SWAP1 MSTORE PUSH1 0x9 SLOAD DUP4 DUP6 ADD DUP2 SWAP1 MSTORE PUSH1 0x1 PUSH1 0x60 SWAP1 SWAP5 ADD DUP5 SWAP1 MSTORE PUSH1 0x17 DUP1 SLOAD PUSH1 0x1 PUSH1 0x1 PUSH1 0xA0 SHL SUB NOT AND DUP5 OR SWAP1 SSTORE PUSH1 0x18 DUP7 SWAP1 SSTORE PUSH1 0x19 DUP2 SWAP1 SSTORE PUSH1 0x1A DUP1 SLOAD PUSH1 0xFF NOT AND SWAP1 SWAP5 OR SWAP1 SWAP4 SSTORE DUP4 MLOAD DUP6 DUP2 MSTORE SWAP1 DUP2 ADD SWAP3 SWAP1 SWAP3 MSTORE SWAP3 SWAP4 POP PUSH32 0x620F7D92E94F37E846B7A037FA45C886F3AB726B58C6531813825A47AD4EEC50 SWAP2 ADD PUSH1 0x40 MLOAD DUP1 SWAP2 SUB SWAP1 LOG2 PUSH1 0x40 MLOAD DUP2 DUP2 MSTORE ADDRESS SWAP1 PUSH32 0x82AB8AE7F98A9010F180C0AD679A83F4FA19C087FEB670D62AE653B6961564C0 SWAP1 PUSH1 0x20 ADD PUSH1 0x40 MLOAD DUP1 SWAP2 SUB SWAP1 LOG2 PUSH10 0x54B40B1F852BDA00000 PUSH1 0x9 SLOAD GT ISZERO PUSH2 0x130D JUMPI PUSH1 0x9 SLOAD PUSH1 0x0 SWAP1 PUSH2 0x1194 SWAP1 PUSH2 0xD3F PUSH8 0xDE0B6B3A7640000 PUSH2 0x118E DUP4 PUSH10 0x54B40B1F852BDA00000 PUSH2 0x197A JUMP JUMPDEST SWAP1 PUSH2 0x1C95 JUMP JUMPDEST SWAP1 POP PUSH1 0x0 JUMPDEST PUSH1 0x10 SLOAD DUP2 LT ISZERO PUSH2 0x130A JUMPI PUSH1 0x0 PUSH1 0x10 DUP3 DUP2 SLOAD DUP2 LT PUSH2 0x11B8 JUMPI PUSH2 0x11B8 PUSH2 0x210A JUMP JUMPDEST PUSH1 0x0 SWAP2 DUP3 MSTORE PUSH1 0x20 DUP1 DUP4 KECCAK256 SWAP1 SWAP2 ADD SLOAD PUSH1 0x1 PUSH1 0x1 PUSH1 0xA0 SHL SUB AND DUP1 DUP4 MSTORE PUSH1 0x11 SWAP1 SWAP2 MSTORE PUSH1 0x40 DUP3 KECCAK256 SLOAD SWAP1 SWAP3 POP PUSH2 0x11F7 SWAP1 PUSH8 0xDE0B6B3A7640000 SWAP1 PUSH2 0xD3F SWAP1 DUP8 PUSH2 0x1C95 JUMP JUMPDEST SWAP1 POP DUP1 ISZERO PUSH2 0x1300 JUMPI PUSH1 0xC SLOAD PUSH1 0x40 MLOAD PUSH4 0xA9059CBB PUSH1 0xE0 SHL DUP2 MSTORE PUSH1 0x1 PUSH1 0x1 PUSH1 0xA0 SHL SUB DUP5 DUP2 AND PUSH1 0x4 DUP4 ADD MSTORE PUSH1 0x24 DUP3 ADD DUP5 SWAP1 MSTORE PUSH2 0x100 SWAP1 SWAP3 DIV SWAP1 SWAP2 AND SWAP1 PUSH4 0xA9059CBB SWAP1 PUSH1 0x44 ADD PUSH1 0x20 PUSH1 0x40 MLOAD DUP1 DUP4 SUB DUP2 PUSH1 0x0 DUP8 GAS CALL ISZERO DUP1 ISZERO PUSH2 0x1258 JUMPI RETURNDATASIZE PUSH1 0x0 DUP1 RETURNDATACOPY RETURNDATASIZE PUSH1 0x0 REVERT JUMPDEST POP POP POP POP PUSH1 0x40 MLOAD RETURNDATASIZE PUSH1 0x1F NOT PUSH1 0x1F DUP3 ADD AND DUP3 ADD DUP1 PUSH1 0x40 MSTORE POP DUP2 ADD SWAP1 PUSH2 0x127C SWAP2 SWAP1 PUSH2 0x20BF JUMP JUMPDEST PUSH2 0x12BC JUMPI PUSH1 0x40 MLOAD PUSH3 0x461BCD PUSH1 0xE5 SHL DUP2 MSTORE PUSH1 0x20 PUSH1 0x4 DUP3 ADD MSTORE PUSH1 0x11 PUSH1 0x24 DUP3 ADD MSTORE PUSH17 0x111090C81C99599D5B990819985A5B1959 PUSH1 0x7A SHL PUSH1 0x44 DUP3 ADD MSTORE PUSH1 0x64 ADD PUSH2 0x760 JUMP JUMPDEST DUP2 PUSH1 0x1 PUSH1 0x1 PUSH1 0xA0 SHL SUB AND PUSH32 0xD9EF5F62EAC648C8C4072B06F58431F46FFD893FF1CEA2AAB8CCDE01B557BC19 DUP3 PUSH1 0x40 MLOAD PUSH2 0x12F7 SWAP2 DUP2 MSTORE PUSH1 0x20 ADD SWAP1 JUMP JUMPDEST PUSH1 0x40 MLOAD DUP1 SWAP2 SUB SWAP1 LOG2 JUMPDEST POP POP PUSH1 0x1 ADD PUSH2 0x1199 JUMP JUMPDEST POP POP JUMPDEST PUSH32 0xA5312AA2758835A367A1D72034E51AC82B29DEE733A5F5EED3A51F6F2F5BC53A PUSH1 0x9 SLOAD PUSH1 0x40 MLOAD PUSH2 0x1340 SWAP2 DUP2 MSTORE PUSH1 0x20 ADD SWAP1 JUMP JUMPDEST PUSH1 0x40 MLOAD DUP1 SWAP2 SUB SWAP1 LOG1 POP POP POP POP POP POP POP POP JUMP JUMPDEST PUSH1 0x0 CALLER DUP2 PUSH2 0x1360 DUP3 DUP7 PUSH2 0x15C0 JUMP JUMPDEST SWAP1 POP DUP4 DUP2 LT ISZERO PUSH2 0x13C0 JUMPI PUSH1 0x40 MLOAD PUSH3 0x461BCD PUSH1 0xE5 SHL DUP2 MSTORE PUSH1 0x20 PUSH1 0x4 DUP3 ADD MSTORE PUSH1 0x25 PUSH1 0x24 DUP3 ADD MSTORE PUSH32 0x45524332303A2064656372656173656420616C6C6F77616E63652062656C6F77 PUSH1 0x44 DUP3 ADD MSTORE PUSH5 0x207A65726F PUSH1 0xD8 SHL PUSH1 0x64 DUP3 ADD MSTORE PUSH1 0x84 ADD PUSH2 0x760 JUMP JUMPDEST PUSH2 0x13CD DUP3 DUP7 DUP7 DUP5 SUB PUSH2 0x1661 JUMP JUMPDEST POP PUSH1 0x1 SWAP5 SWAP4 POP POP POP POP JUMP JUMPDEST PUSH1 0x0 PUSH1 0x1 PUSH1 0x1 PUSH1 0xA0 SHL SUB DUP4 AND PUSH2 0x1430 JUMPI PUSH1 0x40 MLOAD PUSH3 0x461BCD PUSH1 0xE5 SHL DUP2 MSTORE PUSH1 0x20 PUSH1 0x4 DUP3 ADD MSTORE PUSH1 0x1F PUSH1 0x24 DUP3 ADD MSTORE PUSH32 0x45524332303A207472616E7366657220746F207A65726F206164647265737300 PUSH1 0x44 DUP3 ADD MSTORE PUSH1 0x64 ADD PUSH2 0x760 JUMP JUMPDEST PUSH1 0x0 DUP3 GT PUSH2 0x1480 JUMPI PUSH1 0x40 MLOAD PUSH3 0x461BCD PUSH1 0xE5 SHL DUP2 MSTORE PUSH1 0x20 PUSH1 0x4 DUP3 ADD DUP2 SWAP1 MSTORE PUSH1 0x24 DUP3 ADD MSTORE PUSH32 0x5472616E7366657220616D6F756E74206D75737420626520706F736974697665 PUSH1 0x44 DUP3 ADD MSTORE PUSH1 0x64 ADD PUSH2 0x760 JUMP JUMPDEST CALLER PUSH1 0x0 SWAP1 DUP2 MSTORE PUSH1 0x12 PUSH1 0x20 MSTORE PUSH1 0x40 SWAP1 KECCAK256 SLOAD ISZERO PUSH2 0x14EB JUMPI PUSH2 0x149F CALLER DUP4 PUSH2 0x1785 JUMP JUMPDEST PUSH2 0x14EB JUMPI PUSH1 0x40 MLOAD PUSH3 0x461BCD PUSH1 0xE5 SHL DUP2 MSTORE PUSH1 0x20 PUSH1 0x4 DUP3 ADD MSTORE PUSH1 0x1D PUSH1 0x24 DUP3 ADD MSTORE PUSH32 0x496E73756666696369656E7420756E6C6F636B65642062616C616E6365000000 PUSH1 0x44 DUP3 ADD MSTORE PUSH1 0x64 ADD PUSH2 0x760 JUMP JUMPDEST PUSH2 0x14F5 DUP4 DUP4 PUSH2 0x1D6C JUMP JUMPDEST SWAP4 SWAP3 POP POP POP JUMP JUMPDEST PUSH2 0x1504 PUSH2 0x1986 JUMP JUMPDEST PUSH1 0x8 SLOAD PUSH1 0xFF AND ISZERO PUSH2 0x1557 JUMPI PUSH1 0x40 MLOAD PUSH3 0x461BCD PUSH1 0xE5 SHL DUP2 MSTORE PUSH1 0x20 PUSH1 0x4 DUP3 ADD MSTORE PUSH1 0x1A PUSH1 0x24 DUP3 ADD MSTORE PUSH32 0x496E766573746D656E7420616C72656164792073746172746564000000000000 PUSH1 0x44 DUP3 ADD MSTORE PUSH1 0x64 ADD PUSH2 0x760 JUMP JUMPDEST TIMESTAMP PUSH1 0x7 DUP2 SWAP1 SSTORE PUSH2 0x156B SWAP1 PUSH3 0x3F480 SWAP1 PUSH2 0x20F7 JUMP JUMPDEST PUSH1 0xB DUP2 SWAP1 SSTORE PUSH1 0x8 DUP1 SLOAD PUSH1 0xFF NOT AND PUSH1 0x1 OR SWAP1 SSTORE PUSH1 0x7 SLOAD PUSH1 0x40 MLOAD PUSH32 0xBE3BA938EA6553428C5A838B72EE53805D227FC093444CB9EF98FD0C016BE00 SWAP3 PUSH2 0x15B6 SWAP3 DUP3 MSTORE PUSH1 0x20 DUP3 ADD MSTORE PUSH1 0x40 ADD SWAP1 JUMP JUMPDEST PUSH1 0x40 MLOAD DUP1 SWAP2 SUB SWAP1 LOG1 JUMP JUMPDEST PUSH1 0x1 PUSH1 0x1 PUSH1 0xA0 SHL SUB SWAP2 DUP3 AND PUSH1 0x0 SWAP1 DUP2 MSTORE PUSH1 0x1 PUSH1 0x20 SWAP1 DUP2 MSTORE PUSH1 0x40 DUP1 DUP4 KECCAK256 SWAP4 SWAP1 SWAP5 AND DUP3 MSTORE SWAP2 SWAP1 SWAP2 MSTORE KECCAK256 SLOAD SWAP1 JUMP JUMPDEST PUSH2 0x15F3 PUSH2 0x1986 JUMP JUMPDEST PUSH1 0x1 PUSH1 0x1 PUSH1 0xA0 SHL SUB DUP2 AND PUSH2 0x1658 JUMPI PUSH1 0x40 MLOAD PUSH3 0x461BCD PUSH1 0xE5 SHL DUP2 MSTORE PUSH1 0x20 PUSH1 0x4 DUP3 ADD MSTORE PUSH1 0x26 PUSH1 0x24 DUP3 ADD MSTORE PUSH32 0x4F776E61626C653A206E6577206F776E657220697320746865207A65726F2061 PUSH1 0x44 DUP3 ADD MSTORE PUSH6 0x646472657373 PUSH1 0xD0 SHL PUSH1 0x64 DUP3 ADD MSTORE PUSH1 0x84 ADD PUSH2 0x760 JUMP JUMPDEST PUSH2 0xACF DUP2 PUSH2 0x19E0 JUMP JUMPDEST PUSH1 0x1 PUSH1 0x1 PUSH1 0xA0 SHL SUB DUP4 AND PUSH2 0x16C3 JUMPI PUSH1 0x40 MLOAD PUSH3 0x461BCD PUSH1 0xE5 SHL DUP2 MSTORE PUSH1 0x20 PUSH1 0x4 DUP3 ADD MSTORE PUSH1 0x24 DUP1 DUP3 ADD MSTORE PUSH32 0x45524332303A20617070726F76652066726F6D20746865207A65726F20616464 PUSH1 0x44 DUP3 ADD MSTORE PUSH4 0x72657373 PUSH1 0xE0 SHL PUSH1 0x64 DUP3 ADD MSTORE PUSH1 0x84 ADD PUSH2 0x760 JUMP JUMPDEST PUSH1 0x1 PUSH1 0x1 PUSH1 0xA0 SHL SUB DUP3 AND PUSH2 0x1724 JUMPI PUSH1 0x40 MLOAD PUSH3 0x461BCD PUSH1 0xE5 SHL DUP2 MSTORE PUSH1 0x20 PUSH1 0x4 DUP3 ADD MSTORE PUSH1 0x22 PUSH1 0x24 DUP3 ADD MSTORE PUSH32 0x45524332303A20617070726F766520746F20746865207A65726F206164647265 PUSH1 0x44 DUP3 ADD MSTORE PUSH2 0x7373 PUSH1 0xF0 SHL PUSH1 0x64 DUP3 ADD MSTORE PUSH1 0x84 ADD PUSH2 0x760 JUMP JUMPDEST PUSH1 0x1 PUSH1 0x1 PUSH1 0xA0 SHL SUB DUP4 DUP2 AND PUSH1 0x0 DUP2 DUP2 MSTORE PUSH1 0x1 PUSH1 0x20 SWAP1 DUP2 MSTORE PUSH1 0x40 DUP1 DUP4 KECCAK256 SWAP5 DUP8 AND DUP1 DUP5 MSTORE SWAP5 DUP3 MSTORE SWAP2 DUP3 SWAP1 KECCAK256 DUP6 SWAP1 SSTORE SWAP1 MLOAD DUP5 DUP2 MSTORE PUSH32 0x8C5BE1E5EBEC7D5BD14F71427D1E84F3DD0314C0F7B2291E5B200AC8C7C3B925 SWAP2 ADD PUSH1 0x40 MLOAD DUP1 SWAP2 SUB SWAP1 LOG3 POP POP POP JUMP JUMPDEST PUSH1 0x0 DUP1 PUSH2 0x1791 DUP5 PUSH2 0xB82 JUMP JUMPDEST SWAP1 POP PUSH1 0x0 PUSH2 0x17BE DUP3 PUSH2 0x17B8 DUP8 PUSH1 0x1 PUSH1 0x1 PUSH1 0xA0 SHL SUB AND PUSH1 0x0 SWAP1 DUP2 MSTORE PUSH1 0x20 DUP2 SWAP1 MSTORE PUSH1 0x40 SWAP1 KECCAK256 SLOAD SWAP1 JUMP JUMPDEST SWAP1 PUSH2 0x197A JUMP JUMPDEST SWAP1 SWAP4 GT ISZERO SWAP5 SWAP4 POP POP POP POP JUMP JUMPDEST PUSH1 0x0 CALLER PUSH2 0x17D8 DUP6 DUP3 DUP6 PUSH2 0x1C1B JUMP JUMPDEST PUSH2 0x13CD DUP6 DUP6 DUP6 PUSH2 0x1D76 JUMP JUMPDEST PUSH1 0x2 PUSH1 0x5 SLOAD SUB PUSH2 0x1835 JUMPI PUSH1 0x40 MLOAD PUSH3 0x461BCD PUSH1 0xE5 SHL DUP2 MSTORE PUSH1 0x20 PUSH1 0x4 DUP3 ADD MSTORE PUSH1 0x1F PUSH1 0x24 DUP3 ADD MSTORE PUSH32 0x5265656E7472616E637947756172643A207265656E7472616E742063616C6C00 PUSH1 0x44 DUP3 ADD MSTORE PUSH1 0x64 ADD PUSH2 0x760 JUMP JUMPDEST PUSH1 0x2 PUSH1 0x5 SSTORE JUMP JUMPDEST PUSH1 0x0 PUSH2 0x14F5 DUP3 DUP5 PUSH2 0x20F7 JUMP JUMPDEST PUSH1 0x1 PUSH1 0x1 PUSH1 0xA0 SHL SUB DUP3 AND PUSH2 0x18A8 JUMPI PUSH1 0x40 MLOAD PUSH3 0x461BCD PUSH1 0xE5 SHL DUP2 MSTORE PUSH1 0x20 PUSH1 0x4 DUP3 ADD MSTORE PUSH1 0x21 PUSH1 0x24 DUP3 ADD MSTORE PUSH32 0x45524332303A206275726E2066726F6D20746865207A65726F20616464726573 PUSH1 0x44 DUP3 ADD MSTORE PUSH1 0x73 PUSH1 0xF8 SHL PUSH1 0x64 DUP3 ADD MSTORE PUSH1 0x84 ADD PUSH2 0x760 JUMP JUMPDEST PUSH1 0x1 PUSH1 0x1 PUSH1 0xA0 SHL SUB DUP3 AND PUSH1 0x0 SWAP1 DUP2 MSTORE PUSH1 0x20 DUP2 SWAP1 MSTORE PUSH1 0x40 SWAP1 KECCAK256 SLOAD DUP2 DUP2 LT ISZERO PUSH2 0x191C JUMPI PUSH1 0x40 MLOAD PUSH3 0x461BCD PUSH1 0xE5 SHL DUP2 MSTORE PUSH1 0x20 PUSH1 0x4 DUP3 ADD MSTORE PUSH1 0x22 PUSH1 0x24 DUP3 ADD MSTORE PUSH32 0x45524332303A206275726E20616D6F756E7420657863656564732062616C616E PUSH1 0x44 DUP3 ADD MSTORE PUSH2 0x6365 PUSH1 0xF0 SHL PUSH1 0x64 DUP3 ADD MSTORE PUSH1 0x84 ADD PUSH2 0x760 JUMP JUMPDEST PUSH1 0x1 PUSH1 0x1 PUSH1 0xA0 SHL SUB DUP4 AND PUSH1 0x0 DUP2 DUP2 MSTORE PUSH1 0x20 DUP2 DUP2 MSTORE PUSH1 0x40 DUP1 DUP4 KECCAK256 DUP7 DUP7 SUB SWAP1 SSTORE PUSH1 0x2 DUP1 SLOAD DUP8 SWAP1 SUB SWAP1 SSTORE MLOAD DUP6 DUP2 MSTORE SWAP2 SWAP3 SWAP2 PUSH32 0xDDF252AD1BE2C89B69C2B068FC378DAA952BA7F163C4A11628F55A4DF523B3EF SWAP2 ADD PUSH1 0x40 MLOAD DUP1 SWAP2 SUB SWAP1 LOG3 POP POP POP JUMP JUMPDEST PUSH1 0x0 PUSH2 0x14F5 DUP3 DUP5 PUSH2 0x2120 JUMP JUMPDEST PUSH1 0x6 SLOAD PUSH1 0x1 PUSH1 0x1 PUSH1 0xA0 SHL SUB AND CALLER EQ PUSH2 0xB48 JUMPI PUSH1 0x40 MLOAD PUSH3 0x461BCD PUSH1 0xE5 SHL DUP2 MSTORE PUSH1 0x20 PUSH1 0x4 DUP3 ADD DUP2 SWAP1 MSTORE PUSH1 0x24 DUP3 ADD MSTORE PUSH32 0x4F776E61626C653A2063616C6C6572206973206E6F7420746865206F776E6572 PUSH1 0x44 DUP3 ADD MSTORE PUSH1 0x64 ADD PUSH2 0x760 JUMP JUMPDEST PUSH1 0x6 DUP1 SLOAD PUSH1 0x1 PUSH1 0x1 PUSH1 0xA0 SHL SUB DUP4 DUP2 AND PUSH1 0x1 PUSH1 0x1 PUSH1 0xA0 SHL SUB NOT DUP4 AND DUP2 OR SWAP1 SWAP4 SSTORE PUSH1 0x40 MLOAD SWAP2 AND SWAP2 SWAP1 DUP3 SWAP1 PUSH32 0x8BE0079C531659141344CD1FD0A4F28419497F9722A3DAAFE3B4186F6B6457E0 SWAP1 PUSH1 0x0 SWAP1 LOG3 POP POP JUMP JUMPDEST PUSH1 0x1 PUSH1 0x1 PUSH1 0xA0 SHL SUB DUP4 AND PUSH2 0x1A7A JUMPI PUSH1 0x40 MLOAD PUSH3 0x461BCD PUSH1 0xE5 SHL DUP2 MSTORE PUSH1 0x20 PUSH1 0x4 DUP3 ADD MSTORE PUSH1 0xF PUSH1 0x24 DUP3 ADD MSTORE PUSH15 0x496E76616C69642061646472657373 PUSH1 0x88 SHL PUSH1 0x44 DUP3 ADD MSTORE PUSH1 0x64 ADD PUSH2 0x760 JUMP JUMPDEST PUSH1 0x0 DUP3 GT PUSH2 0x1AC4 JUMPI PUSH1 0x40 MLOAD PUSH3 0x461BCD PUSH1 0xE5 SHL DUP2 MSTORE PUSH1 0x20 PUSH1 0x4 DUP3 ADD MSTORE PUSH1 0x17 PUSH1 0x24 DUP3 ADD MSTORE PUSH23 0x416D6F756E74206D75737420626520706F736974697665 PUSH1 0x48 SHL PUSH1 0x44 DUP3 ADD MSTORE PUSH1 0x64 ADD PUSH2 0x760 JUMP JUMPDEST PUSH1 0x0 DUP2 GT PUSH2 0x1B14 JUMPI PUSH1 0x40 MLOAD PUSH3 0x461BCD PUSH1 0xE5 SHL DUP2 MSTORE PUSH1 0x20 PUSH1 0x4 DUP3 ADD MSTORE PUSH1 0x1E PUSH1 0x24 DUP3 ADD MSTORE PUSH32 0x4C6F636B206475726174696F6E206D75737420626520706F7369746976650000 PUSH1 0x44 DUP3 ADD MSTORE PUSH1 0x64 ADD PUSH2 0x760 JUMP JUMPDEST PUSH1 0x1 PUSH1 0x1 PUSH1 0xA0 SHL SUB DUP4 AND PUSH1 0x0 SWAP1 DUP2 MSTORE PUSH1 0x12 PUSH1 0x20 MSTORE PUSH1 0x40 SWAP1 KECCAK256 DUP1 SLOAD PUSH1 0x64 GT PUSH2 0x1B75 JUMPI PUSH1 0x40 MLOAD PUSH3 0x461BCD PUSH1 0xE5 SHL DUP2 MSTORE PUSH1 0x20 PUSH1 0x4 DUP3 ADD MSTORE PUSH1 0x15 PUSH1 0x24 DUP3 ADD MSTORE PUSH21 0x546F6F206D616E79206C6F636B20656E7472696573 PUSH1 0x58 SHL PUSH1 0x44 DUP3 ADD MSTORE PUSH1 0x64 ADD PUSH2 0x760 JUMP JUMPDEST TIMESTAMP PUSH1 0x0 PUSH2 0x1B82 DUP5 DUP4 PUSH2 0x20F7 JUMP JUMPDEST PUSH1 0x40 DUP1 MLOAD PUSH1 0x60 DUP2 ADD DUP3 MSTORE DUP5 DUP2 MSTORE PUSH1 0x20 DUP1 DUP3 ADD DUP10 DUP2 MSTORE DUP3 DUP5 ADD DUP6 DUP2 MSTORE DUP9 SLOAD PUSH1 0x1 DUP1 DUP3 ADD DUP12 SSTORE PUSH1 0x0 DUP12 DUP2 MSTORE DUP6 SWAP1 KECCAK256 SWAP6 MLOAD PUSH1 0x3 SWAP1 SWAP3 MUL SWAP1 SWAP6 ADD SWAP1 DUP2 SSTORE SWAP2 MLOAD SWAP4 DUP3 ADD SWAP4 SWAP1 SWAP4 SSTORE SWAP2 MLOAD PUSH1 0x2 SWAP1 SWAP3 ADD SWAP2 SWAP1 SWAP2 SSTORE DUP2 MLOAD DUP9 DUP2 MSTORE SWAP1 DUP2 ADD DUP4 SWAP1 MSTORE SWAP2 SWAP3 POP PUSH1 0x1 PUSH1 0x1 PUSH1 0xA0 SHL SUB DUP9 AND SWAP2 PUSH32 0xD741E738A23FD18A03A26522320D9FC6CAC1FED483E215EA9150FBC2FC43385D SWAP2 ADD PUSH1 0x40 MLOAD DUP1 SWAP2 SUB SWAP1 LOG2 POP POP POP POP POP POP JUMP JUMPDEST PUSH1 0x0 PUSH2 0x1C27 DUP5 DUP5 PUSH2 0x15C0 JUMP JUMPDEST SWAP1 POP PUSH1 0x0 NOT DUP2 EQ PUSH2 0x1C8F JUMPI DUP2 DUP2 LT ISZERO PUSH2 0x1C82 JUMPI PUSH1 0x40 MLOAD PUSH3 0x461BCD PUSH1 0xE5 SHL DUP2 MSTORE PUSH1 0x20 PUSH1 0x4 DUP3 ADD MSTORE PUSH1 0x1D PUSH1 0x24 DUP3 ADD MSTORE PUSH32 0x45524332303A20696E73756666696369656E7420616C6C6F77616E6365000000 PUSH1 0x44 DUP3 ADD MSTORE PUSH1 0x64 ADD PUSH2 0x760 JUMP JUMPDEST PUSH2 0x1C8F DUP5 DUP5 DUP5 DUP5 SUB PUSH2 0x1661 JUMP JUMPDEST POP POP POP POP JUMP JUMPDEST PUSH1 0x0 PUSH2 0x14F5 DUP3 DUP5 PUSH2 0x2133 JUMP JUMPDEST PUSH1 0x0 PUSH2 0x14F5 DUP3 DUP5 PUSH2 0x214A JUMP JUMPDEST PUSH1 0x1 PUSH1 0x1 PUSH1 0xA0 SHL SUB DUP3 AND PUSH2 0x1D03 JUMPI PUSH1 0x40 MLOAD PUSH3 0x461BCD PUSH1 0xE5 SHL DUP2 MSTORE PUSH1 0x20 PUSH1 0x4 DUP3 ADD MSTORE PUSH1 0x1F PUSH1 0x24 DUP3 ADD MSTORE PUSH32 0x45524332303A206D696E7420746F20746865207A65726F206164647265737300 PUSH1 0x44 DUP3 ADD MSTORE PUSH1 0x64 ADD PUSH2 0x760 JUMP JUMPDEST DUP1 PUSH1 0x2 PUSH1 0x0 DUP3 DUP3 SLOAD PUSH2 0x1D15 SWAP2 SWAP1 PUSH2 0x20F7 JUMP JUMPDEST SWAP1 SWAP2 SSTORE POP POP PUSH1 0x1 PUSH1 0x1 PUSH1 0xA0 SHL SUB DUP3 AND PUSH1 0x0 DUP2 DUP2 MSTORE PUSH1 0x20 DUP2 DUP2 MSTORE PUSH1 0x40 DUP1 DUP4 KECCAK256 DUP1 SLOAD DUP7 ADD SWAP1 SSTORE MLOAD DUP5 DUP2 MSTORE PUSH32 0xDDF252AD1BE2C89B69C2B068FC378DAA952BA7F163C4A11628F55A4DF523B3EF SWAP2 ADD PUSH1 0x40 MLOAD DUP1 SWAP2 SUB SWAP1 LOG3 POP POP JUMP JUMPDEST PUSH1 0x0 CALLER PUSH2 0x700 DUP2 DUP6 DUP6 JUMPDEST PUSH1 0x1 PUSH1 0x1 PUSH1 0xA0 SHL SUB DUP4 AND PUSH2 0x1DDA JUMPI PUSH1 0x40 MLOAD PUSH3 0x461BCD PUSH1 0xE5 SHL DUP2 MSTORE PUSH1 0x20 PUSH1 0x4 DUP3 ADD MSTORE PUSH1 0x25 PUSH1 0x24 DUP3 ADD MSTORE PUSH32 0x45524332303A207472616E736665722066726F6D20746865207A65726F206164 PUSH1 0x44 DUP3 ADD MSTORE PUSH5 0x6472657373 PUSH1 0xD8 SHL PUSH1 0x64 DUP3 ADD MSTORE PUSH1 0x84 ADD PUSH2 0x760 JUMP JUMPDEST PUSH1 0x1 PUSH1 0x1 PUSH1 0xA0 SHL SUB DUP3 AND PUSH2 0x1E3C JUMPI PUSH1 0x40 MLOAD PUSH3 0x461BCD PUSH1 0xE5 SHL DUP2 MSTORE PUSH1 0x20 PUSH1 0x4 DUP3 ADD MSTORE PUSH1 0x23 PUSH1 0x24 DUP3 ADD MSTORE PUSH32 0x45524332303A207472616E7366657220746F20746865207A65726F2061646472 PUSH1 0x44 DUP3 ADD MSTORE PUSH3 0x657373 PUSH1 0xE8 SHL PUSH1 0x64 DUP3 ADD MSTORE PUSH1 0x84 ADD PUSH2 0x760 JUMP JUMPDEST PUSH1 0x1 PUSH1 0x1 PUSH1 0xA0 SHL SUB DUP4 AND PUSH1 0x0 SWAP1 DUP2 MSTORE PUSH1 0x20 DUP2 SWAP1 MSTORE PUSH1 0x40 SWAP1 KECCAK256 SLOAD DUP2 DUP2 LT ISZERO PUSH2 0x1EB4 JUMPI PUSH1 0x40 MLOAD PUSH3 0x461BCD PUSH1 0xE5 SHL DUP2 MSTORE PUSH1 0x20 PUSH1 0x4 DUP3 ADD MSTORE PUSH1 0x26 PUSH1 0x24 DUP3 ADD MSTORE PUSH32 0x45524332303A207472616E7366657220616D6F756E7420657863656564732062 PUSH1 0x44 DUP3 ADD MSTORE PUSH6 0x616C616E6365 PUSH1 0xD0 SHL PUSH1 0x64 DUP3 ADD MSTORE PUSH1 0x84 ADD PUSH2 0x760 JUMP JUMPDEST PUSH1 0x1 PUSH1 0x1 PUSH1 0xA0 SHL SUB DUP5 DUP2 AND PUSH1 0x0 DUP2 DUP2 MSTORE PUSH1 0x20 DUP2 DUP2 MSTORE PUSH1 0x40 DUP1 DUP4 KECCAK256 DUP8 DUP8 SUB SWAP1 SSTORE SWAP4 DUP8 AND DUP1 DUP4 MSTORE SWAP2 DUP5 SWAP1 KECCAK256 DUP1 SLOAD DUP8 ADD SWAP1 SSTORE SWAP3 MLOAD DUP6 DUP2 MSTORE SWAP1 SWAP3 PUSH32 0xDDF252AD1BE2C89B69C2B068FC378DAA952BA7F163C4A11628F55A4DF523B3EF SWAP2 ADD PUSH1 0x40 MLOAD DUP1 SWAP2 SUB SWAP1 LOG3 PUSH2 0x1C8F JUMP JUMPDEST PUSH1 0x0 PUSH1 0x20 DUP1 DUP4 MSTORE DUP4 MLOAD DUP1 PUSH1 0x20 DUP6 ADD MSTORE PUSH1 0x0 JUMPDEST DUP2 DUP2 LT ISZERO PUSH2 0x1F48 JUMPI DUP6 DUP2 ADD DUP4 ADD MLOAD DUP6 DUP3 ADD PUSH1 0x40 ADD MSTORE DUP3 ADD PUSH2 0x1F2C JUMP JUMPDEST POP PUSH1 0x0 PUSH1 0x40 DUP3 DUP7 ADD ADD MSTORE PUSH1 0x40 PUSH1 0x1F NOT PUSH1 0x1F DUP4 ADD AND DUP6 ADD ADD SWAP3 POP POP POP SWAP3 SWAP2 POP POP JUMP JUMPDEST DUP1 CALLDATALOAD PUSH1 0x1 PUSH1 0x1 PUSH1 0xA0 SHL SUB DUP2 AND DUP2 EQ PUSH2 0x1F80 JUMPI PUSH1 0x0 DUP1 REVERT JUMPDEST SWAP2 SWAP1 POP JUMP JUMPDEST PUSH1 0x0 DUP1 PUSH1 0x40 DUP4 DUP6 SUB SLT ISZERO PUSH2 0x1F98 JUMPI PUSH1 0x0 DUP1 REVERT JUMPDEST PUSH2 0x1FA1 DUP4 PUSH2 0x1F69 JUMP JUMPDEST SWAP5 PUSH1 0x20 SWAP4 SWAP1 SWAP4 ADD CALLDATALOAD SWAP4 POP POP POP JUMP JUMPDEST PUSH1 0x0 DUP1 PUSH1 0x0 PUSH1 0x60 DUP5 DUP7 SUB SLT ISZERO PUSH2 0x1FC4 JUMPI PUSH1 0x0 DUP1 REVERT JUMPDEST PUSH2 0x1FCD DUP5 PUSH2 0x1F69 JUMP JUMPDEST SWAP3 POP PUSH2 0x1FDB PUSH1 0x20 DUP6 ADD PUSH2 0x1F69 JUMP JUMPDEST SWAP2 POP PUSH1 0x40 DUP5 ADD CALLDATALOAD SWAP1 POP SWAP3 POP SWAP3 POP SWAP3 JUMP JUMPDEST PUSH1 0x0 PUSH1 0x20 DUP3 DUP5 SUB SLT ISZERO PUSH2 0x1FFD JUMPI PUSH1 0x0 DUP1 REVERT JUMPDEST POP CALLDATALOAD SWAP2 SWAP1 POP JUMP JUMPDEST PUSH1 0x0 PUSH1 0x20 DUP3 DUP5 SUB SLT ISZERO PUSH2 0x2016 JUMPI PUSH1 0x0 DUP1 REVERT JUMPDEST PUSH2 0x14F5 DUP3 PUSH2 0x1F69 JUMP JUMPDEST PUSH1 0x0 DUP1 PUSH1 0x0 PUSH1 0x60 DUP5 DUP7 SUB SLT ISZERO PUSH2 0x2034 JUMPI PUSH1 0x0 DUP1 REVERT JUMPDEST PUSH2 0x203D DUP5 PUSH2 0x1F69 JUMP JUMPDEST SWAP6 PUSH1 0x20 DUP6 ADD CALLDATALOAD SWAP6 POP PUSH1 0x40 SWAP1 SWAP5 ADD CALLDATALOAD SWAP4 SWAP3 POP POP POP JUMP JUMPDEST PUSH1 0x0 DUP1 PUSH1 0x40 DUP4 DUP6 SUB SLT ISZERO PUSH2 0x2065 JUMPI PUSH1 0x0 DUP1 REVERT JUMPDEST PUSH2 0x206E DUP4 PUSH2 0x1F69 JUMP JUMPDEST SWAP2 POP PUSH2 0x207C PUSH1 0x20 DUP5 ADD PUSH2 0x1F69 JUMP JUMPDEST SWAP1 POP SWAP3 POP SWAP3 SWAP1 POP JUMP JUMPDEST PUSH1 0x1 DUP2 DUP2 SHR SWAP1 DUP3 AND DUP1 PUSH2 0x2099 JUMPI PUSH1 0x7F DUP3 AND SWAP2 POP JUMPDEST PUSH1 0x20 DUP3 LT DUP2 SUB PUSH2 0x20B9 JUMPI PUSH4 0x4E487B71 PUSH1 0xE0 SHL PUSH1 0x0 MSTORE PUSH1 0x22 PUSH1 0x4 MSTORE PUSH1 0x24 PUSH1 0x0 REVERT JUMPDEST POP SWAP2 SWAP1 POP JUMP JUMPDEST PUSH1 0x0 PUSH1 0x20 DUP3 DUP5 SUB SLT ISZERO PUSH2 0x20D1 JUMPI PUSH1 0x0 DUP1 REVERT JUMPDEST DUP2 MLOAD DUP1 ISZERO ISZERO DUP2 EQ PUSH2 0x14F5 JUMPI PUSH1 0x0 DUP1 REVERT JUMPDEST PUSH4 0x4E487B71 PUSH1 0xE0 SHL PUSH1 0x0 MSTORE PUSH1 0x11 PUSH1 0x4 MSTORE PUSH1 0x24 PUSH1 0x0 REVERT JUMPDEST DUP1 DUP3 ADD DUP1 DUP3 GT ISZERO PUSH2 0x706 JUMPI PUSH2 0x706 PUSH2 0x20E1 JUMP JUMPDEST PUSH4 0x4E487B71 PUSH1 0xE0 SHL PUSH1 0x0 MSTORE PUSH1 0x32 PUSH1 0x4 MSTORE PUSH1 0x24 PUSH1 0x0 REVERT JUMPDEST DUP2 DUP2 SUB DUP2 DUP2 GT ISZERO PUSH2 0x706 JUMPI PUSH2 0x706 PUSH2 0x20E1 JUMP JUMPDEST DUP1 DUP3 MUL DUP2 ISZERO DUP3 DUP3 DIV DUP5 EQ OR PUSH2 0x706 JUMPI PUSH2 0x706 PUSH2 0x20E1 JUMP JUMPDEST PUSH1 0x0 DUP3 PUSH2 0x2167 JUMPI PUSH4 0x4E487B71 PUSH1 0xE0 SHL PUSH1 0x0 MSTORE PUSH1 0x12 PUSH1 0x4 MSTORE PUSH1 0x24 PUSH1 0x0 REVERT JUMPDEST POP DIV SWAP1 JUMP INVALID AND 0xB0 0xDA 0x2F 0xFC 0xB9 0xC PUSH8 0x23317BD637D9AAD7 CREATE SELFBALANCE GT DELEGATECALL 0x2B 0xBE EXP 0xC0 SWAP2 DUP15 0xBE LT CALL 0xF9 STOP SHR LOG2 PUSH5 0x6970667358 0x22 SLT KECCAK256 0xBA 0x4A 0xCB OR PUSH31 0x186EAF4774E5C4E4559DA06C375967B7BB63473AB0CB97FCD6E83264736F6C PUSH4 0x43000816 STOP CALLER "},"methodIdentifiers":{"CREATOR_ALLOCATION()":"2bc73063","CREATOR_LOCK_DURATION()":"4498c446","DBC_POOL_INVESTOR()":"add78ad0","DBC_POOL_PERMANENT()":"e487709d","ECOSYSTEM_ALLOCATION()":"90534f24","ECOSYSTEM_LOCK_DURATION()":"e0ea2944","INITIAL_MARKET_VALUE()":"a18b5674","INVESTMENT_DURATION()":"b95b43bf","MIN_MARKET_VALUE()":"7e23ecc2","PERMANENT_LOCK_DURATION()":"6234ba27","TARGET_DBC_VALUE()":"7346069d","XAA_POOL_ALLOCATION()":"02ce3d67","allowance(address,address)":"dd62ed3e","approve(address,uint256)":"095ea7b3","balanceOf(address)":"70a08231","burn(uint256)":"42966c68","burnFrom(address,uint256)":"79cc6790","calculateLockedAmount(address)":"971f368d","creatorAddress()":"e927fc5c","dbcPool()":"17defd8f","dbcToken()":"27d2f915","decimals()":"313ce567","decreaseAllowance(address,uint256)":"a457c2d7","ecosystemAddress()":"06a5cb3a","endInvestment()":"9fb0ca07","getAvailableBalance(address)":"6c24a76f","getInvestmentAmount(address)":"2d6fa4b2","getInvestorCount()":"960524e3","increaseAllowance(address,uint256)":"39509351","initialTokenPrice()":"2ca0228a","invest(uint256)":"2afcf480","investmentEndTime()":"c980270d","investmentOpen()":"73ef8387","investmentStartTime()":"dcd8bc41","investments(address)":"96b98862","name()":"06fdde03","owner()":"8da5cb5b","renounceOwnership()":"715018a6","startInvestment()":"c43d8aa6","symbol()":"95d89b41","testLockTokens(address,uint256,uint256)":"7905e5a8","tokensDistributed()":"152e84a7","totalDBCInvested()":"ee842584","totalSupply()":"18160ddd","transfer(address,uint256)":"a9059cbb","transferFrom(address,address,uint256)":"23b872dd","transferOwnership(address)":"f2fde38b","xaaPool()":"d2d8ca56","xaaPoolAddress()":"afa98831"}},"storageLayout":{"storage":[{"astId":193,"contract":"contracts/XAIAgentDRC20.sol:XAIAgentDRC20","label":"_balances","offset":0,"slot":"0","type":"t_mapping(t_address,t_uint256)"},{"astId":199,"contract":"contracts/XAIAgentDRC20.sol:XAIAgentDRC20","label":"_allowances","offset":0,"slot":"1","type":"t_mapping(t_address,t_mapping(t_address,t_uint256))"},{"astId":201,"contract":"contracts/XAIAgentDRC20.sol:XAIAgentDRC20","label":"_totalSupply","offset":0,"slot":"2","type":"t_uint256"},{"astId":203,"contract":"contracts/XAIAgentDRC20.sol:XAIAgentDRC20","label":"_name","offset":0,"slot":"3","type":"t_string_storage"},{"astId":205,"contract":"contracts/XAIAgentDRC20.sol:XAIAgentDRC20","label":"_symbol","offset":0,"slot":"4","type":"t_string_storage"},{"astId":123,"contract":"contracts/XAIAgentDRC20.sol:XAIAgentDRC20","label":"_status","offset":0,"slot":"5","type":"t_uint256"},{"astId":7,"contract":"contracts/XAIAgentDRC20.sol:XAIAgentDRC20","label":"_owner","offset":0,"slot":"6","type":"t_address"},{"astId":1283,"contract":"contracts/XAIAgentDRC20.sol:XAIAgentDRC20","label":"investmentStartTime","offset":0,"slot":"7","type":"t_uint256"},{"astId":1285,"contract":"contracts/XAIAgentDRC20.sol:XAIAgentDRC20","label":"investmentOpen","offset":0,"slot":"8","type":"t_bool"},{"astId":1287,"contract":"contracts/XAIAgentDRC20.sol:XAIAgentDRC20","label":"totalDBCInvested","offset":0,"slot":"9","type":"t_uint256"},{"astId":1289,"contract":"contracts/XAIAgentDRC20.sol:XAIAgentDRC20","label":"initialTokenPrice","offset":0,"slot":"10","type":"t_uint256"},{"astId":1291,"contract":"contracts/XAIAgentDRC20.sol:XAIAgentDRC20","label":"investmentEndTime","offset":0,"slot":"11","type":"t_uint256"},{"astId":1293,"contract":"contracts/XAIAgentDRC20.sol:XAIAgentDRC20","label":"tokensDistributed","offset":0,"slot":"12","type":"t_bool"},{"astId":1296,"contract":"contracts/XAIAgentDRC20.sol:XAIAgentDRC20","label":"dbcToken","offset":1,"slot":"12","type":"t_contract(IERC20)842"},{"astId":1340,"contract":"contracts/XAIAgentDRC20.sol:XAIAgentDRC20","label":"xaaPoolAddress","offset":0,"slot":"13","type":"t_address"},{"astId":1342,"contract":"contracts/XAIAgentDRC20.sol:XAIAgentDRC20","label":"ecosystemAddress","offset":0,"slot":"14","type":"t_address"},{"astId":1344,"contract":"contracts/XAIAgentDRC20.sol:XAIAgentDRC20","label":"creatorAddress","offset":0,"slot":"15","type":"t_address"},{"astId":1347,"contract":"contracts/XAIAgentDRC20.sol:XAIAgentDRC20","label":"investors","offset":0,"slot":"16","type":"t_array(t_address)dyn_storage"},{"astId":1417,"contract":"contracts/XAIAgentDRC20.sol:XAIAgentDRC20","label":"investments","offset":0,"slot":"17","type":"t_mapping(t_address,t_uint256)"},{"astId":1423,"contract":"contracts/XAIAgentDRC20.sol:XAIAgentDRC20","label":"walletLockTimestamp","offset":0,"slot":"18","type":"t_mapping(t_address,t_array(t_struct(LockInfo)1354_storage)dyn_storage)"},{"astId":1426,"contract":"contracts/XAIAgentDRC20.sol:XAIAgentDRC20","label":"xaaPool","offset":0,"slot":"19","type":"t_struct(Pool)1363_storage"},{"astId":1429,"contract":"contracts/XAIAgentDRC20.sol:XAIAgentDRC20","label":"dbcPool","offset":0,"slot":"23","type":"t_struct(Pool)1363_storage"}],"types":{"t_address":{"encoding":"inplace","label":"address","numberOfBytes":"20"},"t_array(t_address)dyn_storage":{"base":"t_address","encoding":"dynamic_array","label":"address[]","numberOfBytes":"32"},"t_array(t_struct(LockInfo)1354_storage)dyn_storage":{"base":"t_struct(LockInfo)1354_storage","encoding":"dynamic_array","label":"struct XAIAgentDRC20.LockInfo[]","numberOfBytes":"32"},"t_bool":{"encoding":"inplace","label":"bool","numberOfBytes":"1"},"t_contract(IERC20)842":{"encoding":"inplace","label":"contract IERC20","numberOfBytes":"20"},"t_mapping(t_address,t_array(t_struct(LockInfo)1354_storage)dyn_storage)":{"encoding":"mapping","key":"t_address","label":"mapping(address => struct XAIAgentDRC20.LockInfo[])","numberOfBytes":"32","value":"t_array(t_struct(LockInfo)1354_storage)dyn_storage"},"t_mapping(t_address,t_mapping(t_address,t_uint256))":{"encoding":"mapping","key":"t_address","label":"mapping(address => mapping(address => uint256))","numberOfBytes":"32","value":"t_mapping(t_address,t_uint256)"},"t_mapping(t_address,t_uint256)":{"encoding":"mapping","key":"t_address","label":"mapping(address => uint256)","numberOfBytes":"32","value":"t_uint256"},"t_string_storage":{"encoding":"bytes","label":"string","numberOfBytes":"32"},"t_struct(LockInfo)1354_storage":{"encoding":"inplace","label":"struct XAIAgentDRC20.LockInfo","members":[{"astId":1349,"contract":"contracts/XAIAgentDRC20.sol:XAIAgentDRC20","label":"lockedAt","offset":0,"slot":"0","type":"t_uint256"},{"astId":1351,"contract":"contracts/XAIAgentDRC20.sol:XAIAgentDRC20","label":"lockedAmount","offset":0,"slot":"1","type":"t_uint256"},{"astId":1353,"contract":"contracts/XAIAgentDRC20.sol:XAIAgentDRC20","label":"unlockAt","offset":0,"slot":"2","type":"t_uint256"}],"numberOfBytes":"96"},"t_struct(Pool)1363_storage":{"encoding":"inplace","label":"struct XAIAgentDRC20.Pool","members":[{"astId":1356,"contract":"contracts/XAIAgentDRC20.sol:XAIAgentDRC20","label":"tokenAddress","offset":0,"slot":"0","type":"t_address"},{"astId":1358,"contract":"contracts/XAIAgentDRC20.sol:XAIAgentDRC20","label":"tokenAmount","offset":0,"slot":"1","type":"t_uint256"},{"astId":1360,"contract":"contracts/XAIAgentDRC20.sol:XAIAgentDRC20","label":"dbcAmount","offset":0,"slot":"2","type":"t_uint256"},{"astId":1362,"contract":"contracts/XAIAgentDRC20.sol:XAIAgentDRC20","label":"isLocked","offset":0,"slot":"3","type":"t_bool"}],"numberOfBytes":"128"},"t_uint256":{"encoding":"inplace","label":"uint256","numberOfBytes":"32"}}}}}}