{"contracts/XAIAgentDRC20Upgradeable.sol":{"XAIAgentDRC20Upgradeable":{"abi":[{"inputs":[],"stateMutability":"nonpayable","type":"constructor"},{"anonymous":false,"inputs":[{"indexed":false,"internalType":"address","name":"previousAdmin","type":"address"},{"indexed":false,"internalType":"address","name":"newAdmin","type":"address"}],"name":"AdminChanged","type":"event"},{"anonymous":false,"inputs":[{"indexed":true,"internalType":"address","name":"owner","type":"address"},{"indexed":true,"internalType":"address","name":"spender","type":"address"},{"indexed":false,"internalType":"uint256","name":"value","type":"uint256"}],"name":"Approval","type":"event"},{"anonymous":false,"inputs":[{"indexed":true,"internalType":"address","name":"beacon","type":"address"}],"name":"BeaconUpgraded","type":"event"},{"anonymous":false,"inputs":[{"indexed":true,"internalType":"address","name":"investor","type":"address"},{"indexed":false,"internalType":"uint256","name":"amount","type":"uint256"}],"name":"DBCRefunded","type":"event"},{"anonymous":false,"inputs":[],"name":"EIP712DomainChanged","type":"event"},{"anonymous":false,"inputs":[{"indexed":false,"internalType":"uint8","name":"version","type":"uint8"}],"name":"Initialized","type":"event"},{"anonymous":false,"inputs":[{"indexed":false,"internalType":"uint256","name":"totalInvested","type":"uint256"}],"name":"InvestmentEnded","type":"event"},{"anonymous":false,"inputs":[{"indexed":true,"internalType":"address","name":"investor","type":"address"},{"indexed":false,"internalType":"uint256","name":"amount","type":"uint256"}],"name":"InvestmentReceived","type":"event"},{"anonymous":false,"inputs":[{"indexed":false,"internalType":"uint256","name":"startTime","type":"uint256"},{"indexed":false,"internalType":"uint256","name":"endTime","type":"uint256"}],"name":"InvestmentStarted","type":"event"},{"anonymous":false,"inputs":[{"indexed":true,"internalType":"address","name":"previousOwner","type":"address"},{"indexed":true,"internalType":"address","name":"newOwner","type":"address"}],"name":"OwnershipTransferred","type":"event"},{"anonymous":false,"inputs":[{"indexed":true,"internalType":"address","name":"tokenAddress","type":"address"},{"indexed":false,"internalType":"uint256","name":"tokenAmount","type":"uint256"},{"indexed":false,"internalType":"uint256","name":"dbcAmount","type":"uint256"}],"name":"PoolCreated","type":"event"},{"anonymous":false,"inputs":[{"indexed":true,"internalType":"address","name":"tokenAddress","type":"address"},{"indexed":false,"internalType":"uint256","name":"lockedAmount","type":"uint256"}],"name":"PoolLocked","type":"event"},{"anonymous":false,"inputs":[{"indexed":true,"internalType":"address","name":"investor","type":"address"},{"indexed":false,"internalType":"uint256","name":"amount","type":"uint256"}],"name":"TokensDistributed","type":"event"},{"anonymous":false,"inputs":[{"indexed":true,"internalType":"address","name":"wallet","type":"address"},{"indexed":false,"internalType":"uint256","name":"amount","type":"uint256"},{"indexed":false,"internalType":"uint256","name":"unlockTime","type":"uint256"}],"name":"TokensLocked","type":"event"},{"anonymous":false,"inputs":[{"indexed":true,"internalType":"address","name":"from","type":"address"},{"indexed":true,"internalType":"address","name":"to","type":"address"},{"indexed":false,"internalType":"uint256","name":"value","type":"uint256"}],"name":"Transfer","type":"event"},{"anonymous":false,"inputs":[{"indexed":true,"internalType":"address","name":"implementation","type":"address"}],"name":"Upgraded","type":"event"},{"inputs":[],"name":"CREATOR_ALLOCATION","outputs":[{"internalType":"uint256","name":"","type":"uint256"}],"stateMutability":"view","type":"function"},{"inputs":[],"name":"CREATOR_LOCK_DURATION","outputs":[{"internalType":"uint256","name":"","type":"uint256"}],"stateMutability":"view","type":"function"},{"inputs":[],"name":"DBC_POOL_INVESTOR","outputs":[{"internalType":"uint256","name":"","type":"uint256"}],"stateMutability":"view","type":"function"},{"inputs":[],"name":"DBC_POOL_PERMANENT","outputs":[{"internalType":"uint256","name":"","type":"uint256"}],"stateMutability":"view","type":"function"},{"inputs":[],"name":"DOMAIN_SEPARATOR","outputs":[{"internalType":"bytes32","name":"","type":"bytes32"}],"stateMutability":"view","type":"function"},{"inputs":[],"name":"ECOSYSTEM_ALLOCATION","outputs":[{"internalType":"uint256","name":"","type":"uint256"}],"stateMutability":"view","type":"function"},{"inputs":[],"name":"ECOSYSTEM_LOCK_DURATION","outputs":[{"internalType":"uint256","name":"","type":"uint256"}],"stateMutability":"view","type":"function"},{"inputs":[],"name":"INITIAL_MARKET_VALUE","outputs":[{"internalType":"uint256","name":"","type":"uint256"}],"stateMutability":"view","type":"function"},{"inputs":[],"name":"INVESTMENT_DURATION","outputs":[{"internalType":"uint256","name":"","type":"uint256"}],"stateMutability":"view","type":"function"},{"inputs":[],"name":"MIN_MARKET_VALUE","outputs":[{"internalType":"uint256","name":"","type":"uint256"}],"stateMutability":"view","type":"function"},{"inputs":[],"name":"PERMANENT_LOCK_DURATION","outputs":[{"internalType":"uint256","name":"","type":"uint256"}],"stateMutability":"view","type":"function"},{"inputs":[],"name":"TARGET_DBC_VALUE","outputs":[{"internalType":"uint256","name":"","type":"uint256"}],"stateMutability":"view","type":"function"},{"inputs":[],"name":"XAA_POOL_ALLOCATION","outputs":[{"internalType":"uint256","name":"","type":"uint256"}],"stateMutability":"view","type":"function"},{"inputs":[{"internalType":"address","name":"owner","type":"address"},{"internalType":"address","name":"spender","type":"address"}],"name":"allowance","outputs":[{"internalType":"uint256","name":"","type":"uint256"}],"stateMutability":"view","type":"function"},{"inputs":[{"internalType":"address","name":"spender","type":"address"},{"internalType":"uint256","name":"amount","type":"uint256"}],"name":"approve","outputs":[{"internalType":"bool","name":"","type":"bool"}],"stateMutability":"nonpayable","type":"function"},{"inputs":[{"internalType":"address","name":"account","type":"address"}],"name":"balanceOf","outputs":[{"internalType":"uint256","name":"","type":"uint256"}],"stateMutability":"view","type":"function"},{"inputs":[{"internalType":"uint256","name":"amount","type":"uint256"}],"name":"burn","outputs":[],"stateMutability":"nonpayable","type":"function"},{"inputs":[{"internalType":"address","name":"account","type":"address"},{"internalType":"uint256","name":"amount","type":"uint256"}],"name":"burnFrom","outputs":[],"stateMutability":"nonpayable","type":"function"},{"inputs":[],"name":"creatorAddress","outputs":[{"internalType":"address","name":"","type":"address"}],"stateMutability":"view","type":"function"},{"inputs":[],"name":"dbcPool","outputs":[{"internalType":"address","name":"tokenAddress","type":"address"},{"internalType":"uint256","name":"tokenAmount","type":"uint256"},{"internalType":"uint256","name":"dbcAmount","type":"uint256"},{"internalType":"bool","name":"isLocked","type":"bool"}],"stateMutability":"view","type":"function"},{"inputs":[],"name":"dbcToken","outputs":[{"internalType":"contract IERC20","name":"","type":"address"}],"stateMutability":"view","type":"function"},{"inputs":[],"name":"decimals","outputs":[{"internalType":"uint8","name":"","type":"uint8"}],"stateMutability":"view","type":"function"},{"inputs":[{"internalType":"address","name":"spender","type":"address"},{"internalType":"uint256","name":"subtractedValue","type":"uint256"}],"name":"decreaseAllowance","outputs":[{"internalType":"bool","name":"","type":"bool"}],"stateMutability":"nonpayable","type":"function"},{"inputs":[],"name":"ecosystemAddress","outputs":[{"internalType":"address","name":"","type":"address"}],"stateMutability":"view","type":"function"},{"inputs":[],"name":"eip712Domain","outputs":[{"internalType":"bytes1","name":"fields","type":"bytes1"},{"internalType":"string","name":"name","type":"string"},{"internalType":"string","name":"version","type":"string"},{"internalType":"uint256","name":"chainId","type":"uint256"},{"internalType":"address","name":"verifyingContract","type":"address"},{"internalType":"bytes32","name":"salt","type":"bytes32"},{"internalType":"uint256[]","name":"extensions","type":"uint256[]"}],"stateMutability":"view","type":"function"},{"inputs":[{"internalType":"address","name":"caller","type":"address"}],"name":"getAvailableAmount","outputs":[{"internalType":"uint256","name":"total","type":"uint256"},{"internalType":"uint256","name":"availableAmount","type":"uint256"}],"stateMutability":"view","type":"function"},{"inputs":[{"internalType":"address","name":"caller","type":"address"},{"internalType":"uint16","name":"index","type":"uint16"}],"name":"getLockAmountAndUnlockAt","outputs":[{"internalType":"uint256","name":"amount","type":"uint256"},{"internalType":"uint256","name":"unlockTime","type":"uint256"}],"stateMutability":"view","type":"function"},{"inputs":[{"internalType":"address","name":"spender","type":"address"},{"internalType":"uint256","name":"addedValue","type":"uint256"}],"name":"increaseAllowance","outputs":[{"internalType":"bool","name":"","type":"bool"}],"stateMutability":"nonpayable","type":"function"},{"inputs":[],"name":"initialTokenPrice","outputs":[{"internalType":"uint256","name":"","type":"uint256"}],"stateMutability":"view","type":"function"},{"inputs":[{"internalType":"uint256","name":"_initialTokenPrice","type":"uint256"},{"internalType":"address","name":"_dbcTokenAddress","type":"address"},{"internalType":"address","name":"_xaaPoolAddress","type":"address"},{"internalType":"address","name":"_ecosystemAddress","type":"address"},{"internalType":"address","name":"_creatorAddress","type":"address"}],"name":"initialize","outputs":[],"stateMutability":"nonpayable","type":"function"},{"inputs":[{"internalType":"uint256","name":"amount","type":"uint256"}],"name":"invest","outputs":[],"stateMutability":"nonpayable","type":"function"},{"inputs":[],"name":"investmentEndTime","outputs":[{"internalType":"uint256","name":"","type":"uint256"}],"stateMutability":"view","type":"function"},{"inputs":[],"name":"investmentOpen","outputs":[{"internalType":"bool","name":"","type":"bool"}],"stateMutability":"view","type":"function"},{"inputs":[],"name":"investmentStartTime","outputs":[{"internalType":"uint256","name":"","type":"uint256"}],"stateMutability":"view","type":"function"},{"inputs":[{"internalType":"address","name":"","type":"address"}],"name":"investments","outputs":[{"internalType":"uint256","name":"","type":"uint256"}],"stateMutability":"view","type":"function"},{"inputs":[],"name":"name","outputs":[{"internalType":"string","name":"","type":"string"}],"stateMutability":"view","type":"function"},{"inputs":[{"internalType":"address","name":"owner","type":"address"}],"name":"nonces","outputs":[{"internalType":"uint256","name":"","type":"uint256"}],"stateMutability":"view","type":"function"},{"inputs":[],"name":"owner","outputs":[{"internalType":"address","name":"","type":"address"}],"stateMutability":"view","type":"function"},{"inputs":[{"internalType":"address","name":"owner","type":"address"},{"internalType":"address","name":"spender","type":"address"},{"internalType":"uint256","name":"value","type":"uint256"},{"internalType":"uint256","name":"deadline","type":"uint256"},{"internalType":"uint8","name":"v","type":"uint8"},{"internalType":"bytes32","name":"r","type":"bytes32"},{"internalType":"bytes32","name":"s","type":"bytes32"}],"name":"permit","outputs":[],"stateMutability":"nonpayable","type":"function"},{"inputs":[],"name":"proxiableUUID","outputs":[{"internalType":"bytes32","name":"","type":"bytes32"}],"stateMutability":"view","type":"function"},{"inputs":[],"name":"renounceOwnership","outputs":[],"stateMutability":"nonpayable","type":"function"},{"inputs":[],"name":"startInvestment","outputs":[],"stateMutability":"nonpayable","type":"function"},{"inputs":[],"name":"symbol","outputs":[{"internalType":"string","name":"","type":"string"}],"stateMutability":"view","type":"function"},{"inputs":[],"name":"tokensDistributed","outputs":[{"internalType":"bool","name":"","type":"bool"}],"stateMutability":"view","type":"function"},{"inputs":[],"name":"totalDBCInvested","outputs":[{"internalType":"uint256","name":"","type":"uint256"}],"stateMutability":"view","type":"function"},{"inputs":[],"name":"totalSupply","outputs":[{"internalType":"uint256","name":"","type":"uint256"}],"stateMutability":"view","type":"function"},{"inputs":[{"internalType":"address","name":"to","type":"address"},{"internalType":"uint256","name":"amount","type":"uint256"}],"name":"transfer","outputs":[{"internalType":"bool","name":"","type":"bool"}],"stateMutability":"nonpayable","type":"function"},{"inputs":[{"internalType":"address","name":"from","type":"address"},{"internalType":"address","name":"to","type":"address"},{"internalType":"uint256","name":"amount","type":"uint256"}],"name":"transferFrom","outputs":[{"internalType":"bool","name":"","type":"bool"}],"stateMutability":"nonpayable","type":"function"},{"inputs":[{"internalType":"address","name":"newOwner","type":"address"}],"name":"transferOwnership","outputs":[],"stateMutability":"nonpayable","type":"function"},{"inputs":[{"internalType":"address","name":"newImplementation","type":"address"}],"name":"upgradeTo","outputs":[],"stateMutability":"nonpayable","type":"function"},{"inputs":[{"internalType":"address","name":"newImplementation","type":"address"},{"internalType":"bytes","name":"data","type":"bytes"}],"name":"upgradeToAndCall","outputs":[],"stateMutability":"payable","type":"function"},{"inputs":[],"name":"xaaPool","outputs":[{"internalType":"address","name":"tokenAddress","type":"address"},{"internalType":"uint256","name":"tokenAmount","type":"uint256"},{"internalType":"uint256","name":"dbcAmount","type":"uint256"},{"internalType":"bool","name":"isLocked","type":"bool"}],"stateMutability":"view","type":"function"},{"inputs":[],"name":"xaaPoolAddress","outputs":[{"internalType":"address","name":"","type":"address"}],"stateMutability":"view","type":"function"}],"evm":{"bytecode":{"linkReferences":{},"object":"60a0604052306080523480156200001557600080fd5b506200002062000026565b620000e7565b600054610100900460ff1615620000935760405162461bcd60e51b815260206004820152602760248201527f496e697469616c697a61626c653a20636f6e747261637420697320696e697469604482015266616c697a696e6760c81b606482015260840160405180910390fd5b60005460ff90811614620000e5576000805460ff191660ff9081179091556040519081527f7f26b83ff96e1f2b6a682f133852f6798a09c465da95921460cefb38474024989060200160405180910390a15b565b6080516139176200011f6000396000818161114e0152818161118e0152818161125601528181611296015261132901526139176000f3fe60806040526004361061031a5760003560e01c806373ef8387116101ab578063afa98831116100f7578063dcd8bc4111610095578063e487709d1161006f578063e487709d1461093a578063e927fc5c14610950578063ee84258414610971578063f2fde38b1461098857600080fd5b8063dcd8bc41146108ec578063dd62ed3e14610903578063e0ea29441461092357600080fd5b8063c980270d116100d1578063c980270d14610862578063cf93340d14610879578063d2d8ca5614610899578063d505accf146108cc57600080fd5b8063afa9883114610815578063b95b43bf14610836578063c43d8aa61461084d57600080fd5b806390534f2411610164578063a18b56741161013e578063a18b5674146107a1578063a457c2d7146107bf578063a9059cbb146107df578063add78ad0146107ff57600080fd5b806390534f24146104ff57806395d89b411461075e57806396b988621461077357600080fd5b806373ef83871461069e57806379cc6790146106b95780637e23ecc2146106d95780637ecebe00146106f757806384b0196e146107175780638da5cb5b1461073f57600080fd5b8063313ce5671161026a5780634498c446116102235780636234ba27116101fd5780636234ba271461061c57806370a0823114610635578063715018a61461066b5780637346069d1461068057600080fd5b80634498c446146105dd5780634f1ef286146105f457806352d1902d1461060757600080fd5b8063313ce5671461052c5780633641e083146105485780633644e515146105685780633659cfe61461057d578063395093511461059d57806342966c68146105bd57600080fd5b806318160ddd116102d757806327d2f915116102b157806327d2f915146104b75780632afcf480146104dd5780632bc73063146104ff5780632ca0228a1461051557600080fd5b806318160ddd1461044d5780631f3a71ba1461046257806323b872dd1461049757600080fd5b806302ce3d671461031f57806306a5cb3a1461034857806306fdde0314610381578063095ea7b3146103a3578063152e84a7146103d357806317defd8f146103ee575b600080fd5b34801561032b57600080fd5b506103356101f481565b6040519081526020015b60405180910390f35b34801561035457600080fd5b506101cd54610369906001600160a01b031681565b6040516001600160a01b03909116815260200161033f565b34801561038d57600080fd5b506103966109a8565b60405161033f91906130ac565b3480156103af57600080fd5b506103c36103be3660046130db565b610a3a565b604051901515815260200161033f565b3480156103df57600080fd5b506101cb546103c39060ff1681565b3480156103fa57600080fd5b506101d6546101d7546101d8546101d954610421936001600160a01b031692919060ff1684565b604080516001600160a01b0390951685526020850193909352918301521515606082015260800161033f565b34801561045957600080fd5b50603554610335565b34801561046e57600080fd5b5061048261047d366004613105565b610a54565b6040805192835260208301919091520161033f565b3480156104a357600080fd5b506103c36104b2366004613120565b610a97565b3480156104c357600080fd5b506101cb546103699061010090046001600160a01b031681565b3480156104e957600080fd5b506104fd6104f836600461315c565b610b08565b005b34801561050b57600080fd5b506103356103e881565b34801561052157600080fd5b506103356101c95481565b34801561053857600080fd5b506040516012815260200161033f565b34801561055457600080fd5b506104fd610563366004613175565b610daa565b34801561057457600080fd5b50610335611135565b34801561058957600080fd5b506104fd610598366004613105565b611144565b3480156105a957600080fd5b506103c36105b83660046130db565b611220565b3480156105c957600080fd5b506104fd6105d836600461315c565b611242565b3480156105e957600080fd5b5061033562278d0081565b6104fd6106023660046131e9565b61124c565b34801561061357600080fd5b5061033561131c565b34801561062857600080fd5b50610335640757b12c0081565b34801561064157600080fd5b50610335610650366004613105565b6001600160a01b031660009081526033602052604090205490565b34801561067757600080fd5b506104fd6113cf565b34801561068c57600080fd5b5061033569054b40b1f852bda0000081565b3480156106aa57600080fd5b506101c7546103c39060ff1681565b3480156106c557600080fd5b506104fd6106d43660046130db565b6113e3565b3480156106e557600080fd5b50610335690fe1c215e8f838e0000081565b34801561070357600080fd5b50610335610712366004613105565b6113f8565b34801561072357600080fd5b5061072c611416565b60405161033f97969594939291906132ab565b34801561074b57600080fd5b50610130546001600160a01b0316610369565b34801561076a57600080fd5b506103966114b4565b34801561077f57600080fd5b5061033561078e366004613105565b6101d06020526000908152604090205481565b3480156107ad57600080fd5b5061033569152d02c7e14af680000081565b3480156107cb57600080fd5b506103c36107da3660046130db565b6114c3565b3480156107eb57600080fd5b506103c36107fa3660046130db565b611549565b34801561080b57600080fd5b506103356109c481565b34801561082157600080fd5b506101cc54610369906001600160a01b031681565b34801561084257600080fd5b506103356203f48081565b34801561085957600080fd5b506104fd6115a5565b34801561086e57600080fd5b506103356101ca5481565b34801561088557600080fd5b50610482610894366004613344565b61166e565b3480156108a557600080fd5b506101d2546101d3546101d4546101d554610421936001600160a01b031692919060ff1684565b3480156108d857600080fd5b506104fd6108e7366004613382565b611742565b3480156108f857600080fd5b506103356101c65481565b34801561090f57600080fd5b5061033561091e3660046133f5565b6118a6565b34801561092f57600080fd5b5061033562ed4e0081565b34801561094657600080fd5b5061033561138881565b34801561095c57600080fd5b506101ce54610369906001600160a01b031681565b34801561097d57600080fd5b506103356101c85481565b34801561099457600080fd5b506104fd6109a3366004613105565b6118d1565b6060603680546109b790613428565b80601f01602080910402602001604051908101604052809291908181526020018280546109e390613428565b8015610a305780601f10610a0557610100808354040283529160200191610a30565b820191906000526020600020905b815481529060010190602001808311610a1357829003601f168201915b5050505050905090565b600033610a48818585611947565b60019150505b92915050565b6000806000610a6284611a6b565b9050610a83846001600160a01b031660009081526033602052604090205490565b9250610a8f8382611b04565b915050915091565b60006001600160a01b0383161580610aad575081155b15610ac457610abd848484611b10565b9050610b01565b610ace8483611b29565b610af35760405162461bcd60e51b8152600401610aea9061345c565b60405180910390fd5b610afe848484611b10565b90505b9392505050565b610b10611b6e565b6101c75460ff16610b595760405162461bcd60e51b815260206004820152601360248201527224b73b32b9ba36b2b73a103737ba1037b832b760691b6044820152606401610aea565b6101ca544210610bab5760405162461bcd60e51b815260206004820152601760248201527f496e766573746d656e7420706572696f6420656e6465640000000000000000006044820152606401610aea565b60008111610bfb5760405162461bcd60e51b815260206004820152601760248201527f416d6f756e74206d75737420626520706f7369746976650000000000000000006044820152606401610aea565b6101cb546040516323b872dd60e01b8152336004820152306024820152604481018390526101009091046001600160a01b0316906323b872dd906064016020604051808303816000875af1158015610c57573d6000803e3d6000fd5b505050506040513d601f19601f82011682018060405250810190610c7b91906134a4565b610cbd5760405162461bcd60e51b8152602060048201526013602482015272111090c81d1c985b9cd9995c8819985a5b1959606a1b6044820152606401610aea565b3360009081526101d060205260408120549003610d18576101cf80546001810182556000919091527fb3c3535b893c543659d6222f95c1d595efa197ef5bb8ab413f33658de985b0910180546001600160a01b031916331790555b3360009081526101d06020526040902054610d339082611bc7565b3360009081526101d060205260409020556101c854610d529082611bc7565b6101c85560405181815233907f7135637f5e782b6b2ed97949ee4a45a8c7a56c48f46aa929872aff79109c131a9060200160405180910390a26101ca544210610d9d57610d9d611bd3565b610da7600160fe55565b50565b600054610100900460ff1615808015610dca5750600054600160ff909116105b80610de45750303b158015610de4575060005460ff166001145b610e475760405162461bcd60e51b815260206004820152602e60248201527f496e697469616c697a61626c653a20636f6e747261637420697320616c72656160448201526d191e481a5b9a5d1a585b1a5e995960921b6064820152608401610aea565b6000805460ff191660011790558015610e6a576000805461ff0019166101001790555b610eb0604051806040016040528060098152602001682c20a0902a37b5b2b760b91b8152506040518060400160405280600381526020016258414160e81b815250612170565b610eb86121a1565b610ee2604051806040016040528060098152602001682c20a0902a37b5b2b760b91b8152506121c8565b610eea612212565b610ef2612241565b610efa6121a1565b6001600160a01b038516610f505760405162461bcd60e51b815260206004820152601960248201527f496e76616c69642044424320746f6b656e2061646472657373000000000000006044820152606401610aea565b6001600160a01b038416610fa65760405162461bcd60e51b815260206004820152601860248201527f496e76616c69642058414120706f6f6c206164647265737300000000000000006044820152606401610aea565b6001600160a01b038316610ffc5760405162461bcd60e51b815260206004820152601960248201527f496e76616c69642065636f73797374656d2061646472657373000000000000006044820152606401610aea565b6001600160a01b0382166110525760405162461bcd60e51b815260206004820152601760248201527f496e76616c69642063726561746f7220616464726573730000000000000000006044820152606401610aea565b6101cb8054610100600160a81b0319166101006001600160a01b0388811691909102919091179091556101c98790556101cc80546001600160a01b0319908116878416179091556101cd805482168684161790556101ce80549091169184169190911790556101c7805460ff191690556110e73060126110d390600a6135c0565b6110e29064e8d4a510006135cf565b612270565b801561112d576000805461ff0019169055604051600181527f7f26b83ff96e1f2b6a682f133852f6798a09c465da95921460cefb38474024989060200160405180910390a15b505050505050565b600061113f612331565b905090565b6001600160a01b037f000000000000000000000000000000000000000000000000000000000000000016300361118c5760405162461bcd60e51b8152600401610aea906135e6565b7f00000000000000000000000000000000000000000000000000000000000000006001600160a01b03166111d560008051602061387b833981519152546001600160a01b031690565b6001600160a01b0316146111fb5760405162461bcd60e51b8152600401610aea90613632565b6112048161233b565b60408051600080825260208201909252610da791839190612343565b600033610a4881858561123383836118a6565b61123d919061367e565b611947565b610da733826124b3565b6001600160a01b037f00000000000000000000000000000000000000000000000000000000000000001630036112945760405162461bcd60e51b8152600401610aea906135e6565b7f00000000000000000000000000000000000000000000000000000000000000006001600160a01b03166112dd60008051602061387b833981519152546001600160a01b031690565b6001600160a01b0316146113035760405162461bcd60e51b8152600401610aea90613632565b61130c8261233b565b61131882826001612343565b5050565b6000306001600160a01b037f000000000000000000000000000000000000000000000000000000000000000016146113bc5760405162461bcd60e51b815260206004820152603860248201527f555550535570677261646561626c653a206d757374206e6f742062652063616c60448201527f6c6564207468726f7567682064656c656761746563616c6c00000000000000006064820152608401610aea565b5060008051602061387b83398151915290565b6113d76125e7565b6113e16000612642565b565b6113ee823383612695565b61131882826124b3565b6001600160a01b038116600090815260cb6020526040812054610a4e565b6000606080600080600060606097546000801b1480156114365750609854155b61147a5760405162461bcd60e51b81526020600482015260156024820152741152540dcc4c8e88155b9a5b9a5d1a585b1a5e9959605a1b6044820152606401610aea565b61148261270f565b61148a61271e565b60408051600080825260208201909252600f60f81b9b939a50919850469750309650945092509050565b6060603780546109b790613428565b600033816114d182866118a6565b9050838110156115315760405162461bcd60e51b815260206004820152602560248201527f45524332303a2064656372656173656420616c6c6f77616e63652062656c6f77604482015264207a65726f60d81b6064820152608401610aea565b61153e8286868403611947565b506001949350505050565b60006001600160a01b038316158061155f575081155b156115755761156e838361272d565b9050610a4e565b61157f3383611b29565b61159b5760405162461bcd60e51b8152600401610aea9061345c565b610b01838361272d565b6115ad6125e7565b6101c75460ff16156116015760405162461bcd60e51b815260206004820152601a60248201527f496e766573746d656e7420616c726561647920737461727465640000000000006044820152606401610aea565b426101c6819055611616906203f4809061367e565b6101ca8190556101c7805460ff191660011790556101c6546040517f0be3ba938ea6553428c5a838b72ee53805d227fc093444cb9ef98fd0c016be0092611664928252602082015260400190565b60405180910390a1565b6001600160a01b03821660009081526101d16020526040812054819061ffff8416106116d15760405162461bcd60e51b8152602060048201526012602482015271496e646578206f7574206f662072616e676560701b6044820152606401610aea565b6001600160a01b03841660009081526101d160205260408120805461ffff861690811061170057611700613691565b60009182526020918290206040805160608101825260039093029091018054835260018101549383018490526002015491018190529093509150509250929050565b834211156117925760405162461bcd60e51b815260206004820152601d60248201527f45524332305065726d69743a206578706972656420646561646c696e650000006044820152606401610aea565b60007f6e71edae12b1b97f4d1f60370fef10105fa2faae0126114a169c64845d6126c98888886117c18c61273b565b6040805160208101969096526001600160a01b0394851690860152929091166060840152608083015260a082015260c0810186905260e001604051602081830303815290604052805190602001209050600061181c82612763565b9050600061182c82878787612790565b9050896001600160a01b0316816001600160a01b03161461188f5760405162461bcd60e51b815260206004820152601e60248201527f45524332305065726d69743a20696e76616c6964207369676e617475726500006044820152606401610aea565b61189a8a8a8a611947565b50505050505050505050565b6001600160a01b03918216600090815260346020908152604080832093909416825291909152205490565b6118d96125e7565b6001600160a01b03811661193e5760405162461bcd60e51b815260206004820152602660248201527f4f776e61626c653a206e6577206f776e657220697320746865207a65726f206160448201526564647265737360d01b6064820152608401610aea565b610da781612642565b6001600160a01b0383166119a95760405162461bcd60e51b8152602060048201526024808201527f45524332303a20617070726f76652066726f6d20746865207a65726f206164646044820152637265737360e01b6064820152608401610aea565b6001600160a01b038216611a0a5760405162461bcd60e51b815260206004820152602260248201527f45524332303a20617070726f766520746f20746865207a65726f206164647265604482015261737360f01b6064820152608401610aea565b6001600160a01b0383811660008181526034602090815260408083209487168084529482529182902085905590518481527f8c5be1e5ebec7d5bd14f71427d1e84f3dd0314c0f7b2291e5b200ac8c7c3b925910160405180910390a3505050565b6001600160a01b03811660009081526101d16020526040812081805b8254811015611afc57828181548110611aa257611aa2613691565b906000526020600020906003020160020154421015611af457611af1838281548110611ad057611ad0613691565b90600052602060002090600302016001015483611bc790919063ffffffff16565b91505b600101611a87565b509392505050565b6000610b0182846136a7565b600033611b1e858285612695565b61153e8585856127ba565b600080611b3584611a6b565b90506000611b6282611b5c876001600160a01b031660009081526033602052604090205490565b90611b04565b90931115949350505050565b600260fe5403611bc05760405162461bcd60e51b815260206004820152601f60248201527f5265656e7472616e637947756172643a207265656e7472616e742063616c6c006044820152606401610aea565b600260fe55565b6000610b01828461367e565b6101c75460ff16611c1c5760405162461bcd60e51b815260206004820152601360248201527224b73b32b9ba36b2b73a103737ba1037b832b760691b6044820152606401610aea565b6101ca54421015611c6f5760405162461bcd60e51b815260206004820152601b60248201527f496e766573746d656e7420706572696f64206e6f7420656e64656400000000006044820152606401610aea565b6101cb5460ff1615611cc35760405162461bcd60e51b815260206004820152601a60248201527f546f6b656e7320616c72656164792064697374726962757465640000000000006044820152606401610aea565b6101c7805460ff199081169091556101cb8054909116600117905569152d02c7e14af68000006000611d03612710611cfd846103e8612965565b90612971565b90506000611d19612710611cfd856101f4612965565b90506000611d2f612710611cfd866103e8612965565b90506000611d45612710611cfd87611388612965565b90506000611d5b612710611cfd886109c4612965565b6101ce54909150611d75906001600160a01b031686612270565b6101ce54611d90906001600160a01b03168662278d0061297d565b6101ce546040518681526001600160a01b03909116906000805160206138c28339815191529060200160405180910390a26101cc54611dd8906001600160a01b031685612270565b6101cc54611df5906001600160a01b031685640757b12c0061297d565b6040805160808101825230808252602082018790526000828401819052600160609093018390526101d280546001600160a01b0319169092179091556101d38790556101d4556101d5805460ff191690911790556101cc5490516001600160a01b0391909116906000805160206138c283398151915290611e799087815260200190565b60405180910390a2604080518581526000602082015230917f620f7d92e94f37e846b7a037fa45c886f3ab726b58c6531813825a47ad4eec50910160405180910390a26101cd54611ed3906001600160a01b031684612270565b6101cd54611eee906001600160a01b03168462ed4e0061297d565b6101cd546040518481526001600160a01b03909116906000805160206138c28339815191529060200160405180910390a26101c85460009015612049576000611f376101c85490565b9050600069054b40b1f852bda000008210611f5b5750670de0b6b3a7640000611f7e565b611f7b69054b40b1f852bda00000611cfd84670de0b6b3a7640000612965565b90505b611f94670de0b6b3a7640000611cfd8684612965565b925060005b6101cf548110156120455760006101cf8281548110611fba57611fba613691565b60009182526020808320909101546101c8546001600160a01b039091168084526101d09092526040832054919350611ff791611cfd908990612965565b9050801561203b576120098282612270565b816001600160a01b03166000805160206138c28339815191528260405161203291815260200190565b60405180910390a25b5050600101611f99565b5050505b6040805160808101825230808252602082018690526101c854928201839052600160609092018290526101d680546001600160a01b031916821790556101d78690556101d8929092556101d9805460ff191690911790556120aa9084612270565b6101c85460405130917f620f7d92e94f37e846b7a037fa45c886f3ab726b58c6531813825a47ad4eec50916120e791878252602082015260400190565b60405180910390a260405183815230907f82ab8ae7f98a9010f180c0ad679a83f4fa19c087feb670d62ae653b6961564c09060200160405180910390a27fa5312aa2758835a367a1d72034e51ac82b29dee733a5f5eed3a51f6f2f5bc53a6101c85460405161215891815260200190565b60405180910390a150505050505050565b600160fe55565b600054610100900460ff166121975760405162461bcd60e51b8152600401610aea906136ba565b6113188282612a33565b600054610100900460ff166113e15760405162461bcd60e51b8152600401610aea906136ba565b600054610100900460ff166121ef5760405162461bcd60e51b8152600401610aea906136ba565b610da781604051806040016040528060018152602001603160f81b815250612a73565b600054610100900460ff166122395760405162461bcd60e51b8152600401610aea906136ba565b6113e1612ac2565b600054610100900460ff166122685760405162461bcd60e51b8152600401610aea906136ba565b6113e1612ae9565b6001600160a01b0382166122c65760405162461bcd60e51b815260206004820152601f60248201527f45524332303a206d696e7420746f20746865207a65726f2061646472657373006044820152606401610aea565b80603560008282546122d8919061367e565b90915550506001600160a01b0382166000818152603360209081526040808320805486019055518481527fddf252ad1be2c89b69c2b068fc378daa952ba7f163c4a11628f55a4df523b3ef910160405180910390a35050565b600061113f612b19565b610da76125e7565b7f4910fdfa16fed3260ed0e7147f7cc6da11a60208b5b9406d12a635614ffd91435460ff161561237b5761237683612b8d565b505050565b826001600160a01b03166352d1902d6040518163ffffffff1660e01b8152600401602060405180830381865afa9250505080156123d5575060408051601f3d908101601f191682019092526123d291810190613705565b60015b6124385760405162461bcd60e51b815260206004820152602e60248201527f45524331393637557067726164653a206e657720696d706c656d656e7461746960448201526d6f6e206973206e6f74205555505360901b6064820152608401610aea565b60008051602061387b83398151915281146124a75760405162461bcd60e51b815260206004820152602960248201527f45524331393637557067726164653a20756e737570706f727465642070726f786044820152681a58589b195555525160ba1b6064820152608401610aea565b50612376838383612c29565b6001600160a01b0382166125135760405162461bcd60e51b815260206004820152602160248201527f45524332303a206275726e2066726f6d20746865207a65726f206164647265736044820152607360f81b6064820152608401610aea565b6001600160a01b038216600090815260336020526040902054818110156125875760405162461bcd60e51b815260206004820152602260248201527f45524332303a206275726e20616d6f756e7420657863656564732062616c616e604482015261636560f01b6064820152608401610aea565b6001600160a01b03831660008181526033602090815260408083208686039055603580548790039055518581529192917fddf252ad1be2c89b69c2b068fc378daa952ba7f163c4a11628f55a4df523b3ef910160405180910390a3505050565b610130546001600160a01b031633146113e15760405162461bcd60e51b815260206004820181905260248201527f4f776e61626c653a2063616c6c6572206973206e6f7420746865206f776e65726044820152606401610aea565b61013080546001600160a01b038381166001600160a01b0319831681179093556040519116919082907f8be0079c531659141344cd1fd0a4f28419497f9722a3daafe3b4186f6b6457e090600090a35050565b60006126a184846118a6565b9050600019811461270957818110156126fc5760405162461bcd60e51b815260206004820152601d60248201527f45524332303a20696e73756666696369656e7420616c6c6f77616e63650000006044820152606401610aea565b6127098484848403611947565b50505050565b6060609980546109b790613428565b6060609a80546109b790613428565b600033610a488185856127ba565b6001600160a01b038116600090815260cb602052604090208054600181018255905b50919050565b6000610a4e612770612331565b8360405161190160f01b8152600281019290925260228201526042902090565b60008060006127a187878787612c4e565b915091506127ae81612d12565b5090505b949350505050565b6001600160a01b03831661281e5760405162461bcd60e51b815260206004820152602560248201527f45524332303a207472616e736665722066726f6d20746865207a65726f206164604482015264647265737360d81b6064820152608401610aea565b6001600160a01b0382166128805760405162461bcd60e51b815260206004820152602360248201527f45524332303a207472616e7366657220746f20746865207a65726f206164647260448201526265737360e81b6064820152608401610aea565b6001600160a01b038316600090815260336020526040902054818110156128f85760405162461bcd60e51b815260206004820152602660248201527f45524332303a207472616e7366657220616d6f756e7420657863656564732062604482015265616c616e636560d01b6064820152608401610aea565b6001600160a01b0380851660008181526033602052604080822086860390559286168082529083902080548601905591517fddf252ad1be2c89b69c2b068fc378daa952ba7f163c4a11628f55a4df523b3ef906129589086815260200190565b60405180910390a3612709565b6000610b0182846135cf565b6000610b01828461371e565b42600061298a838361367e565b6001600160a01b03861660008181526101d16020908152604080832081516060810183528881528084018b815281840188815283546001818101865594885295909620915160039095029091019384555190830155915160029091015551919250907fd741e738a23fd18a03a26522320d9fc6cac1fed483e215ea9150fbc2fc43385d90612a249087908590918252602082015260400190565b60405180910390a25050505050565b600054610100900460ff16612a5a5760405162461bcd60e51b8152600401610aea906136ba565b6036612a668382613788565b5060376123768282613788565b600054610100900460ff16612a9a5760405162461bcd60e51b8152600401610aea906136ba565b6099612aa68382613788565b50609a612ab38282613788565b50506000609781905560985550565b600054610100900460ff166121695760405162461bcd60e51b8152600401610aea906136ba565b600054610100900460ff16612b105760405162461bcd60e51b8152600401610aea906136ba565b6113e133612642565b60007f8b73c3c69bb8fe3d512ecc4cf759cc79239f7b179b0ffacaa9a75d522b39400f612b44612e5c565b612b4c612eb5565b60408051602081019490945283019190915260608201524660808201523060a082015260c00160405160208183030381529060405280519060200120905090565b6001600160a01b0381163b612bfa5760405162461bcd60e51b815260206004820152602d60248201527f455243313936373a206e657720696d706c656d656e746174696f6e206973206e60448201526c1bdd08184818dbdb9d1c9858dd609a1b6064820152608401610aea565b60008051602061387b83398151915280546001600160a01b0319166001600160a01b0392909216919091179055565b612c3283612ee6565b600082511180612c3f5750805b15612376576127098383612f26565b6000807f7fffffffffffffffffffffffffffffff5d576e7357a4501ddfe92f46681b20a0831115612c855750600090506003612d09565b6040805160008082526020820180845289905260ff881692820192909252606081018690526080810185905260019060a0016020604051602081039080840390855afa158015612cd9573d6000803e3d6000fd5b5050604051601f1901519150506001600160a01b038116612d0257600060019250925050612d09565b9150600090505b94509492505050565b6000816004811115612d2657612d26613848565b03612d2e5750565b6001816004811115612d4257612d42613848565b03612d8f5760405162461bcd60e51b815260206004820152601860248201527f45434453413a20696e76616c6964207369676e617475726500000000000000006044820152606401610aea565b6002816004811115612da357612da3613848565b03612df05760405162461bcd60e51b815260206004820152601f60248201527f45434453413a20696e76616c6964207369676e6174757265206c656e677468006044820152606401610aea565b6003816004811115612e0457612e04613848565b03610da75760405162461bcd60e51b815260206004820152602260248201527f45434453413a20696e76616c6964207369676e6174757265202773272076616c604482015261756560f01b6064820152608401610aea565b600080612e6761270f565b805190915015612e7e578051602090910120919050565b6097548015612e8d5792915050565b7fc5d2460186f7233c927e7db2dcc703c0e500b653ca82273b7bfad8045d85a4709250505090565b600080612ec061271e565b805190915015612ed7578051602090910120919050565b6098548015612e8d5792915050565b612eef81612b8d565b6040516001600160a01b038216907fbc7cd75a20ee27fd9adebab32041f755214dbc6bffa90cc0225b39da2e5c2d3b90600090a250565b6060610b01838360405180606001604052806027815260200161389b602791396060600080856001600160a01b031685604051612f63919061385e565b600060405180830381855af49150503d8060008114612f9e576040519150601f19603f3d011682016040523d82523d6000602084013e612fa3565b606091505b5091509150612fb486838387612fbe565b9695505050505050565b6060831561302d578251600003613026576001600160a01b0385163b6130265760405162461bcd60e51b815260206004820152601d60248201527f416464726573733a2063616c6c20746f206e6f6e2d636f6e74726163740000006044820152606401610aea565b50816127b2565b6127b283838151156130425781518083602001fd5b8060405162461bcd60e51b8152600401610aea91906130ac565b60005b8381101561307757818101518382015260200161305f565b50506000910152565b6000815180845261309881602086016020860161305c565b601f01601f19169290920160200192915050565b602081526000610b016020830184613080565b80356001600160a01b03811681146130d657600080fd5b919050565b600080604083850312156130ee57600080fd5b6130f7836130bf565b946020939093013593505050565b60006020828403121561311757600080fd5b610b01826130bf565b60008060006060848603121561313557600080fd5b61313e846130bf565b925061314c602085016130bf565b9150604084013590509250925092565b60006020828403121561316e57600080fd5b5035919050565b600080600080600060a0868803121561318d57600080fd5b8535945061319d602087016130bf565b93506131ab604087016130bf565b92506131b9606087016130bf565b91506131c7608087016130bf565b90509295509295909350565b634e487b7160e01b600052604160045260246000fd5b600080604083850312156131fc57600080fd5b613205836130bf565b9150602083013567ffffffffffffffff8082111561322257600080fd5b818501915085601f83011261323657600080fd5b813581811115613248576132486131d3565b604051601f8201601f19908116603f01168101908382118183101715613270576132706131d3565b8160405282815288602084870101111561328957600080fd5b8260208601602083013760006020848301015280955050505050509250929050565b60ff60f81b881681526000602060e060208401526132cc60e084018a613080565b83810360408501526132de818a613080565b606085018990526001600160a01b038816608086015260a0850187905284810360c08601528551808252602080880193509091019060005b8181101561333257835183529284019291840191600101613316565b50909c9b505050505050505050505050565b6000806040838503121561335757600080fd5b613360836130bf565b9150602083013561ffff8116811461337757600080fd5b809150509250929050565b600080600080600080600060e0888a03121561339d57600080fd5b6133a6886130bf565b96506133b4602089016130bf565b95506040880135945060608801359350608088013560ff811681146133d857600080fd5b9699959850939692959460a0840135945060c09093013592915050565b6000806040838503121561340857600080fd5b613411836130bf565b915061341f602084016130bf565b90509250929050565b600181811c9082168061343c57607f821691505b60208210810361275d57634e487b7160e01b600052602260045260246000fd5b60208082526028908201527f5472616e7366657220616d6f756e74206578636565647320756e6c6f636b65646040820152672062616c616e636560c01b606082015260800190565b6000602082840312156134b657600080fd5b81518015158114610b0157600080fd5b634e487b7160e01b600052601160045260246000fd5b600181815b808511156135175781600019048211156134fd576134fd6134c6565b8085161561350a57918102915b93841c93908002906134e1565b509250929050565b60008261352e57506001610a4e565b8161353b57506000610a4e565b8160018114613551576002811461355b57613577565b6001915050610a4e565b60ff84111561356c5761356c6134c6565b50506001821b610a4e565b5060208310610133831016604e8410600b841016171561359a575081810a610a4e565b6135a483836134dc565b80600019048211156135b8576135b86134c6565b029392505050565b6000610b0160ff84168361351f565b8082028115828204841417610a4e57610a4e6134c6565b6020808252602c908201527f46756e6374696f6e206d7573742062652063616c6c6564207468726f7567682060408201526b19195b1959d85d1958d85b1b60a21b606082015260800190565b6020808252602c908201527f46756e6374696f6e206d7573742062652063616c6c6564207468726f7567682060408201526b6163746976652070726f787960a01b606082015260800190565b80820180821115610a4e57610a4e6134c6565b634e487b7160e01b600052603260045260246000fd5b81810381811115610a4e57610a4e6134c6565b6020808252602b908201527f496e697469616c697a61626c653a20636f6e7472616374206973206e6f74206960408201526a6e697469616c697a696e6760a81b606082015260800190565b60006020828403121561371757600080fd5b5051919050565b60008261373b57634e487b7160e01b600052601260045260246000fd5b500490565b601f821115612376576000816000526020600020601f850160051c810160208610156137695750805b601f850160051c820191505b8181101561112d57828155600101613775565b815167ffffffffffffffff8111156137a2576137a26131d3565b6137b6816137b08454613428565b84613740565b602080601f8311600181146137eb57600084156137d35750858301515b600019600386901b1c1916600185901b17855561112d565b600085815260208120601f198616915b8281101561381a578886015182559484019460019091019084016137fb565b50858210156138385787850151600019600388901b60f8161c191681555b5050505050600190811b01905550565b634e487b7160e01b600052602160045260246000fd5b6000825161387081846020870161305c565b919091019291505056fe360894a13ba1a3210667c828492db98dca3e2076cc3735a920a3ca505d382bbc416464726573733a206c6f772d6c6576656c2064656c65676174652063616c6c206661696c656416b0da2ffcb90c6723317bd637d9aad7f04711f42bbe0ac0918ebe10f1f9001ca2646970667358221220c828cdc338b1f1145bb71b6eb6b5c85cd7e125247937571b0afccd2c2e5a277664736f6c63430008160033","opcodes":"PUSH1 0xA0 PUSH1 0x40 MSTORE ADDRESS PUSH1 0x80 MSTORE CALLVALUE DUP1 ISZERO PUSH3 0x15 JUMPI PUSH1 0x0 DUP1 REVERT JUMPDEST POP PUSH3 0x20 PUSH3 0x26 JUMP JUMPDEST PUSH3 0xE7 JUMP JUMPDEST PUSH1 0x0 SLOAD PUSH2 0x100 SWAP1 DIV PUSH1 0xFF AND ISZERO PUSH3 0x93 JUMPI PUSH1 0x40 MLOAD PUSH3 0x461BCD PUSH1 0xE5 SHL DUP2 MSTORE PUSH1 0x20 PUSH1 0x4 DUP3 ADD MSTORE PUSH1 0x27 PUSH1 0x24 DUP3 ADD MSTORE PUSH32 0x496E697469616C697A61626C653A20636F6E747261637420697320696E697469 PUSH1 0x44 DUP3 ADD MSTORE PUSH7 0x616C697A696E67 PUSH1 0xC8 SHL PUSH1 0x64 DUP3 ADD MSTORE PUSH1 0x84 ADD PUSH1 0x40 MLOAD DUP1 SWAP2 SUB SWAP1 REVERT JUMPDEST PUSH1 0x0 SLOAD PUSH1 0xFF SWAP1 DUP2 AND EQ PUSH3 0xE5 JUMPI PUSH1 0x0 DUP1 SLOAD PUSH1 0xFF NOT AND PUSH1 0xFF SWAP1 DUP2 OR SWAP1 SWAP2 SSTORE PUSH1 0x40 MLOAD SWAP1 DUP2 MSTORE PUSH32 0x7F26B83FF96E1F2B6A682F133852F6798A09C465DA95921460CEFB3847402498 SWAP1 PUSH1 0x20 ADD PUSH1 0x40 MLOAD DUP1 SWAP2 SUB SWAP1 LOG1 JUMPDEST JUMP JUMPDEST PUSH1 0x80 MLOAD PUSH2 0x3917 PUSH3 0x11F PUSH1 0x0 CODECOPY PUSH1 0x0 DUP2 DUP2 PUSH2 0x114E ADD MSTORE DUP2 DUP2 PUSH2 0x118E ADD MSTORE DUP2 DUP2 PUSH2 0x1256 ADD MSTORE DUP2 DUP2 PUSH2 0x1296 ADD MSTORE PUSH2 0x1329 ADD MSTORE PUSH2 0x3917 PUSH1 0x0 RETURN INVALID PUSH1 0x80 PUSH1 0x40 MSTORE PUSH1 0x4 CALLDATASIZE LT PUSH2 0x31A JUMPI PUSH1 0x0 CALLDATALOAD PUSH1 0xE0 SHR DUP1 PUSH4 0x73EF8387 GT PUSH2 0x1AB JUMPI DUP1 PUSH4 0xAFA98831 GT PUSH2 0xF7 JUMPI DUP1 PUSH4 0xDCD8BC41 GT PUSH2 0x95 JUMPI DUP1 PUSH4 0xE487709D GT PUSH2 0x6F JUMPI DUP1 PUSH4 0xE487709D EQ PUSH2 0x93A JUMPI DUP1 PUSH4 0xE927FC5C EQ PUSH2 0x950 JUMPI DUP1 PUSH4 0xEE842584 EQ PUSH2 0x971 JUMPI DUP1 PUSH4 0xF2FDE38B EQ PUSH2 0x988 JUMPI PUSH1 0x0 DUP1 REVERT JUMPDEST DUP1 PUSH4 0xDCD8BC41 EQ PUSH2 0x8EC JUMPI DUP1 PUSH4 0xDD62ED3E EQ PUSH2 0x903 JUMPI DUP1 PUSH4 0xE0EA2944 EQ PUSH2 0x923 JUMPI PUSH1 0x0 DUP1 REVERT JUMPDEST DUP1 PUSH4 0xC980270D GT PUSH2 0xD1 JUMPI DUP1 PUSH4 0xC980270D EQ PUSH2 0x862 JUMPI DUP1 PUSH4 0xCF93340D EQ PUSH2 0x879 JUMPI DUP1 PUSH4 0xD2D8CA56 EQ PUSH2 0x899 JUMPI DUP1 PUSH4 0xD505ACCF EQ PUSH2 0x8CC JUMPI PUSH1 0x0 DUP1 REVERT JUMPDEST DUP1 PUSH4 0xAFA98831 EQ PUSH2 0x815 JUMPI DUP1 PUSH4 0xB95B43BF EQ PUSH2 0x836 JUMPI DUP1 PUSH4 0xC43D8AA6 EQ PUSH2 0x84D JUMPI PUSH1 0x0 DUP1 REVERT JUMPDEST DUP1 PUSH4 0x90534F24 GT PUSH2 0x164 JUMPI DUP1 PUSH4 0xA18B5674 GT PUSH2 0x13E JUMPI DUP1 PUSH4 0xA18B5674 EQ PUSH2 0x7A1 JUMPI DUP1 PUSH4 0xA457C2D7 EQ PUSH2 0x7BF JUMPI DUP1 PUSH4 0xA9059CBB EQ PUSH2 0x7DF JUMPI DUP1 PUSH4 0xADD78AD0 EQ PUSH2 0x7FF JUMPI PUSH1 0x0 DUP1 REVERT JUMPDEST DUP1 PUSH4 0x90534F24 EQ PUSH2 0x4FF JUMPI DUP1 PUSH4 0x95D89B41 EQ PUSH2 0x75E JUMPI DUP1 PUSH4 0x96B98862 EQ PUSH2 0x773 JUMPI PUSH1 0x0 DUP1 REVERT JUMPDEST DUP1 PUSH4 0x73EF8387 EQ PUSH2 0x69E JUMPI DUP1 PUSH4 0x79CC6790 EQ PUSH2 0x6B9 JUMPI DUP1 PUSH4 0x7E23ECC2 EQ PUSH2 0x6D9 JUMPI DUP1 PUSH4 0x7ECEBE00 EQ PUSH2 0x6F7 JUMPI DUP1 PUSH4 0x84B0196E EQ PUSH2 0x717 JUMPI DUP1 PUSH4 0x8DA5CB5B EQ PUSH2 0x73F JUMPI PUSH1 0x0 DUP1 REVERT JUMPDEST DUP1 PUSH4 0x313CE567 GT PUSH2 0x26A JUMPI DUP1 PUSH4 0x4498C446 GT PUSH2 0x223 JUMPI DUP1 PUSH4 0x6234BA27 GT PUSH2 0x1FD JUMPI DUP1 PUSH4 0x6234BA27 EQ PUSH2 0x61C JUMPI DUP1 PUSH4 0x70A08231 EQ PUSH2 0x635 JUMPI DUP1 PUSH4 0x715018A6 EQ PUSH2 0x66B JUMPI DUP1 PUSH4 0x7346069D EQ PUSH2 0x680 JUMPI PUSH1 0x0 DUP1 REVERT JUMPDEST DUP1 PUSH4 0x4498C446 EQ PUSH2 0x5DD JUMPI DUP1 PUSH4 0x4F1EF286 EQ PUSH2 0x5F4 JUMPI DUP1 PUSH4 0x52D1902D EQ PUSH2 0x607 JUMPI PUSH1 0x0 DUP1 REVERT JUMPDEST DUP1 PUSH4 0x313CE567 EQ PUSH2 0x52C JUMPI DUP1 PUSH4 0x3641E083 EQ PUSH2 0x548 JUMPI DUP1 PUSH4 0x3644E515 EQ PUSH2 0x568 JUMPI DUP1 PUSH4 0x3659CFE6 EQ PUSH2 0x57D JUMPI DUP1 PUSH4 0x39509351 EQ PUSH2 0x59D JUMPI DUP1 PUSH4 0x42966C68 EQ PUSH2 0x5BD JUMPI PUSH1 0x0 DUP1 REVERT JUMPDEST DUP1 PUSH4 0x18160DDD GT PUSH2 0x2D7 JUMPI DUP1 PUSH4 0x27D2F915 GT PUSH2 0x2B1 JUMPI DUP1 PUSH4 0x27D2F915 EQ PUSH2 0x4B7 JUMPI DUP1 PUSH4 0x2AFCF480 EQ PUSH2 0x4DD JUMPI DUP1 PUSH4 0x2BC73063 EQ PUSH2 0x4FF JUMPI DUP1 PUSH4 0x2CA0228A EQ PUSH2 0x515 JUMPI PUSH1 0x0 DUP1 REVERT JUMPDEST DUP1 PUSH4 0x18160DDD EQ PUSH2 0x44D JUMPI DUP1 PUSH4 0x1F3A71BA EQ PUSH2 0x462 JUMPI DUP1 PUSH4 0x23B872DD EQ PUSH2 0x497 JUMPI PUSH1 0x0 DUP1 REVERT JUMPDEST DUP1 PUSH4 0x2CE3D67 EQ PUSH2 0x31F JUMPI DUP1 PUSH4 0x6A5CB3A EQ PUSH2 0x348 JUMPI DUP1 PUSH4 0x6FDDE03 EQ PUSH2 0x381 JUMPI DUP1 PUSH4 0x95EA7B3 EQ PUSH2 0x3A3 JUMPI DUP1 PUSH4 0x152E84A7 EQ PUSH2 0x3D3 JUMPI DUP1 PUSH4 0x17DEFD8F EQ PUSH2 0x3EE JUMPI JUMPDEST PUSH1 0x0 DUP1 REVERT JUMPDEST CALLVALUE DUP1 ISZERO PUSH2 0x32B JUMPI PUSH1 0x0 DUP1 REVERT JUMPDEST POP PUSH2 0x335 PUSH2 0x1F4 DUP2 JUMP JUMPDEST PUSH1 0x40 MLOAD SWAP1 DUP2 MSTORE PUSH1 0x20 ADD JUMPDEST PUSH1 0x40 MLOAD DUP1 SWAP2 SUB SWAP1 RETURN JUMPDEST CALLVALUE DUP1 ISZERO PUSH2 0x354 JUMPI PUSH1 0x0 DUP1 REVERT JUMPDEST POP PUSH2 0x1CD SLOAD PUSH2 0x369 SWAP1 PUSH1 0x1 PUSH1 0x1 PUSH1 0xA0 SHL SUB AND DUP2 JUMP JUMPDEST PUSH1 0x40 MLOAD PUSH1 0x1 PUSH1 0x1 PUSH1 0xA0 SHL SUB SWAP1 SWAP2 AND DUP2 MSTORE PUSH1 0x20 ADD PUSH2 0x33F JUMP JUMPDEST CALLVALUE DUP1 ISZERO PUSH2 0x38D JUMPI PUSH1 0x0 DUP1 REVERT JUMPDEST POP PUSH2 0x396 PUSH2 0x9A8 JUMP JUMPDEST PUSH1 0x40 MLOAD PUSH2 0x33F SWAP2 SWAP1 PUSH2 0x30AC JUMP JUMPDEST CALLVALUE DUP1 ISZERO PUSH2 0x3AF JUMPI PUSH1 0x0 DUP1 REVERT JUMPDEST POP PUSH2 0x3C3 PUSH2 0x3BE CALLDATASIZE PUSH1 0x4 PUSH2 0x30DB JUMP JUMPDEST PUSH2 0xA3A JUMP JUMPDEST PUSH1 0x40 MLOAD SWAP1 ISZERO ISZERO DUP2 MSTORE PUSH1 0x20 ADD PUSH2 0x33F JUMP JUMPDEST CALLVALUE DUP1 ISZERO PUSH2 0x3DF JUMPI PUSH1 0x0 DUP1 REVERT JUMPDEST POP PUSH2 0x1CB SLOAD PUSH2 0x3C3 SWAP1 PUSH1 0xFF AND DUP2 JUMP JUMPDEST CALLVALUE DUP1 ISZERO PUSH2 0x3FA JUMPI PUSH1 0x0 DUP1 REVERT JUMPDEST POP PUSH2 0x1D6 SLOAD PUSH2 0x1D7 SLOAD PUSH2 0x1D8 SLOAD PUSH2 0x1D9 SLOAD PUSH2 0x421 SWAP4 PUSH1 0x1 PUSH1 0x1 PUSH1 0xA0 SHL SUB AND SWAP3 SWAP2 SWAP1 PUSH1 0xFF AND DUP5 JUMP JUMPDEST PUSH1 0x40 DUP1 MLOAD PUSH1 0x1 PUSH1 0x1 PUSH1 0xA0 SHL SUB SWAP1 SWAP6 AND DUP6 MSTORE PUSH1 0x20 DUP6 ADD SWAP4 SWAP1 SWAP4 MSTORE SWAP2 DUP4 ADD MSTORE ISZERO ISZERO PUSH1 0x60 DUP3 ADD MSTORE PUSH1 0x80 ADD PUSH2 0x33F JUMP JUMPDEST CALLVALUE DUP1 ISZERO PUSH2 0x459 JUMPI PUSH1 0x0 DUP1 REVERT JUMPDEST POP PUSH1 0x35 SLOAD PUSH2 0x335 JUMP JUMPDEST CALLVALUE DUP1 ISZERO PUSH2 0x46E JUMPI PUSH1 0x0 DUP1 REVERT JUMPDEST POP PUSH2 0x482 PUSH2 0x47D CALLDATASIZE PUSH1 0x4 PUSH2 0x3105 JUMP JUMPDEST PUSH2 0xA54 JUMP JUMPDEST PUSH1 0x40 DUP1 MLOAD SWAP3 DUP4 MSTORE PUSH1 0x20 DUP4 ADD SWAP2 SWAP1 SWAP2 MSTORE ADD PUSH2 0x33F JUMP JUMPDEST CALLVALUE DUP1 ISZERO PUSH2 0x4A3 JUMPI PUSH1 0x0 DUP1 REVERT JUMPDEST POP PUSH2 0x3C3 PUSH2 0x4B2 CALLDATASIZE PUSH1 0x4 PUSH2 0x3120 JUMP JUMPDEST PUSH2 0xA97 JUMP JUMPDEST CALLVALUE DUP1 ISZERO PUSH2 0x4C3 JUMPI PUSH1 0x0 DUP1 REVERT JUMPDEST POP PUSH2 0x1CB SLOAD PUSH2 0x369 SWAP1 PUSH2 0x100 SWAP1 DIV PUSH1 0x1 PUSH1 0x1 PUSH1 0xA0 SHL SUB AND DUP2 JUMP JUMPDEST CALLVALUE DUP1 ISZERO PUSH2 0x4E9 JUMPI PUSH1 0x0 DUP1 REVERT JUMPDEST POP PUSH2 0x4FD PUSH2 0x4F8 CALLDATASIZE PUSH1 0x4 PUSH2 0x315C JUMP JUMPDEST PUSH2 0xB08 JUMP JUMPDEST STOP JUMPDEST CALLVALUE DUP1 ISZERO PUSH2 0x50B JUMPI PUSH1 0x0 DUP1 REVERT JUMPDEST POP PUSH2 0x335 PUSH2 0x3E8 DUP2 JUMP JUMPDEST CALLVALUE DUP1 ISZERO PUSH2 0x521 JUMPI PUSH1 0x0 DUP1 REVERT JUMPDEST POP PUSH2 0x335 PUSH2 0x1C9 SLOAD DUP2 JUMP JUMPDEST CALLVALUE DUP1 ISZERO PUSH2 0x538 JUMPI PUSH1 0x0 DUP1 REVERT JUMPDEST POP PUSH1 0x40 MLOAD PUSH1 0x12 DUP2 MSTORE PUSH1 0x20 ADD PUSH2 0x33F JUMP JUMPDEST CALLVALUE DUP1 ISZERO PUSH2 0x554 JUMPI PUSH1 0x0 DUP1 REVERT JUMPDEST POP PUSH2 0x4FD PUSH2 0x563 CALLDATASIZE PUSH1 0x4 PUSH2 0x3175 JUMP JUMPDEST PUSH2 0xDAA JUMP JUMPDEST CALLVALUE DUP1 ISZERO PUSH2 0x574 JUMPI PUSH1 0x0 DUP1 REVERT JUMPDEST POP PUSH2 0x335 PUSH2 0x1135 JUMP JUMPDEST CALLVALUE DUP1 ISZERO PUSH2 0x589 JUMPI PUSH1 0x0 DUP1 REVERT JUMPDEST POP PUSH2 0x4FD PUSH2 0x598 CALLDATASIZE PUSH1 0x4 PUSH2 0x3105 JUMP JUMPDEST PUSH2 0x1144 JUMP JUMPDEST CALLVALUE DUP1 ISZERO PUSH2 0x5A9 JUMPI PUSH1 0x0 DUP1 REVERT JUMPDEST POP PUSH2 0x3C3 PUSH2 0x5B8 CALLDATASIZE PUSH1 0x4 PUSH2 0x30DB JUMP JUMPDEST PUSH2 0x1220 JUMP JUMPDEST CALLVALUE DUP1 ISZERO PUSH2 0x5C9 JUMPI PUSH1 0x0 DUP1 REVERT JUMPDEST POP PUSH2 0x4FD PUSH2 0x5D8 CALLDATASIZE PUSH1 0x4 PUSH2 0x315C JUMP JUMPDEST PUSH2 0x1242 JUMP JUMPDEST CALLVALUE DUP1 ISZERO PUSH2 0x5E9 JUMPI PUSH1 0x0 DUP1 REVERT JUMPDEST POP PUSH2 0x335 PUSH3 0x278D00 DUP2 JUMP JUMPDEST PUSH2 0x4FD PUSH2 0x602 CALLDATASIZE PUSH1 0x4 PUSH2 0x31E9 JUMP JUMPDEST PUSH2 0x124C JUMP JUMPDEST CALLVALUE DUP1 ISZERO PUSH2 0x613 JUMPI PUSH1 0x0 DUP1 REVERT JUMPDEST POP PUSH2 0x335 PUSH2 0x131C JUMP JUMPDEST CALLVALUE DUP1 ISZERO PUSH2 0x628 JUMPI PUSH1 0x0 DUP1 REVERT JUMPDEST POP PUSH2 0x335 PUSH5 0x757B12C00 DUP2 JUMP JUMPDEST CALLVALUE DUP1 ISZERO PUSH2 0x641 JUMPI PUSH1 0x0 DUP1 REVERT JUMPDEST POP PUSH2 0x335 PUSH2 0x650 CALLDATASIZE PUSH1 0x4 PUSH2 0x3105 JUMP JUMPDEST PUSH1 0x1 PUSH1 0x1 PUSH1 0xA0 SHL SUB AND PUSH1 0x0 SWAP1 DUP2 MSTORE PUSH1 0x33 PUSH1 0x20 MSTORE PUSH1 0x40 SWAP1 KECCAK256 SLOAD SWAP1 JUMP JUMPDEST CALLVALUE DUP1 ISZERO PUSH2 0x677 JUMPI PUSH1 0x0 DUP1 REVERT JUMPDEST POP PUSH2 0x4FD PUSH2 0x13CF JUMP JUMPDEST CALLVALUE DUP1 ISZERO PUSH2 0x68C JUMPI PUSH1 0x0 DUP1 REVERT JUMPDEST POP PUSH2 0x335 PUSH10 0x54B40B1F852BDA00000 DUP2 JUMP JUMPDEST CALLVALUE DUP1 ISZERO PUSH2 0x6AA JUMPI PUSH1 0x0 DUP1 REVERT JUMPDEST POP PUSH2 0x1C7 SLOAD PUSH2 0x3C3 SWAP1 PUSH1 0xFF AND DUP2 JUMP JUMPDEST CALLVALUE DUP1 ISZERO PUSH2 0x6C5 JUMPI PUSH1 0x0 DUP1 REVERT JUMPDEST POP PUSH2 0x4FD PUSH2 0x6D4 CALLDATASIZE PUSH1 0x4 PUSH2 0x30DB JUMP JUMPDEST PUSH2 0x13E3 JUMP JUMPDEST CALLVALUE DUP1 ISZERO PUSH2 0x6E5 JUMPI PUSH1 0x0 DUP1 REVERT JUMPDEST POP PUSH2 0x335 PUSH10 0xFE1C215E8F838E00000 DUP2 JUMP JUMPDEST CALLVALUE DUP1 ISZERO PUSH2 0x703 JUMPI PUSH1 0x0 DUP1 REVERT JUMPDEST POP PUSH2 0x335 PUSH2 0x712 CALLDATASIZE PUSH1 0x4 PUSH2 0x3105 JUMP JUMPDEST PUSH2 0x13F8 JUMP JUMPDEST CALLVALUE DUP1 ISZERO PUSH2 0x723 JUMPI PUSH1 0x0 DUP1 REVERT JUMPDEST POP PUSH2 0x72C PUSH2 0x1416 JUMP JUMPDEST PUSH1 0x40 MLOAD PUSH2 0x33F SWAP8 SWAP7 SWAP6 SWAP5 SWAP4 SWAP3 SWAP2 SWAP1 PUSH2 0x32AB JUMP JUMPDEST CALLVALUE DUP1 ISZERO PUSH2 0x74B JUMPI PUSH1 0x0 DUP1 REVERT JUMPDEST POP PUSH2 0x130 SLOAD PUSH1 0x1 PUSH1 0x1 PUSH1 0xA0 SHL SUB AND PUSH2 0x369 JUMP JUMPDEST CALLVALUE DUP1 ISZERO PUSH2 0x76A JUMPI PUSH1 0x0 DUP1 REVERT JUMPDEST POP PUSH2 0x396 PUSH2 0x14B4 JUMP JUMPDEST CALLVALUE DUP1 ISZERO PUSH2 0x77F JUMPI PUSH1 0x0 DUP1 REVERT JUMPDEST POP PUSH2 0x335 PUSH2 0x78E CALLDATASIZE PUSH1 0x4 PUSH2 0x3105 JUMP JUMPDEST PUSH2 0x1D0 PUSH1 0x20 MSTORE PUSH1 0x0 SWAP1 DUP2 MSTORE PUSH1 0x40 SWAP1 KECCAK256 SLOAD DUP2 JUMP JUMPDEST CALLVALUE DUP1 ISZERO PUSH2 0x7AD JUMPI PUSH1 0x0 DUP1 REVERT JUMPDEST POP PUSH2 0x335 PUSH10 0x152D02C7E14AF6800000 DUP2 JUMP JUMPDEST CALLVALUE DUP1 ISZERO PUSH2 0x7CB JUMPI PUSH1 0x0 DUP1 REVERT JUMPDEST POP PUSH2 0x3C3 PUSH2 0x7DA CALLDATASIZE PUSH1 0x4 PUSH2 0x30DB JUMP JUMPDEST PUSH2 0x14C3 JUMP JUMPDEST CALLVALUE DUP1 ISZERO PUSH2 0x7EB JUMPI PUSH1 0x0 DUP1 REVERT JUMPDEST POP PUSH2 0x3C3 PUSH2 0x7FA CALLDATASIZE PUSH1 0x4 PUSH2 0x30DB JUMP JUMPDEST PUSH2 0x1549 JUMP JUMPDEST CALLVALUE DUP1 ISZERO PUSH2 0x80B JUMPI PUSH1 0x0 DUP1 REVERT JUMPDEST POP PUSH2 0x335 PUSH2 0x9C4 DUP2 JUMP JUMPDEST CALLVALUE DUP1 ISZERO PUSH2 0x821 JUMPI PUSH1 0x0 DUP1 REVERT JUMPDEST POP PUSH2 0x1CC SLOAD PUSH2 0x369 SWAP1 PUSH1 0x1 PUSH1 0x1 PUSH1 0xA0 SHL SUB AND DUP2 JUMP JUMPDEST CALLVALUE DUP1 ISZERO PUSH2 0x842 JUMPI PUSH1 0x0 DUP1 REVERT JUMPDEST POP PUSH2 0x335 PUSH3 0x3F480 DUP2 JUMP JUMPDEST CALLVALUE DUP1 ISZERO PUSH2 0x859 JUMPI PUSH1 0x0 DUP1 REVERT JUMPDEST POP PUSH2 0x4FD PUSH2 0x15A5 JUMP JUMPDEST CALLVALUE DUP1 ISZERO PUSH2 0x86E JUMPI PUSH1 0x0 DUP1 REVERT JUMPDEST POP PUSH2 0x335 PUSH2 0x1CA SLOAD DUP2 JUMP JUMPDEST CALLVALUE DUP1 ISZERO PUSH2 0x885 JUMPI PUSH1 0x0 DUP1 REVERT JUMPDEST POP PUSH2 0x482 PUSH2 0x894 CALLDATASIZE PUSH1 0x4 PUSH2 0x3344 JUMP JUMPDEST PUSH2 0x166E JUMP JUMPDEST CALLVALUE DUP1 ISZERO PUSH2 0x8A5 JUMPI PUSH1 0x0 DUP1 REVERT JUMPDEST POP PUSH2 0x1D2 SLOAD PUSH2 0x1D3 SLOAD PUSH2 0x1D4 SLOAD PUSH2 0x1D5 SLOAD PUSH2 0x421 SWAP4 PUSH1 0x1 PUSH1 0x1 PUSH1 0xA0 SHL SUB AND SWAP3 SWAP2 SWAP1 PUSH1 0xFF AND DUP5 JUMP JUMPDEST CALLVALUE DUP1 ISZERO PUSH2 0x8D8 JUMPI PUSH1 0x0 DUP1 REVERT JUMPDEST POP PUSH2 0x4FD PUSH2 0x8E7 CALLDATASIZE PUSH1 0x4 PUSH2 0x3382 JUMP JUMPDEST PUSH2 0x1742 JUMP JUMPDEST CALLVALUE DUP1 ISZERO PUSH2 0x8F8 JUMPI PUSH1 0x0 DUP1 REVERT JUMPDEST POP PUSH2 0x335 PUSH2 0x1C6 SLOAD DUP2 JUMP JUMPDEST CALLVALUE DUP1 ISZERO PUSH2 0x90F JUMPI PUSH1 0x0 DUP1 REVERT JUMPDEST POP PUSH2 0x335 PUSH2 0x91E CALLDATASIZE PUSH1 0x4 PUSH2 0x33F5 JUMP JUMPDEST PUSH2 0x18A6 JUMP JUMPDEST CALLVALUE DUP1 ISZERO PUSH2 0x92F JUMPI PUSH1 0x0 DUP1 REVERT JUMPDEST POP PUSH2 0x335 PUSH3 0xED4E00 DUP2 JUMP JUMPDEST CALLVALUE DUP1 ISZERO PUSH2 0x946 JUMPI PUSH1 0x0 DUP1 REVERT JUMPDEST POP PUSH2 0x335 PUSH2 0x1388 DUP2 JUMP JUMPDEST CALLVALUE DUP1 ISZERO PUSH2 0x95C JUMPI PUSH1 0x0 DUP1 REVERT JUMPDEST POP PUSH2 0x1CE SLOAD PUSH2 0x369 SWAP1 PUSH1 0x1 PUSH1 0x1 PUSH1 0xA0 SHL SUB AND DUP2 JUMP JUMPDEST CALLVALUE DUP1 ISZERO PUSH2 0x97D JUMPI PUSH1 0x0 DUP1 REVERT JUMPDEST POP PUSH2 0x335 PUSH2 0x1C8 SLOAD DUP2 JUMP JUMPDEST CALLVALUE DUP1 ISZERO PUSH2 0x994 JUMPI PUSH1 0x0 DUP1 REVERT JUMPDEST POP PUSH2 0x4FD PUSH2 0x9A3 CALLDATASIZE PUSH1 0x4 PUSH2 0x3105 JUMP JUMPDEST PUSH2 0x18D1 JUMP JUMPDEST PUSH1 0x60 PUSH1 0x36 DUP1 SLOAD PUSH2 0x9B7 SWAP1 PUSH2 0x3428 JUMP JUMPDEST DUP1 PUSH1 0x1F ADD PUSH1 0x20 DUP1 SWAP2 DIV MUL PUSH1 0x20 ADD PUSH1 0x40 MLOAD SWAP1 DUP2 ADD PUSH1 0x40 MSTORE DUP1 SWAP3 SWAP2 SWAP1 DUP2 DUP2 MSTORE PUSH1 0x20 ADD DUP3 DUP1 SLOAD PUSH2 0x9E3 SWAP1 PUSH2 0x3428 JUMP JUMPDEST DUP1 ISZERO PUSH2 0xA30 JUMPI DUP1 PUSH1 0x1F LT PUSH2 0xA05 JUMPI PUSH2 0x100 DUP1 DUP4 SLOAD DIV MUL DUP4 MSTORE SWAP2 PUSH1 0x20 ADD SWAP2 PUSH2 0xA30 JUMP JUMPDEST DUP3 ADD SWAP2 SWAP1 PUSH1 0x0 MSTORE PUSH1 0x20 PUSH1 0x0 KECCAK256 SWAP1 JUMPDEST DUP2 SLOAD DUP2 MSTORE SWAP1 PUSH1 0x1 ADD SWAP1 PUSH1 0x20 ADD DUP1 DUP4 GT PUSH2 0xA13 JUMPI DUP3 SWAP1 SUB PUSH1 0x1F AND DUP3 ADD SWAP2 JUMPDEST POP POP POP POP POP SWAP1 POP SWAP1 JUMP JUMPDEST PUSH1 0x0 CALLER PUSH2 0xA48 DUP2 DUP6 DUP6 PUSH2 0x1947 JUMP JUMPDEST PUSH1 0x1 SWAP2 POP POP JUMPDEST SWAP3 SWAP2 POP POP JUMP JUMPDEST PUSH1 0x0 DUP1 PUSH1 0x0 PUSH2 0xA62 DUP5 PUSH2 0x1A6B JUMP JUMPDEST SWAP1 POP PUSH2 0xA83 DUP5 PUSH1 0x1 PUSH1 0x1 PUSH1 0xA0 SHL SUB AND PUSH1 0x0 SWAP1 DUP2 MSTORE PUSH1 0x33 PUSH1 0x20 MSTORE PUSH1 0x40 SWAP1 KECCAK256 SLOAD SWAP1 JUMP JUMPDEST SWAP3 POP PUSH2 0xA8F DUP4 DUP3 PUSH2 0x1B04 JUMP JUMPDEST SWAP2 POP POP SWAP2 POP SWAP2 JUMP JUMPDEST PUSH1 0x0 PUSH1 0x1 PUSH1 0x1 PUSH1 0xA0 SHL SUB DUP4 AND ISZERO DUP1 PUSH2 0xAAD JUMPI POP DUP2 ISZERO JUMPDEST ISZERO PUSH2 0xAC4 JUMPI PUSH2 0xABD DUP5 DUP5 DUP5 PUSH2 0x1B10 JUMP JUMPDEST SWAP1 POP PUSH2 0xB01 JUMP JUMPDEST PUSH2 0xACE DUP5 DUP4 PUSH2 0x1B29 JUMP JUMPDEST PUSH2 0xAF3 JUMPI PUSH1 0x40 MLOAD PUSH3 0x461BCD PUSH1 0xE5 SHL DUP2 MSTORE PUSH1 0x4 ADD PUSH2 0xAEA SWAP1 PUSH2 0x345C JUMP JUMPDEST PUSH1 0x40 MLOAD DUP1 SWAP2 SUB SWAP1 REVERT JUMPDEST PUSH2 0xAFE DUP5 DUP5 DUP5 PUSH2 0x1B10 JUMP JUMPDEST SWAP1 POP JUMPDEST SWAP4 SWAP3 POP POP POP JUMP JUMPDEST PUSH2 0xB10 PUSH2 0x1B6E JUMP JUMPDEST PUSH2 0x1C7 SLOAD PUSH1 0xFF AND PUSH2 0xB59 JUMPI PUSH1 0x40 MLOAD PUSH3 0x461BCD PUSH1 0xE5 SHL DUP2 MSTORE PUSH1 0x20 PUSH1 0x4 DUP3 ADD MSTORE PUSH1 0x13 PUSH1 0x24 DUP3 ADD MSTORE PUSH19 0x24B73B32B9BA36B2B73A103737BA1037B832B7 PUSH1 0x69 SHL PUSH1 0x44 DUP3 ADD MSTORE PUSH1 0x64 ADD PUSH2 0xAEA JUMP JUMPDEST PUSH2 0x1CA SLOAD TIMESTAMP LT PUSH2 0xBAB JUMPI PUSH1 0x40 MLOAD PUSH3 0x461BCD PUSH1 0xE5 SHL DUP2 MSTORE PUSH1 0x20 PUSH1 0x4 DUP3 ADD MSTORE PUSH1 0x17 PUSH1 0x24 DUP3 ADD MSTORE PUSH32 0x496E766573746D656E7420706572696F6420656E646564000000000000000000 PUSH1 0x44 DUP3 ADD MSTORE PUSH1 0x64 ADD PUSH2 0xAEA JUMP JUMPDEST PUSH1 0x0 DUP2 GT PUSH2 0xBFB JUMPI PUSH1 0x40 MLOAD PUSH3 0x461BCD PUSH1 0xE5 SHL DUP2 MSTORE PUSH1 0x20 PUSH1 0x4 DUP3 ADD MSTORE PUSH1 0x17 PUSH1 0x24 DUP3 ADD MSTORE PUSH32 0x416D6F756E74206D75737420626520706F736974697665000000000000000000 PUSH1 0x44 DUP3 ADD MSTORE PUSH1 0x64 ADD PUSH2 0xAEA JUMP JUMPDEST PUSH2 0x1CB SLOAD PUSH1 0x40 MLOAD PUSH4 0x23B872DD PUSH1 0xE0 SHL DUP2 MSTORE CALLER PUSH1 0x4 DUP3 ADD MSTORE ADDRESS PUSH1 0x24 DUP3 ADD MSTORE PUSH1 0x44 DUP2 ADD DUP4 SWAP1 MSTORE PUSH2 0x100 SWAP1 SWAP2 DIV PUSH1 0x1 PUSH1 0x1 PUSH1 0xA0 SHL SUB AND SWAP1 PUSH4 0x23B872DD SWAP1 PUSH1 0x64 ADD PUSH1 0x20 PUSH1 0x40 MLOAD DUP1 DUP4 SUB DUP2 PUSH1 0x0 DUP8 GAS CALL ISZERO DUP1 ISZERO PUSH2 0xC57 JUMPI RETURNDATASIZE PUSH1 0x0 DUP1 RETURNDATACOPY RETURNDATASIZE PUSH1 0x0 REVERT JUMPDEST POP POP POP POP PUSH1 0x40 MLOAD RETURNDATASIZE PUSH1 0x1F NOT PUSH1 0x1F DUP3 ADD AND DUP3 ADD DUP1 PUSH1 0x40 MSTORE POP DUP2 ADD SWAP1 PUSH2 0xC7B SWAP2 SWAP1 PUSH2 0x34A4 JUMP JUMPDEST PUSH2 0xCBD JUMPI PUSH1 0x40 MLOAD PUSH3 0x461BCD PUSH1 0xE5 SHL DUP2 MSTORE PUSH1 0x20 PUSH1 0x4 DUP3 ADD MSTORE PUSH1 0x13 PUSH1 0x24 DUP3 ADD MSTORE PUSH19 0x111090C81D1C985B9CD9995C8819985A5B1959 PUSH1 0x6A SHL PUSH1 0x44 DUP3 ADD MSTORE PUSH1 0x64 ADD PUSH2 0xAEA JUMP JUMPDEST CALLER PUSH1 0x0 SWAP1 DUP2 MSTORE PUSH2 0x1D0 PUSH1 0x20 MSTORE PUSH1 0x40 DUP2 KECCAK256 SLOAD SWAP1 SUB PUSH2 0xD18 JUMPI PUSH2 0x1CF DUP1 SLOAD PUSH1 0x1 DUP2 ADD DUP3 SSTORE PUSH1 0x0 SWAP2 SWAP1 SWAP2 MSTORE PUSH32 0xB3C3535B893C543659D6222F95C1D595EFA197EF5BB8AB413F33658DE985B091 ADD DUP1 SLOAD PUSH1 0x1 PUSH1 0x1 PUSH1 0xA0 SHL SUB NOT AND CALLER OR SWAP1 SSTORE JUMPDEST CALLER PUSH1 0x0 SWAP1 DUP2 MSTORE PUSH2 0x1D0 PUSH1 0x20 MSTORE PUSH1 0x40 SWAP1 KECCAK256 SLOAD PUSH2 0xD33 SWAP1 DUP3 PUSH2 0x1BC7 JUMP JUMPDEST CALLER PUSH1 0x0 SWAP1 DUP2 MSTORE PUSH2 0x1D0 PUSH1 0x20 MSTORE PUSH1 0x40 SWAP1 KECCAK256 SSTORE PUSH2 0x1C8 SLOAD PUSH2 0xD52 SWAP1 DUP3 PUSH2 0x1BC7 JUMP JUMPDEST PUSH2 0x1C8 SSTORE PUSH1 0x40 MLOAD DUP2 DUP2 MSTORE CALLER SWAP1 PUSH32 0x7135637F5E782B6B2ED97949EE4A45A8C7A56C48F46AA929872AFF79109C131A SWAP1 PUSH1 0x20 ADD PUSH1 0x40 MLOAD DUP1 SWAP2 SUB SWAP1 LOG2 PUSH2 0x1CA SLOAD TIMESTAMP LT PUSH2 0xD9D JUMPI PUSH2 0xD9D PUSH2 0x1BD3 JUMP JUMPDEST PUSH2 0xDA7 PUSH1 0x1 PUSH1 0xFE SSTORE JUMP JUMPDEST POP JUMP JUMPDEST PUSH1 0x0 SLOAD PUSH2 0x100 SWAP1 DIV PUSH1 0xFF AND ISZERO DUP1 DUP1 ISZERO PUSH2 0xDCA JUMPI POP PUSH1 0x0 SLOAD PUSH1 0x1 PUSH1 0xFF SWAP1 SWAP2 AND LT JUMPDEST DUP1 PUSH2 0xDE4 JUMPI POP ADDRESS EXTCODESIZE ISZERO DUP1 ISZERO PUSH2 0xDE4 JUMPI POP PUSH1 0x0 SLOAD PUSH1 0xFF AND PUSH1 0x1 EQ JUMPDEST PUSH2 0xE47 JUMPI PUSH1 0x40 MLOAD PUSH3 0x461BCD PUSH1 0xE5 SHL DUP2 MSTORE PUSH1 0x20 PUSH1 0x4 DUP3 ADD MSTORE PUSH1 0x2E PUSH1 0x24 DUP3 ADD MSTORE PUSH32 0x496E697469616C697A61626C653A20636F6E747261637420697320616C726561 PUSH1 0x44 DUP3 ADD MSTORE PUSH14 0x191E481A5B9A5D1A585B1A5E9959 PUSH1 0x92 SHL PUSH1 0x64 DUP3 ADD MSTORE PUSH1 0x84 ADD PUSH2 0xAEA JUMP JUMPDEST PUSH1 0x0 DUP1 SLOAD PUSH1 0xFF NOT AND PUSH1 0x1 OR SWAP1 SSTORE DUP1 ISZERO PUSH2 0xE6A JUMPI PUSH1 0x0 DUP1 SLOAD PUSH2 0xFF00 NOT AND PUSH2 0x100 OR SWAP1 SSTORE JUMPDEST PUSH2 0xEB0 PUSH1 0x40 MLOAD DUP1 PUSH1 0x40 ADD PUSH1 0x40 MSTORE DUP1 PUSH1 0x9 DUP2 MSTORE PUSH1 0x20 ADD PUSH9 0x2C20A0902A37B5B2B7 PUSH1 0xB9 SHL DUP2 MSTORE POP PUSH1 0x40 MLOAD DUP1 PUSH1 0x40 ADD PUSH1 0x40 MSTORE DUP1 PUSH1 0x3 DUP2 MSTORE PUSH1 0x20 ADD PUSH3 0x584141 PUSH1 0xE8 SHL DUP2 MSTORE POP PUSH2 0x2170 JUMP JUMPDEST PUSH2 0xEB8 PUSH2 0x21A1 JUMP JUMPDEST PUSH2 0xEE2 PUSH1 0x40 MLOAD DUP1 PUSH1 0x40 ADD PUSH1 0x40 MSTORE DUP1 PUSH1 0x9 DUP2 MSTORE PUSH1 0x20 ADD PUSH9 0x2C20A0902A37B5B2B7 PUSH1 0xB9 SHL DUP2 MSTORE POP PUSH2 0x21C8 JUMP JUMPDEST PUSH2 0xEEA PUSH2 0x2212 JUMP JUMPDEST PUSH2 0xEF2 PUSH2 0x2241 JUMP JUMPDEST PUSH2 0xEFA PUSH2 0x21A1 JUMP JUMPDEST PUSH1 0x1 PUSH1 0x1 PUSH1 0xA0 SHL SUB DUP6 AND PUSH2 0xF50 JUMPI PUSH1 0x40 MLOAD PUSH3 0x461BCD PUSH1 0xE5 SHL DUP2 MSTORE PUSH1 0x20 PUSH1 0x4 DUP3 ADD MSTORE PUSH1 0x19 PUSH1 0x24 DUP3 ADD MSTORE PUSH32 0x496E76616C69642044424320746F6B656E206164647265737300000000000000 PUSH1 0x44 DUP3 ADD MSTORE PUSH1 0x64 ADD PUSH2 0xAEA JUMP JUMPDEST PUSH1 0x1 PUSH1 0x1 PUSH1 0xA0 SHL SUB DUP5 AND PUSH2 0xFA6 JUMPI PUSH1 0x40 MLOAD PUSH3 0x461BCD PUSH1 0xE5 SHL DUP2 MSTORE PUSH1 0x20 PUSH1 0x4 DUP3 ADD MSTORE PUSH1 0x18 PUSH1 0x24 DUP3 ADD MSTORE PUSH32 0x496E76616C69642058414120706F6F6C20616464726573730000000000000000 PUSH1 0x44 DUP3 ADD MSTORE PUSH1 0x64 ADD PUSH2 0xAEA JUMP JUMPDEST PUSH1 0x1 PUSH1 0x1 PUSH1 0xA0 SHL SUB DUP4 AND PUSH2 0xFFC JUMPI PUSH1 0x40 MLOAD PUSH3 0x461BCD PUSH1 0xE5 SHL DUP2 MSTORE PUSH1 0x20 PUSH1 0x4 DUP3 ADD MSTORE PUSH1 0x19 PUSH1 0x24 DUP3 ADD MSTORE PUSH32 0x496E76616C69642065636F73797374656D206164647265737300000000000000 PUSH1 0x44 DUP3 ADD MSTORE PUSH1 0x64 ADD PUSH2 0xAEA JUMP JUMPDEST PUSH1 0x1 PUSH1 0x1 PUSH1 0xA0 SHL SUB DUP3 AND PUSH2 0x1052 JUMPI PUSH1 0x40 MLOAD PUSH3 0x461BCD PUSH1 0xE5 SHL DUP2 MSTORE PUSH1 0x20 PUSH1 0x4 DUP3 ADD MSTORE PUSH1 0x17 PUSH1 0x24 DUP3 ADD MSTORE PUSH32 0x496E76616C69642063726561746F722061646472657373000000000000000000 PUSH1 0x44 DUP3 ADD MSTORE PUSH1 0x64 ADD PUSH2 0xAEA JUMP JUMPDEST PUSH2 0x1CB DUP1 SLOAD PUSH2 0x100 PUSH1 0x1 PUSH1 0xA8 SHL SUB NOT AND PUSH2 0x100 PUSH1 0x1 PUSH1 0x1 PUSH1 0xA0 SHL SUB DUP9 DUP2 AND SWAP2 SWAP1 SWAP2 MUL SWAP2 SWAP1 SWAP2 OR SWAP1 SWAP2 SSTORE PUSH2 0x1C9 DUP8 SWAP1 SSTORE PUSH2 0x1CC DUP1 SLOAD PUSH1 0x1 PUSH1 0x1 PUSH1 0xA0 SHL SUB NOT SWAP1 DUP2 AND DUP8 DUP5 AND OR SWAP1 SWAP2 SSTORE PUSH2 0x1CD DUP1 SLOAD DUP3 AND DUP7 DUP5 AND OR SWAP1 SSTORE PUSH2 0x1CE DUP1 SLOAD SWAP1 SWAP2 AND SWAP2 DUP5 AND SWAP2 SWAP1 SWAP2 OR SWAP1 SSTORE PUSH2 0x1C7 DUP1 SLOAD PUSH1 0xFF NOT AND SWAP1 SSTORE PUSH2 0x10E7 ADDRESS PUSH1 0x12 PUSH2 0x10D3 SWAP1 PUSH1 0xA PUSH2 0x35C0 JUMP JUMPDEST PUSH2 0x10E2 SWAP1 PUSH5 0xE8D4A51000 PUSH2 0x35CF JUMP JUMPDEST PUSH2 0x2270 JUMP JUMPDEST DUP1 ISZERO PUSH2 0x112D JUMPI PUSH1 0x0 DUP1 SLOAD PUSH2 0xFF00 NOT AND SWAP1 SSTORE PUSH1 0x40 MLOAD PUSH1 0x1 DUP2 MSTORE PUSH32 0x7F26B83FF96E1F2B6A682F133852F6798A09C465DA95921460CEFB3847402498 SWAP1 PUSH1 0x20 ADD PUSH1 0x40 MLOAD DUP1 SWAP2 SUB SWAP1 LOG1 JUMPDEST POP POP POP POP POP POP JUMP JUMPDEST PUSH1 0x0 PUSH2 0x113F PUSH2 0x2331 JUMP JUMPDEST SWAP1 POP SWAP1 JUMP JUMPDEST PUSH1 0x1 PUSH1 0x1 PUSH1 0xA0 SHL SUB PUSH32 0x0 AND ADDRESS SUB PUSH2 0x118C JUMPI PUSH1 0x40 MLOAD PUSH3 0x461BCD PUSH1 0xE5 SHL DUP2 MSTORE PUSH1 0x4 ADD PUSH2 0xAEA SWAP1 PUSH2 0x35E6 JUMP JUMPDEST PUSH32 0x0 PUSH1 0x1 PUSH1 0x1 PUSH1 0xA0 SHL SUB AND PUSH2 0x11D5 PUSH1 0x0 DUP1 MLOAD PUSH1 0x20 PUSH2 0x387B DUP4 CODECOPY DUP2 MLOAD SWAP2 MSTORE SLOAD PUSH1 0x1 PUSH1 0x1 PUSH1 0xA0 SHL SUB AND SWAP1 JUMP JUMPDEST PUSH1 0x1 PUSH1 0x1 PUSH1 0xA0 SHL SUB AND EQ PUSH2 0x11FB JUMPI PUSH1 0x40 MLOAD PUSH3 0x461BCD PUSH1 0xE5 SHL DUP2 MSTORE PUSH1 0x4 ADD PUSH2 0xAEA SWAP1 PUSH2 0x3632 JUMP JUMPDEST PUSH2 0x1204 DUP2 PUSH2 0x233B JUMP JUMPDEST PUSH1 0x40 DUP1 MLOAD PUSH1 0x0 DUP1 DUP3 MSTORE PUSH1 0x20 DUP3 ADD SWAP1 SWAP3 MSTORE PUSH2 0xDA7 SWAP2 DUP4 SWAP2 SWAP1 PUSH2 0x2343 JUMP JUMPDEST PUSH1 0x0 CALLER PUSH2 0xA48 DUP2 DUP6 DUP6 PUSH2 0x1233 DUP4 DUP4 PUSH2 0x18A6 JUMP JUMPDEST PUSH2 0x123D SWAP2 SWAP1 PUSH2 0x367E JUMP JUMPDEST PUSH2 0x1947 JUMP JUMPDEST PUSH2 0xDA7 CALLER DUP3 PUSH2 0x24B3 JUMP JUMPDEST PUSH1 0x1 PUSH1 0x1 PUSH1 0xA0 SHL SUB PUSH32 0x0 AND ADDRESS SUB PUSH2 0x1294 JUMPI PUSH1 0x40 MLOAD PUSH3 0x461BCD PUSH1 0xE5 SHL DUP2 MSTORE PUSH1 0x4 ADD PUSH2 0xAEA SWAP1 PUSH2 0x35E6 JUMP JUMPDEST PUSH32 0x0 PUSH1 0x1 PUSH1 0x1 PUSH1 0xA0 SHL SUB AND PUSH2 0x12DD PUSH1 0x0 DUP1 MLOAD PUSH1 0x20 PUSH2 0x387B DUP4 CODECOPY DUP2 MLOAD SWAP2 MSTORE SLOAD PUSH1 0x1 PUSH1 0x1 PUSH1 0xA0 SHL SUB AND SWAP1 JUMP JUMPDEST PUSH1 0x1 PUSH1 0x1 PUSH1 0xA0 SHL SUB AND EQ PUSH2 0x1303 JUMPI PUSH1 0x40 MLOAD PUSH3 0x461BCD PUSH1 0xE5 SHL DUP2 MSTORE PUSH1 0x4 ADD PUSH2 0xAEA SWAP1 PUSH2 0x3632 JUMP JUMPDEST PUSH2 0x130C DUP3 PUSH2 0x233B JUMP JUMPDEST PUSH2 0x1318 DUP3 DUP3 PUSH1 0x1 PUSH2 0x2343 JUMP JUMPDEST POP POP JUMP JUMPDEST PUSH1 0x0 ADDRESS PUSH1 0x1 PUSH1 0x1 PUSH1 0xA0 SHL SUB PUSH32 0x0 AND EQ PUSH2 0x13BC JUMPI PUSH1 0x40 MLOAD PUSH3 0x461BCD PUSH1 0xE5 SHL DUP2 MSTORE PUSH1 0x20 PUSH1 0x4 DUP3 ADD MSTORE PUSH1 0x38 PUSH1 0x24 DUP3 ADD MSTORE PUSH32 0x555550535570677261646561626C653A206D757374206E6F742062652063616C PUSH1 0x44 DUP3 ADD MSTORE PUSH32 0x6C6564207468726F7567682064656C656761746563616C6C0000000000000000 PUSH1 0x64 DUP3 ADD MSTORE PUSH1 0x84 ADD PUSH2 0xAEA JUMP JUMPDEST POP PUSH1 0x0 DUP1 MLOAD PUSH1 0x20 PUSH2 0x387B DUP4 CODECOPY DUP2 MLOAD SWAP2 MSTORE SWAP1 JUMP JUMPDEST PUSH2 0x13D7 PUSH2 0x25E7 JUMP JUMPDEST PUSH2 0x13E1 PUSH1 0x0 PUSH2 0x2642 JUMP JUMPDEST JUMP JUMPDEST PUSH2 0x13EE DUP3 CALLER DUP4 PUSH2 0x2695 JUMP JUMPDEST PUSH2 0x1318 DUP3 DUP3 PUSH2 0x24B3 JUMP JUMPDEST PUSH1 0x1 PUSH1 0x1 PUSH1 0xA0 SHL SUB DUP2 AND PUSH1 0x0 SWAP1 DUP2 MSTORE PUSH1 0xCB PUSH1 0x20 MSTORE PUSH1 0x40 DUP2 KECCAK256 SLOAD PUSH2 0xA4E JUMP JUMPDEST PUSH1 0x0 PUSH1 0x60 DUP1 PUSH1 0x0 DUP1 PUSH1 0x0 PUSH1 0x60 PUSH1 0x97 SLOAD PUSH1 0x0 DUP1 SHL EQ DUP1 ISZERO PUSH2 0x1436 JUMPI POP PUSH1 0x98 SLOAD ISZERO JUMPDEST PUSH2 0x147A JUMPI PUSH1 0x40 MLOAD PUSH3 0x461BCD PUSH1 0xE5 SHL DUP2 MSTORE PUSH1 0x20 PUSH1 0x4 DUP3 ADD MSTORE PUSH1 0x15 PUSH1 0x24 DUP3 ADD MSTORE PUSH21 0x1152540DCC4C8E88155B9A5B9A5D1A585B1A5E9959 PUSH1 0x5A SHL PUSH1 0x44 DUP3 ADD MSTORE PUSH1 0x64 ADD PUSH2 0xAEA JUMP JUMPDEST PUSH2 0x1482 PUSH2 0x270F JUMP JUMPDEST PUSH2 0x148A PUSH2 0x271E JUMP JUMPDEST PUSH1 0x40 DUP1 MLOAD PUSH1 0x0 DUP1 DUP3 MSTORE PUSH1 0x20 DUP3 ADD SWAP1 SWAP3 MSTORE PUSH1 0xF PUSH1 0xF8 SHL SWAP12 SWAP4 SWAP11 POP SWAP2 SWAP9 POP CHAINID SWAP8 POP ADDRESS SWAP7 POP SWAP5 POP SWAP3 POP SWAP1 POP JUMP JUMPDEST PUSH1 0x60 PUSH1 0x37 DUP1 SLOAD PUSH2 0x9B7 SWAP1 PUSH2 0x3428 JUMP JUMPDEST PUSH1 0x0 CALLER DUP2 PUSH2 0x14D1 DUP3 DUP7 PUSH2 0x18A6 JUMP JUMPDEST SWAP1 POP DUP4 DUP2 LT ISZERO PUSH2 0x1531 JUMPI PUSH1 0x40 MLOAD PUSH3 0x461BCD PUSH1 0xE5 SHL DUP2 MSTORE PUSH1 0x20 PUSH1 0x4 DUP3 ADD MSTORE PUSH1 0x25 PUSH1 0x24 DUP3 ADD MSTORE PUSH32 0x45524332303A2064656372656173656420616C6C6F77616E63652062656C6F77 PUSH1 0x44 DUP3 ADD MSTORE PUSH5 0x207A65726F PUSH1 0xD8 SHL PUSH1 0x64 DUP3 ADD MSTORE PUSH1 0x84 ADD PUSH2 0xAEA JUMP JUMPDEST PUSH2 0x153E DUP3 DUP7 DUP7 DUP5 SUB PUSH2 0x1947 JUMP JUMPDEST POP PUSH1 0x1 SWAP5 SWAP4 POP POP POP POP JUMP JUMPDEST PUSH1 0x0 PUSH1 0x1 PUSH1 0x1 PUSH1 0xA0 SHL SUB DUP4 AND ISZERO DUP1 PUSH2 0x155F JUMPI POP DUP2 ISZERO JUMPDEST ISZERO PUSH2 0x1575 JUMPI PUSH2 0x156E DUP4 DUP4 PUSH2 0x272D JUMP JUMPDEST SWAP1 POP PUSH2 0xA4E JUMP JUMPDEST PUSH2 0x157F CALLER DUP4 PUSH2 0x1B29 JUMP JUMPDEST PUSH2 0x159B JUMPI PUSH1 0x40 MLOAD PUSH3 0x461BCD PUSH1 0xE5 SHL DUP2 MSTORE PUSH1 0x4 ADD PUSH2 0xAEA SWAP1 PUSH2 0x345C JUMP JUMPDEST PUSH2 0xB01 DUP4 DUP4 PUSH2 0x272D JUMP JUMPDEST PUSH2 0x15AD PUSH2 0x25E7 JUMP JUMPDEST PUSH2 0x1C7 SLOAD PUSH1 0xFF AND ISZERO PUSH2 0x1601 JUMPI PUSH1 0x40 MLOAD PUSH3 0x461BCD PUSH1 0xE5 SHL DUP2 MSTORE PUSH1 0x20 PUSH1 0x4 DUP3 ADD MSTORE PUSH1 0x1A PUSH1 0x24 DUP3 ADD MSTORE PUSH32 0x496E766573746D656E7420616C72656164792073746172746564000000000000 PUSH1 0x44 DUP3 ADD MSTORE PUSH1 0x64 ADD PUSH2 0xAEA JUMP JUMPDEST TIMESTAMP PUSH2 0x1C6 DUP2 SWAP1 SSTORE PUSH2 0x1616 SWAP1 PUSH3 0x3F480 SWAP1 PUSH2 0x367E JUMP JUMPDEST PUSH2 0x1CA DUP2 SWAP1 SSTORE PUSH2 0x1C7 DUP1 SLOAD PUSH1 0xFF NOT AND PUSH1 0x1 OR SWAP1 SSTORE PUSH2 0x1C6 SLOAD PUSH1 0x40 MLOAD PUSH32 0xBE3BA938EA6553428C5A838B72EE53805D227FC093444CB9EF98FD0C016BE00 SWAP3 PUSH2 0x1664 SWAP3 DUP3 MSTORE PUSH1 0x20 DUP3 ADD MSTORE PUSH1 0x40 ADD SWAP1 JUMP JUMPDEST PUSH1 0x40 MLOAD DUP1 SWAP2 SUB SWAP1 LOG1 JUMP JUMPDEST PUSH1 0x1 PUSH1 0x1 PUSH1 0xA0 SHL SUB DUP3 AND PUSH1 0x0 SWAP1 DUP2 MSTORE PUSH2 0x1D1 PUSH1 0x20 MSTORE PUSH1 0x40 DUP2 KECCAK256 SLOAD DUP2 SWAP1 PUSH2 0xFFFF DUP5 AND LT PUSH2 0x16D1 JUMPI PUSH1 0x40 MLOAD PUSH3 0x461BCD PUSH1 0xE5 SHL DUP2 MSTORE PUSH1 0x20 PUSH1 0x4 DUP3 ADD MSTORE PUSH1 0x12 PUSH1 0x24 DUP3 ADD MSTORE PUSH18 0x496E646578206F7574206F662072616E6765 PUSH1 0x70 SHL PUSH1 0x44 DUP3 ADD MSTORE PUSH1 0x64 ADD PUSH2 0xAEA JUMP JUMPDEST PUSH1 0x1 PUSH1 0x1 PUSH1 0xA0 SHL SUB DUP5 AND PUSH1 0x0 SWAP1 DUP2 MSTORE PUSH2 0x1D1 PUSH1 0x20 MSTORE PUSH1 0x40 DUP2 KECCAK256 DUP1 SLOAD PUSH2 0xFFFF DUP7 AND SWAP1 DUP2 LT PUSH2 0x1700 JUMPI PUSH2 0x1700 PUSH2 0x3691 JUMP JUMPDEST PUSH1 0x0 SWAP2 DUP3 MSTORE PUSH1 0x20 SWAP2 DUP3 SWAP1 KECCAK256 PUSH1 0x40 DUP1 MLOAD PUSH1 0x60 DUP2 ADD DUP3 MSTORE PUSH1 0x3 SWAP1 SWAP4 MUL SWAP1 SWAP2 ADD DUP1 SLOAD DUP4 MSTORE PUSH1 0x1 DUP2 ADD SLOAD SWAP4 DUP4 ADD DUP5 SWAP1 MSTORE PUSH1 0x2 ADD SLOAD SWAP2 ADD DUP2 SWAP1 MSTORE SWAP1 SWAP4 POP SWAP2 POP POP SWAP3 POP SWAP3 SWAP1 POP JUMP JUMPDEST DUP4 TIMESTAMP GT ISZERO PUSH2 0x1792 JUMPI PUSH1 0x40 MLOAD PUSH3 0x461BCD PUSH1 0xE5 SHL DUP2 MSTORE PUSH1 0x20 PUSH1 0x4 DUP3 ADD MSTORE PUSH1 0x1D PUSH1 0x24 DUP3 ADD MSTORE PUSH32 0x45524332305065726D69743A206578706972656420646561646C696E65000000 PUSH1 0x44 DUP3 ADD MSTORE PUSH1 0x64 ADD PUSH2 0xAEA JUMP JUMPDEST PUSH1 0x0 PUSH32 0x6E71EDAE12B1B97F4D1F60370FEF10105FA2FAAE0126114A169C64845D6126C9 DUP9 DUP9 DUP9 PUSH2 0x17C1 DUP13 PUSH2 0x273B JUMP JUMPDEST PUSH1 0x40 DUP1 MLOAD PUSH1 0x20 DUP2 ADD SWAP7 SWAP1 SWAP7 MSTORE PUSH1 0x1 PUSH1 0x1 PUSH1 0xA0 SHL SUB SWAP5 DUP6 AND SWAP1 DUP7 ADD MSTORE SWAP3 SWAP1 SWAP2 AND PUSH1 0x60 DUP5 ADD MSTORE PUSH1 0x80 DUP4 ADD MSTORE PUSH1 0xA0 DUP3 ADD MSTORE PUSH1 0xC0 DUP2 ADD DUP7 SWAP1 MSTORE PUSH1 0xE0 ADD PUSH1 0x40 MLOAD PUSH1 0x20 DUP2 DUP4 SUB SUB DUP2 MSTORE SWAP1 PUSH1 0x40 MSTORE DUP1 MLOAD SWAP1 PUSH1 0x20 ADD KECCAK256 SWAP1 POP PUSH1 0x0 PUSH2 0x181C DUP3 PUSH2 0x2763 JUMP JUMPDEST SWAP1 POP PUSH1 0x0 PUSH2 0x182C DUP3 DUP8 DUP8 DUP8 PUSH2 0x2790 JUMP JUMPDEST SWAP1 POP DUP10 PUSH1 0x1 PUSH1 0x1 PUSH1 0xA0 SHL SUB AND DUP2 PUSH1 0x1 PUSH1 0x1 PUSH1 0xA0 SHL SUB AND EQ PUSH2 0x188F JUMPI PUSH1 0x40 MLOAD PUSH3 0x461BCD PUSH1 0xE5 SHL DUP2 MSTORE PUSH1 0x20 PUSH1 0x4 DUP3 ADD MSTORE PUSH1 0x1E PUSH1 0x24 DUP3 ADD MSTORE PUSH32 0x45524332305065726D69743A20696E76616C6964207369676E61747572650000 PUSH1 0x44 DUP3 ADD MSTORE PUSH1 0x64 ADD PUSH2 0xAEA JUMP JUMPDEST PUSH2 0x189A DUP11 DUP11 DUP11 PUSH2 0x1947 JUMP JUMPDEST POP POP POP POP POP POP POP POP POP POP JUMP JUMPDEST PUSH1 0x1 PUSH1 0x1 PUSH1 0xA0 SHL SUB SWAP2 DUP3 AND PUSH1 0x0 SWAP1 DUP2 MSTORE PUSH1 0x34 PUSH1 0x20 SWAP1 DUP2 MSTORE PUSH1 0x40 DUP1 DUP4 KECCAK256 SWAP4 SWAP1 SWAP5 AND DUP3 MSTORE SWAP2 SWAP1 SWAP2 MSTORE KECCAK256 SLOAD SWAP1 JUMP JUMPDEST PUSH2 0x18D9 PUSH2 0x25E7 JUMP JUMPDEST PUSH1 0x1 PUSH1 0x1 PUSH1 0xA0 SHL SUB DUP2 AND PUSH2 0x193E JUMPI PUSH1 0x40 MLOAD PUSH3 0x461BCD PUSH1 0xE5 SHL DUP2 MSTORE PUSH1 0x20 PUSH1 0x4 DUP3 ADD MSTORE PUSH1 0x26 PUSH1 0x24 DUP3 ADD MSTORE PUSH32 0x4F776E61626C653A206E6577206F776E657220697320746865207A65726F2061 PUSH1 0x44 DUP3 ADD MSTORE PUSH6 0x646472657373 PUSH1 0xD0 SHL PUSH1 0x64 DUP3 ADD MSTORE PUSH1 0x84 ADD PUSH2 0xAEA JUMP JUMPDEST PUSH2 0xDA7 DUP2 PUSH2 0x2642 JUMP JUMPDEST PUSH1 0x1 PUSH1 0x1 PUSH1 0xA0 SHL SUB DUP4 AND PUSH2 0x19A9 JUMPI PUSH1 0x40 MLOAD PUSH3 0x461BCD PUSH1 0xE5 SHL DUP2 MSTORE PUSH1 0x20 PUSH1 0x4 DUP3 ADD MSTORE PUSH1 0x24 DUP1 DUP3 ADD MSTORE PUSH32 0x45524332303A20617070726F76652066726F6D20746865207A65726F20616464 PUSH1 0x44 DUP3 ADD MSTORE PUSH4 0x72657373 PUSH1 0xE0 SHL PUSH1 0x64 DUP3 ADD MSTORE PUSH1 0x84 ADD PUSH2 0xAEA JUMP JUMPDEST PUSH1 0x1 PUSH1 0x1 PUSH1 0xA0 SHL SUB DUP3 AND PUSH2 0x1A0A JUMPI PUSH1 0x40 MLOAD PUSH3 0x461BCD PUSH1 0xE5 SHL DUP2 MSTORE PUSH1 0x20 PUSH1 0x4 DUP3 ADD MSTORE PUSH1 0x22 PUSH1 0x24 DUP3 ADD MSTORE PUSH32 0x45524332303A20617070726F766520746F20746865207A65726F206164647265 PUSH1 0x44 DUP3 ADD MSTORE PUSH2 0x7373 PUSH1 0xF0 SHL PUSH1 0x64 DUP3 ADD MSTORE PUSH1 0x84 ADD PUSH2 0xAEA JUMP JUMPDEST PUSH1 0x1 PUSH1 0x1 PUSH1 0xA0 SHL SUB DUP4 DUP2 AND PUSH1 0x0 DUP2 DUP2 MSTORE PUSH1 0x34 PUSH1 0x20 SWAP1 DUP2 MSTORE PUSH1 0x40 DUP1 DUP4 KECCAK256 SWAP5 DUP8 AND DUP1 DUP5 MSTORE SWAP5 DUP3 MSTORE SWAP2 DUP3 SWAP1 KECCAK256 DUP6 SWAP1 SSTORE SWAP1 MLOAD DUP5 DUP2 MSTORE PUSH32 0x8C5BE1E5EBEC7D5BD14F71427D1E84F3DD0314C0F7B2291E5B200AC8C7C3B925 SWAP2 ADD PUSH1 0x40 MLOAD DUP1 SWAP2 SUB SWAP1 LOG3 POP POP POP JUMP JUMPDEST PUSH1 0x1 PUSH1 0x1 PUSH1 0xA0 SHL SUB DUP2 AND PUSH1 0x0 SWAP1 DUP2 MSTORE PUSH2 0x1D1 PUSH1 0x20 MSTORE PUSH1 0x40 DUP2 KECCAK256 DUP2 DUP1 JUMPDEST DUP3 SLOAD DUP2 LT ISZERO PUSH2 0x1AFC JUMPI DUP3 DUP2 DUP2 SLOAD DUP2 LT PUSH2 0x1AA2 JUMPI PUSH2 0x1AA2 PUSH2 0x3691 JUMP JUMPDEST SWAP1 PUSH1 0x0 MSTORE PUSH1 0x20 PUSH1 0x0 KECCAK256 SWAP1 PUSH1 0x3 MUL ADD PUSH1 0x2 ADD SLOAD TIMESTAMP LT ISZERO PUSH2 0x1AF4 JUMPI PUSH2 0x1AF1 DUP4 DUP3 DUP2 SLOAD DUP2 LT PUSH2 0x1AD0 JUMPI PUSH2 0x1AD0 PUSH2 0x3691 JUMP JUMPDEST SWAP1 PUSH1 0x0 MSTORE PUSH1 0x20 PUSH1 0x0 KECCAK256 SWAP1 PUSH1 0x3 MUL ADD PUSH1 0x1 ADD SLOAD DUP4 PUSH2 0x1BC7 SWAP1 SWAP2 SWAP1 PUSH4 0xFFFFFFFF AND JUMP JUMPDEST SWAP2 POP JUMPDEST PUSH1 0x1 ADD PUSH2 0x1A87 JUMP JUMPDEST POP SWAP4 SWAP3 POP POP POP JUMP JUMPDEST PUSH1 0x0 PUSH2 0xB01 DUP3 DUP5 PUSH2 0x36A7 JUMP JUMPDEST PUSH1 0x0 CALLER PUSH2 0x1B1E DUP6 DUP3 DUP6 PUSH2 0x2695 JUMP JUMPDEST PUSH2 0x153E DUP6 DUP6 DUP6 PUSH2 0x27BA JUMP JUMPDEST PUSH1 0x0 DUP1 PUSH2 0x1B35 DUP5 PUSH2 0x1A6B JUMP JUMPDEST SWAP1 POP PUSH1 0x0 PUSH2 0x1B62 DUP3 PUSH2 0x1B5C DUP8 PUSH1 0x1 PUSH1 0x1 PUSH1 0xA0 SHL SUB AND PUSH1 0x0 SWAP1 DUP2 MSTORE PUSH1 0x33 PUSH1 0x20 MSTORE PUSH1 0x40 SWAP1 KECCAK256 SLOAD SWAP1 JUMP JUMPDEST SWAP1 PUSH2 0x1B04 JUMP JUMPDEST SWAP1 SWAP4 GT ISZERO SWAP5 SWAP4 POP POP POP POP JUMP JUMPDEST PUSH1 0x2 PUSH1 0xFE SLOAD SUB PUSH2 0x1BC0 JUMPI PUSH1 0x40 MLOAD PUSH3 0x461BCD PUSH1 0xE5 SHL DUP2 MSTORE PUSH1 0x20 PUSH1 0x4 DUP3 ADD MSTORE PUSH1 0x1F PUSH1 0x24 DUP3 ADD MSTORE PUSH32 0x5265656E7472616E637947756172643A207265656E7472616E742063616C6C00 PUSH1 0x44 DUP3 ADD MSTORE PUSH1 0x64 ADD PUSH2 0xAEA JUMP JUMPDEST PUSH1 0x2 PUSH1 0xFE SSTORE JUMP JUMPDEST PUSH1 0x0 PUSH2 0xB01 DUP3 DUP5 PUSH2 0x367E JUMP JUMPDEST PUSH2 0x1C7 SLOAD PUSH1 0xFF AND PUSH2 0x1C1C JUMPI PUSH1 0x40 MLOAD PUSH3 0x461BCD PUSH1 0xE5 SHL DUP2 MSTORE PUSH1 0x20 PUSH1 0x4 DUP3 ADD MSTORE PUSH1 0x13 PUSH1 0x24 DUP3 ADD MSTORE PUSH19 0x24B73B32B9BA36B2B73A103737BA1037B832B7 PUSH1 0x69 SHL PUSH1 0x44 DUP3 ADD MSTORE PUSH1 0x64 ADD PUSH2 0xAEA JUMP JUMPDEST PUSH2 0x1CA SLOAD TIMESTAMP LT ISZERO PUSH2 0x1C6F JUMPI PUSH1 0x40 MLOAD PUSH3 0x461BCD PUSH1 0xE5 SHL DUP2 MSTORE PUSH1 0x20 PUSH1 0x4 DUP3 ADD MSTORE PUSH1 0x1B PUSH1 0x24 DUP3 ADD MSTORE PUSH32 0x496E766573746D656E7420706572696F64206E6F7420656E6465640000000000 PUSH1 0x44 DUP3 ADD MSTORE PUSH1 0x64 ADD PUSH2 0xAEA JUMP JUMPDEST PUSH2 0x1CB SLOAD PUSH1 0xFF AND ISZERO PUSH2 0x1CC3 JUMPI PUSH1 0x40 MLOAD PUSH3 0x461BCD PUSH1 0xE5 SHL DUP2 MSTORE PUSH1 0x20 PUSH1 0x4 DUP3 ADD MSTORE PUSH1 0x1A PUSH1 0x24 DUP3 ADD MSTORE PUSH32 0x546F6B656E7320616C7265616479206469737472696275746564000000000000 PUSH1 0x44 DUP3 ADD MSTORE PUSH1 0x64 ADD PUSH2 0xAEA JUMP JUMPDEST PUSH2 0x1C7 DUP1 SLOAD PUSH1 0xFF NOT SWAP1 DUP2 AND SWAP1 SWAP2 SSTORE PUSH2 0x1CB DUP1 SLOAD SWAP1 SWAP2 AND PUSH1 0x1 OR SWAP1 SSTORE PUSH10 0x152D02C7E14AF6800000 PUSH1 0x0 PUSH2 0x1D03 PUSH2 0x2710 PUSH2 0x1CFD DUP5 PUSH2 0x3E8 PUSH2 0x2965 JUMP JUMPDEST SWAP1 PUSH2 0x2971 JUMP JUMPDEST SWAP1 POP PUSH1 0x0 PUSH2 0x1D19 PUSH2 0x2710 PUSH2 0x1CFD DUP6 PUSH2 0x1F4 PUSH2 0x2965 JUMP JUMPDEST SWAP1 POP PUSH1 0x0 PUSH2 0x1D2F PUSH2 0x2710 PUSH2 0x1CFD DUP7 PUSH2 0x3E8 PUSH2 0x2965 JUMP JUMPDEST SWAP1 POP PUSH1 0x0 PUSH2 0x1D45 PUSH2 0x2710 PUSH2 0x1CFD DUP8 PUSH2 0x1388 PUSH2 0x2965 JUMP JUMPDEST SWAP1 POP PUSH1 0x0 PUSH2 0x1D5B PUSH2 0x2710 PUSH2 0x1CFD DUP9 PUSH2 0x9C4 PUSH2 0x2965 JUMP JUMPDEST PUSH2 0x1CE SLOAD SWAP1 SWAP2 POP PUSH2 0x1D75 SWAP1 PUSH1 0x1 PUSH1 0x1 PUSH1 0xA0 SHL SUB AND DUP7 PUSH2 0x2270 JUMP JUMPDEST PUSH2 0x1CE SLOAD PUSH2 0x1D90 SWAP1 PUSH1 0x1 PUSH1 0x1 PUSH1 0xA0 SHL SUB AND DUP7 PUSH3 0x278D00 PUSH2 0x297D JUMP JUMPDEST PUSH2 0x1CE SLOAD PUSH1 0x40 MLOAD DUP7 DUP2 MSTORE PUSH1 0x1 PUSH1 0x1 PUSH1 0xA0 SHL SUB SWAP1 SWAP2 AND SWAP1 PUSH1 0x0 DUP1 MLOAD PUSH1 0x20 PUSH2 0x38C2 DUP4 CODECOPY DUP2 MLOAD SWAP2 MSTORE SWAP1 PUSH1 0x20 ADD PUSH1 0x40 MLOAD DUP1 SWAP2 SUB SWAP1 LOG2 PUSH2 0x1CC SLOAD PUSH2 0x1DD8 SWAP1 PUSH1 0x1 PUSH1 0x1 PUSH1 0xA0 SHL SUB AND DUP6 PUSH2 0x2270 JUMP JUMPDEST PUSH2 0x1CC SLOAD PUSH2 0x1DF5 SWAP1 PUSH1 0x1 PUSH1 0x1 PUSH1 0xA0 SHL SUB AND DUP6 PUSH5 0x757B12C00 PUSH2 0x297D JUMP JUMPDEST PUSH1 0x40 DUP1 MLOAD PUSH1 0x80 DUP2 ADD DUP3 MSTORE ADDRESS DUP1 DUP3 MSTORE PUSH1 0x20 DUP3 ADD DUP8 SWAP1 MSTORE PUSH1 0x0 DUP3 DUP5 ADD DUP2 SWAP1 MSTORE PUSH1 0x1 PUSH1 0x60 SWAP1 SWAP4 ADD DUP4 SWAP1 MSTORE PUSH2 0x1D2 DUP1 SLOAD PUSH1 0x1 PUSH1 0x1 PUSH1 0xA0 SHL SUB NOT AND SWAP1 SWAP3 OR SWAP1 SWAP2 SSTORE PUSH2 0x1D3 DUP8 SWAP1 SSTORE PUSH2 0x1D4 SSTORE PUSH2 0x1D5 DUP1 SLOAD PUSH1 0xFF NOT AND SWAP1 SWAP2 OR SWAP1 SSTORE PUSH2 0x1CC SLOAD SWAP1 MLOAD PUSH1 0x1 PUSH1 0x1 PUSH1 0xA0 SHL SUB SWAP2 SWAP1 SWAP2 AND SWAP1 PUSH1 0x0 DUP1 MLOAD PUSH1 0x20 PUSH2 0x38C2 DUP4 CODECOPY DUP2 MLOAD SWAP2 MSTORE SWAP1 PUSH2 0x1E79 SWAP1 DUP8 DUP2 MSTORE PUSH1 0x20 ADD SWAP1 JUMP JUMPDEST PUSH1 0x40 MLOAD DUP1 SWAP2 SUB SWAP1 LOG2 PUSH1 0x40 DUP1 MLOAD DUP6 DUP2 MSTORE PUSH1 0x0 PUSH1 0x20 DUP3 ADD MSTORE ADDRESS SWAP2 PUSH32 0x620F7D92E94F37E846B7A037FA45C886F3AB726B58C6531813825A47AD4EEC50 SWAP2 ADD PUSH1 0x40 MLOAD DUP1 SWAP2 SUB SWAP1 LOG2 PUSH2 0x1CD SLOAD PUSH2 0x1ED3 SWAP1 PUSH1 0x1 PUSH1 0x1 PUSH1 0xA0 SHL SUB AND DUP5 PUSH2 0x2270 JUMP JUMPDEST PUSH2 0x1CD SLOAD PUSH2 0x1EEE SWAP1 PUSH1 0x1 PUSH1 0x1 PUSH1 0xA0 SHL SUB AND DUP5 PUSH3 0xED4E00 PUSH2 0x297D JUMP JUMPDEST PUSH2 0x1CD SLOAD PUSH1 0x40 MLOAD DUP5 DUP2 MSTORE PUSH1 0x1 PUSH1 0x1 PUSH1 0xA0 SHL SUB SWAP1 SWAP2 AND SWAP1 PUSH1 0x0 DUP1 MLOAD PUSH1 0x20 PUSH2 0x38C2 DUP4 CODECOPY DUP2 MLOAD SWAP2 MSTORE SWAP1 PUSH1 0x20 ADD PUSH1 0x40 MLOAD DUP1 SWAP2 SUB SWAP1 LOG2 PUSH2 0x1C8 SLOAD PUSH1 0x0 SWAP1 ISZERO PUSH2 0x2049 JUMPI PUSH1 0x0 PUSH2 0x1F37 PUSH2 0x1C8 SLOAD SWAP1 JUMP JUMPDEST SWAP1 POP PUSH1 0x0 PUSH10 0x54B40B1F852BDA00000 DUP3 LT PUSH2 0x1F5B JUMPI POP PUSH8 0xDE0B6B3A7640000 PUSH2 0x1F7E JUMP JUMPDEST PUSH2 0x1F7B PUSH10 0x54B40B1F852BDA00000 PUSH2 0x1CFD DUP5 PUSH8 0xDE0B6B3A7640000 PUSH2 0x2965 JUMP JUMPDEST SWAP1 POP JUMPDEST PUSH2 0x1F94 PUSH8 0xDE0B6B3A7640000 PUSH2 0x1CFD DUP7 DUP5 PUSH2 0x2965 JUMP JUMPDEST SWAP3 POP PUSH1 0x0 JUMPDEST PUSH2 0x1CF SLOAD DUP2 LT ISZERO PUSH2 0x2045 JUMPI PUSH1 0x0 PUSH2 0x1CF DUP3 DUP2 SLOAD DUP2 LT PUSH2 0x1FBA JUMPI PUSH2 0x1FBA PUSH2 0x3691 JUMP JUMPDEST PUSH1 0x0 SWAP2 DUP3 MSTORE PUSH1 0x20 DUP1 DUP4 KECCAK256 SWAP1 SWAP2 ADD SLOAD PUSH2 0x1C8 SLOAD PUSH1 0x1 PUSH1 0x1 PUSH1 0xA0 SHL SUB SWAP1 SWAP2 AND DUP1 DUP5 MSTORE PUSH2 0x1D0 SWAP1 SWAP3 MSTORE PUSH1 0x40 DUP4 KECCAK256 SLOAD SWAP2 SWAP4 POP PUSH2 0x1FF7 SWAP2 PUSH2 0x1CFD SWAP1 DUP10 SWAP1 PUSH2 0x2965 JUMP JUMPDEST SWAP1 POP DUP1 ISZERO PUSH2 0x203B JUMPI PUSH2 0x2009 DUP3 DUP3 PUSH2 0x2270 JUMP JUMPDEST DUP2 PUSH1 0x1 PUSH1 0x1 PUSH1 0xA0 SHL SUB AND PUSH1 0x0 DUP1 MLOAD PUSH1 0x20 PUSH2 0x38C2 DUP4 CODECOPY DUP2 MLOAD SWAP2 MSTORE DUP3 PUSH1 0x40 MLOAD PUSH2 0x2032 SWAP2 DUP2 MSTORE PUSH1 0x20 ADD SWAP1 JUMP JUMPDEST PUSH1 0x40 MLOAD DUP1 SWAP2 SUB SWAP1 LOG2 JUMPDEST POP POP PUSH1 0x1 ADD PUSH2 0x1F99 JUMP JUMPDEST POP POP POP JUMPDEST PUSH1 0x40 DUP1 MLOAD PUSH1 0x80 DUP2 ADD DUP3 MSTORE ADDRESS DUP1 DUP3 MSTORE PUSH1 0x20 DUP3 ADD DUP7 SWAP1 MSTORE PUSH2 0x1C8 SLOAD SWAP3 DUP3 ADD DUP4 SWAP1 MSTORE PUSH1 0x1 PUSH1 0x60 SWAP1 SWAP3 ADD DUP3 SWAP1 MSTORE PUSH2 0x1D6 DUP1 SLOAD PUSH1 0x1 PUSH1 0x1 PUSH1 0xA0 SHL SUB NOT AND DUP3 OR SWAP1 SSTORE PUSH2 0x1D7 DUP7 SWAP1 SSTORE PUSH2 0x1D8 SWAP3 SWAP1 SWAP3 SSTORE PUSH2 0x1D9 DUP1 SLOAD PUSH1 0xFF NOT AND SWAP1 SWAP2 OR SWAP1 SSTORE PUSH2 0x20AA SWAP1 DUP5 PUSH2 0x2270 JUMP JUMPDEST PUSH2 0x1C8 SLOAD PUSH1 0x40 MLOAD ADDRESS SWAP2 PUSH32 0x620F7D92E94F37E846B7A037FA45C886F3AB726B58C6531813825A47AD4EEC50 SWAP2 PUSH2 0x20E7 SWAP2 DUP8 DUP3 MSTORE PUSH1 0x20 DUP3 ADD MSTORE PUSH1 0x40 ADD SWAP1 JUMP JUMPDEST PUSH1 0x40 MLOAD DUP1 SWAP2 SUB SWAP1 LOG2 PUSH1 0x40 MLOAD DUP4 DUP2 MSTORE ADDRESS SWAP1 PUSH32 0x82AB8AE7F98A9010F180C0AD679A83F4FA19C087FEB670D62AE653B6961564C0 SWAP1 PUSH1 0x20 ADD PUSH1 0x40 MLOAD DUP1 SWAP2 SUB SWAP1 LOG2 PUSH32 0xA5312AA2758835A367A1D72034E51AC82B29DEE733A5F5EED3A51F6F2F5BC53A PUSH2 0x1C8 SLOAD PUSH1 0x40 MLOAD PUSH2 0x2158 SWAP2 DUP2 MSTORE PUSH1 0x20 ADD SWAP1 JUMP JUMPDEST PUSH1 0x40 MLOAD DUP1 SWAP2 SUB SWAP1 LOG1 POP POP POP POP POP POP POP JUMP JUMPDEST PUSH1 0x1 PUSH1 0xFE SSTORE JUMP JUMPDEST PUSH1 0x0 SLOAD PUSH2 0x100 SWAP1 DIV PUSH1 0xFF AND PUSH2 0x2197 JUMPI PUSH1 0x40 MLOAD PUSH3 0x461BCD PUSH1 0xE5 SHL DUP2 MSTORE PUSH1 0x4 ADD PUSH2 0xAEA SWAP1 PUSH2 0x36BA JUMP JUMPDEST PUSH2 0x1318 DUP3 DUP3 PUSH2 0x2A33 JUMP JUMPDEST PUSH1 0x0 SLOAD PUSH2 0x100 SWAP1 DIV PUSH1 0xFF AND PUSH2 0x13E1 JUMPI PUSH1 0x40 MLOAD PUSH3 0x461BCD PUSH1 0xE5 SHL DUP2 MSTORE PUSH1 0x4 ADD PUSH2 0xAEA SWAP1 PUSH2 0x36BA JUMP JUMPDEST PUSH1 0x0 SLOAD PUSH2 0x100 SWAP1 DIV PUSH1 0xFF AND PUSH2 0x21EF JUMPI PUSH1 0x40 MLOAD PUSH3 0x461BCD PUSH1 0xE5 SHL DUP2 MSTORE PUSH1 0x4 ADD PUSH2 0xAEA SWAP1 PUSH2 0x36BA JUMP JUMPDEST PUSH2 0xDA7 DUP2 PUSH1 0x40 MLOAD DUP1 PUSH1 0x40 ADD PUSH1 0x40 MSTORE DUP1 PUSH1 0x1 DUP2 MSTORE PUSH1 0x20 ADD PUSH1 0x31 PUSH1 0xF8 SHL DUP2 MSTORE POP PUSH2 0x2A73 JUMP JUMPDEST PUSH1 0x0 SLOAD PUSH2 0x100 SWAP1 DIV PUSH1 0xFF AND PUSH2 0x2239 JUMPI PUSH1 0x40 MLOAD PUSH3 0x461BCD PUSH1 0xE5 SHL DUP2 MSTORE PUSH1 0x4 ADD PUSH2 0xAEA SWAP1 PUSH2 0x36BA JUMP JUMPDEST PUSH2 0x13E1 PUSH2 0x2AC2 JUMP JUMPDEST PUSH1 0x0 SLOAD PUSH2 0x100 SWAP1 DIV PUSH1 0xFF AND PUSH2 0x2268 JUMPI PUSH1 0x40 MLOAD PUSH3 0x461BCD PUSH1 0xE5 SHL DUP2 MSTORE PUSH1 0x4 ADD PUSH2 0xAEA SWAP1 PUSH2 0x36BA JUMP JUMPDEST PUSH2 0x13E1 PUSH2 0x2AE9 JUMP JUMPDEST PUSH1 0x1 PUSH1 0x1 PUSH1 0xA0 SHL SUB DUP3 AND PUSH2 0x22C6 JUMPI PUSH1 0x40 MLOAD PUSH3 0x461BCD PUSH1 0xE5 SHL DUP2 MSTORE PUSH1 0x20 PUSH1 0x4 DUP3 ADD MSTORE PUSH1 0x1F PUSH1 0x24 DUP3 ADD MSTORE PUSH32 0x45524332303A206D696E7420746F20746865207A65726F206164647265737300 PUSH1 0x44 DUP3 ADD MSTORE PUSH1 0x64 ADD PUSH2 0xAEA JUMP JUMPDEST DUP1 PUSH1 0x35 PUSH1 0x0 DUP3 DUP3 SLOAD PUSH2 0x22D8 SWAP2 SWAP1 PUSH2 0x367E JUMP JUMPDEST SWAP1 SWAP2 SSTORE POP POP PUSH1 0x1 PUSH1 0x1 PUSH1 0xA0 SHL SUB DUP3 AND PUSH1 0x0 DUP2 DUP2 MSTORE PUSH1 0x33 PUSH1 0x20 SWAP1 DUP2 MSTORE PUSH1 0x40 DUP1 DUP4 KECCAK256 DUP1 SLOAD DUP7 ADD SWAP1 SSTORE MLOAD DUP5 DUP2 MSTORE PUSH32 0xDDF252AD1BE2C89B69C2B068FC378DAA952BA7F163C4A11628F55A4DF523B3EF SWAP2 ADD PUSH1 0x40 MLOAD DUP1 SWAP2 SUB SWAP1 LOG3 POP POP JUMP JUMPDEST PUSH1 0x0 PUSH2 0x113F PUSH2 0x2B19 JUMP JUMPDEST PUSH2 0xDA7 PUSH2 0x25E7 JUMP JUMPDEST PUSH32 0x4910FDFA16FED3260ED0E7147F7CC6DA11A60208B5B9406D12A635614FFD9143 SLOAD PUSH1 0xFF AND ISZERO PUSH2 0x237B JUMPI PUSH2 0x2376 DUP4 PUSH2 0x2B8D JUMP JUMPDEST POP POP POP JUMP JUMPDEST DUP3 PUSH1 0x1 PUSH1 0x1 PUSH1 0xA0 SHL SUB AND PUSH4 0x52D1902D PUSH1 0x40 MLOAD DUP2 PUSH4 0xFFFFFFFF AND PUSH1 0xE0 SHL DUP2 MSTORE PUSH1 0x4 ADD PUSH1 0x20 PUSH1 0x40 MLOAD DUP1 DUP4 SUB DUP2 DUP7 GAS STATICCALL SWAP3 POP POP POP DUP1 ISZERO PUSH2 0x23D5 JUMPI POP PUSH1 0x40 DUP1 MLOAD PUSH1 0x1F RETURNDATASIZE SWAP1 DUP2 ADD PUSH1 0x1F NOT AND DUP3 ADD SWAP1 SWAP3 MSTORE PUSH2 0x23D2 SWAP2 DUP2 ADD SWAP1 PUSH2 0x3705 JUMP JUMPDEST PUSH1 0x1 JUMPDEST PUSH2 0x2438 JUMPI PUSH1 0x40 MLOAD PUSH3 0x461BCD PUSH1 0xE5 SHL DUP2 MSTORE PUSH1 0x20 PUSH1 0x4 DUP3 ADD MSTORE PUSH1 0x2E PUSH1 0x24 DUP3 ADD MSTORE PUSH32 0x45524331393637557067726164653A206E657720696D706C656D656E74617469 PUSH1 0x44 DUP3 ADD MSTORE PUSH14 0x6F6E206973206E6F742055555053 PUSH1 0x90 SHL PUSH1 0x64 DUP3 ADD MSTORE PUSH1 0x84 ADD PUSH2 0xAEA JUMP JUMPDEST PUSH1 0x0 DUP1 MLOAD PUSH1 0x20 PUSH2 0x387B DUP4 CODECOPY DUP2 MLOAD SWAP2 MSTORE DUP2 EQ PUSH2 0x24A7 JUMPI PUSH1 0x40 MLOAD PUSH3 0x461BCD PUSH1 0xE5 SHL DUP2 MSTORE PUSH1 0x20 PUSH1 0x4 DUP3 ADD MSTORE PUSH1 0x29 PUSH1 0x24 DUP3 ADD MSTORE PUSH32 0x45524331393637557067726164653A20756E737570706F727465642070726F78 PUSH1 0x44 DUP3 ADD MSTORE PUSH9 0x1A58589B1955555251 PUSH1 0xBA SHL PUSH1 0x64 DUP3 ADD MSTORE PUSH1 0x84 ADD PUSH2 0xAEA JUMP JUMPDEST POP PUSH2 0x2376 DUP4 DUP4 DUP4 PUSH2 0x2C29 JUMP JUMPDEST PUSH1 0x1 PUSH1 0x1 PUSH1 0xA0 SHL SUB DUP3 AND PUSH2 0x2513 JUMPI PUSH1 0x40 MLOAD PUSH3 0x461BCD PUSH1 0xE5 SHL DUP2 MSTORE PUSH1 0x20 PUSH1 0x4 DUP3 ADD MSTORE PUSH1 0x21 PUSH1 0x24 DUP3 ADD MSTORE PUSH32 0x45524332303A206275726E2066726F6D20746865207A65726F20616464726573 PUSH1 0x44 DUP3 ADD MSTORE PUSH1 0x73 PUSH1 0xF8 SHL PUSH1 0x64 DUP3 ADD MSTORE PUSH1 0x84 ADD PUSH2 0xAEA JUMP JUMPDEST PUSH1 0x1 PUSH1 0x1 PUSH1 0xA0 SHL SUB DUP3 AND PUSH1 0x0 SWAP1 DUP2 MSTORE PUSH1 0x33 PUSH1 0x20 MSTORE PUSH1 0x40 SWAP1 KECCAK256 SLOAD DUP2 DUP2 LT ISZERO PUSH2 0x2587 JUMPI PUSH1 0x40 MLOAD PUSH3 0x461BCD PUSH1 0xE5 SHL DUP2 MSTORE PUSH1 0x20 PUSH1 0x4 DUP3 ADD MSTORE PUSH1 0x22 PUSH1 0x24 DUP3 ADD MSTORE PUSH32 0x45524332303A206275726E20616D6F756E7420657863656564732062616C616E PUSH1 0x44 DUP3 ADD MSTORE PUSH2 0x6365 PUSH1 0xF0 SHL PUSH1 0x64 DUP3 ADD MSTORE PUSH1 0x84 ADD PUSH2 0xAEA JUMP JUMPDEST PUSH1 0x1 PUSH1 0x1 PUSH1 0xA0 SHL SUB DUP4 AND PUSH1 0x0 DUP2 DUP2 MSTORE PUSH1 0x33 PUSH1 0x20 SWAP1 DUP2 MSTORE PUSH1 0x40 DUP1 DUP4 KECCAK256 DUP7 DUP7 SUB SWAP1 SSTORE PUSH1 0x35 DUP1 SLOAD DUP8 SWAP1 SUB SWAP1 SSTORE MLOAD DUP6 DUP2 MSTORE SWAP2 SWAP3 SWAP2 PUSH32 0xDDF252AD1BE2C89B69C2B068FC378DAA952BA7F163C4A11628F55A4DF523B3EF SWAP2 ADD PUSH1 0x40 MLOAD DUP1 SWAP2 SUB SWAP1 LOG3 POP POP POP JUMP JUMPDEST PUSH2 0x130 SLOAD PUSH1 0x1 PUSH1 0x1 PUSH1 0xA0 SHL SUB AND CALLER EQ PUSH2 0x13E1 JUMPI PUSH1 0x40 MLOAD PUSH3 0x461BCD PUSH1 0xE5 SHL DUP2 MSTORE PUSH1 0x20 PUSH1 0x4 DUP3 ADD DUP2 SWAP1 MSTORE PUSH1 0x24 DUP3 ADD MSTORE PUSH32 0x4F776E61626C653A2063616C6C6572206973206E6F7420746865206F776E6572 PUSH1 0x44 DUP3 ADD MSTORE PUSH1 0x64 ADD PUSH2 0xAEA JUMP JUMPDEST PUSH2 0x130 DUP1 SLOAD PUSH1 0x1 PUSH1 0x1 PUSH1 0xA0 SHL SUB DUP4 DUP2 AND PUSH1 0x1 PUSH1 0x1 PUSH1 0xA0 SHL SUB NOT DUP4 AND DUP2 OR SWAP1 SWAP4 SSTORE PUSH1 0x40 MLOAD SWAP2 AND SWAP2 SWAP1 DUP3 SWAP1 PUSH32 0x8BE0079C531659141344CD1FD0A4F28419497F9722A3DAAFE3B4186F6B6457E0 SWAP1 PUSH1 0x0 SWAP1 LOG3 POP POP JUMP JUMPDEST PUSH1 0x0 PUSH2 0x26A1 DUP5 DUP5 PUSH2 0x18A6 JUMP JUMPDEST SWAP1 POP PUSH1 0x0 NOT DUP2 EQ PUSH2 0x2709 JUMPI DUP2 DUP2 LT ISZERO PUSH2 0x26FC JUMPI PUSH1 0x40 MLOAD PUSH3 0x461BCD PUSH1 0xE5 SHL DUP2 MSTORE PUSH1 0x20 PUSH1 0x4 DUP3 ADD MSTORE PUSH1 0x1D PUSH1 0x24 DUP3 ADD MSTORE PUSH32 0x45524332303A20696E73756666696369656E7420616C6C6F77616E6365000000 PUSH1 0x44 DUP3 ADD MSTORE PUSH1 0x64 ADD PUSH2 0xAEA JUMP JUMPDEST PUSH2 0x2709 DUP5 DUP5 DUP5 DUP5 SUB PUSH2 0x1947 JUMP JUMPDEST POP POP POP POP JUMP JUMPDEST PUSH1 0x60 PUSH1 0x99 DUP1 SLOAD PUSH2 0x9B7 SWAP1 PUSH2 0x3428 JUMP JUMPDEST PUSH1 0x60 PUSH1 0x9A DUP1 SLOAD PUSH2 0x9B7 SWAP1 PUSH2 0x3428 JUMP JUMPDEST PUSH1 0x0 CALLER PUSH2 0xA48 DUP2 DUP6 DUP6 PUSH2 0x27BA JUMP JUMPDEST PUSH1 0x1 PUSH1 0x1 PUSH1 0xA0 SHL SUB DUP2 AND PUSH1 0x0 SWAP1 DUP2 MSTORE PUSH1 0xCB PUSH1 0x20 MSTORE PUSH1 0x40 SWAP1 KECCAK256 DUP1 SLOAD PUSH1 0x1 DUP2 ADD DUP3 SSTORE SWAP1 JUMPDEST POP SWAP2 SWAP1 POP JUMP JUMPDEST PUSH1 0x0 PUSH2 0xA4E PUSH2 0x2770 PUSH2 0x2331 JUMP JUMPDEST DUP4 PUSH1 0x40 MLOAD PUSH2 0x1901 PUSH1 0xF0 SHL DUP2 MSTORE PUSH1 0x2 DUP2 ADD SWAP3 SWAP1 SWAP3 MSTORE PUSH1 0x22 DUP3 ADD MSTORE PUSH1 0x42 SWAP1 KECCAK256 SWAP1 JUMP JUMPDEST PUSH1 0x0 DUP1 PUSH1 0x0 PUSH2 0x27A1 DUP8 DUP8 DUP8 DUP8 PUSH2 0x2C4E JUMP JUMPDEST SWAP2 POP SWAP2 POP PUSH2 0x27AE DUP2 PUSH2 0x2D12 JUMP JUMPDEST POP SWAP1 POP JUMPDEST SWAP5 SWAP4 POP POP POP POP JUMP JUMPDEST PUSH1 0x1 PUSH1 0x1 PUSH1 0xA0 SHL SUB DUP4 AND PUSH2 0x281E JUMPI PUSH1 0x40 MLOAD PUSH3 0x461BCD PUSH1 0xE5 SHL DUP2 MSTORE PUSH1 0x20 PUSH1 0x4 DUP3 ADD MSTORE PUSH1 0x25 PUSH1 0x24 DUP3 ADD MSTORE PUSH32 0x45524332303A207472616E736665722066726F6D20746865207A65726F206164 PUSH1 0x44 DUP3 ADD MSTORE PUSH5 0x6472657373 PUSH1 0xD8 SHL PUSH1 0x64 DUP3 ADD MSTORE PUSH1 0x84 ADD PUSH2 0xAEA JUMP JUMPDEST PUSH1 0x1 PUSH1 0x1 PUSH1 0xA0 SHL SUB DUP3 AND PUSH2 0x2880 JUMPI PUSH1 0x40 MLOAD PUSH3 0x461BCD PUSH1 0xE5 SHL DUP2 MSTORE PUSH1 0x20 PUSH1 0x4 DUP3 ADD MSTORE PUSH1 0x23 PUSH1 0x24 DUP3 ADD MSTORE PUSH32 0x45524332303A207472616E7366657220746F20746865207A65726F2061646472 PUSH1 0x44 DUP3 ADD MSTORE PUSH3 0x657373 PUSH1 0xE8 SHL PUSH1 0x64 DUP3 ADD MSTORE PUSH1 0x84 ADD PUSH2 0xAEA JUMP JUMPDEST PUSH1 0x1 PUSH1 0x1 PUSH1 0xA0 SHL SUB DUP4 AND PUSH1 0x0 SWAP1 DUP2 MSTORE PUSH1 0x33 PUSH1 0x20 MSTORE PUSH1 0x40 SWAP1 KECCAK256 SLOAD DUP2 DUP2 LT ISZERO PUSH2 0x28F8 JUMPI PUSH1 0x40 MLOAD PUSH3 0x461BCD PUSH1 0xE5 SHL DUP2 MSTORE PUSH1 0x20 PUSH1 0x4 DUP3 ADD MSTORE PUSH1 0x26 PUSH1 0x24 DUP3 ADD MSTORE PUSH32 0x45524332303A207472616E7366657220616D6F756E7420657863656564732062 PUSH1 0x44 DUP3 ADD MSTORE PUSH6 0x616C616E6365 PUSH1 0xD0 SHL PUSH1 0x64 DUP3 ADD MSTORE PUSH1 0x84 ADD PUSH2 0xAEA JUMP JUMPDEST PUSH1 0x1 PUSH1 0x1 PUSH1 0xA0 SHL SUB DUP1 DUP6 AND PUSH1 0x0 DUP2 DUP2 MSTORE PUSH1 0x33 PUSH1 0x20 MSTORE PUSH1 0x40 DUP1 DUP3 KECCAK256 DUP7 DUP7 SUB SWAP1 SSTORE SWAP3 DUP7 AND DUP1 DUP3 MSTORE SWAP1 DUP4 SWAP1 KECCAK256 DUP1 SLOAD DUP7 ADD SWAP1 SSTORE SWAP2 MLOAD PUSH32 0xDDF252AD1BE2C89B69C2B068FC378DAA952BA7F163C4A11628F55A4DF523B3EF SWAP1 PUSH2 0x2958 SWAP1 DUP7 DUP2 MSTORE PUSH1 0x20 ADD SWAP1 JUMP JUMPDEST PUSH1 0x40 MLOAD DUP1 SWAP2 SUB SWAP1 LOG3 PUSH2 0x2709 JUMP JUMPDEST PUSH1 0x0 PUSH2 0xB01 DUP3 DUP5 PUSH2 0x35CF JUMP JUMPDEST PUSH1 0x0 PUSH2 0xB01 DUP3 DUP5 PUSH2 0x371E JUMP JUMPDEST TIMESTAMP PUSH1 0x0 PUSH2 0x298A DUP4 DUP4 PUSH2 0x367E JUMP JUMPDEST PUSH1 0x1 PUSH1 0x1 PUSH1 0xA0 SHL SUB DUP7 AND PUSH1 0x0 DUP2 DUP2 MSTORE PUSH2 0x1D1 PUSH1 0x20 SWAP1 DUP2 MSTORE PUSH1 0x40 DUP1 DUP4 KECCAK256 DUP2 MLOAD PUSH1 0x60 DUP2 ADD DUP4 MSTORE DUP9 DUP2 MSTORE DUP1 DUP5 ADD DUP12 DUP2 MSTORE DUP2 DUP5 ADD DUP9 DUP2 MSTORE DUP4 SLOAD PUSH1 0x1 DUP2 DUP2 ADD DUP7 SSTORE SWAP5 DUP9 MSTORE SWAP6 SWAP1 SWAP7 KECCAK256 SWAP2 MLOAD PUSH1 0x3 SWAP1 SWAP6 MUL SWAP1 SWAP2 ADD SWAP4 DUP5 SSTORE MLOAD SWAP1 DUP4 ADD SSTORE SWAP2 MLOAD PUSH1 0x2 SWAP1 SWAP2 ADD SSTORE MLOAD SWAP2 SWAP3 POP SWAP1 PUSH32 0xD741E738A23FD18A03A26522320D9FC6CAC1FED483E215EA9150FBC2FC43385D SWAP1 PUSH2 0x2A24 SWAP1 DUP8 SWAP1 DUP6 SWAP1 SWAP2 DUP3 MSTORE PUSH1 0x20 DUP3 ADD MSTORE PUSH1 0x40 ADD SWAP1 JUMP JUMPDEST PUSH1 0x40 MLOAD DUP1 SWAP2 SUB SWAP1 LOG2 POP POP POP POP POP JUMP JUMPDEST PUSH1 0x0 SLOAD PUSH2 0x100 SWAP1 DIV PUSH1 0xFF AND PUSH2 0x2A5A JUMPI PUSH1 0x40 MLOAD PUSH3 0x461BCD PUSH1 0xE5 SHL DUP2 MSTORE PUSH1 0x4 ADD PUSH2 0xAEA SWAP1 PUSH2 0x36BA JUMP JUMPDEST PUSH1 0x36 PUSH2 0x2A66 DUP4 DUP3 PUSH2 0x3788 JUMP JUMPDEST POP PUSH1 0x37 PUSH2 0x2376 DUP3 DUP3 PUSH2 0x3788 JUMP JUMPDEST PUSH1 0x0 SLOAD PUSH2 0x100 SWAP1 DIV PUSH1 0xFF AND PUSH2 0x2A9A JUMPI PUSH1 0x40 MLOAD PUSH3 0x461BCD PUSH1 0xE5 SHL DUP2 MSTORE PUSH1 0x4 ADD PUSH2 0xAEA SWAP1 PUSH2 0x36BA JUMP JUMPDEST PUSH1 0x99 PUSH2 0x2AA6 DUP4 DUP3 PUSH2 0x3788 JUMP JUMPDEST POP PUSH1 0x9A PUSH2 0x2AB3 DUP3 DUP3 PUSH2 0x3788 JUMP JUMPDEST POP POP PUSH1 0x0 PUSH1 0x97 DUP2 SWAP1 SSTORE PUSH1 0x98 SSTORE POP JUMP JUMPDEST PUSH1 0x0 SLOAD PUSH2 0x100 SWAP1 DIV PUSH1 0xFF AND PUSH2 0x2169 JUMPI PUSH1 0x40 MLOAD PUSH3 0x461BCD PUSH1 0xE5 SHL DUP2 MSTORE PUSH1 0x4 ADD PUSH2 0xAEA SWAP1 PUSH2 0x36BA JUMP JUMPDEST PUSH1 0x0 SLOAD PUSH2 0x100 SWAP1 DIV PUSH1 0xFF AND PUSH2 0x2B10 JUMPI PUSH1 0x40 MLOAD PUSH3 0x461BCD PUSH1 0xE5 SHL DUP2 MSTORE PUSH1 0x4 ADD PUSH2 0xAEA SWAP1 PUSH2 0x36BA JUMP JUMPDEST PUSH2 0x13E1 CALLER PUSH2 0x2642 JUMP JUMPDEST PUSH1 0x0 PUSH32 0x8B73C3C69BB8FE3D512ECC4CF759CC79239F7B179B0FFACAA9A75D522B39400F PUSH2 0x2B44 PUSH2 0x2E5C JUMP JUMPDEST PUSH2 0x2B4C PUSH2 0x2EB5 JUMP JUMPDEST PUSH1 0x40 DUP1 MLOAD PUSH1 0x20 DUP2 ADD SWAP5 SWAP1 SWAP5 MSTORE DUP4 ADD SWAP2 SWAP1 SWAP2 MSTORE PUSH1 0x60 DUP3 ADD MSTORE CHAINID PUSH1 0x80 DUP3 ADD MSTORE ADDRESS PUSH1 0xA0 DUP3 ADD MSTORE PUSH1 0xC0 ADD PUSH1 0x40 MLOAD PUSH1 0x20 DUP2 DUP4 SUB SUB DUP2 MSTORE SWAP1 PUSH1 0x40 MSTORE DUP1 MLOAD SWAP1 PUSH1 0x20 ADD KECCAK256 SWAP1 POP SWAP1 JUMP JUMPDEST PUSH1 0x1 PUSH1 0x1 PUSH1 0xA0 SHL SUB DUP2 AND EXTCODESIZE PUSH2 0x2BFA JUMPI PUSH1 0x40 MLOAD PUSH3 0x461BCD PUSH1 0xE5 SHL DUP2 MSTORE PUSH1 0x20 PUSH1 0x4 DUP3 ADD MSTORE PUSH1 0x2D PUSH1 0x24 DUP3 ADD MSTORE PUSH32 0x455243313936373A206E657720696D706C656D656E746174696F6E206973206E PUSH1 0x44 DUP3 ADD MSTORE PUSH13 0x1BDD08184818DBDB9D1C9858DD PUSH1 0x9A SHL PUSH1 0x64 DUP3 ADD MSTORE PUSH1 0x84 ADD PUSH2 0xAEA JUMP JUMPDEST PUSH1 0x0 DUP1 MLOAD PUSH1 0x20 PUSH2 0x387B DUP4 CODECOPY DUP2 MLOAD SWAP2 MSTORE DUP1 SLOAD PUSH1 0x1 PUSH1 0x1 PUSH1 0xA0 SHL SUB NOT AND PUSH1 0x1 PUSH1 0x1 PUSH1 0xA0 SHL SUB SWAP3 SWAP1 SWAP3 AND SWAP2 SWAP1 SWAP2 OR SWAP1 SSTORE JUMP JUMPDEST PUSH2 0x2C32 DUP4 PUSH2 0x2EE6 JUMP JUMPDEST PUSH1 0x0 DUP3 MLOAD GT DUP1 PUSH2 0x2C3F JUMPI POP DUP1 JUMPDEST ISZERO PUSH2 0x2376 JUMPI PUSH2 0x2709 DUP4 DUP4 PUSH2 0x2F26 JUMP JUMPDEST PUSH1 0x0 DUP1 PUSH32 0x7FFFFFFFFFFFFFFFFFFFFFFFFFFFFFFF5D576E7357A4501DDFE92F46681B20A0 DUP4 GT ISZERO PUSH2 0x2C85 JUMPI POP PUSH1 0x0 SWAP1 POP PUSH1 0x3 PUSH2 0x2D09 JUMP JUMPDEST PUSH1 0x40 DUP1 MLOAD PUSH1 0x0 DUP1 DUP3 MSTORE PUSH1 0x20 DUP3 ADD DUP1 DUP5 MSTORE DUP10 SWAP1 MSTORE PUSH1 0xFF DUP9 AND SWAP3 DUP3 ADD SWAP3 SWAP1 SWAP3 MSTORE PUSH1 0x60 DUP2 ADD DUP7 SWAP1 MSTORE PUSH1 0x80 DUP2 ADD DUP6 SWAP1 MSTORE PUSH1 0x1 SWAP1 PUSH1 0xA0 ADD PUSH1 0x20 PUSH1 0x40 MLOAD PUSH1 0x20 DUP2 SUB SWAP1 DUP1 DUP5 SUB SWAP1 DUP6 GAS STATICCALL ISZERO DUP1 ISZERO PUSH2 0x2CD9 JUMPI RETURNDATASIZE PUSH1 0x0 DUP1 RETURNDATACOPY RETURNDATASIZE PUSH1 0x0 REVERT JUMPDEST POP POP PUSH1 0x40 MLOAD PUSH1 0x1F NOT ADD MLOAD SWAP2 POP POP PUSH1 0x1 PUSH1 0x1 PUSH1 0xA0 SHL SUB DUP2 AND PUSH2 0x2D02 JUMPI PUSH1 0x0 PUSH1 0x1 SWAP3 POP SWAP3 POP POP PUSH2 0x2D09 JUMP JUMPDEST SWAP2 POP PUSH1 0x0 SWAP1 POP JUMPDEST SWAP5 POP SWAP5 SWAP3 POP POP POP JUMP JUMPDEST PUSH1 0x0 DUP2 PUSH1 0x4 DUP2 GT ISZERO PUSH2 0x2D26 JUMPI PUSH2 0x2D26 PUSH2 0x3848 JUMP JUMPDEST SUB PUSH2 0x2D2E JUMPI POP JUMP JUMPDEST PUSH1 0x1 DUP2 PUSH1 0x4 DUP2 GT ISZERO PUSH2 0x2D42 JUMPI PUSH2 0x2D42 PUSH2 0x3848 JUMP JUMPDEST SUB PUSH2 0x2D8F JUMPI PUSH1 0x40 MLOAD PUSH3 0x461BCD PUSH1 0xE5 SHL DUP2 MSTORE PUSH1 0x20 PUSH1 0x4 DUP3 ADD MSTORE PUSH1 0x18 PUSH1 0x24 DUP3 ADD MSTORE PUSH32 0x45434453413A20696E76616C6964207369676E61747572650000000000000000 PUSH1 0x44 DUP3 ADD MSTORE PUSH1 0x64 ADD PUSH2 0xAEA JUMP JUMPDEST PUSH1 0x2 DUP2 PUSH1 0x4 DUP2 GT ISZERO PUSH2 0x2DA3 JUMPI PUSH2 0x2DA3 PUSH2 0x3848 JUMP JUMPDEST SUB PUSH2 0x2DF0 JUMPI PUSH1 0x40 MLOAD PUSH3 0x461BCD PUSH1 0xE5 SHL DUP2 MSTORE PUSH1 0x20 PUSH1 0x4 DUP3 ADD MSTORE PUSH1 0x1F PUSH1 0x24 DUP3 ADD MSTORE PUSH32 0x45434453413A20696E76616C6964207369676E6174757265206C656E67746800 PUSH1 0x44 DUP3 ADD MSTORE PUSH1 0x64 ADD PUSH2 0xAEA JUMP JUMPDEST PUSH1 0x3 DUP2 PUSH1 0x4 DUP2 GT ISZERO PUSH2 0x2E04 JUMPI PUSH2 0x2E04 PUSH2 0x3848 JUMP JUMPDEST SUB PUSH2 0xDA7 JUMPI PUSH1 0x40 MLOAD PUSH3 0x461BCD PUSH1 0xE5 SHL DUP2 MSTORE PUSH1 0x20 PUSH1 0x4 DUP3 ADD MSTORE PUSH1 0x22 PUSH1 0x24 DUP3 ADD MSTORE PUSH32 0x45434453413A20696E76616C6964207369676E6174757265202773272076616C PUSH1 0x44 DUP3 ADD MSTORE PUSH2 0x7565 PUSH1 0xF0 SHL PUSH1 0x64 DUP3 ADD MSTORE PUSH1 0x84 ADD PUSH2 0xAEA JUMP JUMPDEST PUSH1 0x0 DUP1 PUSH2 0x2E67 PUSH2 0x270F JUMP JUMPDEST DUP1 MLOAD SWAP1 SWAP2 POP ISZERO PUSH2 0x2E7E JUMPI DUP1 MLOAD PUSH1 0x20 SWAP1 SWAP2 ADD KECCAK256 SWAP2 SWAP1 POP JUMP JUMPDEST PUSH1 0x97 SLOAD DUP1 ISZERO PUSH2 0x2E8D JUMPI SWAP3 SWAP2 POP POP JUMP JUMPDEST PUSH32 0xC5D2460186F7233C927E7DB2DCC703C0E500B653CA82273B7BFAD8045D85A470 SWAP3 POP POP POP SWAP1 JUMP JUMPDEST PUSH1 0x0 DUP1 PUSH2 0x2EC0 PUSH2 0x271E JUMP JUMPDEST DUP1 MLOAD SWAP1 SWAP2 POP ISZERO PUSH2 0x2ED7 JUMPI DUP1 MLOAD PUSH1 0x20 SWAP1 SWAP2 ADD KECCAK256 SWAP2 SWAP1 POP JUMP JUMPDEST PUSH1 0x98 SLOAD DUP1 ISZERO PUSH2 0x2E8D JUMPI SWAP3 SWAP2 POP POP JUMP JUMPDEST PUSH2 0x2EEF DUP2 PUSH2 0x2B8D JUMP JUMPDEST PUSH1 0x40 MLOAD PUSH1 0x1 PUSH1 0x1 PUSH1 0xA0 SHL SUB DUP3 AND SWAP1 PUSH32 0xBC7CD75A20EE27FD9ADEBAB32041F755214DBC6BFFA90CC0225B39DA2E5C2D3B SWAP1 PUSH1 0x0 SWAP1 LOG2 POP JUMP JUMPDEST PUSH1 0x60 PUSH2 0xB01 DUP4 DUP4 PUSH1 0x40 MLOAD DUP1 PUSH1 0x60 ADD PUSH1 0x40 MSTORE DUP1 PUSH1 0x27 DUP2 MSTORE PUSH1 0x20 ADD PUSH2 0x389B PUSH1 0x27 SWAP2 CODECOPY PUSH1 0x60 PUSH1 0x0 DUP1 DUP6 PUSH1 0x1 PUSH1 0x1 PUSH1 0xA0 SHL SUB AND DUP6 PUSH1 0x40 MLOAD PUSH2 0x2F63 SWAP2 SWAP1 PUSH2 0x385E JUMP JUMPDEST PUSH1 0x0 PUSH1 0x40 MLOAD DUP1 DUP4 SUB DUP2 DUP6 GAS DELEGATECALL SWAP2 POP POP RETURNDATASIZE DUP1 PUSH1 0x0 DUP2 EQ PUSH2 0x2F9E JUMPI PUSH1 0x40 MLOAD SWAP2 POP PUSH1 0x1F NOT PUSH1 0x3F RETURNDATASIZE ADD AND DUP3 ADD PUSH1 0x40 MSTORE RETURNDATASIZE DUP3 MSTORE RETURNDATASIZE PUSH1 0x0 PUSH1 0x20 DUP5 ADD RETURNDATACOPY PUSH2 0x2FA3 JUMP JUMPDEST PUSH1 0x60 SWAP2 POP JUMPDEST POP SWAP2 POP SWAP2 POP PUSH2 0x2FB4 DUP7 DUP4 DUP4 DUP8 PUSH2 0x2FBE JUMP JUMPDEST SWAP7 SWAP6 POP POP POP POP POP POP JUMP JUMPDEST PUSH1 0x60 DUP4 ISZERO PUSH2 0x302D JUMPI DUP3 MLOAD PUSH1 0x0 SUB PUSH2 0x3026 JUMPI PUSH1 0x1 PUSH1 0x1 PUSH1 0xA0 SHL SUB DUP6 AND EXTCODESIZE PUSH2 0x3026 JUMPI PUSH1 0x40 MLOAD PUSH3 0x461BCD PUSH1 0xE5 SHL DUP2 MSTORE PUSH1 0x20 PUSH1 0x4 DUP3 ADD MSTORE PUSH1 0x1D PUSH1 0x24 DUP3 ADD MSTORE PUSH32 0x416464726573733A2063616C6C20746F206E6F6E2D636F6E7472616374000000 PUSH1 0x44 DUP3 ADD MSTORE PUSH1 0x64 ADD PUSH2 0xAEA JUMP JUMPDEST POP DUP2 PUSH2 0x27B2 JUMP JUMPDEST PUSH2 0x27B2 DUP4 DUP4 DUP2 MLOAD ISZERO PUSH2 0x3042 JUMPI DUP2 MLOAD DUP1 DUP4 PUSH1 0x20 ADD REVERT JUMPDEST DUP1 PUSH1 0x40 MLOAD PUSH3 0x461BCD PUSH1 0xE5 SHL DUP2 MSTORE PUSH1 0x4 ADD PUSH2 0xAEA SWAP2 SWAP1 PUSH2 0x30AC JUMP JUMPDEST PUSH1 0x0 JUMPDEST DUP4 DUP2 LT ISZERO PUSH2 0x3077 JUMPI DUP2 DUP2 ADD MLOAD DUP4 DUP3 ADD MSTORE PUSH1 0x20 ADD PUSH2 0x305F JUMP JUMPDEST POP POP PUSH1 0x0 SWAP2 ADD MSTORE JUMP JUMPDEST PUSH1 0x0 DUP2 MLOAD DUP1 DUP5 MSTORE PUSH2 0x3098 DUP2 PUSH1 0x20 DUP7 ADD PUSH1 0x20 DUP7 ADD PUSH2 0x305C JUMP JUMPDEST PUSH1 0x1F ADD PUSH1 0x1F NOT AND SWAP3 SWAP1 SWAP3 ADD PUSH1 0x20 ADD SWAP3 SWAP2 POP POP JUMP JUMPDEST PUSH1 0x20 DUP2 MSTORE PUSH1 0x0 PUSH2 0xB01 PUSH1 0x20 DUP4 ADD DUP5 PUSH2 0x3080 JUMP JUMPDEST DUP1 CALLDATALOAD PUSH1 0x1 PUSH1 0x1 PUSH1 0xA0 SHL SUB DUP2 AND DUP2 EQ PUSH2 0x30D6 JUMPI PUSH1 0x0 DUP1 REVERT JUMPDEST SWAP2 SWAP1 POP JUMP JUMPDEST PUSH1 0x0 DUP1 PUSH1 0x40 DUP4 DUP6 SUB SLT ISZERO PUSH2 0x30EE JUMPI PUSH1 0x0 DUP1 REVERT JUMPDEST PUSH2 0x30F7 DUP4 PUSH2 0x30BF JUMP JUMPDEST SWAP5 PUSH1 0x20 SWAP4 SWAP1 SWAP4 ADD CALLDATALOAD SWAP4 POP POP POP JUMP JUMPDEST PUSH1 0x0 PUSH1 0x20 DUP3 DUP5 SUB SLT ISZERO PUSH2 0x3117 JUMPI PUSH1 0x0 DUP1 REVERT JUMPDEST PUSH2 0xB01 DUP3 PUSH2 0x30BF JUMP JUMPDEST PUSH1 0x0 DUP1 PUSH1 0x0 PUSH1 0x60 DUP5 DUP7 SUB SLT ISZERO PUSH2 0x3135 JUMPI PUSH1 0x0 DUP1 REVERT JUMPDEST PUSH2 0x313E DUP5 PUSH2 0x30BF JUMP JUMPDEST SWAP3 POP PUSH2 0x314C PUSH1 0x20 DUP6 ADD PUSH2 0x30BF JUMP JUMPDEST SWAP2 POP PUSH1 0x40 DUP5 ADD CALLDATALOAD SWAP1 POP SWAP3 POP SWAP3 POP SWAP3 JUMP JUMPDEST PUSH1 0x0 PUSH1 0x20 DUP3 DUP5 SUB SLT ISZERO PUSH2 0x316E JUMPI PUSH1 0x0 DUP1 REVERT JUMPDEST POP CALLDATALOAD SWAP2 SWAP1 POP JUMP JUMPDEST PUSH1 0x0 DUP1 PUSH1 0x0 DUP1 PUSH1 0x0 PUSH1 0xA0 DUP7 DUP9 SUB SLT ISZERO PUSH2 0x318D JUMPI PUSH1 0x0 DUP1 REVERT JUMPDEST DUP6 CALLDATALOAD SWAP5 POP PUSH2 0x319D PUSH1 0x20 DUP8 ADD PUSH2 0x30BF JUMP JUMPDEST SWAP4 POP PUSH2 0x31AB PUSH1 0x40 DUP8 ADD PUSH2 0x30BF JUMP JUMPDEST SWAP3 POP PUSH2 0x31B9 PUSH1 0x60 DUP8 ADD PUSH2 0x30BF JUMP JUMPDEST SWAP2 POP PUSH2 0x31C7 PUSH1 0x80 DUP8 ADD PUSH2 0x30BF JUMP JUMPDEST SWAP1 POP SWAP3 SWAP6 POP SWAP3 SWAP6 SWAP1 SWAP4 POP JUMP JUMPDEST PUSH4 0x4E487B71 PUSH1 0xE0 SHL PUSH1 0x0 MSTORE PUSH1 0x41 PUSH1 0x4 MSTORE PUSH1 0x24 PUSH1 0x0 REVERT JUMPDEST PUSH1 0x0 DUP1 PUSH1 0x40 DUP4 DUP6 SUB SLT ISZERO PUSH2 0x31FC JUMPI PUSH1 0x0 DUP1 REVERT JUMPDEST PUSH2 0x3205 DUP4 PUSH2 0x30BF JUMP JUMPDEST SWAP2 POP PUSH1 0x20 DUP4 ADD CALLDATALOAD PUSH8 0xFFFFFFFFFFFFFFFF DUP1 DUP3 GT ISZERO PUSH2 0x3222 JUMPI PUSH1 0x0 DUP1 REVERT JUMPDEST DUP2 DUP6 ADD SWAP2 POP DUP6 PUSH1 0x1F DUP4 ADD SLT PUSH2 0x3236 JUMPI PUSH1 0x0 DUP1 REVERT JUMPDEST DUP2 CALLDATALOAD DUP2 DUP2 GT ISZERO PUSH2 0x3248 JUMPI PUSH2 0x3248 PUSH2 0x31D3 JUMP JUMPDEST PUSH1 0x40 MLOAD PUSH1 0x1F DUP3 ADD PUSH1 0x1F NOT SWAP1 DUP2 AND PUSH1 0x3F ADD AND DUP2 ADD SWAP1 DUP4 DUP3 GT DUP2 DUP4 LT OR ISZERO PUSH2 0x3270 JUMPI PUSH2 0x3270 PUSH2 0x31D3 JUMP JUMPDEST DUP2 PUSH1 0x40 MSTORE DUP3 DUP2 MSTORE DUP9 PUSH1 0x20 DUP5 DUP8 ADD ADD GT ISZERO PUSH2 0x3289 JUMPI PUSH1 0x0 DUP1 REVERT JUMPDEST DUP3 PUSH1 0x20 DUP7 ADD PUSH1 0x20 DUP4 ADD CALLDATACOPY PUSH1 0x0 PUSH1 0x20 DUP5 DUP4 ADD ADD MSTORE DUP1 SWAP6 POP POP POP POP POP POP SWAP3 POP SWAP3 SWAP1 POP JUMP JUMPDEST PUSH1 0xFF PUSH1 0xF8 SHL DUP9 AND DUP2 MSTORE PUSH1 0x0 PUSH1 0x20 PUSH1 0xE0 PUSH1 0x20 DUP5 ADD MSTORE PUSH2 0x32CC PUSH1 0xE0 DUP5 ADD DUP11 PUSH2 0x3080 JUMP JUMPDEST DUP4 DUP2 SUB PUSH1 0x40 DUP6 ADD MSTORE PUSH2 0x32DE DUP2 DUP11 PUSH2 0x3080 JUMP JUMPDEST PUSH1 0x60 DUP6 ADD DUP10 SWAP1 MSTORE PUSH1 0x1 PUSH1 0x1 PUSH1 0xA0 SHL SUB DUP9 AND PUSH1 0x80 DUP7 ADD MSTORE PUSH1 0xA0 DUP6 ADD DUP8 SWAP1 MSTORE DUP5 DUP2 SUB PUSH1 0xC0 DUP7 ADD MSTORE DUP6 MLOAD DUP1 DUP3 MSTORE PUSH1 0x20 DUP1 DUP9 ADD SWAP4 POP SWAP1 SWAP2 ADD SWAP1 PUSH1 0x0 JUMPDEST DUP2 DUP2 LT ISZERO PUSH2 0x3332 JUMPI DUP4 MLOAD DUP4 MSTORE SWAP3 DUP5 ADD SWAP3 SWAP2 DUP5 ADD SWAP2 PUSH1 0x1 ADD PUSH2 0x3316 JUMP JUMPDEST POP SWAP1 SWAP13 SWAP12 POP POP POP POP POP POP POP POP POP POP POP POP JUMP JUMPDEST PUSH1 0x0 DUP1 PUSH1 0x40 DUP4 DUP6 SUB SLT ISZERO PUSH2 0x3357 JUMPI PUSH1 0x0 DUP1 REVERT JUMPDEST PUSH2 0x3360 DUP4 PUSH2 0x30BF JUMP JUMPDEST SWAP2 POP PUSH1 0x20 DUP4 ADD CALLDATALOAD PUSH2 0xFFFF DUP2 AND DUP2 EQ PUSH2 0x3377 JUMPI PUSH1 0x0 DUP1 REVERT JUMPDEST DUP1 SWAP2 POP POP SWAP3 POP SWAP3 SWAP1 POP JUMP JUMPDEST PUSH1 0x0 DUP1 PUSH1 0x0 DUP1 PUSH1 0x0 DUP1 PUSH1 0x0 PUSH1 0xE0 DUP9 DUP11 SUB SLT ISZERO PUSH2 0x339D JUMPI PUSH1 0x0 DUP1 REVERT JUMPDEST PUSH2 0x33A6 DUP9 PUSH2 0x30BF JUMP JUMPDEST SWAP7 POP PUSH2 0x33B4 PUSH1 0x20 DUP10 ADD PUSH2 0x30BF JUMP JUMPDEST SWAP6 POP PUSH1 0x40 DUP9 ADD CALLDATALOAD SWAP5 POP PUSH1 0x60 DUP9 ADD CALLDATALOAD SWAP4 POP PUSH1 0x80 DUP9 ADD CALLDATALOAD PUSH1 0xFF DUP2 AND DUP2 EQ PUSH2 0x33D8 JUMPI PUSH1 0x0 DUP1 REVERT JUMPDEST SWAP7 SWAP10 SWAP6 SWAP9 POP SWAP4 SWAP7 SWAP3 SWAP6 SWAP5 PUSH1 0xA0 DUP5 ADD CALLDATALOAD SWAP5 POP PUSH1 0xC0 SWAP1 SWAP4 ADD CALLDATALOAD SWAP3 SWAP2 POP POP JUMP JUMPDEST PUSH1 0x0 DUP1 PUSH1 0x40 DUP4 DUP6 SUB SLT ISZERO PUSH2 0x3408 JUMPI PUSH1 0x0 DUP1 REVERT JUMPDEST PUSH2 0x3411 DUP4 PUSH2 0x30BF JUMP JUMPDEST SWAP2 POP PUSH2 0x341F PUSH1 0x20 DUP5 ADD PUSH2 0x30BF JUMP JUMPDEST SWAP1 POP SWAP3 POP SWAP3 SWAP1 POP JUMP JUMPDEST PUSH1 0x1 DUP2 DUP2 SHR SWAP1 DUP3 AND DUP1 PUSH2 0x343C JUMPI PUSH1 0x7F DUP3 AND SWAP2 POP JUMPDEST PUSH1 0x20 DUP3 LT DUP2 SUB PUSH2 0x275D JUMPI PUSH4 0x4E487B71 PUSH1 0xE0 SHL PUSH1 0x0 MSTORE PUSH1 0x22 PUSH1 0x4 MSTORE PUSH1 0x24 PUSH1 0x0 REVERT JUMPDEST PUSH1 0x20 DUP1 DUP3 MSTORE PUSH1 0x28 SWAP1 DUP3 ADD MSTORE PUSH32 0x5472616E7366657220616D6F756E74206578636565647320756E6C6F636B6564 PUSH1 0x40 DUP3 ADD MSTORE PUSH8 0x2062616C616E6365 PUSH1 0xC0 SHL PUSH1 0x60 DUP3 ADD MSTORE PUSH1 0x80 ADD SWAP1 JUMP JUMPDEST PUSH1 0x0 PUSH1 0x20 DUP3 DUP5 SUB SLT ISZERO PUSH2 0x34B6 JUMPI PUSH1 0x0 DUP1 REVERT JUMPDEST DUP2 MLOAD DUP1 ISZERO ISZERO DUP2 EQ PUSH2 0xB01 JUMPI PUSH1 0x0 DUP1 REVERT JUMPDEST PUSH4 0x4E487B71 PUSH1 0xE0 SHL PUSH1 0x0 MSTORE PUSH1 0x11 PUSH1 0x4 MSTORE PUSH1 0x24 PUSH1 0x0 REVERT JUMPDEST PUSH1 0x1 DUP2 DUP2 JUMPDEST DUP1 DUP6 GT ISZERO PUSH2 0x3517 JUMPI DUP2 PUSH1 0x0 NOT DIV DUP3 GT ISZERO PUSH2 0x34FD JUMPI PUSH2 0x34FD PUSH2 0x34C6 JUMP JUMPDEST DUP1 DUP6 AND ISZERO PUSH2 0x350A JUMPI SWAP2 DUP2 MUL SWAP2 JUMPDEST SWAP4 DUP5 SHR SWAP4 SWAP1 DUP1 MUL SWAP1 PUSH2 0x34E1 JUMP JUMPDEST POP SWAP3 POP SWAP3 SWAP1 POP JUMP JUMPDEST PUSH1 0x0 DUP3 PUSH2 0x352E JUMPI POP PUSH1 0x1 PUSH2 0xA4E JUMP JUMPDEST DUP2 PUSH2 0x353B JUMPI POP PUSH1 0x0 PUSH2 0xA4E JUMP JUMPDEST DUP2 PUSH1 0x1 DUP2 EQ PUSH2 0x3551 JUMPI PUSH1 0x2 DUP2 EQ PUSH2 0x355B JUMPI PUSH2 0x3577 JUMP JUMPDEST PUSH1 0x1 SWAP2 POP POP PUSH2 0xA4E JUMP JUMPDEST PUSH1 0xFF DUP5 GT ISZERO PUSH2 0x356C JUMPI PUSH2 0x356C PUSH2 0x34C6 JUMP JUMPDEST POP POP PUSH1 0x1 DUP3 SHL PUSH2 0xA4E JUMP JUMPDEST POP PUSH1 0x20 DUP4 LT PUSH2 0x133 DUP4 LT AND PUSH1 0x4E DUP5 LT PUSH1 0xB DUP5 LT AND OR ISZERO PUSH2 0x359A JUMPI POP DUP2 DUP2 EXP PUSH2 0xA4E JUMP JUMPDEST PUSH2 0x35A4 DUP4 DUP4 PUSH2 0x34DC JUMP JUMPDEST DUP1 PUSH1 0x0 NOT DIV DUP3 GT ISZERO PUSH2 0x35B8 JUMPI PUSH2 0x35B8 PUSH2 0x34C6 JUMP JUMPDEST MUL SWAP4 SWAP3 POP POP POP JUMP JUMPDEST PUSH1 0x0 PUSH2 0xB01 PUSH1 0xFF DUP5 AND DUP4 PUSH2 0x351F JUMP JUMPDEST DUP1 DUP3 MUL DUP2 ISZERO DUP3 DUP3 DIV DUP5 EQ OR PUSH2 0xA4E JUMPI PUSH2 0xA4E PUSH2 0x34C6 JUMP JUMPDEST PUSH1 0x20 DUP1 DUP3 MSTORE PUSH1 0x2C SWAP1 DUP3 ADD MSTORE PUSH32 0x46756E6374696F6E206D7573742062652063616C6C6564207468726F75676820 PUSH1 0x40 DUP3 ADD MSTORE PUSH12 0x19195B1959D85D1958D85B1B PUSH1 0xA2 SHL PUSH1 0x60 DUP3 ADD MSTORE PUSH1 0x80 ADD SWAP1 JUMP JUMPDEST PUSH1 0x20 DUP1 DUP3 MSTORE PUSH1 0x2C SWAP1 DUP3 ADD MSTORE PUSH32 0x46756E6374696F6E206D7573742062652063616C6C6564207468726F75676820 PUSH1 0x40 DUP3 ADD MSTORE PUSH12 0x6163746976652070726F7879 PUSH1 0xA0 SHL PUSH1 0x60 DUP3 ADD MSTORE PUSH1 0x80 ADD SWAP1 JUMP JUMPDEST DUP1 DUP3 ADD DUP1 DUP3 GT ISZERO PUSH2 0xA4E JUMPI PUSH2 0xA4E PUSH2 0x34C6 JUMP JUMPDEST PUSH4 0x4E487B71 PUSH1 0xE0 SHL PUSH1 0x0 MSTORE PUSH1 0x32 PUSH1 0x4 MSTORE PUSH1 0x24 PUSH1 0x0 REVERT JUMPDEST DUP2 DUP2 SUB DUP2 DUP2 GT ISZERO PUSH2 0xA4E JUMPI PUSH2 0xA4E PUSH2 0x34C6 JUMP JUMPDEST PUSH1 0x20 DUP1 DUP3 MSTORE PUSH1 0x2B SWAP1 DUP3 ADD MSTORE PUSH32 0x496E697469616C697A61626C653A20636F6E7472616374206973206E6F742069 PUSH1 0x40 DUP3 ADD MSTORE PUSH11 0x6E697469616C697A696E67 PUSH1 0xA8 SHL PUSH1 0x60 DUP3 ADD MSTORE PUSH1 0x80 ADD SWAP1 JUMP JUMPDEST PUSH1 0x0 PUSH1 0x20 DUP3 DUP5 SUB SLT ISZERO PUSH2 0x3717 JUMPI PUSH1 0x0 DUP1 REVERT JUMPDEST POP MLOAD SWAP2 SWAP1 POP JUMP JUMPDEST PUSH1 0x0 DUP3 PUSH2 0x373B JUMPI PUSH4 0x4E487B71 PUSH1 0xE0 SHL PUSH1 0x0 MSTORE PUSH1 0x12 PUSH1 0x4 MSTORE PUSH1 0x24 PUSH1 0x0 REVERT JUMPDEST POP DIV SWAP1 JUMP JUMPDEST PUSH1 0x1F DUP3 GT ISZERO PUSH2 0x2376 JUMPI PUSH1 0x0 DUP2 PUSH1 0x0 MSTORE PUSH1 0x20 PUSH1 0x0 KECCAK256 PUSH1 0x1F DUP6 ADD PUSH1 0x5 SHR DUP2 ADD PUSH1 0x20 DUP7 LT ISZERO PUSH2 0x3769 JUMPI POP DUP1 JUMPDEST PUSH1 0x1F DUP6 ADD PUSH1 0x5 SHR DUP3 ADD SWAP2 POP JUMPDEST DUP2 DUP2 LT ISZERO PUSH2 0x112D JUMPI DUP3 DUP2 SSTORE PUSH1 0x1 ADD PUSH2 0x3775 JUMP JUMPDEST DUP2 MLOAD PUSH8 0xFFFFFFFFFFFFFFFF DUP2 GT ISZERO PUSH2 0x37A2 JUMPI PUSH2 0x37A2 PUSH2 0x31D3 JUMP JUMPDEST PUSH2 0x37B6 DUP2 PUSH2 0x37B0 DUP5 SLOAD PUSH2 0x3428 JUMP JUMPDEST DUP5 PUSH2 0x3740 JUMP JUMPDEST PUSH1 0x20 DUP1 PUSH1 0x1F DUP4 GT PUSH1 0x1 DUP2 EQ PUSH2 0x37EB JUMPI PUSH1 0x0 DUP5 ISZERO PUSH2 0x37D3 JUMPI POP DUP6 DUP4 ADD MLOAD JUMPDEST PUSH1 0x0 NOT PUSH1 0x3 DUP7 SWAP1 SHL SHR NOT AND PUSH1 0x1 DUP6 SWAP1 SHL OR DUP6 SSTORE PUSH2 0x112D JUMP JUMPDEST PUSH1 0x0 DUP6 DUP2 MSTORE PUSH1 0x20 DUP2 KECCAK256 PUSH1 0x1F NOT DUP7 AND SWAP2 JUMPDEST DUP3 DUP2 LT ISZERO PUSH2 0x381A JUMPI DUP9 DUP7 ADD MLOAD DUP3 SSTORE SWAP5 DUP5 ADD SWAP5 PUSH1 0x1 SWAP1 SWAP2 ADD SWAP1 DUP5 ADD PUSH2 0x37FB JUMP JUMPDEST POP DUP6 DUP3 LT ISZERO PUSH2 0x3838 JUMPI DUP8 DUP6 ADD MLOAD PUSH1 0x0 NOT PUSH1 0x3 DUP9 SWAP1 SHL PUSH1 0xF8 AND SHR NOT AND DUP2 SSTORE JUMPDEST POP POP POP POP POP PUSH1 0x1 SWAP1 DUP2 SHL ADD SWAP1 SSTORE POP JUMP JUMPDEST PUSH4 0x4E487B71 PUSH1 0xE0 SHL PUSH1 0x0 MSTORE PUSH1 0x21 PUSH1 0x4 MSTORE PUSH1 0x24 PUSH1 0x0 REVERT JUMPDEST PUSH1 0x0 DUP3 MLOAD PUSH2 0x3870 DUP2 DUP5 PUSH1 0x20 DUP8 ADD PUSH2 0x305C JUMP JUMPDEST SWAP2 SWAP1 SWAP2 ADD SWAP3 SWAP2 POP POP JUMP INVALID CALLDATASIZE ADDMOD SWAP5 LOG1 EXTCODESIZE LOG1 LOG3 0x21 MOD PUSH8 0xC828492DB98DCA3E KECCAK256 PUSH23 0xCC3735A920A3CA505D382BBC416464726573733A206C6F PUSH24 0x2D6C6576656C2064656C65676174652063616C6C20666169 PUSH13 0x656416B0DA2FFCB90C6723317B 0xD6 CALLDATACOPY 0xD9 0xAA 0xD7 CREATE SELFBALANCE GT DELEGATECALL 0x2B 0xBE EXP 0xC0 SWAP2 DUP15 0xBE LT CALL 0xF9 STOP SHR LOG2 PUSH5 0x6970667358 0x22 SLT KECCAK256 0xC8 0x28 0xCD 0xC3 CODESIZE 0xB1 CALL EQ JUMPDEST 0xB7 SHL PUSH15 0xB6B5C85CD7E125247937571B0AFCCD 0x2C 0x2E GAS 0x27 PUSH23 0x64736F6C63430008160033000000000000000000000000 "},"methodIdentifiers":{"CREATOR_ALLOCATION()":"2bc73063","CREATOR_LOCK_DURATION()":"4498c446","DBC_POOL_INVESTOR()":"add78ad0","DBC_POOL_PERMANENT()":"e487709d","DOMAIN_SEPARATOR()":"3644e515","ECOSYSTEM_ALLOCATION()":"90534f24","ECOSYSTEM_LOCK_DURATION()":"e0ea2944","INITIAL_MARKET_VALUE()":"a18b5674","INVESTMENT_DURATION()":"b95b43bf","MIN_MARKET_VALUE()":"7e23ecc2","PERMANENT_LOCK_DURATION()":"6234ba27","TARGET_DBC_VALUE()":"7346069d","XAA_POOL_ALLOCATION()":"02ce3d67","allowance(address,address)":"dd62ed3e","approve(address,uint256)":"095ea7b3","balanceOf(address)":"70a08231","burn(uint256)":"42966c68","burnFrom(address,uint256)":"79cc6790","creatorAddress()":"e927fc5c","dbcPool()":"17defd8f","dbcToken()":"27d2f915","decimals()":"313ce567","decreaseAllowance(address,uint256)":"a457c2d7","ecosystemAddress()":"06a5cb3a","eip712Domain()":"84b0196e","getAvailableAmount(address)":"1f3a71ba","getLockAmountAndUnlockAt(address,uint16)":"cf93340d","increaseAllowance(address,uint256)":"39509351","initialTokenPrice()":"2ca0228a","initialize(uint256,address,address,address,address)":"3641e083","invest(uint256)":"2afcf480","investmentEndTime()":"c980270d","investmentOpen()":"73ef8387","investmentStartTime()":"dcd8bc41","investments(address)":"96b98862","name()":"06fdde03","nonces(address)":"7ecebe00","owner()":"8da5cb5b","permit(address,address,uint256,uint256,uint8,bytes32,bytes32)":"d505accf","proxiableUUID()":"52d1902d","renounceOwnership()":"715018a6","startInvestment()":"c43d8aa6","symbol()":"95d89b41","tokensDistributed()":"152e84a7","totalDBCInvested()":"ee842584","totalSupply()":"18160ddd","transfer(address,uint256)":"a9059cbb","transferFrom(address,address,uint256)":"23b872dd","transferOwnership(address)":"f2fde38b","upgradeTo(address)":"3659cfe6","upgradeToAndCall(address,bytes)":"4f1ef286","xaaPool()":"d2d8ca56","xaaPoolAddress()":"afa98831"}},"storageLayout":{"storage":[{"astId":530,"contract":"contracts/XAIAgentDRC20Upgradeable.sol:XAIAgentDRC20Upgradeable","label":"_initialized","offset":0,"slot":"0","type":"t_uint8"},{"astId":533,"contract":"contracts/XAIAgentDRC20Upgradeable.sol:XAIAgentDRC20Upgradeable","label":"_initializing","offset":1,"slot":"0","type":"t_bool"},{"astId":2306,"contract":"contracts/XAIAgentDRC20Upgradeable.sol:XAIAgentDRC20Upgradeable","label":"__gap","offset":0,"slot":"1","type":"t_array(t_uint256)50_storage"},{"astId":934,"contract":"contracts/XAIAgentDRC20Upgradeable.sol:XAIAgentDRC20Upgradeable","label":"_balances","offset":0,"slot":"51","type":"t_mapping(t_address,t_uint256)"},{"astId":940,"contract":"contracts/XAIAgentDRC20Upgradeable.sol:XAIAgentDRC20Upgradeable","label":"_allowances","offset":0,"slot":"52","type":"t_mapping(t_address,t_mapping(t_address,t_uint256))"},{"astId":942,"contract":"contracts/XAIAgentDRC20Upgradeable.sol:XAIAgentDRC20Upgradeable","label":"_totalSupply","offset":0,"slot":"53","type":"t_uint256"},{"astId":944,"contract":"contracts/XAIAgentDRC20Upgradeable.sol:XAIAgentDRC20Upgradeable","label":"_name","offset":0,"slot":"54","type":"t_string_storage"},{"astId":946,"contract":"contracts/XAIAgentDRC20Upgradeable.sol:XAIAgentDRC20Upgradeable","label":"_symbol","offset":0,"slot":"55","type":"t_string_storage"},{"astId":1526,"contract":"contracts/XAIAgentDRC20Upgradeable.sol:XAIAgentDRC20Upgradeable","label":"__gap","offset":0,"slot":"56","type":"t_array(t_uint256)45_storage"},{"astId":1669,"contract":"contracts/XAIAgentDRC20Upgradeable.sol:XAIAgentDRC20Upgradeable","label":"__gap","offset":0,"slot":"101","type":"t_array(t_uint256)50_storage"},{"astId":3105,"contract":"contracts/XAIAgentDRC20Upgradeable.sol:XAIAgentDRC20Upgradeable","label":"_hashedName","offset":0,"slot":"151","type":"t_bytes32"},{"astId":3108,"contract":"contracts/XAIAgentDRC20Upgradeable.sol:XAIAgentDRC20Upgradeable","label":"_hashedVersion","offset":0,"slot":"152","type":"t_bytes32"},{"astId":3110,"contract":"contracts/XAIAgentDRC20Upgradeable.sol:XAIAgentDRC20Upgradeable","label":"_name","offset":0,"slot":"153","type":"t_string_storage"},{"astId":3112,"contract":"contracts/XAIAgentDRC20Upgradeable.sol:XAIAgentDRC20Upgradeable","label":"_version","offset":0,"slot":"154","type":"t_string_storage"},{"astId":3370,"contract":"contracts/XAIAgentDRC20Upgradeable.sol:XAIAgentDRC20Upgradeable","label":"__gap","offset":0,"slot":"155","type":"t_array(t_uint256)48_storage"},{"astId":1697,"contract":"contracts/XAIAgentDRC20Upgradeable.sol:XAIAgentDRC20Upgradeable","label":"_nonces","offset":0,"slot":"203","type":"t_mapping(t_address,t_struct(Counter)2313_storage)"},{"astId":1705,"contract":"contracts/XAIAgentDRC20Upgradeable.sol:XAIAgentDRC20Upgradeable","label":"_PERMIT_TYPEHASH_DEPRECATED_SLOT","offset":0,"slot":"204","type":"t_bytes32"},{"astId":1861,"contract":"contracts/XAIAgentDRC20Upgradeable.sol:XAIAgentDRC20Upgradeable","label":"__gap","offset":0,"slot":"205","type":"t_array(t_uint256)49_storage"},{"astId":844,"contract":"contracts/XAIAgentDRC20Upgradeable.sol:XAIAgentDRC20Upgradeable","label":"_status","offset":0,"slot":"254","type":"t_uint256"},{"astId":913,"contract":"contracts/XAIAgentDRC20Upgradeable.sol:XAIAgentDRC20Upgradeable","label":"__gap","offset":0,"slot":"255","type":"t_array(t_uint256)49_storage"},{"astId":11,"contract":"contracts/XAIAgentDRC20Upgradeable.sol:XAIAgentDRC20Upgradeable","label":"_owner","offset":0,"slot":"304","type":"t_address"},{"astId":131,"contract":"contracts/XAIAgentDRC20Upgradeable.sol:XAIAgentDRC20Upgradeable","label":"__gap","offset":0,"slot":"305","type":"t_array(t_uint256)49_storage"},{"astId":512,"contract":"contracts/XAIAgentDRC20Upgradeable.sol:XAIAgentDRC20Upgradeable","label":"__gap","offset":0,"slot":"354","type":"t_array(t_uint256)50_storage"},{"astId":828,"contract":"contracts/XAIAgentDRC20Upgradeable.sol:XAIAgentDRC20Upgradeable","label":"__gap","offset":0,"slot":"404","type":"t_array(t_uint256)50_storage"},{"astId":7075,"contract":"contracts/XAIAgentDRC20Upgradeable.sol:XAIAgentDRC20Upgradeable","label":"investmentStartTime","offset":0,"slot":"454","type":"t_uint256"},{"astId":7077,"contract":"contracts/XAIAgentDRC20Upgradeable.sol:XAIAgentDRC20Upgradeable","label":"investmentOpen","offset":0,"slot":"455","type":"t_bool"},{"astId":7079,"contract":"contracts/XAIAgentDRC20Upgradeable.sol:XAIAgentDRC20Upgradeable","label":"totalDBCInvested","offset":0,"slot":"456","type":"t_uint256"},{"astId":7081,"contract":"contracts/XAIAgentDRC20Upgradeable.sol:XAIAgentDRC20Upgradeable","label":"initialTokenPrice","offset":0,"slot":"457","type":"t_uint256"},{"astId":7083,"contract":"contracts/XAIAgentDRC20Upgradeable.sol:XAIAgentDRC20Upgradeable","label":"investmentEndTime","offset":0,"slot":"458","type":"t_uint256"},{"astId":7085,"contract":"contracts/XAIAgentDRC20Upgradeable.sol:XAIAgentDRC20Upgradeable","label":"tokensDistributed","offset":0,"slot":"459","type":"t_bool"},{"astId":7088,"contract":"contracts/XAIAgentDRC20Upgradeable.sol:XAIAgentDRC20Upgradeable","label":"dbcToken","offset":1,"slot":"459","type":"t_contract(IERC20)5497"},{"astId":7132,"contract":"contracts/XAIAgentDRC20Upgradeable.sol:XAIAgentDRC20Upgradeable","label":"xaaPoolAddress","offset":0,"slot":"460","type":"t_address"},{"astId":7134,"contract":"contracts/XAIAgentDRC20Upgradeable.sol:XAIAgentDRC20Upgradeable","label":"ecosystemAddress","offset":0,"slot":"461","type":"t_address"},{"astId":7136,"contract":"contracts/XAIAgentDRC20Upgradeable.sol:XAIAgentDRC20Upgradeable","label":"creatorAddress","offset":0,"slot":"462","type":"t_address"},{"astId":7139,"contract":"contracts/XAIAgentDRC20Upgradeable.sol:XAIAgentDRC20Upgradeable","label":"investors","offset":0,"slot":"463","type":"t_array(t_address)dyn_storage"},{"astId":7209,"contract":"contracts/XAIAgentDRC20Upgradeable.sol:XAIAgentDRC20Upgradeable","label":"investments","offset":0,"slot":"464","type":"t_mapping(t_address,t_uint256)"},{"astId":7215,"contract":"contracts/XAIAgentDRC20Upgradeable.sol:XAIAgentDRC20Upgradeable","label":"walletLockTimestamp","offset":0,"slot":"465","type":"t_mapping(t_address,t_array(t_struct(LockInfo)7146_storage)dyn_storage)"},{"astId":7218,"contract":"contracts/XAIAgentDRC20Upgradeable.sol:XAIAgentDRC20Upgradeable","label":"xaaPool","offset":0,"slot":"466","type":"t_struct(Pool)7155_storage"},{"astId":7221,"contract":"contracts/XAIAgentDRC20Upgradeable.sol:XAIAgentDRC20Upgradeable","label":"dbcPool","offset":0,"slot":"470","type":"t_struct(Pool)7155_storage"}],"types":{"t_address":{"encoding":"inplace","label":"address","numberOfBytes":"20"},"t_array(t_address)dyn_storage":{"base":"t_address","encoding":"dynamic_array","label":"address[]","numberOfBytes":"32"},"t_array(t_struct(LockInfo)7146_storage)dyn_storage":{"base":"t_struct(LockInfo)7146_storage","encoding":"dynamic_array","label":"struct XAIAgentDRC20Upgradeable.LockInfo[]","numberOfBytes":"32"},"t_array(t_uint256)45_storage":{"base":"t_uint256","encoding":"inplace","label":"uint256[45]","numberOfBytes":"1440"},"t_array(t_uint256)48_storage":{"base":"t_uint256","encoding":"inplace","label":"uint256[48]","numberOfBytes":"1536"},"t_array(t_uint256)49_storage":{"base":"t_uint256","encoding":"inplace","label":"uint256[49]","numberOfBytes":"1568"},"t_array(t_uint256)50_storage":{"base":"t_uint256","encoding":"inplace","label":"uint256[50]","numberOfBytes":"1600"},"t_bool":{"encoding":"inplace","label":"bool","numberOfBytes":"1"},"t_bytes32":{"encoding":"inplace","label":"bytes32","numberOfBytes":"32"},"t_contract(IERC20)5497":{"encoding":"inplace","label":"contract IERC20","numberOfBytes":"20"},"t_mapping(t_address,t_array(t_struct(LockInfo)7146_storage)dyn_storage)":{"encoding":"mapping","key":"t_address","label":"mapping(address => struct XAIAgentDRC20Upgradeable.LockInfo[])","numberOfBytes":"32","value":"t_array(t_struct(LockInfo)7146_storage)dyn_storage"},"t_mapping(t_address,t_mapping(t_address,t_uint256))":{"encoding":"mapping","key":"t_address","label":"mapping(address => mapping(address => uint256))","numberOfBytes":"32","value":"t_mapping(t_address,t_uint256)"},"t_mapping(t_address,t_struct(Counter)2313_storage)":{"encoding":"mapping","key":"t_address","label":"mapping(address => struct CountersUpgradeable.Counter)","numberOfBytes":"32","value":"t_struct(Counter)2313_storage"},"t_mapping(t_address,t_uint256)":{"encoding":"mapping","key":"t_address","label":"mapping(address => uint256)","numberOfBytes":"32","value":"t_uint256"},"t_string_storage":{"encoding":"bytes","label":"string","numberOfBytes":"32"},"t_struct(Counter)2313_storage":{"encoding":"inplace","label":"struct CountersUpgradeable.Counter","members":[{"astId":2312,"contract":"contracts/XAIAgentDRC20Upgradeable.sol:XAIAgentDRC20Upgradeable","label":"_value","offset":0,"slot":"0","type":"t_uint256"}],"numberOfBytes":"32"},"t_struct(LockInfo)7146_storage":{"encoding":"inplace","label":"struct XAIAgentDRC20Upgradeable.LockInfo","members":[{"astId":7141,"contract":"contracts/XAIAgentDRC20Upgradeable.sol:XAIAgentDRC20Upgradeable","label":"lockedAt","offset":0,"slot":"0","type":"t_uint256"},{"astId":7143,"contract":"contracts/XAIAgentDRC20Upgradeable.sol:XAIAgentDRC20Upgradeable","label":"lockedAmount","offset":0,"slot":"1","type":"t_uint256"},{"astId":7145,"contract":"contracts/XAIAgentDRC20Upgradeable.sol:XAIAgentDRC20Upgradeable","label":"unlockAt","offset":0,"slot":"2","type":"t_uint256"}],"numberOfBytes":"96"},"t_struct(Pool)7155_storage":{"encoding":"inplace","label":"struct XAIAgentDRC20Upgradeable.Pool","members":[{"astId":7148,"contract":"contracts/XAIAgentDRC20Upgradeable.sol:XAIAgentDRC20Upgradeable","label":"tokenAddress","offset":0,"slot":"0","type":"t_address"},{"astId":7150,"contract":"contracts/XAIAgentDRC20Upgradeable.sol:XAIAgentDRC20Upgradeable","label":"tokenAmount","offset":0,"slot":"1","type":"t_uint256"},{"astId":7152,"contract":"contracts/XAIAgentDRC20Upgradeable.sol:XAIAgentDRC20Upgradeable","label":"dbcAmount","offset":0,"slot":"2","type":"t_uint256"},{"astId":7154,"contract":"contracts/XAIAgentDRC20Upgradeable.sol:XAIAgentDRC20Upgradeable","label":"isLocked","offset":0,"slot":"3","type":"t_bool"}],"numberOfBytes":"128"},"t_uint256":{"encoding":"inplace","label":"uint256","numberOfBytes":"32"},"t_uint8":{"encoding":"inplace","label":"uint8","numberOfBytes":"1"}}}}}}