{"contracts/XAIAgentDRC20Upgradeable.sol":{"XAIAgentDRC20Upgradeable":{"abi":[{"inputs":[],"stateMutability":"nonpayable","type":"constructor"},{"anonymous":false,"inputs":[{"indexed":true,"internalType":"address","name":"addr","type":"address"}],"name":"AddLockTransferAdmin","type":"event"},{"anonymous":false,"inputs":[{"indexed":false,"internalType":"address","name":"previousAdmin","type":"address"},{"indexed":false,"internalType":"address","name":"newAdmin","type":"address"}],"name":"AdminChanged","type":"event"},{"anonymous":false,"inputs":[{"indexed":true,"internalType":"address","name":"owner","type":"address"},{"indexed":true,"internalType":"address","name":"spender","type":"address"},{"indexed":false,"internalType":"uint256","name":"value","type":"uint256"}],"name":"Approval","type":"event"},{"anonymous":false,"inputs":[{"indexed":true,"internalType":"address","name":"upgradeAddress","type":"address"}],"name":"AuthorizedUpgradeSelf","type":"event"},{"anonymous":false,"inputs":[{"indexed":true,"internalType":"address","name":"beacon","type":"address"}],"name":"BeaconUpgraded","type":"event"},{"anonymous":false,"inputs":[{"indexed":false,"internalType":"uint256","name":"timestamp","type":"uint256"}],"name":"DisableContractUpgrade","type":"event"},{"anonymous":false,"inputs":[],"name":"EIP712DomainChanged","type":"event"},{"anonymous":false,"inputs":[{"indexed":false,"internalType":"uint8","name":"version","type":"uint8"}],"name":"Initialized","type":"event"},{"anonymous":false,"inputs":[{"indexed":false,"internalType":"uint256","name":"timestamp","type":"uint256"},{"indexed":false,"internalType":"uint256","name":"blockNumber","type":"uint256"}],"name":"LockDisabled","type":"event"},{"anonymous":false,"inputs":[{"indexed":false,"internalType":"uint256","name":"timestamp","type":"uint256"},{"indexed":false,"internalType":"uint256","name":"blockNumber","type":"uint256"}],"name":"LockEnabled","type":"event"},{"anonymous":false,"inputs":[{"indexed":true,"internalType":"address","name":"previousOwner","type":"address"},{"indexed":true,"internalType":"address","name":"newOwner","type":"address"}],"name":"OwnershipTransferred","type":"event"},{"anonymous":false,"inputs":[{"indexed":true,"internalType":"address","name":"addr","type":"address"}],"name":"RemoveLockTransferAdmin","type":"event"},{"anonymous":false,"inputs":[{"indexed":true,"internalType":"address","name":"from","type":"address"},{"indexed":true,"internalType":"address","name":"to","type":"address"},{"indexed":false,"internalType":"uint256","name":"value","type":"uint256"}],"name":"Transfer","type":"event"},{"anonymous":false,"inputs":[{"indexed":true,"internalType":"address","name":"from","type":"address"},{"indexed":true,"internalType":"address","name":"to","type":"address"},{"indexed":false,"internalType":"uint256","name":"value","type":"uint256"},{"indexed":false,"internalType":"uint256","name":"blockNumber","type":"uint256"}],"name":"TransferAndLock","type":"event"},{"anonymous":false,"inputs":[{"indexed":true,"internalType":"address","name":"implementation","type":"address"}],"name":"Upgraded","type":"event"},{"inputs":[],"name":"DOMAIN_SEPARATOR","outputs":[{"internalType":"bytes32","name":"","type":"bytes32"}],"stateMutability":"view","type":"function"},{"inputs":[{"internalType":"address","name":"addr","type":"address"}],"name":"addLockTransferAdmin","outputs":[],"stateMutability":"nonpayable","type":"function"},{"inputs":[{"internalType":"address","name":"owner","type":"address"},{"internalType":"address","name":"spender","type":"address"}],"name":"allowance","outputs":[{"internalType":"uint256","name":"","type":"uint256"}],"stateMutability":"view","type":"function"},{"inputs":[{"internalType":"address","name":"spender","type":"address"},{"internalType":"uint256","name":"amount","type":"uint256"}],"name":"approve","outputs":[{"internalType":"bool","name":"","type":"bool"}],"stateMutability":"nonpayable","type":"function"},{"inputs":[{"internalType":"address","name":"account","type":"address"}],"name":"balanceOf","outputs":[{"internalType":"uint256","name":"","type":"uint256"}],"stateMutability":"view","type":"function"},{"inputs":[{"internalType":"uint256","name":"amount","type":"uint256"}],"name":"burn","outputs":[],"stateMutability":"nonpayable","type":"function"},{"inputs":[{"internalType":"address","name":"account","type":"address"},{"internalType":"uint256","name":"amount","type":"uint256"}],"name":"burnFrom","outputs":[],"stateMutability":"nonpayable","type":"function"},{"inputs":[{"internalType":"address","name":"from","type":"address"},{"internalType":"uint256","name":"transferAmount","type":"uint256"}],"name":"canTransferAmount","outputs":[{"internalType":"bool","name":"","type":"bool"}],"stateMutability":"view","type":"function"},{"inputs":[],"name":"canUpgradeAddress","outputs":[{"internalType":"address","name":"","type":"address"}],"stateMutability":"view","type":"function"},{"inputs":[],"name":"decimals","outputs":[{"internalType":"uint8","name":"","type":"uint8"}],"stateMutability":"view","type":"function"},{"inputs":[{"internalType":"address","name":"spender","type":"address"},{"internalType":"uint256","name":"subtractedValue","type":"uint256"}],"name":"decreaseAllowance","outputs":[{"internalType":"bool","name":"","type":"bool"}],"stateMutability":"nonpayable","type":"function"},{"inputs":[],"name":"disableContractUpgrade","outputs":[],"stateMutability":"nonpayable","type":"function"},{"inputs":[],"name":"disableUpgrade","outputs":[{"internalType":"bool","name":"","type":"bool"}],"stateMutability":"view","type":"function"},{"inputs":[],"name":"eip712Domain","outputs":[{"internalType":"bytes1","name":"fields","type":"bytes1"},{"internalType":"string","name":"name","type":"string"},{"internalType":"string","name":"version","type":"string"},{"internalType":"uint256","name":"chainId","type":"uint256"},{"internalType":"address","name":"verifyingContract","type":"address"},{"internalType":"bytes32","name":"salt","type":"bytes32"},{"internalType":"uint256[]","name":"extensions","type":"uint256[]"}],"stateMutability":"view","type":"function"},{"inputs":[{"internalType":"address","name":"caller","type":"address"}],"name":"getAvailableBalance","outputs":[{"internalType":"uint256","name":"total","type":"uint256"},{"internalType":"uint256","name":"available","type":"uint256"}],"stateMutability":"view","type":"function"},{"inputs":[{"internalType":"address","name":"caller","type":"address"},{"internalType":"uint16","name":"index","type":"uint16"}],"name":"getLockAmountAndUnlockAt","outputs":[{"internalType":"uint256","name":"amount","type":"uint256"},{"internalType":"uint256","name":"unlockTime","type":"uint256"}],"stateMutability":"view","type":"function"},{"inputs":[{"internalType":"address","name":"spender","type":"address"},{"internalType":"uint256","name":"addedValue","type":"uint256"}],"name":"increaseAllowance","outputs":[{"internalType":"bool","name":"","type":"bool"}],"stateMutability":"nonpayable","type":"function"},{"inputs":[],"name":"initialize","outputs":[],"stateMutability":"nonpayable","type":"function"},{"inputs":[],"name":"isLockActive","outputs":[{"internalType":"bool","name":"","type":"bool"}],"stateMutability":"view","type":"function"},{"inputs":[],"name":"lockTokensDisable","outputs":[],"stateMutability":"nonpayable","type":"function"},{"inputs":[],"name":"lockTokensEnable","outputs":[],"stateMutability":"nonpayable","type":"function"},{"inputs":[{"internalType":"address","name":"","type":"address"}],"name":"lockTransferAdmins","outputs":[{"internalType":"bool","name":"","type":"bool"}],"stateMutability":"view","type":"function"},{"inputs":[],"name":"name","outputs":[{"internalType":"string","name":"","type":"string"}],"stateMutability":"view","type":"function"},{"inputs":[{"internalType":"address","name":"owner","type":"address"}],"name":"nonces","outputs":[{"internalType":"uint256","name":"","type":"uint256"}],"stateMutability":"view","type":"function"},{"inputs":[],"name":"owner","outputs":[{"internalType":"address","name":"","type":"address"}],"stateMutability":"view","type":"function"},{"inputs":[{"internalType":"address","name":"owner","type":"address"},{"internalType":"address","name":"spender","type":"address"},{"internalType":"uint256","name":"value","type":"uint256"},{"internalType":"uint256","name":"deadline","type":"uint256"},{"internalType":"uint8","name":"v","type":"uint8"},{"internalType":"bytes32","name":"r","type":"bytes32"},{"internalType":"bytes32","name":"s","type":"bytes32"}],"name":"permit","outputs":[],"stateMutability":"nonpayable","type":"function"},{"inputs":[],"name":"proxiableUUID","outputs":[{"internalType":"bytes32","name":"","type":"bytes32"}],"stateMutability":"view","type":"function"},{"inputs":[{"internalType":"address","name":"addr","type":"address"}],"name":"removeLockTransferAdmin","outputs":[],"stateMutability":"nonpayable","type":"function"},{"inputs":[],"name":"renounceOwnership","outputs":[],"stateMutability":"nonpayable","type":"function"},{"inputs":[{"internalType":"address","name":"_canUpgradeAddress","type":"address"}],"name":"setUpgradePermission","outputs":[],"stateMutability":"nonpayable","type":"function"},{"inputs":[],"name":"symbol","outputs":[{"internalType":"string","name":"","type":"string"}],"stateMutability":"view","type":"function"},{"inputs":[],"name":"totalSupply","outputs":[{"internalType":"uint256","name":"","type":"uint256"}],"stateMutability":"view","type":"function"},{"inputs":[{"internalType":"address","name":"to","type":"address"},{"internalType":"uint256","name":"amount","type":"uint256"}],"name":"transfer","outputs":[{"internalType":"bool","name":"","type":"bool"}],"stateMutability":"nonpayable","type":"function"},{"inputs":[{"internalType":"address","name":"to","type":"address"},{"internalType":"uint256","name":"value","type":"uint256"},{"internalType":"uint256","name":"lockSeconds","type":"uint256"}],"name":"transferAndLock","outputs":[],"stateMutability":"nonpayable","type":"function"},{"inputs":[{"internalType":"address","name":"from","type":"address"},{"internalType":"address","name":"to","type":"address"},{"internalType":"uint256","name":"amount","type":"uint256"}],"name":"transferFrom","outputs":[{"internalType":"bool","name":"","type":"bool"}],"stateMutability":"nonpayable","type":"function"},{"inputs":[{"internalType":"address","name":"newOwner","type":"address"}],"name":"transferOwnership","outputs":[],"stateMutability":"nonpayable","type":"function"},{"inputs":[{"internalType":"address","name":"newImplementation","type":"address"}],"name":"upgradeTo","outputs":[],"stateMutability":"nonpayable","type":"function"},{"inputs":[{"internalType":"address","name":"newImplementation","type":"address"},{"internalType":"bytes","name":"data","type":"bytes"}],"name":"upgradeToAndCall","outputs":[],"stateMutability":"payable","type":"function"},{"inputs":[],"name":"version","outputs":[{"internalType":"uint256","name":"","type":"uint256"}],"stateMutability":"pure","type":"function"}],"evm":{"bytecode":{"linkReferences":{},"object":"60a0604052306080523480156200001557600080fd5b506200002062000026565b620000e7565b600054610100900460ff1615620000935760405162461bcd60e51b815260206004820152602760248201527f496e697469616c697a61626c653a20636f6e747261637420697320696e697469604482015266616c697a696e6760c81b606482015260840160405180910390fd5b60005460ff90811614620000e5576000805460ff191660ff9081179091556040519081527f7f26b83ff96e1f2b6a682f133852f6798a09c465da95921460cefb38474024989060200160405180910390a15b565b6080516133776200011f600039600081816109f301528181610a3301528181610ba901528181610be90152610c7c01526133776000f3fe6080604052600436106102305760003560e01c806375dfe2211161012e578063a9059cbb116100ab578063d86f0fae1161006f578063d86f0fae14610681578063dd62ed3e146106b2578063f2fde38b146106d2578063f5adb258146106f2578063fcc513ed1461070757600080fd5b8063a9059cbb146105df578063b6862f90146105ff578063cf93340d1461061f578063cfa6e9111461063f578063d505accf1461066157600080fd5b806384d5d944116100f257806384d5d9441461054b5780638ce815251461056b5780638da5cb5b1461058b57806395d89b41146105aa578063a457c2d7146105bf57600080fd5b806375dfe2211461049557806379cc6790146104ce5780637ecebe00146104ee5780638129fc1c1461050e57806384b0196e1461052357600080fd5b80633bfff140116101bc57806354fd4d501161018057806354fd4d50146103df57806367fc9138146103f35780636c24a76f1461041557806370a082311461044a578063715018a61461048057600080fd5b80633bfff1401461036257806342966c68146103775780634a59e7bf146103975780634f1ef286146103b757806352d1902d146103ca57600080fd5b806323b872dd1161020357806323b872dd146102d1578063313ce567146102f15780633644e5151461030d5780633659cfe614610322578063395093511461034257600080fd5b806306fdde031461023557806308c4975514610260578063095ea7b31461028257806318160ddd146102b2575b600080fd5b34801561024157600080fd5b5061024a61071c565b6040516102579190612bb2565b60405180910390f35b34801561026c57600080fd5b5061028061027b366004612be1565b6107ae565b005b34801561028e57600080fd5b506102a261029d366004612bfc565b6108c6565b6040519015158152602001610257565b3480156102be57600080fd5b506035545b604051908152602001610257565b3480156102dd57600080fd5b506102a26102ec366004612c26565b6108e0565b3480156102fd57600080fd5b5060405160128152602001610257565b34801561031957600080fd5b506102c36109da565b34801561032e57600080fd5b5061028061033d366004612be1565b6109e9565b34801561034e57600080fd5b506102a261035d366004612bfc565b610ac8565b34801561036e57600080fd5b50610280610aea565b34801561038357600080fd5b50610280610392366004612c62565b610b42565b3480156103a357600080fd5b506102806103b2366004612be1565b610b4c565b6102806103c5366004612c91565b610b9f565b3480156103d657600080fd5b506102c3610c6f565b3480156103eb57600080fd5b5060016102c3565b3480156103ff57600080fd5b506101c7546102a290600160a01b900460ff1681565b34801561042157600080fd5b50610435610430366004612be1565b610d22565b60408051928352602083019190915201610257565b34801561045657600080fd5b506102c3610465366004612be1565b6001600160a01b031660009081526033602052604090205490565b34801561048c57600080fd5b50610280610d65565b3480156104a157600080fd5b506101c7546104b6906001600160a01b031681565b6040516001600160a01b039091168152602001610257565b3480156104da57600080fd5b506102806104e9366004612bfc565b610d79565b3480156104fa57600080fd5b506102c3610509366004612be1565b610d8e565b34801561051a57600080fd5b50610280610dac565b34801561052f57600080fd5b50610538610f7a565b6040516102579796959493929190612d53565b34801561055757600080fd5b50610280610566366004612dec565b611018565b34801561057757600080fd5b50610280610586366004612be1565b6111e1565b34801561059757600080fd5b50610130546001600160a01b03166104b6565b3480156105b657600080fd5b5061024a6112fc565b3480156105cb57600080fd5b506102a26105da366004612bfc565b61130b565b3480156105eb57600080fd5b506102a26105fa366004612bfc565b611391565b34801561060b57600080fd5b506102a261061a366004612bfc565b611473565b34801561062b57600080fd5b5061043561063a366004612e1f565b6114d4565b34801561064b57600080fd5b506101c7546102a290600160a81b900460ff1681565b34801561066d57600080fd5b5061028061067c366004612e5d565b6115a8565b34801561068d57600080fd5b506102a261069c366004612be1565b6101c66020526000908152604090205460ff1681565b3480156106be57600080fd5b506102c36106cd366004612ed0565b61170c565b3480156106de57600080fd5b506102806106ed366004612be1565b611737565b3480156106fe57600080fd5b506102806117ad565b34801561071357600080fd5b506102806117f8565b60606036805461072b90612f03565b80601f016020809104026020016040519081016040528092919081815260200182805461075790612f03565b80156107a45780601f10610779576101008083540402835291602001916107a4565b820191906000526020600020905b81548152906001019060200180831161078757829003601f168201915b5050505050905090565b6107b6611849565b6001600160a01b0381166108035760405162461bcd60e51b815260206004820152600f60248201526e496e76616c6964206164647265737360881b60448201526064015b60405180910390fd5b6001600160a01b03811660009081526101c6602052604090205460ff1661087c5760405162461bcd60e51b815260206004820152602760248201527f41646472657373206e6f7420696e206c6f636b207472616e736665722061646d6044820152661a5b881b1a5cdd60ca1b60648201526084016107fa565b6001600160a01b03811660008181526101c66020526040808220805460ff19169055517ffac8d29dc40b9702c55f0d7cb1cc689dae4df18e751a7aab656b137cb537ddb09190a250565b6000336108d48185856118a4565b60019150505b92915050565b60006001600160a01b03831615806108f6575081155b1561090d576109068484846119c8565b90506109d3565b6101c754600160a81b900460ff16801561093f57506001600160a01b03841660009081526101c8602052604090205415155b156109a15760006109508584611473565b90508061099f5760405162461bcd60e51b815260206004820152601d60248201527f496e73756666696369656e7420756e6c6f636b65642062616c616e636500000060448201526064016107fa565b505b60006109ae8585856119c8565b9050806109cd5760405162461bcd60e51b81526004016107fa90612f37565b60019150505b9392505050565b60006109e46119e1565b905090565b6001600160a01b037f0000000000000000000000000000000000000000000000000000000000000000163003610a315760405162461bcd60e51b81526004016107fa90612f60565b7f00000000000000000000000000000000000000000000000000000000000000006001600160a01b0316610a7a6000805160206132fb833981519152546001600160a01b031690565b6001600160a01b031614610aa05760405162461bcd60e51b81526004016107fa90612fac565b610aa9816119eb565b60408051600080825260208201909252610ac591839190611b6f565b50565b6000336108d4818585610adb838361170c565b610ae5919061300e565b6118a4565b610af2611849565b6101c7805460ff60a01b1916600160a01b1790556040517f2b12836a7bcd9e01b54ee262c1c3079c9d8cd8dba247dc7b7e7965f652ca141690610b389042815260200190565b60405180910390a1565b610ac53382611cdf565b610b54611849565b6101c780546001600160a01b0319166001600160a01b0383169081179091556040517f7def7bec2a73f6c42dfba89d246c5f973ffb3b544d40057665f8584d6c773b5890600090a250565b6001600160a01b037f0000000000000000000000000000000000000000000000000000000000000000163003610be75760405162461bcd60e51b81526004016107fa90612f60565b7f00000000000000000000000000000000000000000000000000000000000000006001600160a01b0316610c306000805160206132fb833981519152546001600160a01b031690565b6001600160a01b031614610c565760405162461bcd60e51b81526004016107fa90612fac565b610c5f826119eb565b610c6b82826001611b6f565b5050565b6000306001600160a01b037f00000000000000000000000000000000000000000000000000000000000000001614610d0f5760405162461bcd60e51b815260206004820152603860248201527f555550535570677261646561626c653a206d757374206e6f742062652063616c60448201527f6c6564207468726f7567682064656c656761746563616c6c000000000000000060648201526084016107fa565b506000805160206132fb83398151915290565b6000806000610d3084611e13565b9050610d51846001600160a01b031660009081526033602052604090205490565b9250610d5d8382611eac565b915050915091565b610d6d611849565b610d776000611eb8565b565b610d84823383611f0b565b610c6b8282611cdf565b6001600160a01b038116600090815260cb60205260408120546108da565b600054610100900460ff1615808015610dcc5750600054600160ff909116105b80610de65750303b158015610de6575060005460ff166001145b610e495760405162461bcd60e51b815260206004820152602e60248201527f496e697469616c697a61626c653a20636f6e747261637420697320616c72656160448201526d191e481a5b9a5d1a585b1a5e995960921b60648201526084016107fa565b6000805460ff191660011790558015610e6c576000805461ff0019166101001790555b610eb1604051806040016040528060088152602001671610525059d95b9d60c21b8152506040518060400160405280600381526020016258414160e81b815250611f7f565b610eb9611fb0565b610ee2604051806040016040528060088152602001671610525059d95b9d60c21b815250611fd7565b610eea612021565b610ef2612050565b610efa611fb0565b610f1e33610f0a6012600a613105565b610f199064174876e800613114565b61207f565b6101c7805460ff60a81b1916600160a81b1790558015610ac5576000805461ff0019169055604051600181527f7f26b83ff96e1f2b6a682f133852f6798a09c465da95921460cefb38474024989060200160405180910390a150565b6000606080600080600060606097546000801b148015610f9a5750609854155b610fde5760405162461bcd60e51b81526020600482015260156024820152741152540dcc4c8e88155b9a5b9a5d1a585b1a5e9959605a1b60448201526064016107fa565b610fe6612140565b610fee61214f565b60408051600080825260208201909252600f60f81b9b939a50919850469750309650945092509050565b3360009081526101c6602052604090205460ff166110785760405162461bcd60e51b815260206004820152601760248201527f4e6f74206c6f636b207472616e736665722061646d696e00000000000000000060448201526064016107fa565b6001600160a01b0383166110c25760405162461bcd60e51b8152602060048201526011602482015270125b9d985b1a59081c9958da5c1a595b9d607a1b60448201526064016107fa565b600082116111035760405162461bcd60e51b815260206004820152600e60248201526d125b9d985b1a5908185b5bdd5b9d60921b60448201526064016107fa565b6000811161114b5760405162461bcd60e51b815260206004820152601560248201527424b73b30b634b2103637b1b590323ab930ba34b7b760591b60448201526064016107fa565b6101c754600160a81b900460ff166111a55760405162461bcd60e51b815260206004820152601e60248201527f4c6f636b2066756e6374696f6e616c6974792069732064697361626c6564000060448201526064016107fa565b60006111b1848461215e565b9050806111d05760405162461bcd60e51b81526004016107fa90612f37565b6111db84848461216c565b50505050565b6111e9611849565b6001600160a01b0381166112315760405162461bcd60e51b815260206004820152600f60248201526e496e76616c6964206164647265737360881b60448201526064016107fa565b6001600160a01b03811660009081526101c6602052604090205460ff16156112af5760405162461bcd60e51b815260206004820152602b60248201527f4164647265737320616c726561647920696e206c6f636b207472616e7366657260448201526a0818591b5a5b881b1a5cdd60aa1b60648201526084016107fa565b6001600160a01b03811660008181526101c66020526040808220805460ff19166001179055517fe74b3ba98973e3c76be8eebbd635febd40794bf314036712609ecedc14b52eb49190a250565b60606037805461072b90612f03565b60003381611319828661170c565b9050838110156113795760405162461bcd60e51b815260206004820152602560248201527f45524332303a2064656372656173656420616c6c6f77616e63652062656c6f77604482015264207a65726f60d81b60648201526084016107fa565b61138682868684036118a4565b506001949350505050565b60006001600160a01b03831615806113a7575081155b156113bd576113b6838361215e565b90506108da565b6101c754600160a81b900460ff1680156113e657503360009081526101c8602052604090205415155b156114485760006113f73384611473565b9050806114465760405162461bcd60e51b815260206004820152601d60248201527f496e73756666696369656e7420756e6c6f636b65642062616c616e636500000060448201526064016107fa565b505b6000611454848461215e565b9050806108d45760405162461bcd60e51b81526004016107fa90612f37565b6101c754600090600160a81b900460ff16611490575060016108da565b600061149b84611e13565b905060006114c8826114c2876001600160a01b031660009081526033602052604090205490565b90611eac565b90931115949350505050565b6001600160a01b03821660009081526101c86020526040812054819061ffff8416106115375760405162461bcd60e51b8152602060048201526012602482015271496e646578206f7574206f662072616e676560701b60448201526064016107fa565b6001600160a01b03841660009081526101c860205260408120805461ffff86169081106115665761156661312b565b60009182526020918290206040805160608101825260039093029091018054835260018101549383018490526002015491018190529093509150509250929050565b834211156115f85760405162461bcd60e51b815260206004820152601d60248201527f45524332305065726d69743a206578706972656420646561646c696e6500000060448201526064016107fa565b60007f6e71edae12b1b97f4d1f60370fef10105fa2faae0126114a169c64845d6126c98888886116278c6122fc565b6040805160208101969096526001600160a01b0394851690860152929091166060840152608083015260a082015260c0810186905260e001604051602081830303815290604052805190602001209050600061168282612324565b9050600061169282878787612351565b9050896001600160a01b0316816001600160a01b0316146116f55760405162461bcd60e51b815260206004820152601e60248201527f45524332305065726d69743a20696e76616c6964207369676e6174757265000060448201526064016107fa565b6117008a8a8a6118a4565b50505050505050505050565b6001600160a01b03918216600090815260346020908152604080832093909416825291909152205490565b61173f611849565b6001600160a01b0381166117a45760405162461bcd60e51b815260206004820152602660248201527f4f776e61626c653a206e6577206f776e657220697320746865207a65726f206160448201526564647265737360d01b60648201526084016107fa565b610ac581611eb8565b6117b5611849565b6101c7805460ff60a81b19169055604080514281524360208201527fb5e70c210d2e71a1c7a0374093a7500a98144cb3e42b1347119779fc7f6e1e779101610b38565b611800611849565b6101c7805460ff60a81b1916600160a81b179055604080514281524360208201527f36f626ff436289b843a75d20dd61a7675ca89ff5930b2ba1f10dad7315ce08529101610b38565b610130546001600160a01b03163314610d775760405162461bcd60e51b815260206004820181905260248201527f4f776e61626c653a2063616c6c6572206973206e6f7420746865206f776e657260448201526064016107fa565b6001600160a01b0383166119065760405162461bcd60e51b8152602060048201526024808201527f45524332303a20617070726f76652066726f6d20746865207a65726f206164646044820152637265737360e01b60648201526084016107fa565b6001600160a01b0382166119675760405162461bcd60e51b815260206004820152602260248201527f45524332303a20617070726f766520746f20746865207a65726f206164647265604482015261737360f01b60648201526084016107fa565b6001600160a01b0383811660008181526034602090815260408083209487168084529482529182902085905590518481527f8c5be1e5ebec7d5bd14f71427d1e84f3dd0314c0f7b2291e5b200ac8c7c3b925910160405180910390a3505050565b6000336119d6858285611f0b565b6109cd85858561237b565b60006109e4612526565b6101c754600160a01b900460ff1615611a465760405162461bcd60e51b815260206004820152601c60248201527f436f6e747261637420757067726164652069732064697361626c65640000000060448201526064016107fa565b6101c7546001600160a01b0316611a9f5760405162461bcd60e51b815260206004820152601960248201527f4e6f2075706772616465207065726d697373696f6e207365740000000000000060448201526064016107fa565b6101c7546001600160a01b03163314611b055760405162461bcd60e51b815260206004820152602260248201527f4f6e6c792063616e55706772616465416464726573732063616e207570677261604482015261646560f01b60648201526084016107fa565b6001600160a01b038116611b5b5760405162461bcd60e51b815260206004820152601e60248201527f496e76616c696420696d706c656d656e746174696f6e2061646472657373000060448201526064016107fa565b506101c780546001600160a01b0319169055565b7f4910fdfa16fed3260ed0e7147f7cc6da11a60208b5b9406d12a635614ffd91435460ff1615611ba757611ba28361259a565b505050565b826001600160a01b03166352d1902d6040518163ffffffff1660e01b8152600401602060405180830381865afa925050508015611c01575060408051601f3d908101601f19168201909252611bfe91810190613141565b60015b611c645760405162461bcd60e51b815260206004820152602e60248201527f45524331393637557067726164653a206e657720696d706c656d656e7461746960448201526d6f6e206973206e6f74205555505360901b60648201526084016107fa565b6000805160206132fb8339815191528114611cd35760405162461bcd60e51b815260206004820152602960248201527f45524331393637557067726164653a20756e737570706f727465642070726f786044820152681a58589b195555525160ba1b60648201526084016107fa565b50611ba2838383612636565b6001600160a01b038216611d3f5760405162461bcd60e51b815260206004820152602160248201527f45524332303a206275726e2066726f6d20746865207a65726f206164647265736044820152607360f81b60648201526084016107fa565b6001600160a01b03821660009081526033602052604090205481811015611db35760405162461bcd60e51b815260206004820152602260248201527f45524332303a206275726e20616d6f756e7420657863656564732062616c616e604482015261636560f01b60648201526084016107fa565b6001600160a01b03831660008181526033602090815260408083208686039055603580548790039055518581529192917fddf252ad1be2c89b69c2b068fc378daa952ba7f163c4a11628f55a4df523b3ef910160405180910390a3505050565b6001600160a01b03811660009081526101c86020526040812081805b8254811015611ea457828181548110611e4a57611e4a61312b565b906000526020600020906003020160020154421015611e9c57611e99838281548110611e7857611e7861312b565b9060005260206000209060030201600101548361265b90919063ffffffff16565b91505b600101611e2f565b509392505050565b60006109d3828461315a565b61013080546001600160a01b038381166001600160a01b0319831681179093556040519116919082907f8be0079c531659141344cd1fd0a4f28419497f9722a3daafe3b4186f6b6457e090600090a35050565b6000611f17848461170c565b905060001981146111db5781811015611f725760405162461bcd60e51b815260206004820152601d60248201527f45524332303a20696e73756666696369656e7420616c6c6f77616e636500000060448201526064016107fa565b6111db84848484036118a4565b600054610100900460ff16611fa65760405162461bcd60e51b81526004016107fa9061316d565b610c6b8282612667565b600054610100900460ff16610d775760405162461bcd60e51b81526004016107fa9061316d565b600054610100900460ff16611ffe5760405162461bcd60e51b81526004016107fa9061316d565b610ac581604051806040016040528060018152602001603160f81b8152506126a7565b600054610100900460ff166120485760405162461bcd60e51b81526004016107fa9061316d565b610d776126f6565b600054610100900460ff166120775760405162461bcd60e51b81526004016107fa9061316d565b610d77612724565b6001600160a01b0382166120d55760405162461bcd60e51b815260206004820152601f60248201527f45524332303a206d696e7420746f20746865207a65726f20616464726573730060448201526064016107fa565b80603560008282546120e7919061300e565b90915550506001600160a01b0382166000818152603360209081526040808320805486019055518481527fddf252ad1be2c89b69c2b068fc378daa952ba7f163c4a11628f55a4df523b3ef910160405180910390a35050565b60606099805461072b90612f03565b6060609a805461072b90612f03565b6000336108d481858561237b565b6001600160a01b0383166121bb5760405162461bcd60e51b8152602060048201526016602482015275496e76616c69642077616c6c6574206164647265737360501b60448201526064016107fa565b600082116121fc5760405162461bcd60e51b815260206004820152600e60248201526d125b9d985b1a5908185b5bdd5b9d60921b60448201526064016107fa565b600081116122445760405162461bcd60e51b815260206004820152601560248201527424b73b30b634b2103637b1b590323ab930ba34b7b760591b60448201526064016107fa565b426000612251838361300e565b6001600160a01b03861660008181526101c86020908152604080832081516060810183528881528084018b8152818401888152835460018181018655948852959096209151600390950290910193845551908301559151600290910155519192509033907f44d8e77a775c28caeb187f3d075393023f89802855771a543607e45e1094e09c906122ed9088904390918252602082015260400190565b60405180910390a35050505050565b6001600160a01b038116600090815260cb602052604090208054600181018255905b50919050565b60006108da6123316119e1565b8360405161190160f01b8152600281019290925260228201526042902090565b600080600061236287878787612754565b9150915061236f81612818565b5090505b949350505050565b6001600160a01b0383166123df5760405162461bcd60e51b815260206004820152602560248201527f45524332303a207472616e736665722066726f6d20746865207a65726f206164604482015264647265737360d81b60648201526084016107fa565b6001600160a01b0382166124415760405162461bcd60e51b815260206004820152602360248201527f45524332303a207472616e7366657220746f20746865207a65726f206164647260448201526265737360e81b60648201526084016107fa565b6001600160a01b038316600090815260336020526040902054818110156124b95760405162461bcd60e51b815260206004820152602660248201527f45524332303a207472616e7366657220616d6f756e7420657863656564732062604482015265616c616e636560d01b60648201526084016107fa565b6001600160a01b0380851660008181526033602052604080822086860390559286168082529083902080548601905591517fddf252ad1be2c89b69c2b068fc378daa952ba7f163c4a11628f55a4df523b3ef906125199086815260200190565b60405180910390a36111db565b60007f8b73c3c69bb8fe3d512ecc4cf759cc79239f7b179b0ffacaa9a75d522b39400f612551612962565b6125596129bb565b60408051602081019490945283019190915260608201524660808201523060a082015260c00160405160208183030381529060405280519060200120905090565b6001600160a01b0381163b6126075760405162461bcd60e51b815260206004820152602d60248201527f455243313936373a206e657720696d706c656d656e746174696f6e206973206e60448201526c1bdd08184818dbdb9d1c9858dd609a1b60648201526084016107fa565b6000805160206132fb83398151915280546001600160a01b0319166001600160a01b0392909216919091179055565b61263f836129ec565b60008251118061264c5750805b15611ba2576111db8383612a2c565b60006109d3828461300e565b600054610100900460ff1661268e5760405162461bcd60e51b81526004016107fa9061316d565b603661269a8382613208565b506037611ba28282613208565b600054610100900460ff166126ce5760405162461bcd60e51b81526004016107fa9061316d565b60996126da8382613208565b50609a6126e78282613208565b50506000609781905560985550565b600054610100900460ff1661271d5760405162461bcd60e51b81526004016107fa9061316d565b600160fe55565b600054610100900460ff1661274b5760405162461bcd60e51b81526004016107fa9061316d565b610d7733611eb8565b6000807f7fffffffffffffffffffffffffffffff5d576e7357a4501ddfe92f46681b20a083111561278b575060009050600361280f565b6040805160008082526020820180845289905260ff881692820192909252606081018690526080810185905260019060a0016020604051602081039080840390855afa1580156127df573d6000803e3d6000fd5b5050604051601f1901519150506001600160a01b0381166128085760006001925092505061280f565b9150600090505b94509492505050565b600081600481111561282c5761282c6132c8565b036128345750565b6001816004811115612848576128486132c8565b036128955760405162461bcd60e51b815260206004820152601860248201527f45434453413a20696e76616c6964207369676e6174757265000000000000000060448201526064016107fa565b60028160048111156128a9576128a96132c8565b036128f65760405162461bcd60e51b815260206004820152601f60248201527f45434453413a20696e76616c6964207369676e6174757265206c656e6774680060448201526064016107fa565b600381600481111561290a5761290a6132c8565b03610ac55760405162461bcd60e51b815260206004820152602260248201527f45434453413a20696e76616c6964207369676e6174757265202773272076616c604482015261756560f01b60648201526084016107fa565b60008061296d612140565b805190915015612984578051602090910120919050565b60975480156129935792915050565b7fc5d2460186f7233c927e7db2dcc703c0e500b653ca82273b7bfad8045d85a4709250505090565b6000806129c661214f565b8051909150156129dd578051602090910120919050565b60985480156129935792915050565b6129f58161259a565b6040516001600160a01b038216907fbc7cd75a20ee27fd9adebab32041f755214dbc6bffa90cc0225b39da2e5c2d3b90600090a250565b60606109d3838360405180606001604052806027815260200161331b602791396060600080856001600160a01b031685604051612a6991906132de565b600060405180830381855af49150503d8060008114612aa4576040519150601f19603f3d011682016040523d82523d6000602084013e612aa9565b606091505b5091509150612aba86838387612ac4565b9695505050505050565b60608315612b33578251600003612b2c576001600160a01b0385163b612b2c5760405162461bcd60e51b815260206004820152601d60248201527f416464726573733a2063616c6c20746f206e6f6e2d636f6e747261637400000060448201526064016107fa565b5081612373565b6123738383815115612b485781518083602001fd5b8060405162461bcd60e51b81526004016107fa9190612bb2565b60005b83811015612b7d578181015183820152602001612b65565b50506000910152565b60008151808452612b9e816020860160208601612b62565b601f01601f19169290920160200192915050565b6020815260006109d36020830184612b86565b80356001600160a01b0381168114612bdc57600080fd5b919050565b600060208284031215612bf357600080fd5b6109d382612bc5565b60008060408385031215612c0f57600080fd5b612c1883612bc5565b946020939093013593505050565b600080600060608486031215612c3b57600080fd5b612c4484612bc5565b9250612c5260208501612bc5565b9150604084013590509250925092565b600060208284031215612c7457600080fd5b5035919050565b634e487b7160e01b600052604160045260246000fd5b60008060408385031215612ca457600080fd5b612cad83612bc5565b9150602083013567ffffffffffffffff80821115612cca57600080fd5b818501915085601f830112612cde57600080fd5b813581811115612cf057612cf0612c7b565b604051601f8201601f19908116603f01168101908382118183101715612d1857612d18612c7b565b81604052828152886020848701011115612d3157600080fd5b8260208601602083013760006020848301015280955050505050509250929050565b60ff60f81b881681526000602060e06020840152612d7460e084018a612b86565b8381036040850152612d86818a612b86565b606085018990526001600160a01b038816608086015260a0850187905284810360c08601528551808252602080880193509091019060005b81811015612dda57835183529284019291840191600101612dbe565b50909c9b505050505050505050505050565b600080600060608486031215612e0157600080fd5b612e0a84612bc5565b95602085013595506040909401359392505050565b60008060408385031215612e3257600080fd5b612e3b83612bc5565b9150602083013561ffff81168114612e5257600080fd5b809150509250929050565b600080600080600080600060e0888a031215612e7857600080fd5b612e8188612bc5565b9650612e8f60208901612bc5565b95506040880135945060608801359350608088013560ff81168114612eb357600080fd5b9699959850939692959460a0840135945060c09093013592915050565b60008060408385031215612ee357600080fd5b612eec83612bc5565b9150612efa60208401612bc5565b90509250929050565b600181811c90821680612f1757607f821691505b60208210810361231e57634e487b7160e01b600052602260045260246000fd5b6020808252600f908201526e151c985b9cd9995c8819985a5b1959608a1b604082015260600190565b6020808252602c908201527f46756e6374696f6e206d7573742062652063616c6c6564207468726f7567682060408201526b19195b1959d85d1958d85b1b60a21b606082015260800190565b6020808252602c908201527f46756e6374696f6e206d7573742062652063616c6c6564207468726f7567682060408201526b6163746976652070726f787960a01b606082015260800190565b634e487b7160e01b600052601160045260246000fd5b808201808211156108da576108da612ff8565b600181815b8085111561305c57816000190482111561304257613042612ff8565b8085161561304f57918102915b93841c9390800290613026565b509250929050565b600082613073575060016108da565b81613080575060006108da565b816001811461309657600281146130a0576130bc565b60019150506108da565b60ff8411156130b1576130b1612ff8565b50506001821b6108da565b5060208310610133831016604e8410600b84101617156130df575081810a6108da565b6130e98383613021565b80600019048211156130fd576130fd612ff8565b029392505050565b60006109d360ff841683613064565b80820281158282048414176108da576108da612ff8565b634e487b7160e01b600052603260045260246000fd5b60006020828403121561315357600080fd5b5051919050565b818103818111156108da576108da612ff8565b6020808252602b908201527f496e697469616c697a61626c653a20636f6e7472616374206973206e6f74206960408201526a6e697469616c697a696e6760a81b606082015260800190565b601f821115611ba2576000816000526020600020601f850160051c810160208610156131e15750805b601f850160051c820191505b81811015613200578281556001016131ed565b505050505050565b815167ffffffffffffffff81111561322257613222612c7b565b613236816132308454612f03565b846131b8565b602080601f83116001811461326b57600084156132535750858301515b600019600386901b1c1916600185901b178555613200565b600085815260208120601f198616915b8281101561329a5788860151825594840194600190910190840161327b565b50858210156132b85787850151600019600388901b60f8161c191681555b5050505050600190811b01905550565b634e487b7160e01b600052602160045260246000fd5b600082516132f0818460208701612b62565b919091019291505056fe360894a13ba1a3210667c828492db98dca3e2076cc3735a920a3ca505d382bbc416464726573733a206c6f772d6c6576656c2064656c65676174652063616c6c206661696c6564a26469706673582212200cc8144f9e496b2200401656e12bf324caa1fda5d6e5c77247274476a097388764736f6c63430008160033","opcodes":"PUSH1 0xA0 PUSH1 0x40 MSTORE ADDRESS PUSH1 0x80 MSTORE CALLVALUE DUP1 ISZERO PUSH3 0x15 JUMPI PUSH1 0x0 DUP1 REVERT JUMPDEST POP PUSH3 0x20 PUSH3 0x26 JUMP JUMPDEST PUSH3 0xE7 JUMP JUMPDEST PUSH1 0x0 SLOAD PUSH2 0x100 SWAP1 DIV PUSH1 0xFF AND ISZERO PUSH3 0x93 JUMPI PUSH1 0x40 MLOAD PUSH3 0x461BCD PUSH1 0xE5 SHL DUP2 MSTORE PUSH1 0x20 PUSH1 0x4 DUP3 ADD MSTORE PUSH1 0x27 PUSH1 0x24 DUP3 ADD MSTORE PUSH32 0x496E697469616C697A61626C653A20636F6E747261637420697320696E697469 PUSH1 0x44 DUP3 ADD MSTORE PUSH7 0x616C697A696E67 PUSH1 0xC8 SHL PUSH1 0x64 DUP3 ADD MSTORE PUSH1 0x84 ADD PUSH1 0x40 MLOAD DUP1 SWAP2 SUB SWAP1 REVERT JUMPDEST PUSH1 0x0 SLOAD PUSH1 0xFF SWAP1 DUP2 AND EQ PUSH3 0xE5 JUMPI PUSH1 0x0 DUP1 SLOAD PUSH1 0xFF NOT AND PUSH1 0xFF SWAP1 DUP2 OR SWAP1 SWAP2 SSTORE PUSH1 0x40 MLOAD SWAP1 DUP2 MSTORE PUSH32 0x7F26B83FF96E1F2B6A682F133852F6798A09C465DA95921460CEFB3847402498 SWAP1 PUSH1 0x20 ADD PUSH1 0x40 MLOAD DUP1 SWAP2 SUB SWAP1 LOG1 JUMPDEST JUMP JUMPDEST PUSH1 0x80 MLOAD PUSH2 0x3377 PUSH3 0x11F PUSH1 0x0 CODECOPY PUSH1 0x0 DUP2 DUP2 PUSH2 0x9F3 ADD MSTORE DUP2 DUP2 PUSH2 0xA33 ADD MSTORE DUP2 DUP2 PUSH2 0xBA9 ADD MSTORE DUP2 DUP2 PUSH2 0xBE9 ADD MSTORE PUSH2 0xC7C ADD MSTORE PUSH2 0x3377 PUSH1 0x0 RETURN INVALID PUSH1 0x80 PUSH1 0x40 MSTORE PUSH1 0x4 CALLDATASIZE LT PUSH2 0x230 JUMPI PUSH1 0x0 CALLDATALOAD PUSH1 0xE0 SHR DUP1 PUSH4 0x75DFE221 GT PUSH2 0x12E JUMPI DUP1 PUSH4 0xA9059CBB GT PUSH2 0xAB JUMPI DUP1 PUSH4 0xD86F0FAE GT PUSH2 0x6F JUMPI DUP1 PUSH4 0xD86F0FAE EQ PUSH2 0x681 JUMPI DUP1 PUSH4 0xDD62ED3E EQ PUSH2 0x6B2 JUMPI DUP1 PUSH4 0xF2FDE38B EQ PUSH2 0x6D2 JUMPI DUP1 PUSH4 0xF5ADB258 EQ PUSH2 0x6F2 JUMPI DUP1 PUSH4 0xFCC513ED EQ PUSH2 0x707 JUMPI PUSH1 0x0 DUP1 REVERT JUMPDEST DUP1 PUSH4 0xA9059CBB EQ PUSH2 0x5DF JUMPI DUP1 PUSH4 0xB6862F90 EQ PUSH2 0x5FF JUMPI DUP1 PUSH4 0xCF93340D EQ PUSH2 0x61F JUMPI DUP1 PUSH4 0xCFA6E911 EQ PUSH2 0x63F JUMPI DUP1 PUSH4 0xD505ACCF EQ PUSH2 0x661 JUMPI PUSH1 0x0 DUP1 REVERT JUMPDEST DUP1 PUSH4 0x84D5D944 GT PUSH2 0xF2 JUMPI DUP1 PUSH4 0x84D5D944 EQ PUSH2 0x54B JUMPI DUP1 PUSH4 0x8CE81525 EQ PUSH2 0x56B JUMPI DUP1 PUSH4 0x8DA5CB5B EQ PUSH2 0x58B JUMPI DUP1 PUSH4 0x95D89B41 EQ PUSH2 0x5AA JUMPI DUP1 PUSH4 0xA457C2D7 EQ PUSH2 0x5BF JUMPI PUSH1 0x0 DUP1 REVERT JUMPDEST DUP1 PUSH4 0x75DFE221 EQ PUSH2 0x495 JUMPI DUP1 PUSH4 0x79CC6790 EQ PUSH2 0x4CE JUMPI DUP1 PUSH4 0x7ECEBE00 EQ PUSH2 0x4EE JUMPI DUP1 PUSH4 0x8129FC1C EQ PUSH2 0x50E JUMPI DUP1 PUSH4 0x84B0196E EQ PUSH2 0x523 JUMPI PUSH1 0x0 DUP1 REVERT JUMPDEST DUP1 PUSH4 0x3BFFF140 GT PUSH2 0x1BC JUMPI DUP1 PUSH4 0x54FD4D50 GT PUSH2 0x180 JUMPI DUP1 PUSH4 0x54FD4D50 EQ PUSH2 0x3DF JUMPI DUP1 PUSH4 0x67FC9138 EQ PUSH2 0x3F3 JUMPI DUP1 PUSH4 0x6C24A76F EQ PUSH2 0x415 JUMPI DUP1 PUSH4 0x70A08231 EQ PUSH2 0x44A JUMPI DUP1 PUSH4 0x715018A6 EQ PUSH2 0x480 JUMPI PUSH1 0x0 DUP1 REVERT JUMPDEST DUP1 PUSH4 0x3BFFF140 EQ PUSH2 0x362 JUMPI DUP1 PUSH4 0x42966C68 EQ PUSH2 0x377 JUMPI DUP1 PUSH4 0x4A59E7BF EQ PUSH2 0x397 JUMPI DUP1 PUSH4 0x4F1EF286 EQ PUSH2 0x3B7 JUMPI DUP1 PUSH4 0x52D1902D EQ PUSH2 0x3CA JUMPI PUSH1 0x0 DUP1 REVERT JUMPDEST DUP1 PUSH4 0x23B872DD GT PUSH2 0x203 JUMPI DUP1 PUSH4 0x23B872DD EQ PUSH2 0x2D1 JUMPI DUP1 PUSH4 0x313CE567 EQ PUSH2 0x2F1 JUMPI DUP1 PUSH4 0x3644E515 EQ PUSH2 0x30D JUMPI DUP1 PUSH4 0x3659CFE6 EQ PUSH2 0x322 JUMPI DUP1 PUSH4 0x39509351 EQ PUSH2 0x342 JUMPI PUSH1 0x0 DUP1 REVERT JUMPDEST DUP1 PUSH4 0x6FDDE03 EQ PUSH2 0x235 JUMPI DUP1 PUSH4 0x8C49755 EQ PUSH2 0x260 JUMPI DUP1 PUSH4 0x95EA7B3 EQ PUSH2 0x282 JUMPI DUP1 PUSH4 0x18160DDD EQ PUSH2 0x2B2 JUMPI JUMPDEST PUSH1 0x0 DUP1 REVERT JUMPDEST CALLVALUE DUP1 ISZERO PUSH2 0x241 JUMPI PUSH1 0x0 DUP1 REVERT JUMPDEST POP PUSH2 0x24A PUSH2 0x71C JUMP JUMPDEST PUSH1 0x40 MLOAD PUSH2 0x257 SWAP2 SWAP1 PUSH2 0x2BB2 JUMP JUMPDEST PUSH1 0x40 MLOAD DUP1 SWAP2 SUB SWAP1 RETURN JUMPDEST CALLVALUE DUP1 ISZERO PUSH2 0x26C JUMPI PUSH1 0x0 DUP1 REVERT JUMPDEST POP PUSH2 0x280 PUSH2 0x27B CALLDATASIZE PUSH1 0x4 PUSH2 0x2BE1 JUMP JUMPDEST PUSH2 0x7AE JUMP JUMPDEST STOP JUMPDEST CALLVALUE DUP1 ISZERO PUSH2 0x28E JUMPI PUSH1 0x0 DUP1 REVERT JUMPDEST POP PUSH2 0x2A2 PUSH2 0x29D CALLDATASIZE PUSH1 0x4 PUSH2 0x2BFC JUMP JUMPDEST PUSH2 0x8C6 JUMP JUMPDEST PUSH1 0x40 MLOAD SWAP1 ISZERO ISZERO DUP2 MSTORE PUSH1 0x20 ADD PUSH2 0x257 JUMP JUMPDEST CALLVALUE DUP1 ISZERO PUSH2 0x2BE JUMPI PUSH1 0x0 DUP1 REVERT JUMPDEST POP PUSH1 0x35 SLOAD JUMPDEST PUSH1 0x40 MLOAD SWAP1 DUP2 MSTORE PUSH1 0x20 ADD PUSH2 0x257 JUMP JUMPDEST CALLVALUE DUP1 ISZERO PUSH2 0x2DD JUMPI PUSH1 0x0 DUP1 REVERT JUMPDEST POP PUSH2 0x2A2 PUSH2 0x2EC CALLDATASIZE PUSH1 0x4 PUSH2 0x2C26 JUMP JUMPDEST PUSH2 0x8E0 JUMP JUMPDEST CALLVALUE DUP1 ISZERO PUSH2 0x2FD JUMPI PUSH1 0x0 DUP1 REVERT JUMPDEST POP PUSH1 0x40 MLOAD PUSH1 0x12 DUP2 MSTORE PUSH1 0x20 ADD PUSH2 0x257 JUMP JUMPDEST CALLVALUE DUP1 ISZERO PUSH2 0x319 JUMPI PUSH1 0x0 DUP1 REVERT JUMPDEST POP PUSH2 0x2C3 PUSH2 0x9DA JUMP JUMPDEST CALLVALUE DUP1 ISZERO PUSH2 0x32E JUMPI PUSH1 0x0 DUP1 REVERT JUMPDEST POP PUSH2 0x280 PUSH2 0x33D CALLDATASIZE PUSH1 0x4 PUSH2 0x2BE1 JUMP JUMPDEST PUSH2 0x9E9 JUMP JUMPDEST CALLVALUE DUP1 ISZERO PUSH2 0x34E JUMPI PUSH1 0x0 DUP1 REVERT JUMPDEST POP PUSH2 0x2A2 PUSH2 0x35D CALLDATASIZE PUSH1 0x4 PUSH2 0x2BFC JUMP JUMPDEST PUSH2 0xAC8 JUMP JUMPDEST CALLVALUE DUP1 ISZERO PUSH2 0x36E JUMPI PUSH1 0x0 DUP1 REVERT JUMPDEST POP PUSH2 0x280 PUSH2 0xAEA JUMP JUMPDEST CALLVALUE DUP1 ISZERO PUSH2 0x383 JUMPI PUSH1 0x0 DUP1 REVERT JUMPDEST POP PUSH2 0x280 PUSH2 0x392 CALLDATASIZE PUSH1 0x4 PUSH2 0x2C62 JUMP JUMPDEST PUSH2 0xB42 JUMP JUMPDEST CALLVALUE DUP1 ISZERO PUSH2 0x3A3 JUMPI PUSH1 0x0 DUP1 REVERT JUMPDEST POP PUSH2 0x280 PUSH2 0x3B2 CALLDATASIZE PUSH1 0x4 PUSH2 0x2BE1 JUMP JUMPDEST PUSH2 0xB4C JUMP JUMPDEST PUSH2 0x280 PUSH2 0x3C5 CALLDATASIZE PUSH1 0x4 PUSH2 0x2C91 JUMP JUMPDEST PUSH2 0xB9F JUMP JUMPDEST CALLVALUE DUP1 ISZERO PUSH2 0x3D6 JUMPI PUSH1 0x0 DUP1 REVERT JUMPDEST POP PUSH2 0x2C3 PUSH2 0xC6F JUMP JUMPDEST CALLVALUE DUP1 ISZERO PUSH2 0x3EB JUMPI PUSH1 0x0 DUP1 REVERT JUMPDEST POP PUSH1 0x1 PUSH2 0x2C3 JUMP JUMPDEST CALLVALUE DUP1 ISZERO PUSH2 0x3FF JUMPI PUSH1 0x0 DUP1 REVERT JUMPDEST POP PUSH2 0x1C7 SLOAD PUSH2 0x2A2 SWAP1 PUSH1 0x1 PUSH1 0xA0 SHL SWAP1 DIV PUSH1 0xFF AND DUP2 JUMP JUMPDEST CALLVALUE DUP1 ISZERO PUSH2 0x421 JUMPI PUSH1 0x0 DUP1 REVERT JUMPDEST POP PUSH2 0x435 PUSH2 0x430 CALLDATASIZE PUSH1 0x4 PUSH2 0x2BE1 JUMP JUMPDEST PUSH2 0xD22 JUMP JUMPDEST PUSH1 0x40 DUP1 MLOAD SWAP3 DUP4 MSTORE PUSH1 0x20 DUP4 ADD SWAP2 SWAP1 SWAP2 MSTORE ADD PUSH2 0x257 JUMP JUMPDEST CALLVALUE DUP1 ISZERO PUSH2 0x456 JUMPI PUSH1 0x0 DUP1 REVERT JUMPDEST POP PUSH2 0x2C3 PUSH2 0x465 CALLDATASIZE PUSH1 0x4 PUSH2 0x2BE1 JUMP JUMPDEST PUSH1 0x1 PUSH1 0x1 PUSH1 0xA0 SHL SUB AND PUSH1 0x0 SWAP1 DUP2 MSTORE PUSH1 0x33 PUSH1 0x20 MSTORE PUSH1 0x40 SWAP1 KECCAK256 SLOAD SWAP1 JUMP JUMPDEST CALLVALUE DUP1 ISZERO PUSH2 0x48C JUMPI PUSH1 0x0 DUP1 REVERT JUMPDEST POP PUSH2 0x280 PUSH2 0xD65 JUMP JUMPDEST CALLVALUE DUP1 ISZERO PUSH2 0x4A1 JUMPI PUSH1 0x0 DUP1 REVERT JUMPDEST POP PUSH2 0x1C7 SLOAD PUSH2 0x4B6 SWAP1 PUSH1 0x1 PUSH1 0x1 PUSH1 0xA0 SHL SUB AND DUP2 JUMP JUMPDEST PUSH1 0x40 MLOAD PUSH1 0x1 PUSH1 0x1 PUSH1 0xA0 SHL SUB SWAP1 SWAP2 AND DUP2 MSTORE PUSH1 0x20 ADD PUSH2 0x257 JUMP JUMPDEST CALLVALUE DUP1 ISZERO PUSH2 0x4DA JUMPI PUSH1 0x0 DUP1 REVERT JUMPDEST POP PUSH2 0x280 PUSH2 0x4E9 CALLDATASIZE PUSH1 0x4 PUSH2 0x2BFC JUMP JUMPDEST PUSH2 0xD79 JUMP JUMPDEST CALLVALUE DUP1 ISZERO PUSH2 0x4FA JUMPI PUSH1 0x0 DUP1 REVERT JUMPDEST POP PUSH2 0x2C3 PUSH2 0x509 CALLDATASIZE PUSH1 0x4 PUSH2 0x2BE1 JUMP JUMPDEST PUSH2 0xD8E JUMP JUMPDEST CALLVALUE DUP1 ISZERO PUSH2 0x51A JUMPI PUSH1 0x0 DUP1 REVERT JUMPDEST POP PUSH2 0x280 PUSH2 0xDAC JUMP JUMPDEST CALLVALUE DUP1 ISZERO PUSH2 0x52F JUMPI PUSH1 0x0 DUP1 REVERT JUMPDEST POP PUSH2 0x538 PUSH2 0xF7A JUMP JUMPDEST PUSH1 0x40 MLOAD PUSH2 0x257 SWAP8 SWAP7 SWAP6 SWAP5 SWAP4 SWAP3 SWAP2 SWAP1 PUSH2 0x2D53 JUMP JUMPDEST CALLVALUE DUP1 ISZERO PUSH2 0x557 JUMPI PUSH1 0x0 DUP1 REVERT JUMPDEST POP PUSH2 0x280 PUSH2 0x566 CALLDATASIZE PUSH1 0x4 PUSH2 0x2DEC JUMP JUMPDEST PUSH2 0x1018 JUMP JUMPDEST CALLVALUE DUP1 ISZERO PUSH2 0x577 JUMPI PUSH1 0x0 DUP1 REVERT JUMPDEST POP PUSH2 0x280 PUSH2 0x586 CALLDATASIZE PUSH1 0x4 PUSH2 0x2BE1 JUMP JUMPDEST PUSH2 0x11E1 JUMP JUMPDEST CALLVALUE DUP1 ISZERO PUSH2 0x597 JUMPI PUSH1 0x0 DUP1 REVERT JUMPDEST POP PUSH2 0x130 SLOAD PUSH1 0x1 PUSH1 0x1 PUSH1 0xA0 SHL SUB AND PUSH2 0x4B6 JUMP JUMPDEST CALLVALUE DUP1 ISZERO PUSH2 0x5B6 JUMPI PUSH1 0x0 DUP1 REVERT JUMPDEST POP PUSH2 0x24A PUSH2 0x12FC JUMP JUMPDEST CALLVALUE DUP1 ISZERO PUSH2 0x5CB JUMPI PUSH1 0x0 DUP1 REVERT JUMPDEST POP PUSH2 0x2A2 PUSH2 0x5DA CALLDATASIZE PUSH1 0x4 PUSH2 0x2BFC JUMP JUMPDEST PUSH2 0x130B JUMP JUMPDEST CALLVALUE DUP1 ISZERO PUSH2 0x5EB JUMPI PUSH1 0x0 DUP1 REVERT JUMPDEST POP PUSH2 0x2A2 PUSH2 0x5FA CALLDATASIZE PUSH1 0x4 PUSH2 0x2BFC JUMP JUMPDEST PUSH2 0x1391 JUMP JUMPDEST CALLVALUE DUP1 ISZERO PUSH2 0x60B JUMPI PUSH1 0x0 DUP1 REVERT JUMPDEST POP PUSH2 0x2A2 PUSH2 0x61A CALLDATASIZE PUSH1 0x4 PUSH2 0x2BFC JUMP JUMPDEST PUSH2 0x1473 JUMP JUMPDEST CALLVALUE DUP1 ISZERO PUSH2 0x62B JUMPI PUSH1 0x0 DUP1 REVERT JUMPDEST POP PUSH2 0x435 PUSH2 0x63A CALLDATASIZE PUSH1 0x4 PUSH2 0x2E1F JUMP JUMPDEST PUSH2 0x14D4 JUMP JUMPDEST CALLVALUE DUP1 ISZERO PUSH2 0x64B JUMPI PUSH1 0x0 DUP1 REVERT JUMPDEST POP PUSH2 0x1C7 SLOAD PUSH2 0x2A2 SWAP1 PUSH1 0x1 PUSH1 0xA8 SHL SWAP1 DIV PUSH1 0xFF AND DUP2 JUMP JUMPDEST CALLVALUE DUP1 ISZERO PUSH2 0x66D JUMPI PUSH1 0x0 DUP1 REVERT JUMPDEST POP PUSH2 0x280 PUSH2 0x67C CALLDATASIZE PUSH1 0x4 PUSH2 0x2E5D JUMP JUMPDEST PUSH2 0x15A8 JUMP JUMPDEST CALLVALUE DUP1 ISZERO PUSH2 0x68D JUMPI PUSH1 0x0 DUP1 REVERT JUMPDEST POP PUSH2 0x2A2 PUSH2 0x69C CALLDATASIZE PUSH1 0x4 PUSH2 0x2BE1 JUMP JUMPDEST PUSH2 0x1C6 PUSH1 0x20 MSTORE PUSH1 0x0 SWAP1 DUP2 MSTORE PUSH1 0x40 SWAP1 KECCAK256 SLOAD PUSH1 0xFF AND DUP2 JUMP JUMPDEST CALLVALUE DUP1 ISZERO PUSH2 0x6BE JUMPI PUSH1 0x0 DUP1 REVERT JUMPDEST POP PUSH2 0x2C3 PUSH2 0x6CD CALLDATASIZE PUSH1 0x4 PUSH2 0x2ED0 JUMP JUMPDEST PUSH2 0x170C JUMP JUMPDEST CALLVALUE DUP1 ISZERO PUSH2 0x6DE JUMPI PUSH1 0x0 DUP1 REVERT JUMPDEST POP PUSH2 0x280 PUSH2 0x6ED CALLDATASIZE PUSH1 0x4 PUSH2 0x2BE1 JUMP JUMPDEST PUSH2 0x1737 JUMP JUMPDEST CALLVALUE DUP1 ISZERO PUSH2 0x6FE JUMPI PUSH1 0x0 DUP1 REVERT JUMPDEST POP PUSH2 0x280 PUSH2 0x17AD JUMP JUMPDEST CALLVALUE DUP1 ISZERO PUSH2 0x713 JUMPI PUSH1 0x0 DUP1 REVERT JUMPDEST POP PUSH2 0x280 PUSH2 0x17F8 JUMP JUMPDEST PUSH1 0x60 PUSH1 0x36 DUP1 SLOAD PUSH2 0x72B SWAP1 PUSH2 0x2F03 JUMP JUMPDEST DUP1 PUSH1 0x1F ADD PUSH1 0x20 DUP1 SWAP2 DIV MUL PUSH1 0x20 ADD PUSH1 0x40 MLOAD SWAP1 DUP2 ADD PUSH1 0x40 MSTORE DUP1 SWAP3 SWAP2 SWAP1 DUP2 DUP2 MSTORE PUSH1 0x20 ADD DUP3 DUP1 SLOAD PUSH2 0x757 SWAP1 PUSH2 0x2F03 JUMP JUMPDEST DUP1 ISZERO PUSH2 0x7A4 JUMPI DUP1 PUSH1 0x1F LT PUSH2 0x779 JUMPI PUSH2 0x100 DUP1 DUP4 SLOAD DIV MUL DUP4 MSTORE SWAP2 PUSH1 0x20 ADD SWAP2 PUSH2 0x7A4 JUMP JUMPDEST DUP3 ADD SWAP2 SWAP1 PUSH1 0x0 MSTORE PUSH1 0x20 PUSH1 0x0 KECCAK256 SWAP1 JUMPDEST DUP2 SLOAD DUP2 MSTORE SWAP1 PUSH1 0x1 ADD SWAP1 PUSH1 0x20 ADD DUP1 DUP4 GT PUSH2 0x787 JUMPI DUP3 SWAP1 SUB PUSH1 0x1F AND DUP3 ADD SWAP2 JUMPDEST POP POP POP POP POP SWAP1 POP SWAP1 JUMP JUMPDEST PUSH2 0x7B6 PUSH2 0x1849 JUMP JUMPDEST PUSH1 0x1 PUSH1 0x1 PUSH1 0xA0 SHL SUB DUP2 AND PUSH2 0x803 JUMPI PUSH1 0x40 MLOAD PUSH3 0x461BCD PUSH1 0xE5 SHL DUP2 MSTORE PUSH1 0x20 PUSH1 0x4 DUP3 ADD MSTORE PUSH1 0xF PUSH1 0x24 DUP3 ADD MSTORE PUSH15 0x496E76616C69642061646472657373 PUSH1 0x88 SHL PUSH1 0x44 DUP3 ADD MSTORE PUSH1 0x64 ADD JUMPDEST PUSH1 0x40 MLOAD DUP1 SWAP2 SUB SWAP1 REVERT JUMPDEST PUSH1 0x1 PUSH1 0x1 PUSH1 0xA0 SHL SUB DUP2 AND PUSH1 0x0 SWAP1 DUP2 MSTORE PUSH2 0x1C6 PUSH1 0x20 MSTORE PUSH1 0x40 SWAP1 KECCAK256 SLOAD PUSH1 0xFF AND PUSH2 0x87C JUMPI PUSH1 0x40 MLOAD PUSH3 0x461BCD PUSH1 0xE5 SHL DUP2 MSTORE PUSH1 0x20 PUSH1 0x4 DUP3 ADD MSTORE PUSH1 0x27 PUSH1 0x24 DUP3 ADD MSTORE PUSH32 0x41646472657373206E6F7420696E206C6F636B207472616E736665722061646D PUSH1 0x44 DUP3 ADD MSTORE PUSH7 0x1A5B881B1A5CDD PUSH1 0xCA SHL PUSH1 0x64 DUP3 ADD MSTORE PUSH1 0x84 ADD PUSH2 0x7FA JUMP JUMPDEST PUSH1 0x1 PUSH1 0x1 PUSH1 0xA0 SHL SUB DUP2 AND PUSH1 0x0 DUP2 DUP2 MSTORE PUSH2 0x1C6 PUSH1 0x20 MSTORE PUSH1 0x40 DUP1 DUP3 KECCAK256 DUP1 SLOAD PUSH1 0xFF NOT AND SWAP1 SSTORE MLOAD PUSH32 0xFAC8D29DC40B9702C55F0D7CB1CC689DAE4DF18E751A7AAB656B137CB537DDB0 SWAP2 SWAP1 LOG2 POP JUMP JUMPDEST PUSH1 0x0 CALLER PUSH2 0x8D4 DUP2 DUP6 DUP6 PUSH2 0x18A4 JUMP JUMPDEST PUSH1 0x1 SWAP2 POP POP JUMPDEST SWAP3 SWAP2 POP POP JUMP JUMPDEST PUSH1 0x0 PUSH1 0x1 PUSH1 0x1 PUSH1 0xA0 SHL SUB DUP4 AND ISZERO DUP1 PUSH2 0x8F6 JUMPI POP DUP2 ISZERO JUMPDEST ISZERO PUSH2 0x90D JUMPI PUSH2 0x906 DUP5 DUP5 DUP5 PUSH2 0x19C8 JUMP JUMPDEST SWAP1 POP PUSH2 0x9D3 JUMP JUMPDEST PUSH2 0x1C7 SLOAD PUSH1 0x1 PUSH1 0xA8 SHL SWAP1 DIV PUSH1 0xFF AND DUP1 ISZERO PUSH2 0x93F JUMPI POP PUSH1 0x1 PUSH1 0x1 PUSH1 0xA0 SHL SUB DUP5 AND PUSH1 0x0 SWAP1 DUP2 MSTORE PUSH2 0x1C8 PUSH1 0x20 MSTORE PUSH1 0x40 SWAP1 KECCAK256 SLOAD ISZERO ISZERO JUMPDEST ISZERO PUSH2 0x9A1 JUMPI PUSH1 0x0 PUSH2 0x950 DUP6 DUP5 PUSH2 0x1473 JUMP JUMPDEST SWAP1 POP DUP1 PUSH2 0x99F JUMPI PUSH1 0x40 MLOAD PUSH3 0x461BCD PUSH1 0xE5 SHL DUP2 MSTORE PUSH1 0x20 PUSH1 0x4 DUP3 ADD MSTORE PUSH1 0x1D PUSH1 0x24 DUP3 ADD MSTORE PUSH32 0x496E73756666696369656E7420756E6C6F636B65642062616C616E6365000000 PUSH1 0x44 DUP3 ADD MSTORE PUSH1 0x64 ADD PUSH2 0x7FA JUMP JUMPDEST POP JUMPDEST PUSH1 0x0 PUSH2 0x9AE DUP6 DUP6 DUP6 PUSH2 0x19C8 JUMP JUMPDEST SWAP1 POP DUP1 PUSH2 0x9CD JUMPI PUSH1 0x40 MLOAD PUSH3 0x461BCD PUSH1 0xE5 SHL DUP2 MSTORE PUSH1 0x4 ADD PUSH2 0x7FA SWAP1 PUSH2 0x2F37 JUMP JUMPDEST PUSH1 0x1 SWAP2 POP POP JUMPDEST SWAP4 SWAP3 POP POP POP JUMP JUMPDEST PUSH1 0x0 PUSH2 0x9E4 PUSH2 0x19E1 JUMP JUMPDEST SWAP1 POP SWAP1 JUMP JUMPDEST PUSH1 0x1 PUSH1 0x1 PUSH1 0xA0 SHL SUB PUSH32 0x0 AND ADDRESS SUB PUSH2 0xA31 JUMPI PUSH1 0x40 MLOAD PUSH3 0x461BCD PUSH1 0xE5 SHL DUP2 MSTORE PUSH1 0x4 ADD PUSH2 0x7FA SWAP1 PUSH2 0x2F60 JUMP JUMPDEST PUSH32 0x0 PUSH1 0x1 PUSH1 0x1 PUSH1 0xA0 SHL SUB AND PUSH2 0xA7A PUSH1 0x0 DUP1 MLOAD PUSH1 0x20 PUSH2 0x32FB DUP4 CODECOPY DUP2 MLOAD SWAP2 MSTORE SLOAD PUSH1 0x1 PUSH1 0x1 PUSH1 0xA0 SHL SUB AND SWAP1 JUMP JUMPDEST PUSH1 0x1 PUSH1 0x1 PUSH1 0xA0 SHL SUB AND EQ PUSH2 0xAA0 JUMPI PUSH1 0x40 MLOAD PUSH3 0x461BCD PUSH1 0xE5 SHL DUP2 MSTORE PUSH1 0x4 ADD PUSH2 0x7FA SWAP1 PUSH2 0x2FAC JUMP JUMPDEST PUSH2 0xAA9 DUP2 PUSH2 0x19EB JUMP JUMPDEST PUSH1 0x40 DUP1 MLOAD PUSH1 0x0 DUP1 DUP3 MSTORE PUSH1 0x20 DUP3 ADD SWAP1 SWAP3 MSTORE PUSH2 0xAC5 SWAP2 DUP4 SWAP2 SWAP1 PUSH2 0x1B6F JUMP JUMPDEST POP JUMP JUMPDEST PUSH1 0x0 CALLER PUSH2 0x8D4 DUP2 DUP6 DUP6 PUSH2 0xADB DUP4 DUP4 PUSH2 0x170C JUMP JUMPDEST PUSH2 0xAE5 SWAP2 SWAP1 PUSH2 0x300E JUMP JUMPDEST PUSH2 0x18A4 JUMP JUMPDEST PUSH2 0xAF2 PUSH2 0x1849 JUMP JUMPDEST PUSH2 0x1C7 DUP1 SLOAD PUSH1 0xFF PUSH1 0xA0 SHL NOT AND PUSH1 0x1 PUSH1 0xA0 SHL OR SWAP1 SSTORE PUSH1 0x40 MLOAD PUSH32 0x2B12836A7BCD9E01B54EE262C1C3079C9D8CD8DBA247DC7B7E7965F652CA1416 SWAP1 PUSH2 0xB38 SWAP1 TIMESTAMP DUP2 MSTORE PUSH1 0x20 ADD SWAP1 JUMP JUMPDEST PUSH1 0x40 MLOAD DUP1 SWAP2 SUB SWAP1 LOG1 JUMP JUMPDEST PUSH2 0xAC5 CALLER DUP3 PUSH2 0x1CDF JUMP JUMPDEST PUSH2 0xB54 PUSH2 0x1849 JUMP JUMPDEST PUSH2 0x1C7 DUP1 SLOAD PUSH1 0x1 PUSH1 0x1 PUSH1 0xA0 SHL SUB NOT AND PUSH1 0x1 PUSH1 0x1 PUSH1 0xA0 SHL SUB DUP4 AND SWAP1 DUP2 OR SWAP1 SWAP2 SSTORE PUSH1 0x40 MLOAD PUSH32 0x7DEF7BEC2A73F6C42DFBA89D246C5F973FFB3B544D40057665F8584D6C773B58 SWAP1 PUSH1 0x0 SWAP1 LOG2 POP JUMP JUMPDEST PUSH1 0x1 PUSH1 0x1 PUSH1 0xA0 SHL SUB PUSH32 0x0 AND ADDRESS SUB PUSH2 0xBE7 JUMPI PUSH1 0x40 MLOAD PUSH3 0x461BCD PUSH1 0xE5 SHL DUP2 MSTORE PUSH1 0x4 ADD PUSH2 0x7FA SWAP1 PUSH2 0x2F60 JUMP JUMPDEST PUSH32 0x0 PUSH1 0x1 PUSH1 0x1 PUSH1 0xA0 SHL SUB AND PUSH2 0xC30 PUSH1 0x0 DUP1 MLOAD PUSH1 0x20 PUSH2 0x32FB DUP4 CODECOPY DUP2 MLOAD SWAP2 MSTORE SLOAD PUSH1 0x1 PUSH1 0x1 PUSH1 0xA0 SHL SUB AND SWAP1 JUMP JUMPDEST PUSH1 0x1 PUSH1 0x1 PUSH1 0xA0 SHL SUB AND EQ PUSH2 0xC56 JUMPI PUSH1 0x40 MLOAD PUSH3 0x461BCD PUSH1 0xE5 SHL DUP2 MSTORE PUSH1 0x4 ADD PUSH2 0x7FA SWAP1 PUSH2 0x2FAC JUMP JUMPDEST PUSH2 0xC5F DUP3 PUSH2 0x19EB JUMP JUMPDEST PUSH2 0xC6B DUP3 DUP3 PUSH1 0x1 PUSH2 0x1B6F JUMP JUMPDEST POP POP JUMP JUMPDEST PUSH1 0x0 ADDRESS PUSH1 0x1 PUSH1 0x1 PUSH1 0xA0 SHL SUB PUSH32 0x0 AND EQ PUSH2 0xD0F JUMPI PUSH1 0x40 MLOAD PUSH3 0x461BCD PUSH1 0xE5 SHL DUP2 MSTORE PUSH1 0x20 PUSH1 0x4 DUP3 ADD MSTORE PUSH1 0x38 PUSH1 0x24 DUP3 ADD MSTORE PUSH32 0x555550535570677261646561626C653A206D757374206E6F742062652063616C PUSH1 0x44 DUP3 ADD MSTORE PUSH32 0x6C6564207468726F7567682064656C656761746563616C6C0000000000000000 PUSH1 0x64 DUP3 ADD MSTORE PUSH1 0x84 ADD PUSH2 0x7FA JUMP JUMPDEST POP PUSH1 0x0 DUP1 MLOAD PUSH1 0x20 PUSH2 0x32FB DUP4 CODECOPY DUP2 MLOAD SWAP2 MSTORE SWAP1 JUMP JUMPDEST PUSH1 0x0 DUP1 PUSH1 0x0 PUSH2 0xD30 DUP5 PUSH2 0x1E13 JUMP JUMPDEST SWAP1 POP PUSH2 0xD51 DUP5 PUSH1 0x1 PUSH1 0x1 PUSH1 0xA0 SHL SUB AND PUSH1 0x0 SWAP1 DUP2 MSTORE PUSH1 0x33 PUSH1 0x20 MSTORE PUSH1 0x40 SWAP1 KECCAK256 SLOAD SWAP1 JUMP JUMPDEST SWAP3 POP PUSH2 0xD5D DUP4 DUP3 PUSH2 0x1EAC JUMP JUMPDEST SWAP2 POP POP SWAP2 POP SWAP2 JUMP JUMPDEST PUSH2 0xD6D PUSH2 0x1849 JUMP JUMPDEST PUSH2 0xD77 PUSH1 0x0 PUSH2 0x1EB8 JUMP JUMPDEST JUMP JUMPDEST PUSH2 0xD84 DUP3 CALLER DUP4 PUSH2 0x1F0B JUMP JUMPDEST PUSH2 0xC6B DUP3 DUP3 PUSH2 0x1CDF JUMP JUMPDEST PUSH1 0x1 PUSH1 0x1 PUSH1 0xA0 SHL SUB DUP2 AND PUSH1 0x0 SWAP1 DUP2 MSTORE PUSH1 0xCB PUSH1 0x20 MSTORE PUSH1 0x40 DUP2 KECCAK256 SLOAD PUSH2 0x8DA JUMP JUMPDEST PUSH1 0x0 SLOAD PUSH2 0x100 SWAP1 DIV PUSH1 0xFF AND ISZERO DUP1 DUP1 ISZERO PUSH2 0xDCC JUMPI POP PUSH1 0x0 SLOAD PUSH1 0x1 PUSH1 0xFF SWAP1 SWAP2 AND LT JUMPDEST DUP1 PUSH2 0xDE6 JUMPI POP ADDRESS EXTCODESIZE ISZERO DUP1 ISZERO PUSH2 0xDE6 JUMPI POP PUSH1 0x0 SLOAD PUSH1 0xFF AND PUSH1 0x1 EQ JUMPDEST PUSH2 0xE49 JUMPI PUSH1 0x40 MLOAD PUSH3 0x461BCD PUSH1 0xE5 SHL DUP2 MSTORE PUSH1 0x20 PUSH1 0x4 DUP3 ADD MSTORE PUSH1 0x2E PUSH1 0x24 DUP3 ADD MSTORE PUSH32 0x496E697469616C697A61626C653A20636F6E747261637420697320616C726561 PUSH1 0x44 DUP3 ADD MSTORE PUSH14 0x191E481A5B9A5D1A585B1A5E9959 PUSH1 0x92 SHL PUSH1 0x64 DUP3 ADD MSTORE PUSH1 0x84 ADD PUSH2 0x7FA JUMP JUMPDEST PUSH1 0x0 DUP1 SLOAD PUSH1 0xFF NOT AND PUSH1 0x1 OR SWAP1 SSTORE DUP1 ISZERO PUSH2 0xE6C JUMPI PUSH1 0x0 DUP1 SLOAD PUSH2 0xFF00 NOT AND PUSH2 0x100 OR SWAP1 SSTORE JUMPDEST PUSH2 0xEB1 PUSH1 0x40 MLOAD DUP1 PUSH1 0x40 ADD PUSH1 0x40 MSTORE DUP1 PUSH1 0x8 DUP2 MSTORE PUSH1 0x20 ADD PUSH8 0x1610525059D95B9D PUSH1 0xC2 SHL DUP2 MSTORE POP PUSH1 0x40 MLOAD DUP1 PUSH1 0x40 ADD PUSH1 0x40 MSTORE DUP1 PUSH1 0x3 DUP2 MSTORE PUSH1 0x20 ADD PUSH3 0x584141 PUSH1 0xE8 SHL DUP2 MSTORE POP PUSH2 0x1F7F JUMP JUMPDEST PUSH2 0xEB9 PUSH2 0x1FB0 JUMP JUMPDEST PUSH2 0xEE2 PUSH1 0x40 MLOAD DUP1 PUSH1 0x40 ADD PUSH1 0x40 MSTORE DUP1 PUSH1 0x8 DUP2 MSTORE PUSH1 0x20 ADD PUSH8 0x1610525059D95B9D PUSH1 0xC2 SHL DUP2 MSTORE POP PUSH2 0x1FD7 JUMP JUMPDEST PUSH2 0xEEA PUSH2 0x2021 JUMP JUMPDEST PUSH2 0xEF2 PUSH2 0x2050 JUMP JUMPDEST PUSH2 0xEFA PUSH2 0x1FB0 JUMP JUMPDEST PUSH2 0xF1E CALLER PUSH2 0xF0A PUSH1 0x12 PUSH1 0xA PUSH2 0x3105 JUMP JUMPDEST PUSH2 0xF19 SWAP1 PUSH5 0x174876E800 PUSH2 0x3114 JUMP JUMPDEST PUSH2 0x207F JUMP JUMPDEST PUSH2 0x1C7 DUP1 SLOAD PUSH1 0xFF PUSH1 0xA8 SHL NOT AND PUSH1 0x1 PUSH1 0xA8 SHL OR SWAP1 SSTORE DUP1 ISZERO PUSH2 0xAC5 JUMPI PUSH1 0x0 DUP1 SLOAD PUSH2 0xFF00 NOT AND SWAP1 SSTORE PUSH1 0x40 MLOAD PUSH1 0x1 DUP2 MSTORE PUSH32 0x7F26B83FF96E1F2B6A682F133852F6798A09C465DA95921460CEFB3847402498 SWAP1 PUSH1 0x20 ADD PUSH1 0x40 MLOAD DUP1 SWAP2 SUB SWAP1 LOG1 POP JUMP JUMPDEST PUSH1 0x0 PUSH1 0x60 DUP1 PUSH1 0x0 DUP1 PUSH1 0x0 PUSH1 0x60 PUSH1 0x97 SLOAD PUSH1 0x0 DUP1 SHL EQ DUP1 ISZERO PUSH2 0xF9A JUMPI POP PUSH1 0x98 SLOAD ISZERO JUMPDEST PUSH2 0xFDE JUMPI PUSH1 0x40 MLOAD PUSH3 0x461BCD PUSH1 0xE5 SHL DUP2 MSTORE PUSH1 0x20 PUSH1 0x4 DUP3 ADD MSTORE PUSH1 0x15 PUSH1 0x24 DUP3 ADD MSTORE PUSH21 0x1152540DCC4C8E88155B9A5B9A5D1A585B1A5E9959 PUSH1 0x5A SHL PUSH1 0x44 DUP3 ADD MSTORE PUSH1 0x64 ADD PUSH2 0x7FA JUMP JUMPDEST PUSH2 0xFE6 PUSH2 0x2140 JUMP JUMPDEST PUSH2 0xFEE PUSH2 0x214F JUMP JUMPDEST PUSH1 0x40 DUP1 MLOAD PUSH1 0x0 DUP1 DUP3 MSTORE PUSH1 0x20 DUP3 ADD SWAP1 SWAP3 MSTORE PUSH1 0xF PUSH1 0xF8 SHL SWAP12 SWAP4 SWAP11 POP SWAP2 SWAP9 POP CHAINID SWAP8 POP ADDRESS SWAP7 POP SWAP5 POP SWAP3 POP SWAP1 POP JUMP JUMPDEST CALLER PUSH1 0x0 SWAP1 DUP2 MSTORE PUSH2 0x1C6 PUSH1 0x20 MSTORE PUSH1 0x40 SWAP1 KECCAK256 SLOAD PUSH1 0xFF AND PUSH2 0x1078 JUMPI PUSH1 0x40 MLOAD PUSH3 0x461BCD PUSH1 0xE5 SHL DUP2 MSTORE PUSH1 0x20 PUSH1 0x4 DUP3 ADD MSTORE PUSH1 0x17 PUSH1 0x24 DUP3 ADD MSTORE PUSH32 0x4E6F74206C6F636B207472616E736665722061646D696E000000000000000000 PUSH1 0x44 DUP3 ADD MSTORE PUSH1 0x64 ADD PUSH2 0x7FA JUMP JUMPDEST PUSH1 0x1 PUSH1 0x1 PUSH1 0xA0 SHL SUB DUP4 AND PUSH2 0x10C2 JUMPI PUSH1 0x40 MLOAD PUSH3 0x461BCD PUSH1 0xE5 SHL DUP2 MSTORE PUSH1 0x20 PUSH1 0x4 DUP3 ADD MSTORE PUSH1 0x11 PUSH1 0x24 DUP3 ADD MSTORE PUSH17 0x125B9D985B1A59081C9958DA5C1A595B9D PUSH1 0x7A SHL PUSH1 0x44 DUP3 ADD MSTORE PUSH1 0x64 ADD PUSH2 0x7FA JUMP JUMPDEST PUSH1 0x0 DUP3 GT PUSH2 0x1103 JUMPI PUSH1 0x40 MLOAD PUSH3 0x461BCD PUSH1 0xE5 SHL DUP2 MSTORE PUSH1 0x20 PUSH1 0x4 DUP3 ADD MSTORE PUSH1 0xE PUSH1 0x24 DUP3 ADD MSTORE PUSH14 0x125B9D985B1A5908185B5BDD5B9D PUSH1 0x92 SHL PUSH1 0x44 DUP3 ADD MSTORE PUSH1 0x64 ADD PUSH2 0x7FA JUMP JUMPDEST PUSH1 0x0 DUP2 GT PUSH2 0x114B JUMPI PUSH1 0x40 MLOAD PUSH3 0x461BCD PUSH1 0xE5 SHL DUP2 MSTORE PUSH1 0x20 PUSH1 0x4 DUP3 ADD MSTORE PUSH1 0x15 PUSH1 0x24 DUP3 ADD MSTORE PUSH21 0x24B73B30B634B2103637B1B590323AB930BA34B7B7 PUSH1 0x59 SHL PUSH1 0x44 DUP3 ADD MSTORE PUSH1 0x64 ADD PUSH2 0x7FA JUMP JUMPDEST PUSH2 0x1C7 SLOAD PUSH1 0x1 PUSH1 0xA8 SHL SWAP1 DIV PUSH1 0xFF AND PUSH2 0x11A5 JUMPI PUSH1 0x40 MLOAD PUSH3 0x461BCD PUSH1 0xE5 SHL DUP2 MSTORE PUSH1 0x20 PUSH1 0x4 DUP3 ADD MSTORE PUSH1 0x1E PUSH1 0x24 DUP3 ADD MSTORE PUSH32 0x4C6F636B2066756E6374696F6E616C6974792069732064697361626C65640000 PUSH1 0x44 DUP3 ADD MSTORE PUSH1 0x64 ADD PUSH2 0x7FA JUMP JUMPDEST PUSH1 0x0 PUSH2 0x11B1 DUP5 DUP5 PUSH2 0x215E JUMP JUMPDEST SWAP1 POP DUP1 PUSH2 0x11D0 JUMPI PUSH1 0x40 MLOAD PUSH3 0x461BCD PUSH1 0xE5 SHL DUP2 MSTORE PUSH1 0x4 ADD PUSH2 0x7FA SWAP1 PUSH2 0x2F37 JUMP JUMPDEST PUSH2 0x11DB DUP5 DUP5 DUP5 PUSH2 0x216C JUMP JUMPDEST POP POP POP POP JUMP JUMPDEST PUSH2 0x11E9 PUSH2 0x1849 JUMP JUMPDEST PUSH1 0x1 PUSH1 0x1 PUSH1 0xA0 SHL SUB DUP2 AND PUSH2 0x1231 JUMPI PUSH1 0x40 MLOAD PUSH3 0x461BCD PUSH1 0xE5 SHL DUP2 MSTORE PUSH1 0x20 PUSH1 0x4 DUP3 ADD MSTORE PUSH1 0xF PUSH1 0x24 DUP3 ADD MSTORE PUSH15 0x496E76616C69642061646472657373 PUSH1 0x88 SHL PUSH1 0x44 DUP3 ADD MSTORE PUSH1 0x64 ADD PUSH2 0x7FA JUMP JUMPDEST PUSH1 0x1 PUSH1 0x1 PUSH1 0xA0 SHL SUB DUP2 AND PUSH1 0x0 SWAP1 DUP2 MSTORE PUSH2 0x1C6 PUSH1 0x20 MSTORE PUSH1 0x40 SWAP1 KECCAK256 SLOAD PUSH1 0xFF AND ISZERO PUSH2 0x12AF JUMPI PUSH1 0x40 MLOAD PUSH3 0x461BCD PUSH1 0xE5 SHL DUP2 MSTORE PUSH1 0x20 PUSH1 0x4 DUP3 ADD MSTORE PUSH1 0x2B PUSH1 0x24 DUP3 ADD MSTORE PUSH32 0x4164647265737320616C726561647920696E206C6F636B207472616E73666572 PUSH1 0x44 DUP3 ADD MSTORE PUSH11 0x818591B5A5B881B1A5CDD PUSH1 0xAA SHL PUSH1 0x64 DUP3 ADD MSTORE PUSH1 0x84 ADD PUSH2 0x7FA JUMP JUMPDEST PUSH1 0x1 PUSH1 0x1 PUSH1 0xA0 SHL SUB DUP2 AND PUSH1 0x0 DUP2 DUP2 MSTORE PUSH2 0x1C6 PUSH1 0x20 MSTORE PUSH1 0x40 DUP1 DUP3 KECCAK256 DUP1 SLOAD PUSH1 0xFF NOT AND PUSH1 0x1 OR SWAP1 SSTORE MLOAD PUSH32 0xE74B3BA98973E3C76BE8EEBBD635FEBD40794BF314036712609ECEDC14B52EB4 SWAP2 SWAP1 LOG2 POP JUMP JUMPDEST PUSH1 0x60 PUSH1 0x37 DUP1 SLOAD PUSH2 0x72B SWAP1 PUSH2 0x2F03 JUMP JUMPDEST PUSH1 0x0 CALLER DUP2 PUSH2 0x1319 DUP3 DUP7 PUSH2 0x170C JUMP JUMPDEST SWAP1 POP DUP4 DUP2 LT ISZERO PUSH2 0x1379 JUMPI PUSH1 0x40 MLOAD PUSH3 0x461BCD PUSH1 0xE5 SHL DUP2 MSTORE PUSH1 0x20 PUSH1 0x4 DUP3 ADD MSTORE PUSH1 0x25 PUSH1 0x24 DUP3 ADD MSTORE PUSH32 0x45524332303A2064656372656173656420616C6C6F77616E63652062656C6F77 PUSH1 0x44 DUP3 ADD MSTORE PUSH5 0x207A65726F PUSH1 0xD8 SHL PUSH1 0x64 DUP3 ADD MSTORE PUSH1 0x84 ADD PUSH2 0x7FA JUMP JUMPDEST PUSH2 0x1386 DUP3 DUP7 DUP7 DUP5 SUB PUSH2 0x18A4 JUMP JUMPDEST POP PUSH1 0x1 SWAP5 SWAP4 POP POP POP POP JUMP JUMPDEST PUSH1 0x0 PUSH1 0x1 PUSH1 0x1 PUSH1 0xA0 SHL SUB DUP4 AND ISZERO DUP1 PUSH2 0x13A7 JUMPI POP DUP2 ISZERO JUMPDEST ISZERO PUSH2 0x13BD JUMPI PUSH2 0x13B6 DUP4 DUP4 PUSH2 0x215E JUMP JUMPDEST SWAP1 POP PUSH2 0x8DA JUMP JUMPDEST PUSH2 0x1C7 SLOAD PUSH1 0x1 PUSH1 0xA8 SHL SWAP1 DIV PUSH1 0xFF AND DUP1 ISZERO PUSH2 0x13E6 JUMPI POP CALLER PUSH1 0x0 SWAP1 DUP2 MSTORE PUSH2 0x1C8 PUSH1 0x20 MSTORE PUSH1 0x40 SWAP1 KECCAK256 SLOAD ISZERO ISZERO JUMPDEST ISZERO PUSH2 0x1448 JUMPI PUSH1 0x0 PUSH2 0x13F7 CALLER DUP5 PUSH2 0x1473 JUMP JUMPDEST SWAP1 POP DUP1 PUSH2 0x1446 JUMPI PUSH1 0x40 MLOAD PUSH3 0x461BCD PUSH1 0xE5 SHL DUP2 MSTORE PUSH1 0x20 PUSH1 0x4 DUP3 ADD MSTORE PUSH1 0x1D PUSH1 0x24 DUP3 ADD MSTORE PUSH32 0x496E73756666696369656E7420756E6C6F636B65642062616C616E6365000000 PUSH1 0x44 DUP3 ADD MSTORE PUSH1 0x64 ADD PUSH2 0x7FA JUMP JUMPDEST POP JUMPDEST PUSH1 0x0 PUSH2 0x1454 DUP5 DUP5 PUSH2 0x215E JUMP JUMPDEST SWAP1 POP DUP1 PUSH2 0x8D4 JUMPI PUSH1 0x40 MLOAD PUSH3 0x461BCD PUSH1 0xE5 SHL DUP2 MSTORE PUSH1 0x4 ADD PUSH2 0x7FA SWAP1 PUSH2 0x2F37 JUMP JUMPDEST PUSH2 0x1C7 SLOAD PUSH1 0x0 SWAP1 PUSH1 0x1 PUSH1 0xA8 SHL SWAP1 DIV PUSH1 0xFF AND PUSH2 0x1490 JUMPI POP PUSH1 0x1 PUSH2 0x8DA JUMP JUMPDEST PUSH1 0x0 PUSH2 0x149B DUP5 PUSH2 0x1E13 JUMP JUMPDEST SWAP1 POP PUSH1 0x0 PUSH2 0x14C8 DUP3 PUSH2 0x14C2 DUP8 PUSH1 0x1 PUSH1 0x1 PUSH1 0xA0 SHL SUB AND PUSH1 0x0 SWAP1 DUP2 MSTORE PUSH1 0x33 PUSH1 0x20 MSTORE PUSH1 0x40 SWAP1 KECCAK256 SLOAD SWAP1 JUMP JUMPDEST SWAP1 PUSH2 0x1EAC JUMP JUMPDEST SWAP1 SWAP4 GT ISZERO SWAP5 SWAP4 POP POP POP POP JUMP JUMPDEST PUSH1 0x1 PUSH1 0x1 PUSH1 0xA0 SHL SUB DUP3 AND PUSH1 0x0 SWAP1 DUP2 MSTORE PUSH2 0x1C8 PUSH1 0x20 MSTORE PUSH1 0x40 DUP2 KECCAK256 SLOAD DUP2 SWAP1 PUSH2 0xFFFF DUP5 AND LT PUSH2 0x1537 JUMPI PUSH1 0x40 MLOAD PUSH3 0x461BCD PUSH1 0xE5 SHL DUP2 MSTORE PUSH1 0x20 PUSH1 0x4 DUP3 ADD MSTORE PUSH1 0x12 PUSH1 0x24 DUP3 ADD MSTORE PUSH18 0x496E646578206F7574206F662072616E6765 PUSH1 0x70 SHL PUSH1 0x44 DUP3 ADD MSTORE PUSH1 0x64 ADD PUSH2 0x7FA JUMP JUMPDEST PUSH1 0x1 PUSH1 0x1 PUSH1 0xA0 SHL SUB DUP5 AND PUSH1 0x0 SWAP1 DUP2 MSTORE PUSH2 0x1C8 PUSH1 0x20 MSTORE PUSH1 0x40 DUP2 KECCAK256 DUP1 SLOAD PUSH2 0xFFFF DUP7 AND SWAP1 DUP2 LT PUSH2 0x1566 JUMPI PUSH2 0x1566 PUSH2 0x312B JUMP JUMPDEST PUSH1 0x0 SWAP2 DUP3 MSTORE PUSH1 0x20 SWAP2 DUP3 SWAP1 KECCAK256 PUSH1 0x40 DUP1 MLOAD PUSH1 0x60 DUP2 ADD DUP3 MSTORE PUSH1 0x3 SWAP1 SWAP4 MUL SWAP1 SWAP2 ADD DUP1 SLOAD DUP4 MSTORE PUSH1 0x1 DUP2 ADD SLOAD SWAP4 DUP4 ADD DUP5 SWAP1 MSTORE PUSH1 0x2 ADD SLOAD SWAP2 ADD DUP2 SWAP1 MSTORE SWAP1 SWAP4 POP SWAP2 POP POP SWAP3 POP SWAP3 SWAP1 POP JUMP JUMPDEST DUP4 TIMESTAMP GT ISZERO PUSH2 0x15F8 JUMPI PUSH1 0x40 MLOAD PUSH3 0x461BCD PUSH1 0xE5 SHL DUP2 MSTORE PUSH1 0x20 PUSH1 0x4 DUP3 ADD MSTORE PUSH1 0x1D PUSH1 0x24 DUP3 ADD MSTORE PUSH32 0x45524332305065726D69743A206578706972656420646561646C696E65000000 PUSH1 0x44 DUP3 ADD MSTORE PUSH1 0x64 ADD PUSH2 0x7FA JUMP JUMPDEST PUSH1 0x0 PUSH32 0x6E71EDAE12B1B97F4D1F60370FEF10105FA2FAAE0126114A169C64845D6126C9 DUP9 DUP9 DUP9 PUSH2 0x1627 DUP13 PUSH2 0x22FC JUMP JUMPDEST PUSH1 0x40 DUP1 MLOAD PUSH1 0x20 DUP2 ADD SWAP7 SWAP1 SWAP7 MSTORE PUSH1 0x1 PUSH1 0x1 PUSH1 0xA0 SHL SUB SWAP5 DUP6 AND SWAP1 DUP7 ADD MSTORE SWAP3 SWAP1 SWAP2 AND PUSH1 0x60 DUP5 ADD MSTORE PUSH1 0x80 DUP4 ADD MSTORE PUSH1 0xA0 DUP3 ADD MSTORE PUSH1 0xC0 DUP2 ADD DUP7 SWAP1 MSTORE PUSH1 0xE0 ADD PUSH1 0x40 MLOAD PUSH1 0x20 DUP2 DUP4 SUB SUB DUP2 MSTORE SWAP1 PUSH1 0x40 MSTORE DUP1 MLOAD SWAP1 PUSH1 0x20 ADD KECCAK256 SWAP1 POP PUSH1 0x0 PUSH2 0x1682 DUP3 PUSH2 0x2324 JUMP JUMPDEST SWAP1 POP PUSH1 0x0 PUSH2 0x1692 DUP3 DUP8 DUP8 DUP8 PUSH2 0x2351 JUMP JUMPDEST SWAP1 POP DUP10 PUSH1 0x1 PUSH1 0x1 PUSH1 0xA0 SHL SUB AND DUP2 PUSH1 0x1 PUSH1 0x1 PUSH1 0xA0 SHL SUB AND EQ PUSH2 0x16F5 JUMPI PUSH1 0x40 MLOAD PUSH3 0x461BCD PUSH1 0xE5 SHL DUP2 MSTORE PUSH1 0x20 PUSH1 0x4 DUP3 ADD MSTORE PUSH1 0x1E PUSH1 0x24 DUP3 ADD MSTORE PUSH32 0x45524332305065726D69743A20696E76616C6964207369676E61747572650000 PUSH1 0x44 DUP3 ADD MSTORE PUSH1 0x64 ADD PUSH2 0x7FA JUMP JUMPDEST PUSH2 0x1700 DUP11 DUP11 DUP11 PUSH2 0x18A4 JUMP JUMPDEST POP POP POP POP POP POP POP POP POP POP JUMP JUMPDEST PUSH1 0x1 PUSH1 0x1 PUSH1 0xA0 SHL SUB SWAP2 DUP3 AND PUSH1 0x0 SWAP1 DUP2 MSTORE PUSH1 0x34 PUSH1 0x20 SWAP1 DUP2 MSTORE PUSH1 0x40 DUP1 DUP4 KECCAK256 SWAP4 SWAP1 SWAP5 AND DUP3 MSTORE SWAP2 SWAP1 SWAP2 MSTORE KECCAK256 SLOAD SWAP1 JUMP JUMPDEST PUSH2 0x173F PUSH2 0x1849 JUMP JUMPDEST PUSH1 0x1 PUSH1 0x1 PUSH1 0xA0 SHL SUB DUP2 AND PUSH2 0x17A4 JUMPI PUSH1 0x40 MLOAD PUSH3 0x461BCD PUSH1 0xE5 SHL DUP2 MSTORE PUSH1 0x20 PUSH1 0x4 DUP3 ADD MSTORE PUSH1 0x26 PUSH1 0x24 DUP3 ADD MSTORE PUSH32 0x4F776E61626C653A206E6577206F776E657220697320746865207A65726F2061 PUSH1 0x44 DUP3 ADD MSTORE PUSH6 0x646472657373 PUSH1 0xD0 SHL PUSH1 0x64 DUP3 ADD MSTORE PUSH1 0x84 ADD PUSH2 0x7FA JUMP JUMPDEST PUSH2 0xAC5 DUP2 PUSH2 0x1EB8 JUMP JUMPDEST PUSH2 0x17B5 PUSH2 0x1849 JUMP JUMPDEST PUSH2 0x1C7 DUP1 SLOAD PUSH1 0xFF PUSH1 0xA8 SHL NOT AND SWAP1 SSTORE PUSH1 0x40 DUP1 MLOAD TIMESTAMP DUP2 MSTORE NUMBER PUSH1 0x20 DUP3 ADD MSTORE PUSH32 0xB5E70C210D2E71A1C7A0374093A7500A98144CB3E42B1347119779FC7F6E1E77 SWAP2 ADD PUSH2 0xB38 JUMP JUMPDEST PUSH2 0x1800 PUSH2 0x1849 JUMP JUMPDEST PUSH2 0x1C7 DUP1 SLOAD PUSH1 0xFF PUSH1 0xA8 SHL NOT AND PUSH1 0x1 PUSH1 0xA8 SHL OR SWAP1 SSTORE PUSH1 0x40 DUP1 MLOAD TIMESTAMP DUP2 MSTORE NUMBER PUSH1 0x20 DUP3 ADD MSTORE PUSH32 0x36F626FF436289B843A75D20DD61A7675CA89FF5930B2BA1F10DAD7315CE0852 SWAP2 ADD PUSH2 0xB38 JUMP JUMPDEST PUSH2 0x130 SLOAD PUSH1 0x1 PUSH1 0x1 PUSH1 0xA0 SHL SUB AND CALLER EQ PUSH2 0xD77 JUMPI PUSH1 0x40 MLOAD PUSH3 0x461BCD PUSH1 0xE5 SHL DUP2 MSTORE PUSH1 0x20 PUSH1 0x4 DUP3 ADD DUP2 SWAP1 MSTORE PUSH1 0x24 DUP3 ADD MSTORE PUSH32 0x4F776E61626C653A2063616C6C6572206973206E6F7420746865206F776E6572 PUSH1 0x44 DUP3 ADD MSTORE PUSH1 0x64 ADD PUSH2 0x7FA JUMP JUMPDEST PUSH1 0x1 PUSH1 0x1 PUSH1 0xA0 SHL SUB DUP4 AND PUSH2 0x1906 JUMPI PUSH1 0x40 MLOAD PUSH3 0x461BCD PUSH1 0xE5 SHL DUP2 MSTORE PUSH1 0x20 PUSH1 0x4 DUP3 ADD MSTORE PUSH1 0x24 DUP1 DUP3 ADD MSTORE PUSH32 0x45524332303A20617070726F76652066726F6D20746865207A65726F20616464 PUSH1 0x44 DUP3 ADD MSTORE PUSH4 0x72657373 PUSH1 0xE0 SHL PUSH1 0x64 DUP3 ADD MSTORE PUSH1 0x84 ADD PUSH2 0x7FA JUMP JUMPDEST PUSH1 0x1 PUSH1 0x1 PUSH1 0xA0 SHL SUB DUP3 AND PUSH2 0x1967 JUMPI PUSH1 0x40 MLOAD PUSH3 0x461BCD PUSH1 0xE5 SHL DUP2 MSTORE PUSH1 0x20 PUSH1 0x4 DUP3 ADD MSTORE PUSH1 0x22 PUSH1 0x24 DUP3 ADD MSTORE PUSH32 0x45524332303A20617070726F766520746F20746865207A65726F206164647265 PUSH1 0x44 DUP3 ADD MSTORE PUSH2 0x7373 PUSH1 0xF0 SHL PUSH1 0x64 DUP3 ADD MSTORE PUSH1 0x84 ADD PUSH2 0x7FA JUMP JUMPDEST PUSH1 0x1 PUSH1 0x1 PUSH1 0xA0 SHL SUB DUP4 DUP2 AND PUSH1 0x0 DUP2 DUP2 MSTORE PUSH1 0x34 PUSH1 0x20 SWAP1 DUP2 MSTORE PUSH1 0x40 DUP1 DUP4 KECCAK256 SWAP5 DUP8 AND DUP1 DUP5 MSTORE SWAP5 DUP3 MSTORE SWAP2 DUP3 SWAP1 KECCAK256 DUP6 SWAP1 SSTORE SWAP1 MLOAD DUP5 DUP2 MSTORE PUSH32 0x8C5BE1E5EBEC7D5BD14F71427D1E84F3DD0314C0F7B2291E5B200AC8C7C3B925 SWAP2 ADD PUSH1 0x40 MLOAD DUP1 SWAP2 SUB SWAP1 LOG3 POP POP POP JUMP JUMPDEST PUSH1 0x0 CALLER PUSH2 0x19D6 DUP6 DUP3 DUP6 PUSH2 0x1F0B JUMP JUMPDEST PUSH2 0x9CD DUP6 DUP6 DUP6 PUSH2 0x237B JUMP JUMPDEST PUSH1 0x0 PUSH2 0x9E4 PUSH2 0x2526 JUMP JUMPDEST PUSH2 0x1C7 SLOAD PUSH1 0x1 PUSH1 0xA0 SHL SWAP1 DIV PUSH1 0xFF AND ISZERO PUSH2 0x1A46 JUMPI PUSH1 0x40 MLOAD PUSH3 0x461BCD PUSH1 0xE5 SHL DUP2 MSTORE PUSH1 0x20 PUSH1 0x4 DUP3 ADD MSTORE PUSH1 0x1C PUSH1 0x24 DUP3 ADD MSTORE PUSH32 0x436F6E747261637420757067726164652069732064697361626C656400000000 PUSH1 0x44 DUP3 ADD MSTORE PUSH1 0x64 ADD PUSH2 0x7FA JUMP JUMPDEST PUSH2 0x1C7 SLOAD PUSH1 0x1 PUSH1 0x1 PUSH1 0xA0 SHL SUB AND PUSH2 0x1A9F JUMPI PUSH1 0x40 MLOAD PUSH3 0x461BCD PUSH1 0xE5 SHL DUP2 MSTORE PUSH1 0x20 PUSH1 0x4 DUP3 ADD MSTORE PUSH1 0x19 PUSH1 0x24 DUP3 ADD MSTORE PUSH32 0x4E6F2075706772616465207065726D697373696F6E2073657400000000000000 PUSH1 0x44 DUP3 ADD MSTORE PUSH1 0x64 ADD PUSH2 0x7FA JUMP JUMPDEST PUSH2 0x1C7 SLOAD PUSH1 0x1 PUSH1 0x1 PUSH1 0xA0 SHL SUB AND CALLER EQ PUSH2 0x1B05 JUMPI PUSH1 0x40 MLOAD PUSH3 0x461BCD PUSH1 0xE5 SHL DUP2 MSTORE PUSH1 0x20 PUSH1 0x4 DUP3 ADD MSTORE PUSH1 0x22 PUSH1 0x24 DUP3 ADD MSTORE PUSH32 0x4F6E6C792063616E55706772616465416464726573732063616E207570677261 PUSH1 0x44 DUP3 ADD MSTORE PUSH2 0x6465 PUSH1 0xF0 SHL PUSH1 0x64 DUP3 ADD MSTORE PUSH1 0x84 ADD PUSH2 0x7FA JUMP JUMPDEST PUSH1 0x1 PUSH1 0x1 PUSH1 0xA0 SHL SUB DUP2 AND PUSH2 0x1B5B JUMPI PUSH1 0x40 MLOAD PUSH3 0x461BCD PUSH1 0xE5 SHL DUP2 MSTORE PUSH1 0x20 PUSH1 0x4 DUP3 ADD MSTORE PUSH1 0x1E PUSH1 0x24 DUP3 ADD MSTORE PUSH32 0x496E76616C696420696D706C656D656E746174696F6E20616464726573730000 PUSH1 0x44 DUP3 ADD MSTORE PUSH1 0x64 ADD PUSH2 0x7FA JUMP JUMPDEST POP PUSH2 0x1C7 DUP1 SLOAD PUSH1 0x1 PUSH1 0x1 PUSH1 0xA0 SHL SUB NOT AND SWAP1 SSTORE JUMP JUMPDEST PUSH32 0x4910FDFA16FED3260ED0E7147F7CC6DA11A60208B5B9406D12A635614FFD9143 SLOAD PUSH1 0xFF AND ISZERO PUSH2 0x1BA7 JUMPI PUSH2 0x1BA2 DUP4 PUSH2 0x259A JUMP JUMPDEST POP POP POP JUMP JUMPDEST DUP3 PUSH1 0x1 PUSH1 0x1 PUSH1 0xA0 SHL SUB AND PUSH4 0x52D1902D PUSH1 0x40 MLOAD DUP2 PUSH4 0xFFFFFFFF AND PUSH1 0xE0 SHL DUP2 MSTORE PUSH1 0x4 ADD PUSH1 0x20 PUSH1 0x40 MLOAD DUP1 DUP4 SUB DUP2 DUP7 GAS STATICCALL SWAP3 POP POP POP DUP1 ISZERO PUSH2 0x1C01 JUMPI POP PUSH1 0x40 DUP1 MLOAD PUSH1 0x1F RETURNDATASIZE SWAP1 DUP2 ADD PUSH1 0x1F NOT AND DUP3 ADD SWAP1 SWAP3 MSTORE PUSH2 0x1BFE SWAP2 DUP2 ADD SWAP1 PUSH2 0x3141 JUMP JUMPDEST PUSH1 0x1 JUMPDEST PUSH2 0x1C64 JUMPI PUSH1 0x40 MLOAD PUSH3 0x461BCD PUSH1 0xE5 SHL DUP2 MSTORE PUSH1 0x20 PUSH1 0x4 DUP3 ADD MSTORE PUSH1 0x2E PUSH1 0x24 DUP3 ADD MSTORE PUSH32 0x45524331393637557067726164653A206E657720696D706C656D656E74617469 PUSH1 0x44 DUP3 ADD MSTORE PUSH14 0x6F6E206973206E6F742055555053 PUSH1 0x90 SHL PUSH1 0x64 DUP3 ADD MSTORE PUSH1 0x84 ADD PUSH2 0x7FA JUMP JUMPDEST PUSH1 0x0 DUP1 MLOAD PUSH1 0x20 PUSH2 0x32FB DUP4 CODECOPY DUP2 MLOAD SWAP2 MSTORE DUP2 EQ PUSH2 0x1CD3 JUMPI PUSH1 0x40 MLOAD PUSH3 0x461BCD PUSH1 0xE5 SHL DUP2 MSTORE PUSH1 0x20 PUSH1 0x4 DUP3 ADD MSTORE PUSH1 0x29 PUSH1 0x24 DUP3 ADD MSTORE PUSH32 0x45524331393637557067726164653A20756E737570706F727465642070726F78 PUSH1 0x44 DUP3 ADD MSTORE PUSH9 0x1A58589B1955555251 PUSH1 0xBA SHL PUSH1 0x64 DUP3 ADD MSTORE PUSH1 0x84 ADD PUSH2 0x7FA JUMP JUMPDEST POP PUSH2 0x1BA2 DUP4 DUP4 DUP4 PUSH2 0x2636 JUMP JUMPDEST PUSH1 0x1 PUSH1 0x1 PUSH1 0xA0 SHL SUB DUP3 AND PUSH2 0x1D3F JUMPI PUSH1 0x40 MLOAD PUSH3 0x461BCD PUSH1 0xE5 SHL DUP2 MSTORE PUSH1 0x20 PUSH1 0x4 DUP3 ADD MSTORE PUSH1 0x21 PUSH1 0x24 DUP3 ADD MSTORE PUSH32 0x45524332303A206275726E2066726F6D20746865207A65726F20616464726573 PUSH1 0x44 DUP3 ADD MSTORE PUSH1 0x73 PUSH1 0xF8 SHL PUSH1 0x64 DUP3 ADD MSTORE PUSH1 0x84 ADD PUSH2 0x7FA JUMP JUMPDEST PUSH1 0x1 PUSH1 0x1 PUSH1 0xA0 SHL SUB DUP3 AND PUSH1 0x0 SWAP1 DUP2 MSTORE PUSH1 0x33 PUSH1 0x20 MSTORE PUSH1 0x40 SWAP1 KECCAK256 SLOAD DUP2 DUP2 LT ISZERO PUSH2 0x1DB3 JUMPI PUSH1 0x40 MLOAD PUSH3 0x461BCD PUSH1 0xE5 SHL DUP2 MSTORE PUSH1 0x20 PUSH1 0x4 DUP3 ADD MSTORE PUSH1 0x22 PUSH1 0x24 DUP3 ADD MSTORE PUSH32 0x45524332303A206275726E20616D6F756E7420657863656564732062616C616E PUSH1 0x44 DUP3 ADD MSTORE PUSH2 0x6365 PUSH1 0xF0 SHL PUSH1 0x64 DUP3 ADD MSTORE PUSH1 0x84 ADD PUSH2 0x7FA JUMP JUMPDEST PUSH1 0x1 PUSH1 0x1 PUSH1 0xA0 SHL SUB DUP4 AND PUSH1 0x0 DUP2 DUP2 MSTORE PUSH1 0x33 PUSH1 0x20 SWAP1 DUP2 MSTORE PUSH1 0x40 DUP1 DUP4 KECCAK256 DUP7 DUP7 SUB SWAP1 SSTORE PUSH1 0x35 DUP1 SLOAD DUP8 SWAP1 SUB SWAP1 SSTORE MLOAD DUP6 DUP2 MSTORE SWAP2 SWAP3 SWAP2 PUSH32 0xDDF252AD1BE2C89B69C2B068FC378DAA952BA7F163C4A11628F55A4DF523B3EF SWAP2 ADD PUSH1 0x40 MLOAD DUP1 SWAP2 SUB SWAP1 LOG3 POP POP POP JUMP JUMPDEST PUSH1 0x1 PUSH1 0x1 PUSH1 0xA0 SHL SUB DUP2 AND PUSH1 0x0 SWAP1 DUP2 MSTORE PUSH2 0x1C8 PUSH1 0x20 MSTORE PUSH1 0x40 DUP2 KECCAK256 DUP2 DUP1 JUMPDEST DUP3 SLOAD DUP2 LT ISZERO PUSH2 0x1EA4 JUMPI DUP3 DUP2 DUP2 SLOAD DUP2 LT PUSH2 0x1E4A JUMPI PUSH2 0x1E4A PUSH2 0x312B JUMP JUMPDEST SWAP1 PUSH1 0x0 MSTORE PUSH1 0x20 PUSH1 0x0 KECCAK256 SWAP1 PUSH1 0x3 MUL ADD PUSH1 0x2 ADD SLOAD TIMESTAMP LT ISZERO PUSH2 0x1E9C JUMPI PUSH2 0x1E99 DUP4 DUP3 DUP2 SLOAD DUP2 LT PUSH2 0x1E78 JUMPI PUSH2 0x1E78 PUSH2 0x312B JUMP JUMPDEST SWAP1 PUSH1 0x0 MSTORE PUSH1 0x20 PUSH1 0x0 KECCAK256 SWAP1 PUSH1 0x3 MUL ADD PUSH1 0x1 ADD SLOAD DUP4 PUSH2 0x265B SWAP1 SWAP2 SWAP1 PUSH4 0xFFFFFFFF AND JUMP JUMPDEST SWAP2 POP JUMPDEST PUSH1 0x1 ADD PUSH2 0x1E2F JUMP JUMPDEST POP SWAP4 SWAP3 POP POP POP JUMP JUMPDEST PUSH1 0x0 PUSH2 0x9D3 DUP3 DUP5 PUSH2 0x315A JUMP JUMPDEST PUSH2 0x130 DUP1 SLOAD PUSH1 0x1 PUSH1 0x1 PUSH1 0xA0 SHL SUB DUP4 DUP2 AND PUSH1 0x1 PUSH1 0x1 PUSH1 0xA0 SHL SUB NOT DUP4 AND DUP2 OR SWAP1 SWAP4 SSTORE PUSH1 0x40 MLOAD SWAP2 AND SWAP2 SWAP1 DUP3 SWAP1 PUSH32 0x8BE0079C531659141344CD1FD0A4F28419497F9722A3DAAFE3B4186F6B6457E0 SWAP1 PUSH1 0x0 SWAP1 LOG3 POP POP JUMP JUMPDEST PUSH1 0x0 PUSH2 0x1F17 DUP5 DUP5 PUSH2 0x170C JUMP JUMPDEST SWAP1 POP PUSH1 0x0 NOT DUP2 EQ PUSH2 0x11DB JUMPI DUP2 DUP2 LT ISZERO PUSH2 0x1F72 JUMPI PUSH1 0x40 MLOAD PUSH3 0x461BCD PUSH1 0xE5 SHL DUP2 MSTORE PUSH1 0x20 PUSH1 0x4 DUP3 ADD MSTORE PUSH1 0x1D PUSH1 0x24 DUP3 ADD MSTORE PUSH32 0x45524332303A20696E73756666696369656E7420616C6C6F77616E6365000000 PUSH1 0x44 DUP3 ADD MSTORE PUSH1 0x64 ADD PUSH2 0x7FA JUMP JUMPDEST PUSH2 0x11DB DUP5 DUP5 DUP5 DUP5 SUB PUSH2 0x18A4 JUMP JUMPDEST PUSH1 0x0 SLOAD PUSH2 0x100 SWAP1 DIV PUSH1 0xFF AND PUSH2 0x1FA6 JUMPI PUSH1 0x40 MLOAD PUSH3 0x461BCD PUSH1 0xE5 SHL DUP2 MSTORE PUSH1 0x4 ADD PUSH2 0x7FA SWAP1 PUSH2 0x316D JUMP JUMPDEST PUSH2 0xC6B DUP3 DUP3 PUSH2 0x2667 JUMP JUMPDEST PUSH1 0x0 SLOAD PUSH2 0x100 SWAP1 DIV PUSH1 0xFF AND PUSH2 0xD77 JUMPI PUSH1 0x40 MLOAD PUSH3 0x461BCD PUSH1 0xE5 SHL DUP2 MSTORE PUSH1 0x4 ADD PUSH2 0x7FA SWAP1 PUSH2 0x316D JUMP JUMPDEST PUSH1 0x0 SLOAD PUSH2 0x100 SWAP1 DIV PUSH1 0xFF AND PUSH2 0x1FFE JUMPI PUSH1 0x40 MLOAD PUSH3 0x461BCD PUSH1 0xE5 SHL DUP2 MSTORE PUSH1 0x4 ADD PUSH2 0x7FA SWAP1 PUSH2 0x316D JUMP JUMPDEST PUSH2 0xAC5 DUP2 PUSH1 0x40 MLOAD DUP1 PUSH1 0x40 ADD PUSH1 0x40 MSTORE DUP1 PUSH1 0x1 DUP2 MSTORE PUSH1 0x20 ADD PUSH1 0x31 PUSH1 0xF8 SHL DUP2 MSTORE POP PUSH2 0x26A7 JUMP JUMPDEST PUSH1 0x0 SLOAD PUSH2 0x100 SWAP1 DIV PUSH1 0xFF AND PUSH2 0x2048 JUMPI PUSH1 0x40 MLOAD PUSH3 0x461BCD PUSH1 0xE5 SHL DUP2 MSTORE PUSH1 0x4 ADD PUSH2 0x7FA SWAP1 PUSH2 0x316D JUMP JUMPDEST PUSH2 0xD77 PUSH2 0x26F6 JUMP JUMPDEST PUSH1 0x0 SLOAD PUSH2 0x100 SWAP1 DIV PUSH1 0xFF AND PUSH2 0x2077 JUMPI PUSH1 0x40 MLOAD PUSH3 0x461BCD PUSH1 0xE5 SHL DUP2 MSTORE PUSH1 0x4 ADD PUSH2 0x7FA SWAP1 PUSH2 0x316D JUMP JUMPDEST PUSH2 0xD77 PUSH2 0x2724 JUMP JUMPDEST PUSH1 0x1 PUSH1 0x1 PUSH1 0xA0 SHL SUB DUP3 AND PUSH2 0x20D5 JUMPI PUSH1 0x40 MLOAD PUSH3 0x461BCD PUSH1 0xE5 SHL DUP2 MSTORE PUSH1 0x20 PUSH1 0x4 DUP3 ADD MSTORE PUSH1 0x1F PUSH1 0x24 DUP3 ADD MSTORE PUSH32 0x45524332303A206D696E7420746F20746865207A65726F206164647265737300 PUSH1 0x44 DUP3 ADD MSTORE PUSH1 0x64 ADD PUSH2 0x7FA JUMP JUMPDEST DUP1 PUSH1 0x35 PUSH1 0x0 DUP3 DUP3 SLOAD PUSH2 0x20E7 SWAP2 SWAP1 PUSH2 0x300E JUMP JUMPDEST SWAP1 SWAP2 SSTORE POP POP PUSH1 0x1 PUSH1 0x1 PUSH1 0xA0 SHL SUB DUP3 AND PUSH1 0x0 DUP2 DUP2 MSTORE PUSH1 0x33 PUSH1 0x20 SWAP1 DUP2 MSTORE PUSH1 0x40 DUP1 DUP4 KECCAK256 DUP1 SLOAD DUP7 ADD SWAP1 SSTORE MLOAD DUP5 DUP2 MSTORE PUSH32 0xDDF252AD1BE2C89B69C2B068FC378DAA952BA7F163C4A11628F55A4DF523B3EF SWAP2 ADD PUSH1 0x40 MLOAD DUP1 SWAP2 SUB SWAP1 LOG3 POP POP JUMP JUMPDEST PUSH1 0x60 PUSH1 0x99 DUP1 SLOAD PUSH2 0x72B SWAP1 PUSH2 0x2F03 JUMP JUMPDEST PUSH1 0x60 PUSH1 0x9A DUP1 SLOAD PUSH2 0x72B SWAP1 PUSH2 0x2F03 JUMP JUMPDEST PUSH1 0x0 CALLER PUSH2 0x8D4 DUP2 DUP6 DUP6 PUSH2 0x237B JUMP JUMPDEST PUSH1 0x1 PUSH1 0x1 PUSH1 0xA0 SHL SUB DUP4 AND PUSH2 0x21BB JUMPI PUSH1 0x40 MLOAD PUSH3 0x461BCD PUSH1 0xE5 SHL DUP2 MSTORE PUSH1 0x20 PUSH1 0x4 DUP3 ADD MSTORE PUSH1 0x16 PUSH1 0x24 DUP3 ADD MSTORE PUSH22 0x496E76616C69642077616C6C65742061646472657373 PUSH1 0x50 SHL PUSH1 0x44 DUP3 ADD MSTORE PUSH1 0x64 ADD PUSH2 0x7FA JUMP JUMPDEST PUSH1 0x0 DUP3 GT PUSH2 0x21FC JUMPI PUSH1 0x40 MLOAD PUSH3 0x461BCD PUSH1 0xE5 SHL DUP2 MSTORE PUSH1 0x20 PUSH1 0x4 DUP3 ADD MSTORE PUSH1 0xE PUSH1 0x24 DUP3 ADD MSTORE PUSH14 0x125B9D985B1A5908185B5BDD5B9D PUSH1 0x92 SHL PUSH1 0x44 DUP3 ADD MSTORE PUSH1 0x64 ADD PUSH2 0x7FA JUMP JUMPDEST PUSH1 0x0 DUP2 GT PUSH2 0x2244 JUMPI PUSH1 0x40 MLOAD PUSH3 0x461BCD PUSH1 0xE5 SHL DUP2 MSTORE PUSH1 0x20 PUSH1 0x4 DUP3 ADD MSTORE PUSH1 0x15 PUSH1 0x24 DUP3 ADD MSTORE PUSH21 0x24B73B30B634B2103637B1B590323AB930BA34B7B7 PUSH1 0x59 SHL PUSH1 0x44 DUP3 ADD MSTORE PUSH1 0x64 ADD PUSH2 0x7FA JUMP JUMPDEST TIMESTAMP PUSH1 0x0 PUSH2 0x2251 DUP4 DUP4 PUSH2 0x300E JUMP JUMPDEST PUSH1 0x1 PUSH1 0x1 PUSH1 0xA0 SHL SUB DUP7 AND PUSH1 0x0 DUP2 DUP2 MSTORE PUSH2 0x1C8 PUSH1 0x20 SWAP1 DUP2 MSTORE PUSH1 0x40 DUP1 DUP4 KECCAK256 DUP2 MLOAD PUSH1 0x60 DUP2 ADD DUP4 MSTORE DUP9 DUP2 MSTORE DUP1 DUP5 ADD DUP12 DUP2 MSTORE DUP2 DUP5 ADD DUP9 DUP2 MSTORE DUP4 SLOAD PUSH1 0x1 DUP2 DUP2 ADD DUP7 SSTORE SWAP5 DUP9 MSTORE SWAP6 SWAP1 SWAP7 KECCAK256 SWAP2 MLOAD PUSH1 0x3 SWAP1 SWAP6 MUL SWAP1 SWAP2 ADD SWAP4 DUP5 SSTORE MLOAD SWAP1 DUP4 ADD SSTORE SWAP2 MLOAD PUSH1 0x2 SWAP1 SWAP2 ADD SSTORE MLOAD SWAP2 SWAP3 POP SWAP1 CALLER SWAP1 PUSH32 0x44D8E77A775C28CAEB187F3D075393023F89802855771A543607E45E1094E09C SWAP1 PUSH2 0x22ED SWAP1 DUP9 SWAP1 NUMBER SWAP1 SWAP2 DUP3 MSTORE PUSH1 0x20 DUP3 ADD MSTORE PUSH1 0x40 ADD SWAP1 JUMP JUMPDEST PUSH1 0x40 MLOAD DUP1 SWAP2 SUB SWAP1 LOG3 POP POP POP POP POP JUMP JUMPDEST PUSH1 0x1 PUSH1 0x1 PUSH1 0xA0 SHL SUB DUP2 AND PUSH1 0x0 SWAP1 DUP2 MSTORE PUSH1 0xCB PUSH1 0x20 MSTORE PUSH1 0x40 SWAP1 KECCAK256 DUP1 SLOAD PUSH1 0x1 DUP2 ADD DUP3 SSTORE SWAP1 JUMPDEST POP SWAP2 SWAP1 POP JUMP JUMPDEST PUSH1 0x0 PUSH2 0x8DA PUSH2 0x2331 PUSH2 0x19E1 JUMP JUMPDEST DUP4 PUSH1 0x40 MLOAD PUSH2 0x1901 PUSH1 0xF0 SHL DUP2 MSTORE PUSH1 0x2 DUP2 ADD SWAP3 SWAP1 SWAP3 MSTORE PUSH1 0x22 DUP3 ADD MSTORE PUSH1 0x42 SWAP1 KECCAK256 SWAP1 JUMP JUMPDEST PUSH1 0x0 DUP1 PUSH1 0x0 PUSH2 0x2362 DUP8 DUP8 DUP8 DUP8 PUSH2 0x2754 JUMP JUMPDEST SWAP2 POP SWAP2 POP PUSH2 0x236F DUP2 PUSH2 0x2818 JUMP JUMPDEST POP SWAP1 POP JUMPDEST SWAP5 SWAP4 POP POP POP POP JUMP JUMPDEST PUSH1 0x1 PUSH1 0x1 PUSH1 0xA0 SHL SUB DUP4 AND PUSH2 0x23DF JUMPI PUSH1 0x40 MLOAD PUSH3 0x461BCD PUSH1 0xE5 SHL DUP2 MSTORE PUSH1 0x20 PUSH1 0x4 DUP3 ADD MSTORE PUSH1 0x25 PUSH1 0x24 DUP3 ADD MSTORE PUSH32 0x45524332303A207472616E736665722066726F6D20746865207A65726F206164 PUSH1 0x44 DUP3 ADD MSTORE PUSH5 0x6472657373 PUSH1 0xD8 SHL PUSH1 0x64 DUP3 ADD MSTORE PUSH1 0x84 ADD PUSH2 0x7FA JUMP JUMPDEST PUSH1 0x1 PUSH1 0x1 PUSH1 0xA0 SHL SUB DUP3 AND PUSH2 0x2441 JUMPI PUSH1 0x40 MLOAD PUSH3 0x461BCD PUSH1 0xE5 SHL DUP2 MSTORE PUSH1 0x20 PUSH1 0x4 DUP3 ADD MSTORE PUSH1 0x23 PUSH1 0x24 DUP3 ADD MSTORE PUSH32 0x45524332303A207472616E7366657220746F20746865207A65726F2061646472 PUSH1 0x44 DUP3 ADD MSTORE PUSH3 0x657373 PUSH1 0xE8 SHL PUSH1 0x64 DUP3 ADD MSTORE PUSH1 0x84 ADD PUSH2 0x7FA JUMP JUMPDEST PUSH1 0x1 PUSH1 0x1 PUSH1 0xA0 SHL SUB DUP4 AND PUSH1 0x0 SWAP1 DUP2 MSTORE PUSH1 0x33 PUSH1 0x20 MSTORE PUSH1 0x40 SWAP1 KECCAK256 SLOAD DUP2 DUP2 LT ISZERO PUSH2 0x24B9 JUMPI PUSH1 0x40 MLOAD PUSH3 0x461BCD PUSH1 0xE5 SHL DUP2 MSTORE PUSH1 0x20 PUSH1 0x4 DUP3 ADD MSTORE PUSH1 0x26 PUSH1 0x24 DUP3 ADD MSTORE PUSH32 0x45524332303A207472616E7366657220616D6F756E7420657863656564732062 PUSH1 0x44 DUP3 ADD MSTORE PUSH6 0x616C616E6365 PUSH1 0xD0 SHL PUSH1 0x64 DUP3 ADD MSTORE PUSH1 0x84 ADD PUSH2 0x7FA JUMP JUMPDEST PUSH1 0x1 PUSH1 0x1 PUSH1 0xA0 SHL SUB DUP1 DUP6 AND PUSH1 0x0 DUP2 DUP2 MSTORE PUSH1 0x33 PUSH1 0x20 MSTORE PUSH1 0x40 DUP1 DUP3 KECCAK256 DUP7 DUP7 SUB SWAP1 SSTORE SWAP3 DUP7 AND DUP1 DUP3 MSTORE SWAP1 DUP4 SWAP1 KECCAK256 DUP1 SLOAD DUP7 ADD SWAP1 SSTORE SWAP2 MLOAD PUSH32 0xDDF252AD1BE2C89B69C2B068FC378DAA952BA7F163C4A11628F55A4DF523B3EF SWAP1 PUSH2 0x2519 SWAP1 DUP7 DUP2 MSTORE PUSH1 0x20 ADD SWAP1 JUMP JUMPDEST PUSH1 0x40 MLOAD DUP1 SWAP2 SUB SWAP1 LOG3 PUSH2 0x11DB JUMP JUMPDEST PUSH1 0x0 PUSH32 0x8B73C3C69BB8FE3D512ECC4CF759CC79239F7B179B0FFACAA9A75D522B39400F PUSH2 0x2551 PUSH2 0x2962 JUMP JUMPDEST PUSH2 0x2559 PUSH2 0x29BB JUMP JUMPDEST PUSH1 0x40 DUP1 MLOAD PUSH1 0x20 DUP2 ADD SWAP5 SWAP1 SWAP5 MSTORE DUP4 ADD SWAP2 SWAP1 SWAP2 MSTORE PUSH1 0x60 DUP3 ADD MSTORE CHAINID PUSH1 0x80 DUP3 ADD MSTORE ADDRESS PUSH1 0xA0 DUP3 ADD MSTORE PUSH1 0xC0 ADD PUSH1 0x40 MLOAD PUSH1 0x20 DUP2 DUP4 SUB SUB DUP2 MSTORE SWAP1 PUSH1 0x40 MSTORE DUP1 MLOAD SWAP1 PUSH1 0x20 ADD KECCAK256 SWAP1 POP SWAP1 JUMP JUMPDEST PUSH1 0x1 PUSH1 0x1 PUSH1 0xA0 SHL SUB DUP2 AND EXTCODESIZE PUSH2 0x2607 JUMPI PUSH1 0x40 MLOAD PUSH3 0x461BCD PUSH1 0xE5 SHL DUP2 MSTORE PUSH1 0x20 PUSH1 0x4 DUP3 ADD MSTORE PUSH1 0x2D PUSH1 0x24 DUP3 ADD MSTORE PUSH32 0x455243313936373A206E657720696D706C656D656E746174696F6E206973206E PUSH1 0x44 DUP3 ADD MSTORE PUSH13 0x1BDD08184818DBDB9D1C9858DD PUSH1 0x9A SHL PUSH1 0x64 DUP3 ADD MSTORE PUSH1 0x84 ADD PUSH2 0x7FA JUMP JUMPDEST PUSH1 0x0 DUP1 MLOAD PUSH1 0x20 PUSH2 0x32FB DUP4 CODECOPY DUP2 MLOAD SWAP2 MSTORE DUP1 SLOAD PUSH1 0x1 PUSH1 0x1 PUSH1 0xA0 SHL SUB NOT AND PUSH1 0x1 PUSH1 0x1 PUSH1 0xA0 SHL SUB SWAP3 SWAP1 SWAP3 AND SWAP2 SWAP1 SWAP2 OR SWAP1 SSTORE JUMP JUMPDEST PUSH2 0x263F DUP4 PUSH2 0x29EC JUMP JUMPDEST PUSH1 0x0 DUP3 MLOAD GT DUP1 PUSH2 0x264C JUMPI POP DUP1 JUMPDEST ISZERO PUSH2 0x1BA2 JUMPI PUSH2 0x11DB DUP4 DUP4 PUSH2 0x2A2C JUMP JUMPDEST PUSH1 0x0 PUSH2 0x9D3 DUP3 DUP5 PUSH2 0x300E JUMP JUMPDEST PUSH1 0x0 SLOAD PUSH2 0x100 SWAP1 DIV PUSH1 0xFF AND PUSH2 0x268E JUMPI PUSH1 0x40 MLOAD PUSH3 0x461BCD PUSH1 0xE5 SHL DUP2 MSTORE PUSH1 0x4 ADD PUSH2 0x7FA SWAP1 PUSH2 0x316D JUMP JUMPDEST PUSH1 0x36 PUSH2 0x269A DUP4 DUP3 PUSH2 0x3208 JUMP JUMPDEST POP PUSH1 0x37 PUSH2 0x1BA2 DUP3 DUP3 PUSH2 0x3208 JUMP JUMPDEST PUSH1 0x0 SLOAD PUSH2 0x100 SWAP1 DIV PUSH1 0xFF AND PUSH2 0x26CE JUMPI PUSH1 0x40 MLOAD PUSH3 0x461BCD PUSH1 0xE5 SHL DUP2 MSTORE PUSH1 0x4 ADD PUSH2 0x7FA SWAP1 PUSH2 0x316D JUMP JUMPDEST PUSH1 0x99 PUSH2 0x26DA DUP4 DUP3 PUSH2 0x3208 JUMP JUMPDEST POP PUSH1 0x9A PUSH2 0x26E7 DUP3 DUP3 PUSH2 0x3208 JUMP JUMPDEST POP POP PUSH1 0x0 PUSH1 0x97 DUP2 SWAP1 SSTORE PUSH1 0x98 SSTORE POP JUMP JUMPDEST PUSH1 0x0 SLOAD PUSH2 0x100 SWAP1 DIV PUSH1 0xFF AND PUSH2 0x271D JUMPI PUSH1 0x40 MLOAD PUSH3 0x461BCD PUSH1 0xE5 SHL DUP2 MSTORE PUSH1 0x4 ADD PUSH2 0x7FA SWAP1 PUSH2 0x316D JUMP JUMPDEST PUSH1 0x1 PUSH1 0xFE SSTORE JUMP JUMPDEST PUSH1 0x0 SLOAD PUSH2 0x100 SWAP1 DIV PUSH1 0xFF AND PUSH2 0x274B JUMPI PUSH1 0x40 MLOAD PUSH3 0x461BCD PUSH1 0xE5 SHL DUP2 MSTORE PUSH1 0x4 ADD PUSH2 0x7FA SWAP1 PUSH2 0x316D JUMP JUMPDEST PUSH2 0xD77 CALLER PUSH2 0x1EB8 JUMP JUMPDEST PUSH1 0x0 DUP1 PUSH32 0x7FFFFFFFFFFFFFFFFFFFFFFFFFFFFFFF5D576E7357A4501DDFE92F46681B20A0 DUP4 GT ISZERO PUSH2 0x278B JUMPI POP PUSH1 0x0 SWAP1 POP PUSH1 0x3 PUSH2 0x280F JUMP JUMPDEST PUSH1 0x40 DUP1 MLOAD PUSH1 0x0 DUP1 DUP3 MSTORE PUSH1 0x20 DUP3 ADD DUP1 DUP5 MSTORE DUP10 SWAP1 MSTORE PUSH1 0xFF DUP9 AND SWAP3 DUP3 ADD SWAP3 SWAP1 SWAP3 MSTORE PUSH1 0x60 DUP2 ADD DUP7 SWAP1 MSTORE PUSH1 0x80 DUP2 ADD DUP6 SWAP1 MSTORE PUSH1 0x1 SWAP1 PUSH1 0xA0 ADD PUSH1 0x20 PUSH1 0x40 MLOAD PUSH1 0x20 DUP2 SUB SWAP1 DUP1 DUP5 SUB SWAP1 DUP6 GAS STATICCALL ISZERO DUP1 ISZERO PUSH2 0x27DF JUMPI RETURNDATASIZE PUSH1 0x0 DUP1 RETURNDATACOPY RETURNDATASIZE PUSH1 0x0 REVERT JUMPDEST POP POP PUSH1 0x40 MLOAD PUSH1 0x1F NOT ADD MLOAD SWAP2 POP POP PUSH1 0x1 PUSH1 0x1 PUSH1 0xA0 SHL SUB DUP2 AND PUSH2 0x2808 JUMPI PUSH1 0x0 PUSH1 0x1 SWAP3 POP SWAP3 POP POP PUSH2 0x280F JUMP JUMPDEST SWAP2 POP PUSH1 0x0 SWAP1 POP JUMPDEST SWAP5 POP SWAP5 SWAP3 POP POP POP JUMP JUMPDEST PUSH1 0x0 DUP2 PUSH1 0x4 DUP2 GT ISZERO PUSH2 0x282C JUMPI PUSH2 0x282C PUSH2 0x32C8 JUMP JUMPDEST SUB PUSH2 0x2834 JUMPI POP JUMP JUMPDEST PUSH1 0x1 DUP2 PUSH1 0x4 DUP2 GT ISZERO PUSH2 0x2848 JUMPI PUSH2 0x2848 PUSH2 0x32C8 JUMP JUMPDEST SUB PUSH2 0x2895 JUMPI PUSH1 0x40 MLOAD PUSH3 0x461BCD PUSH1 0xE5 SHL DUP2 MSTORE PUSH1 0x20 PUSH1 0x4 DUP3 ADD MSTORE PUSH1 0x18 PUSH1 0x24 DUP3 ADD MSTORE PUSH32 0x45434453413A20696E76616C6964207369676E61747572650000000000000000 PUSH1 0x44 DUP3 ADD MSTORE PUSH1 0x64 ADD PUSH2 0x7FA JUMP JUMPDEST PUSH1 0x2 DUP2 PUSH1 0x4 DUP2 GT ISZERO PUSH2 0x28A9 JUMPI PUSH2 0x28A9 PUSH2 0x32C8 JUMP JUMPDEST SUB PUSH2 0x28F6 JUMPI PUSH1 0x40 MLOAD PUSH3 0x461BCD PUSH1 0xE5 SHL DUP2 MSTORE PUSH1 0x20 PUSH1 0x4 DUP3 ADD MSTORE PUSH1 0x1F PUSH1 0x24 DUP3 ADD MSTORE PUSH32 0x45434453413A20696E76616C6964207369676E6174757265206C656E67746800 PUSH1 0x44 DUP3 ADD MSTORE PUSH1 0x64 ADD PUSH2 0x7FA JUMP JUMPDEST PUSH1 0x3 DUP2 PUSH1 0x4 DUP2 GT ISZERO PUSH2 0x290A JUMPI PUSH2 0x290A PUSH2 0x32C8 JUMP JUMPDEST SUB PUSH2 0xAC5 JUMPI PUSH1 0x40 MLOAD PUSH3 0x461BCD PUSH1 0xE5 SHL DUP2 MSTORE PUSH1 0x20 PUSH1 0x4 DUP3 ADD MSTORE PUSH1 0x22 PUSH1 0x24 DUP3 ADD MSTORE PUSH32 0x45434453413A20696E76616C6964207369676E6174757265202773272076616C PUSH1 0x44 DUP3 ADD MSTORE PUSH2 0x7565 PUSH1 0xF0 SHL PUSH1 0x64 DUP3 ADD MSTORE PUSH1 0x84 ADD PUSH2 0x7FA JUMP JUMPDEST PUSH1 0x0 DUP1 PUSH2 0x296D PUSH2 0x2140 JUMP JUMPDEST DUP1 MLOAD SWAP1 SWAP2 POP ISZERO PUSH2 0x2984 JUMPI DUP1 MLOAD PUSH1 0x20 SWAP1 SWAP2 ADD KECCAK256 SWAP2 SWAP1 POP JUMP JUMPDEST PUSH1 0x97 SLOAD DUP1 ISZERO PUSH2 0x2993 JUMPI SWAP3 SWAP2 POP POP JUMP JUMPDEST PUSH32 0xC5D2460186F7233C927E7DB2DCC703C0E500B653CA82273B7BFAD8045D85A470 SWAP3 POP POP POP SWAP1 JUMP JUMPDEST PUSH1 0x0 DUP1 PUSH2 0x29C6 PUSH2 0x214F JUMP JUMPDEST DUP1 MLOAD SWAP1 SWAP2 POP ISZERO PUSH2 0x29DD JUMPI DUP1 MLOAD PUSH1 0x20 SWAP1 SWAP2 ADD KECCAK256 SWAP2 SWAP1 POP JUMP JUMPDEST PUSH1 0x98 SLOAD DUP1 ISZERO PUSH2 0x2993 JUMPI SWAP3 SWAP2 POP POP JUMP JUMPDEST PUSH2 0x29F5 DUP2 PUSH2 0x259A JUMP JUMPDEST PUSH1 0x40 MLOAD PUSH1 0x1 PUSH1 0x1 PUSH1 0xA0 SHL SUB DUP3 AND SWAP1 PUSH32 0xBC7CD75A20EE27FD9ADEBAB32041F755214DBC6BFFA90CC0225B39DA2E5C2D3B SWAP1 PUSH1 0x0 SWAP1 LOG2 POP JUMP JUMPDEST PUSH1 0x60 PUSH2 0x9D3 DUP4 DUP4 PUSH1 0x40 MLOAD DUP1 PUSH1 0x60 ADD PUSH1 0x40 MSTORE DUP1 PUSH1 0x27 DUP2 MSTORE PUSH1 0x20 ADD PUSH2 0x331B PUSH1 0x27 SWAP2 CODECOPY PUSH1 0x60 PUSH1 0x0 DUP1 DUP6 PUSH1 0x1 PUSH1 0x1 PUSH1 0xA0 SHL SUB AND DUP6 PUSH1 0x40 MLOAD PUSH2 0x2A69 SWAP2 SWAP1 PUSH2 0x32DE JUMP JUMPDEST PUSH1 0x0 PUSH1 0x40 MLOAD DUP1 DUP4 SUB DUP2 DUP6 GAS DELEGATECALL SWAP2 POP POP RETURNDATASIZE DUP1 PUSH1 0x0 DUP2 EQ PUSH2 0x2AA4 JUMPI PUSH1 0x40 MLOAD SWAP2 POP PUSH1 0x1F NOT PUSH1 0x3F RETURNDATASIZE ADD AND DUP3 ADD PUSH1 0x40 MSTORE RETURNDATASIZE DUP3 MSTORE RETURNDATASIZE PUSH1 0x0 PUSH1 0x20 DUP5 ADD RETURNDATACOPY PUSH2 0x2AA9 JUMP JUMPDEST PUSH1 0x60 SWAP2 POP JUMPDEST POP SWAP2 POP SWAP2 POP PUSH2 0x2ABA DUP7 DUP4 DUP4 DUP8 PUSH2 0x2AC4 JUMP JUMPDEST SWAP7 SWAP6 POP POP POP POP POP POP JUMP JUMPDEST PUSH1 0x60 DUP4 ISZERO PUSH2 0x2B33 JUMPI DUP3 MLOAD PUSH1 0x0 SUB PUSH2 0x2B2C JUMPI PUSH1 0x1 PUSH1 0x1 PUSH1 0xA0 SHL SUB DUP6 AND EXTCODESIZE PUSH2 0x2B2C JUMPI PUSH1 0x40 MLOAD PUSH3 0x461BCD PUSH1 0xE5 SHL DUP2 MSTORE PUSH1 0x20 PUSH1 0x4 DUP3 ADD MSTORE PUSH1 0x1D PUSH1 0x24 DUP3 ADD MSTORE PUSH32 0x416464726573733A2063616C6C20746F206E6F6E2D636F6E7472616374000000 PUSH1 0x44 DUP3 ADD MSTORE PUSH1 0x64 ADD PUSH2 0x7FA JUMP JUMPDEST POP DUP2 PUSH2 0x2373 JUMP JUMPDEST PUSH2 0x2373 DUP4 DUP4 DUP2 MLOAD ISZERO PUSH2 0x2B48 JUMPI DUP2 MLOAD DUP1 DUP4 PUSH1 0x20 ADD REVERT JUMPDEST DUP1 PUSH1 0x40 MLOAD PUSH3 0x461BCD PUSH1 0xE5 SHL DUP2 MSTORE PUSH1 0x4 ADD PUSH2 0x7FA SWAP2 SWAP1 PUSH2 0x2BB2 JUMP JUMPDEST PUSH1 0x0 JUMPDEST DUP4 DUP2 LT ISZERO PUSH2 0x2B7D JUMPI DUP2 DUP2 ADD MLOAD DUP4 DUP3 ADD MSTORE PUSH1 0x20 ADD PUSH2 0x2B65 JUMP JUMPDEST POP POP PUSH1 0x0 SWAP2 ADD MSTORE JUMP JUMPDEST PUSH1 0x0 DUP2 MLOAD DUP1 DUP5 MSTORE PUSH2 0x2B9E DUP2 PUSH1 0x20 DUP7 ADD PUSH1 0x20 DUP7 ADD PUSH2 0x2B62 JUMP JUMPDEST PUSH1 0x1F ADD PUSH1 0x1F NOT AND SWAP3 SWAP1 SWAP3 ADD PUSH1 0x20 ADD SWAP3 SWAP2 POP POP JUMP JUMPDEST PUSH1 0x20 DUP2 MSTORE PUSH1 0x0 PUSH2 0x9D3 PUSH1 0x20 DUP4 ADD DUP5 PUSH2 0x2B86 JUMP JUMPDEST DUP1 CALLDATALOAD PUSH1 0x1 PUSH1 0x1 PUSH1 0xA0 SHL SUB DUP2 AND DUP2 EQ PUSH2 0x2BDC JUMPI PUSH1 0x0 DUP1 REVERT JUMPDEST SWAP2 SWAP1 POP JUMP JUMPDEST PUSH1 0x0 PUSH1 0x20 DUP3 DUP5 SUB SLT ISZERO PUSH2 0x2BF3 JUMPI PUSH1 0x0 DUP1 REVERT JUMPDEST PUSH2 0x9D3 DUP3 PUSH2 0x2BC5 JUMP JUMPDEST PUSH1 0x0 DUP1 PUSH1 0x40 DUP4 DUP6 SUB SLT ISZERO PUSH2 0x2C0F JUMPI PUSH1 0x0 DUP1 REVERT JUMPDEST PUSH2 0x2C18 DUP4 PUSH2 0x2BC5 JUMP JUMPDEST SWAP5 PUSH1 0x20 SWAP4 SWAP1 SWAP4 ADD CALLDATALOAD SWAP4 POP POP POP JUMP JUMPDEST PUSH1 0x0 DUP1 PUSH1 0x0 PUSH1 0x60 DUP5 DUP7 SUB SLT ISZERO PUSH2 0x2C3B JUMPI PUSH1 0x0 DUP1 REVERT JUMPDEST PUSH2 0x2C44 DUP5 PUSH2 0x2BC5 JUMP JUMPDEST SWAP3 POP PUSH2 0x2C52 PUSH1 0x20 DUP6 ADD PUSH2 0x2BC5 JUMP JUMPDEST SWAP2 POP PUSH1 0x40 DUP5 ADD CALLDATALOAD SWAP1 POP SWAP3 POP SWAP3 POP SWAP3 JUMP JUMPDEST PUSH1 0x0 PUSH1 0x20 DUP3 DUP5 SUB SLT ISZERO PUSH2 0x2C74 JUMPI PUSH1 0x0 DUP1 REVERT JUMPDEST POP CALLDATALOAD SWAP2 SWAP1 POP JUMP JUMPDEST PUSH4 0x4E487B71 PUSH1 0xE0 SHL PUSH1 0x0 MSTORE PUSH1 0x41 PUSH1 0x4 MSTORE PUSH1 0x24 PUSH1 0x0 REVERT JUMPDEST PUSH1 0x0 DUP1 PUSH1 0x40 DUP4 DUP6 SUB SLT ISZERO PUSH2 0x2CA4 JUMPI PUSH1 0x0 DUP1 REVERT JUMPDEST PUSH2 0x2CAD DUP4 PUSH2 0x2BC5 JUMP JUMPDEST SWAP2 POP PUSH1 0x20 DUP4 ADD CALLDATALOAD PUSH8 0xFFFFFFFFFFFFFFFF DUP1 DUP3 GT ISZERO PUSH2 0x2CCA JUMPI PUSH1 0x0 DUP1 REVERT JUMPDEST DUP2 DUP6 ADD SWAP2 POP DUP6 PUSH1 0x1F DUP4 ADD SLT PUSH2 0x2CDE JUMPI PUSH1 0x0 DUP1 REVERT JUMPDEST DUP2 CALLDATALOAD DUP2 DUP2 GT ISZERO PUSH2 0x2CF0 JUMPI PUSH2 0x2CF0 PUSH2 0x2C7B JUMP JUMPDEST PUSH1 0x40 MLOAD PUSH1 0x1F DUP3 ADD PUSH1 0x1F NOT SWAP1 DUP2 AND PUSH1 0x3F ADD AND DUP2 ADD SWAP1 DUP4 DUP3 GT DUP2 DUP4 LT OR ISZERO PUSH2 0x2D18 JUMPI PUSH2 0x2D18 PUSH2 0x2C7B JUMP JUMPDEST DUP2 PUSH1 0x40 MSTORE DUP3 DUP2 MSTORE DUP9 PUSH1 0x20 DUP5 DUP8 ADD ADD GT ISZERO PUSH2 0x2D31 JUMPI PUSH1 0x0 DUP1 REVERT JUMPDEST DUP3 PUSH1 0x20 DUP7 ADD PUSH1 0x20 DUP4 ADD CALLDATACOPY PUSH1 0x0 PUSH1 0x20 DUP5 DUP4 ADD ADD MSTORE DUP1 SWAP6 POP POP POP POP POP POP SWAP3 POP SWAP3 SWAP1 POP JUMP JUMPDEST PUSH1 0xFF PUSH1 0xF8 SHL DUP9 AND DUP2 MSTORE PUSH1 0x0 PUSH1 0x20 PUSH1 0xE0 PUSH1 0x20 DUP5 ADD MSTORE PUSH2 0x2D74 PUSH1 0xE0 DUP5 ADD DUP11 PUSH2 0x2B86 JUMP JUMPDEST DUP4 DUP2 SUB PUSH1 0x40 DUP6 ADD MSTORE PUSH2 0x2D86 DUP2 DUP11 PUSH2 0x2B86 JUMP JUMPDEST PUSH1 0x60 DUP6 ADD DUP10 SWAP1 MSTORE PUSH1 0x1 PUSH1 0x1 PUSH1 0xA0 SHL SUB DUP9 AND PUSH1 0x80 DUP7 ADD MSTORE PUSH1 0xA0 DUP6 ADD DUP8 SWAP1 MSTORE DUP5 DUP2 SUB PUSH1 0xC0 DUP7 ADD MSTORE DUP6 MLOAD DUP1 DUP3 MSTORE PUSH1 0x20 DUP1 DUP9 ADD SWAP4 POP SWAP1 SWAP2 ADD SWAP1 PUSH1 0x0 JUMPDEST DUP2 DUP2 LT ISZERO PUSH2 0x2DDA JUMPI DUP4 MLOAD DUP4 MSTORE SWAP3 DUP5 ADD SWAP3 SWAP2 DUP5 ADD SWAP2 PUSH1 0x1 ADD PUSH2 0x2DBE JUMP JUMPDEST POP SWAP1 SWAP13 SWAP12 POP POP POP POP POP POP POP POP POP POP POP POP JUMP JUMPDEST PUSH1 0x0 DUP1 PUSH1 0x0 PUSH1 0x60 DUP5 DUP7 SUB SLT ISZERO PUSH2 0x2E01 JUMPI PUSH1 0x0 DUP1 REVERT JUMPDEST PUSH2 0x2E0A DUP5 PUSH2 0x2BC5 JUMP JUMPDEST SWAP6 PUSH1 0x20 DUP6 ADD CALLDATALOAD SWAP6 POP PUSH1 0x40 SWAP1 SWAP5 ADD CALLDATALOAD SWAP4 SWAP3 POP POP POP JUMP JUMPDEST PUSH1 0x0 DUP1 PUSH1 0x40 DUP4 DUP6 SUB SLT ISZERO PUSH2 0x2E32 JUMPI PUSH1 0x0 DUP1 REVERT JUMPDEST PUSH2 0x2E3B DUP4 PUSH2 0x2BC5 JUMP JUMPDEST SWAP2 POP PUSH1 0x20 DUP4 ADD CALLDATALOAD PUSH2 0xFFFF DUP2 AND DUP2 EQ PUSH2 0x2E52 JUMPI PUSH1 0x0 DUP1 REVERT JUMPDEST DUP1 SWAP2 POP POP SWAP3 POP SWAP3 SWAP1 POP JUMP JUMPDEST PUSH1 0x0 DUP1 PUSH1 0x0 DUP1 PUSH1 0x0 DUP1 PUSH1 0x0 PUSH1 0xE0 DUP9 DUP11 SUB SLT ISZERO PUSH2 0x2E78 JUMPI PUSH1 0x0 DUP1 REVERT JUMPDEST PUSH2 0x2E81 DUP9 PUSH2 0x2BC5 JUMP JUMPDEST SWAP7 POP PUSH2 0x2E8F PUSH1 0x20 DUP10 ADD PUSH2 0x2BC5 JUMP JUMPDEST SWAP6 POP PUSH1 0x40 DUP9 ADD CALLDATALOAD SWAP5 POP PUSH1 0x60 DUP9 ADD CALLDATALOAD SWAP4 POP PUSH1 0x80 DUP9 ADD CALLDATALOAD PUSH1 0xFF DUP2 AND DUP2 EQ PUSH2 0x2EB3 JUMPI PUSH1 0x0 DUP1 REVERT JUMPDEST SWAP7 SWAP10 SWAP6 SWAP9 POP SWAP4 SWAP7 SWAP3 SWAP6 SWAP5 PUSH1 0xA0 DUP5 ADD CALLDATALOAD SWAP5 POP PUSH1 0xC0 SWAP1 SWAP4 ADD CALLDATALOAD SWAP3 SWAP2 POP POP JUMP JUMPDEST PUSH1 0x0 DUP1 PUSH1 0x40 DUP4 DUP6 SUB SLT ISZERO PUSH2 0x2EE3 JUMPI PUSH1 0x0 DUP1 REVERT JUMPDEST PUSH2 0x2EEC DUP4 PUSH2 0x2BC5 JUMP JUMPDEST SWAP2 POP PUSH2 0x2EFA PUSH1 0x20 DUP5 ADD PUSH2 0x2BC5 JUMP JUMPDEST SWAP1 POP SWAP3 POP SWAP3 SWAP1 POP JUMP JUMPDEST PUSH1 0x1 DUP2 DUP2 SHR SWAP1 DUP3 AND DUP1 PUSH2 0x2F17 JUMPI PUSH1 0x7F DUP3 AND SWAP2 POP JUMPDEST PUSH1 0x20 DUP3 LT DUP2 SUB PUSH2 0x231E JUMPI PUSH4 0x4E487B71 PUSH1 0xE0 SHL PUSH1 0x0 MSTORE PUSH1 0x22 PUSH1 0x4 MSTORE PUSH1 0x24 PUSH1 0x0 REVERT JUMPDEST PUSH1 0x20 DUP1 DUP3 MSTORE PUSH1 0xF SWAP1 DUP3 ADD MSTORE PUSH15 0x151C985B9CD9995C8819985A5B1959 PUSH1 0x8A SHL PUSH1 0x40 DUP3 ADD MSTORE PUSH1 0x60 ADD SWAP1 JUMP JUMPDEST PUSH1 0x20 DUP1 DUP3 MSTORE PUSH1 0x2C SWAP1 DUP3 ADD MSTORE PUSH32 0x46756E6374696F6E206D7573742062652063616C6C6564207468726F75676820 PUSH1 0x40 DUP3 ADD MSTORE PUSH12 0x19195B1959D85D1958D85B1B PUSH1 0xA2 SHL PUSH1 0x60 DUP3 ADD MSTORE PUSH1 0x80 ADD SWAP1 JUMP JUMPDEST PUSH1 0x20 DUP1 DUP3 MSTORE PUSH1 0x2C SWAP1 DUP3 ADD MSTORE PUSH32 0x46756E6374696F6E206D7573742062652063616C6C6564207468726F75676820 PUSH1 0x40 DUP3 ADD MSTORE PUSH12 0x6163746976652070726F7879 PUSH1 0xA0 SHL PUSH1 0x60 DUP3 ADD MSTORE PUSH1 0x80 ADD SWAP1 JUMP JUMPDEST PUSH4 0x4E487B71 PUSH1 0xE0 SHL PUSH1 0x0 MSTORE PUSH1 0x11 PUSH1 0x4 MSTORE PUSH1 0x24 PUSH1 0x0 REVERT JUMPDEST DUP1 DUP3 ADD DUP1 DUP3 GT ISZERO PUSH2 0x8DA JUMPI PUSH2 0x8DA PUSH2 0x2FF8 JUMP JUMPDEST PUSH1 0x1 DUP2 DUP2 JUMPDEST DUP1 DUP6 GT ISZERO PUSH2 0x305C JUMPI DUP2 PUSH1 0x0 NOT DIV DUP3 GT ISZERO PUSH2 0x3042 JUMPI PUSH2 0x3042 PUSH2 0x2FF8 JUMP JUMPDEST DUP1 DUP6 AND ISZERO PUSH2 0x304F JUMPI SWAP2 DUP2 MUL SWAP2 JUMPDEST SWAP4 DUP5 SHR SWAP4 SWAP1 DUP1 MUL SWAP1 PUSH2 0x3026 JUMP JUMPDEST POP SWAP3 POP SWAP3 SWAP1 POP JUMP JUMPDEST PUSH1 0x0 DUP3 PUSH2 0x3073 JUMPI POP PUSH1 0x1 PUSH2 0x8DA JUMP JUMPDEST DUP2 PUSH2 0x3080 JUMPI POP PUSH1 0x0 PUSH2 0x8DA JUMP JUMPDEST DUP2 PUSH1 0x1 DUP2 EQ PUSH2 0x3096 JUMPI PUSH1 0x2 DUP2 EQ PUSH2 0x30A0 JUMPI PUSH2 0x30BC JUMP JUMPDEST PUSH1 0x1 SWAP2 POP POP PUSH2 0x8DA JUMP JUMPDEST PUSH1 0xFF DUP5 GT ISZERO PUSH2 0x30B1 JUMPI PUSH2 0x30B1 PUSH2 0x2FF8 JUMP JUMPDEST POP POP PUSH1 0x1 DUP3 SHL PUSH2 0x8DA JUMP JUMPDEST POP PUSH1 0x20 DUP4 LT PUSH2 0x133 DUP4 LT AND PUSH1 0x4E DUP5 LT PUSH1 0xB DUP5 LT AND OR ISZERO PUSH2 0x30DF JUMPI POP DUP2 DUP2 EXP PUSH2 0x8DA JUMP JUMPDEST PUSH2 0x30E9 DUP4 DUP4 PUSH2 0x3021 JUMP JUMPDEST DUP1 PUSH1 0x0 NOT DIV DUP3 GT ISZERO PUSH2 0x30FD JUMPI PUSH2 0x30FD PUSH2 0x2FF8 JUMP JUMPDEST MUL SWAP4 SWAP3 POP POP POP JUMP JUMPDEST PUSH1 0x0 PUSH2 0x9D3 PUSH1 0xFF DUP5 AND DUP4 PUSH2 0x3064 JUMP JUMPDEST DUP1 DUP3 MUL DUP2 ISZERO DUP3 DUP3 DIV DUP5 EQ OR PUSH2 0x8DA JUMPI PUSH2 0x8DA PUSH2 0x2FF8 JUMP JUMPDEST PUSH4 0x4E487B71 PUSH1 0xE0 SHL PUSH1 0x0 MSTORE PUSH1 0x32 PUSH1 0x4 MSTORE PUSH1 0x24 PUSH1 0x0 REVERT JUMPDEST PUSH1 0x0 PUSH1 0x20 DUP3 DUP5 SUB SLT ISZERO PUSH2 0x3153 JUMPI PUSH1 0x0 DUP1 REVERT JUMPDEST POP MLOAD SWAP2 SWAP1 POP JUMP JUMPDEST DUP2 DUP2 SUB DUP2 DUP2 GT ISZERO PUSH2 0x8DA JUMPI PUSH2 0x8DA PUSH2 0x2FF8 JUMP JUMPDEST PUSH1 0x20 DUP1 DUP3 MSTORE PUSH1 0x2B SWAP1 DUP3 ADD MSTORE PUSH32 0x496E697469616C697A61626C653A20636F6E7472616374206973206E6F742069 PUSH1 0x40 DUP3 ADD MSTORE PUSH11 0x6E697469616C697A696E67 PUSH1 0xA8 SHL PUSH1 0x60 DUP3 ADD MSTORE PUSH1 0x80 ADD SWAP1 JUMP JUMPDEST PUSH1 0x1F DUP3 GT ISZERO PUSH2 0x1BA2 JUMPI PUSH1 0x0 DUP2 PUSH1 0x0 MSTORE PUSH1 0x20 PUSH1 0x0 KECCAK256 PUSH1 0x1F DUP6 ADD PUSH1 0x5 SHR DUP2 ADD PUSH1 0x20 DUP7 LT ISZERO PUSH2 0x31E1 JUMPI POP DUP1 JUMPDEST PUSH1 0x1F DUP6 ADD PUSH1 0x5 SHR DUP3 ADD SWAP2 POP JUMPDEST DUP2 DUP2 LT ISZERO PUSH2 0x3200 JUMPI DUP3 DUP2 SSTORE PUSH1 0x1 ADD PUSH2 0x31ED JUMP JUMPDEST POP POP POP POP POP POP JUMP JUMPDEST DUP2 MLOAD PUSH8 0xFFFFFFFFFFFFFFFF DUP2 GT ISZERO PUSH2 0x3222 JUMPI PUSH2 0x3222 PUSH2 0x2C7B JUMP JUMPDEST PUSH2 0x3236 DUP2 PUSH2 0x3230 DUP5 SLOAD PUSH2 0x2F03 JUMP JUMPDEST DUP5 PUSH2 0x31B8 JUMP JUMPDEST PUSH1 0x20 DUP1 PUSH1 0x1F DUP4 GT PUSH1 0x1 DUP2 EQ PUSH2 0x326B JUMPI PUSH1 0x0 DUP5 ISZERO PUSH2 0x3253 JUMPI POP DUP6 DUP4 ADD MLOAD JUMPDEST PUSH1 0x0 NOT PUSH1 0x3 DUP7 SWAP1 SHL SHR NOT AND PUSH1 0x1 DUP6 SWAP1 SHL OR DUP6 SSTORE PUSH2 0x3200 JUMP JUMPDEST PUSH1 0x0 DUP6 DUP2 MSTORE PUSH1 0x20 DUP2 KECCAK256 PUSH1 0x1F NOT DUP7 AND SWAP2 JUMPDEST DUP3 DUP2 LT ISZERO PUSH2 0x329A JUMPI DUP9 DUP7 ADD MLOAD DUP3 SSTORE SWAP5 DUP5 ADD SWAP5 PUSH1 0x1 SWAP1 SWAP2 ADD SWAP1 DUP5 ADD PUSH2 0x327B JUMP JUMPDEST POP DUP6 DUP3 LT ISZERO PUSH2 0x32B8 JUMPI DUP8 DUP6 ADD MLOAD PUSH1 0x0 NOT PUSH1 0x3 DUP9 SWAP1 SHL PUSH1 0xF8 AND SHR NOT AND DUP2 SSTORE JUMPDEST POP POP POP POP POP PUSH1 0x1 SWAP1 DUP2 SHL ADD SWAP1 SSTORE POP JUMP JUMPDEST PUSH4 0x4E487B71 PUSH1 0xE0 SHL PUSH1 0x0 MSTORE PUSH1 0x21 PUSH1 0x4 MSTORE PUSH1 0x24 PUSH1 0x0 REVERT JUMPDEST PUSH1 0x0 DUP3 MLOAD PUSH2 0x32F0 DUP2 DUP5 PUSH1 0x20 DUP8 ADD PUSH2 0x2B62 JUMP JUMPDEST SWAP2 SWAP1 SWAP2 ADD SWAP3 SWAP2 POP POP JUMP INVALID CALLDATASIZE ADDMOD SWAP5 LOG1 EXTCODESIZE LOG1 LOG3 0x21 MOD PUSH8 0xC828492DB98DCA3E KECCAK256 PUSH23 0xCC3735A920A3CA505D382BBC416464726573733A206C6F PUSH24 0x2D6C6576656C2064656C65676174652063616C6C20666169 PUSH13 0x6564A26469706673582212200C 0xC8 EQ 0x4F SWAP15 0x49 PUSH12 0x2200401656E12BF324CAA1FD 0xA5 0xD6 0xE5 0xC7 PUSH19 0x47274476A097388764736F6C63430008160033 "},"methodIdentifiers":{"DOMAIN_SEPARATOR()":"3644e515","addLockTransferAdmin(address)":"8ce81525","allowance(address,address)":"dd62ed3e","approve(address,uint256)":"095ea7b3","balanceOf(address)":"70a08231","burn(uint256)":"42966c68","burnFrom(address,uint256)":"79cc6790","canTransferAmount(address,uint256)":"b6862f90","canUpgradeAddress()":"75dfe221","decimals()":"313ce567","decreaseAllowance(address,uint256)":"a457c2d7","disableContractUpgrade()":"3bfff140","disableUpgrade()":"67fc9138","eip712Domain()":"84b0196e","getAvailableBalance(address)":"6c24a76f","getLockAmountAndUnlockAt(address,uint16)":"cf93340d","increaseAllowance(address,uint256)":"39509351","initialize()":"8129fc1c","isLockActive()":"cfa6e911","lockTokensDisable()":"f5adb258","lockTokensEnable()":"fcc513ed","lockTransferAdmins(address)":"d86f0fae","name()":"06fdde03","nonces(address)":"7ecebe00","owner()":"8da5cb5b","permit(address,address,uint256,uint256,uint8,bytes32,bytes32)":"d505accf","proxiableUUID()":"52d1902d","removeLockTransferAdmin(address)":"08c49755","renounceOwnership()":"715018a6","setUpgradePermission(address)":"4a59e7bf","symbol()":"95d89b41","totalSupply()":"18160ddd","transfer(address,uint256)":"a9059cbb","transferAndLock(address,uint256,uint256)":"84d5d944","transferFrom(address,address,uint256)":"23b872dd","transferOwnership(address)":"f2fde38b","upgradeTo(address)":"3659cfe6","upgradeToAndCall(address,bytes)":"4f1ef286","version()":"54fd4d50"}},"storageLayout":{"storage":[{"astId":530,"contract":"contracts/XAIAgentDRC20Upgradeable.sol:XAIAgentDRC20Upgradeable","label":"_initialized","offset":0,"slot":"0","type":"t_uint8"},{"astId":533,"contract":"contracts/XAIAgentDRC20Upgradeable.sol:XAIAgentDRC20Upgradeable","label":"_initializing","offset":1,"slot":"0","type":"t_bool"},{"astId":2306,"contract":"contracts/XAIAgentDRC20Upgradeable.sol:XAIAgentDRC20Upgradeable","label":"__gap","offset":0,"slot":"1","type":"t_array(t_uint256)50_storage"},{"astId":934,"contract":"contracts/XAIAgentDRC20Upgradeable.sol:XAIAgentDRC20Upgradeable","label":"_balances","offset":0,"slot":"51","type":"t_mapping(t_address,t_uint256)"},{"astId":940,"contract":"contracts/XAIAgentDRC20Upgradeable.sol:XAIAgentDRC20Upgradeable","label":"_allowances","offset":0,"slot":"52","type":"t_mapping(t_address,t_mapping(t_address,t_uint256))"},{"astId":942,"contract":"contracts/XAIAgentDRC20Upgradeable.sol:XAIAgentDRC20Upgradeable","label":"_totalSupply","offset":0,"slot":"53","type":"t_uint256"},{"astId":944,"contract":"contracts/XAIAgentDRC20Upgradeable.sol:XAIAgentDRC20Upgradeable","label":"_name","offset":0,"slot":"54","type":"t_string_storage"},{"astId":946,"contract":"contracts/XAIAgentDRC20Upgradeable.sol:XAIAgentDRC20Upgradeable","label":"_symbol","offset":0,"slot":"55","type":"t_string_storage"},{"astId":1526,"contract":"contracts/XAIAgentDRC20Upgradeable.sol:XAIAgentDRC20Upgradeable","label":"__gap","offset":0,"slot":"56","type":"t_array(t_uint256)45_storage"},{"astId":1669,"contract":"contracts/XAIAgentDRC20Upgradeable.sol:XAIAgentDRC20Upgradeable","label":"__gap","offset":0,"slot":"101","type":"t_array(t_uint256)50_storage"},{"astId":3105,"contract":"contracts/XAIAgentDRC20Upgradeable.sol:XAIAgentDRC20Upgradeable","label":"_hashedName","offset":0,"slot":"151","type":"t_bytes32"},{"astId":3108,"contract":"contracts/XAIAgentDRC20Upgradeable.sol:XAIAgentDRC20Upgradeable","label":"_hashedVersion","offset":0,"slot":"152","type":"t_bytes32"},{"astId":3110,"contract":"contracts/XAIAgentDRC20Upgradeable.sol:XAIAgentDRC20Upgradeable","label":"_name","offset":0,"slot":"153","type":"t_string_storage"},{"astId":3112,"contract":"contracts/XAIAgentDRC20Upgradeable.sol:XAIAgentDRC20Upgradeable","label":"_version","offset":0,"slot":"154","type":"t_string_storage"},{"astId":3370,"contract":"contracts/XAIAgentDRC20Upgradeable.sol:XAIAgentDRC20Upgradeable","label":"__gap","offset":0,"slot":"155","type":"t_array(t_uint256)48_storage"},{"astId":1697,"contract":"contracts/XAIAgentDRC20Upgradeable.sol:XAIAgentDRC20Upgradeable","label":"_nonces","offset":0,"slot":"203","type":"t_mapping(t_address,t_struct(Counter)2313_storage)"},{"astId":1705,"contract":"contracts/XAIAgentDRC20Upgradeable.sol:XAIAgentDRC20Upgradeable","label":"_PERMIT_TYPEHASH_DEPRECATED_SLOT","offset":0,"slot":"204","type":"t_bytes32"},{"astId":1861,"contract":"contracts/XAIAgentDRC20Upgradeable.sol:XAIAgentDRC20Upgradeable","label":"__gap","offset":0,"slot":"205","type":"t_array(t_uint256)49_storage"},{"astId":844,"contract":"contracts/XAIAgentDRC20Upgradeable.sol:XAIAgentDRC20Upgradeable","label":"_status","offset":0,"slot":"254","type":"t_uint256"},{"astId":913,"contract":"contracts/XAIAgentDRC20Upgradeable.sol:XAIAgentDRC20Upgradeable","label":"__gap","offset":0,"slot":"255","type":"t_array(t_uint256)49_storage"},{"astId":11,"contract":"contracts/XAIAgentDRC20Upgradeable.sol:XAIAgentDRC20Upgradeable","label":"_owner","offset":0,"slot":"304","type":"t_address"},{"astId":131,"contract":"contracts/XAIAgentDRC20Upgradeable.sol:XAIAgentDRC20Upgradeable","label":"__gap","offset":0,"slot":"305","type":"t_array(t_uint256)49_storage"},{"astId":512,"contract":"contracts/XAIAgentDRC20Upgradeable.sol:XAIAgentDRC20Upgradeable","label":"__gap","offset":0,"slot":"354","type":"t_array(t_uint256)50_storage"},{"astId":828,"contract":"contracts/XAIAgentDRC20Upgradeable.sol:XAIAgentDRC20Upgradeable","label":"__gap","offset":0,"slot":"404","type":"t_array(t_uint256)50_storage"},{"astId":4686,"contract":"contracts/XAIAgentDRC20Upgradeable.sol:XAIAgentDRC20Upgradeable","label":"lockTransferAdmins","offset":0,"slot":"454","type":"t_mapping(t_address,t_bool)"},{"astId":4688,"contract":"contracts/XAIAgentDRC20Upgradeable.sol:XAIAgentDRC20Upgradeable","label":"canUpgradeAddress","offset":0,"slot":"455","type":"t_address"},{"astId":4690,"contract":"contracts/XAIAgentDRC20Upgradeable.sol:XAIAgentDRC20Upgradeable","label":"disableUpgrade","offset":20,"slot":"455","type":"t_bool"},{"astId":4692,"contract":"contracts/XAIAgentDRC20Upgradeable.sol:XAIAgentDRC20Upgradeable","label":"isLockActive","offset":21,"slot":"455","type":"t_bool"},{"astId":4698,"contract":"contracts/XAIAgentDRC20Upgradeable.sol:XAIAgentDRC20Upgradeable","label":"walletLockTimestamp","offset":0,"slot":"456","type":"t_mapping(t_address,t_array(t_struct(LockInfo)4705_storage)dyn_storage)"}],"types":{"t_address":{"encoding":"inplace","label":"address","numberOfBytes":"20"},"t_array(t_struct(LockInfo)4705_storage)dyn_storage":{"base":"t_struct(LockInfo)4705_storage","encoding":"dynamic_array","label":"struct XAIAgentDRC20Upgradeable.LockInfo[]","numberOfBytes":"32"},"t_array(t_uint256)45_storage":{"base":"t_uint256","encoding":"inplace","label":"uint256[45]","numberOfBytes":"1440"},"t_array(t_uint256)48_storage":{"base":"t_uint256","encoding":"inplace","label":"uint256[48]","numberOfBytes":"1536"},"t_array(t_uint256)49_storage":{"base":"t_uint256","encoding":"inplace","label":"uint256[49]","numberOfBytes":"1568"},"t_array(t_uint256)50_storage":{"base":"t_uint256","encoding":"inplace","label":"uint256[50]","numberOfBytes":"1600"},"t_bool":{"encoding":"inplace","label":"bool","numberOfBytes":"1"},"t_bytes32":{"encoding":"inplace","label":"bytes32","numberOfBytes":"32"},"t_mapping(t_address,t_array(t_struct(LockInfo)4705_storage)dyn_storage)":{"encoding":"mapping","key":"t_address","label":"mapping(address => struct XAIAgentDRC20Upgradeable.LockInfo[])","numberOfBytes":"32","value":"t_array(t_struct(LockInfo)4705_storage)dyn_storage"},"t_mapping(t_address,t_bool)":{"encoding":"mapping","key":"t_address","label":"mapping(address => bool)","numberOfBytes":"32","value":"t_bool"},"t_mapping(t_address,t_mapping(t_address,t_uint256))":{"encoding":"mapping","key":"t_address","label":"mapping(address => mapping(address => uint256))","numberOfBytes":"32","value":"t_mapping(t_address,t_uint256)"},"t_mapping(t_address,t_struct(Counter)2313_storage)":{"encoding":"mapping","key":"t_address","label":"mapping(address => struct CountersUpgradeable.Counter)","numberOfBytes":"32","value":"t_struct(Counter)2313_storage"},"t_mapping(t_address,t_uint256)":{"encoding":"mapping","key":"t_address","label":"mapping(address => uint256)","numberOfBytes":"32","value":"t_uint256"},"t_string_storage":{"encoding":"bytes","label":"string","numberOfBytes":"32"},"t_struct(Counter)2313_storage":{"encoding":"inplace","label":"struct CountersUpgradeable.Counter","members":[{"astId":2312,"contract":"contracts/XAIAgentDRC20Upgradeable.sol:XAIAgentDRC20Upgradeable","label":"_value","offset":0,"slot":"0","type":"t_uint256"}],"numberOfBytes":"32"},"t_struct(LockInfo)4705_storage":{"encoding":"inplace","label":"struct XAIAgentDRC20Upgradeable.LockInfo","members":[{"astId":4700,"contract":"contracts/XAIAgentDRC20Upgradeable.sol:XAIAgentDRC20Upgradeable","label":"lockedAt","offset":0,"slot":"0","type":"t_uint256"},{"astId":4702,"contract":"contracts/XAIAgentDRC20Upgradeable.sol:XAIAgentDRC20Upgradeable","label":"lockedAmount","offset":0,"slot":"1","type":"t_uint256"},{"astId":4704,"contract":"contracts/XAIAgentDRC20Upgradeable.sol:XAIAgentDRC20Upgradeable","label":"unlockAt","offset":0,"slot":"2","type":"t_uint256"}],"numberOfBytes":"96"},"t_uint256":{"encoding":"inplace","label":"uint256","numberOfBytes":"32"},"t_uint8":{"encoding":"inplace","label":"uint8","numberOfBytes":"1"}}}}}}