{
  "_format": "hh-sol-artifact-1",
  "contractName": "XAIAgentDRC20Upgradeable",
  "sourceName": "contracts/XAIAgentDRC20Upgradeable.sol",
  "abi": [
    {
      "inputs": [],
      "stateMutability": "nonpayable",
      "type": "constructor"
    },
    {
      "anonymous": false,
      "inputs": [
        {
          "indexed": false,
          "internalType": "address",
          "name": "previousAdmin",
          "type": "address"
        },
        {
          "indexed": false,
          "internalType": "address",
          "name": "newAdmin",
          "type": "address"
        }
      ],
      "name": "AdminChanged",
      "type": "event"
    },
    {
      "anonymous": false,
      "inputs": [
        {
          "indexed": true,
          "internalType": "address",
          "name": "owner",
          "type": "address"
        },
        {
          "indexed": true,
          "internalType": "address",
          "name": "spender",
          "type": "address"
        },
        {
          "indexed": false,
          "internalType": "uint256",
          "name": "value",
          "type": "uint256"
        }
      ],
      "name": "Approval",
      "type": "event"
    },
    {
      "anonymous": false,
      "inputs": [
        {
          "indexed": true,
          "internalType": "address",
          "name": "beacon",
          "type": "address"
        }
      ],
      "name": "BeaconUpgraded",
      "type": "event"
    },
    {
      "anonymous": false,
      "inputs": [],
      "name": "EIP712DomainChanged",
      "type": "event"
    },
    {
      "anonymous": false,
      "inputs": [
        {
          "indexed": false,
          "internalType": "uint8",
          "name": "version",
          "type": "uint8"
        }
      ],
      "name": "Initialized",
      "type": "event"
    },
    {
      "anonymous": false,
      "inputs": [
        {
          "indexed": true,
          "internalType": "address",
          "name": "previousOwner",
          "type": "address"
        },
        {
          "indexed": true,
          "internalType": "address",
          "name": "newOwner",
          "type": "address"
        }
      ],
      "name": "OwnershipTransferred",
      "type": "event"
    },
    {
      "anonymous": false,
      "inputs": [
        {
          "indexed": true,
          "internalType": "address",
          "name": "wallet",
          "type": "address"
        },
        {
          "indexed": false,
          "internalType": "uint256",
          "name": "amount",
          "type": "uint256"
        },
        {
          "indexed": false,
          "internalType": "uint256",
          "name": "unlockTime",
          "type": "uint256"
        }
      ],
      "name": "TokensLocked",
      "type": "event"
    },
    {
      "anonymous": false,
      "inputs": [
        {
          "indexed": true,
          "internalType": "address",
          "name": "from",
          "type": "address"
        },
        {
          "indexed": true,
          "internalType": "address",
          "name": "to",
          "type": "address"
        },
        {
          "indexed": false,
          "internalType": "uint256",
          "name": "value",
          "type": "uint256"
        }
      ],
      "name": "Transfer",
      "type": "event"
    },
    {
      "anonymous": false,
      "inputs": [
        {
          "indexed": true,
          "internalType": "address",
          "name": "implementation",
          "type": "address"
        }
      ],
      "name": "Upgraded",
      "type": "event"
    },
    {
      "inputs": [],
      "name": "DOMAIN_SEPARATOR",
      "outputs": [
        {
          "internalType": "bytes32",
          "name": "",
          "type": "bytes32"
        }
      ],
      "stateMutability": "view",
      "type": "function"
    },
    {
      "inputs": [],
      "name": "PERMANENT_LOCK_DURATION",
      "outputs": [
        {
          "internalType": "uint256",
          "name": "",
          "type": "uint256"
        }
      ],
      "stateMutability": "view",
      "type": "function"
    },
    {
      "inputs": [
        {
          "internalType": "address",
          "name": "owner",
          "type": "address"
        },
        {
          "internalType": "address",
          "name": "spender",
          "type": "address"
        }
      ],
      "name": "allowance",
      "outputs": [
        {
          "internalType": "uint256",
          "name": "",
          "type": "uint256"
        }
      ],
      "stateMutability": "view",
      "type": "function"
    },
    {
      "inputs": [
        {
          "internalType": "address",
          "name": "spender",
          "type": "address"
        },
        {
          "internalType": "uint256",
          "name": "amount",
          "type": "uint256"
        }
      ],
      "name": "approve",
      "outputs": [
        {
          "internalType": "bool",
          "name": "",
          "type": "bool"
        }
      ],
      "stateMutability": "nonpayable",
      "type": "function"
    },
    {
      "inputs": [
        {
          "internalType": "address",
          "name": "account",
          "type": "address"
        }
      ],
      "name": "balanceOf",
      "outputs": [
        {
          "internalType": "uint256",
          "name": "",
          "type": "uint256"
        }
      ],
      "stateMutability": "view",
      "type": "function"
    },
    {
      "inputs": [
        {
          "internalType": "uint256",
          "name": "amount",
          "type": "uint256"
        }
      ],
      "name": "burn",
      "outputs": [],
      "stateMutability": "nonpayable",
      "type": "function"
    },
    {
      "inputs": [
        {
          "internalType": "address",
          "name": "account",
          "type": "address"
        },
        {
          "internalType": "uint256",
          "name": "amount",
          "type": "uint256"
        }
      ],
      "name": "burnFrom",
      "outputs": [],
      "stateMutability": "nonpayable",
      "type": "function"
    },
    {
      "inputs": [],
      "name": "decimals",
      "outputs": [
        {
          "internalType": "uint8",
          "name": "",
          "type": "uint8"
        }
      ],
      "stateMutability": "view",
      "type": "function"
    },
    {
      "inputs": [
        {
          "internalType": "address",
          "name": "spender",
          "type": "address"
        },
        {
          "internalType": "uint256",
          "name": "subtractedValue",
          "type": "uint256"
        }
      ],
      "name": "decreaseAllowance",
      "outputs": [
        {
          "internalType": "bool",
          "name": "",
          "type": "bool"
        }
      ],
      "stateMutability": "nonpayable",
      "type": "function"
    },
    {
      "inputs": [],
      "name": "eip712Domain",
      "outputs": [
        {
          "internalType": "bytes1",
          "name": "fields",
          "type": "bytes1"
        },
        {
          "internalType": "string",
          "name": "name",
          "type": "string"
        },
        {
          "internalType": "string",
          "name": "version",
          "type": "string"
        },
        {
          "internalType": "uint256",
          "name": "chainId",
          "type": "uint256"
        },
        {
          "internalType": "address",
          "name": "verifyingContract",
          "type": "address"
        },
        {
          "internalType": "bytes32",
          "name": "salt",
          "type": "bytes32"
        },
        {
          "internalType": "uint256[]",
          "name": "extensions",
          "type": "uint256[]"
        }
      ],
      "stateMutability": "view",
      "type": "function"
    },
    {
      "inputs": [
        {
          "internalType": "address",
          "name": "caller",
          "type": "address"
        }
      ],
      "name": "getAvailableBalance",
      "outputs": [
        {
          "internalType": "uint256",
          "name": "total",
          "type": "uint256"
        },
        {
          "internalType": "uint256",
          "name": "available",
          "type": "uint256"
        }
      ],
      "stateMutability": "view",
      "type": "function"
    },
    {
      "inputs": [
        {
          "internalType": "address",
          "name": "caller",
          "type": "address"
        },
        {
          "internalType": "uint16",
          "name": "index",
          "type": "uint16"
        }
      ],
      "name": "getLockAmountAndUnlockAt",
      "outputs": [
        {
          "internalType": "uint256",
          "name": "amount",
          "type": "uint256"
        },
        {
          "internalType": "uint256",
          "name": "unlockTime",
          "type": "uint256"
        }
      ],
      "stateMutability": "view",
      "type": "function"
    },
    {
      "inputs": [
        {
          "internalType": "address",
          "name": "spender",
          "type": "address"
        },
        {
          "internalType": "uint256",
          "name": "addedValue",
          "type": "uint256"
        }
      ],
      "name": "increaseAllowance",
      "outputs": [
        {
          "internalType": "bool",
          "name": "",
          "type": "bool"
        }
      ],
      "stateMutability": "nonpayable",
      "type": "function"
    },
    {
      "inputs": [],
      "name": "initialize",
      "outputs": [],
      "stateMutability": "nonpayable",
      "type": "function"
    },
    {
      "inputs": [],
      "name": "name",
      "outputs": [
        {
          "internalType": "string",
          "name": "",
          "type": "string"
        }
      ],
      "stateMutability": "view",
      "type": "function"
    },
    {
      "inputs": [
        {
          "internalType": "address",
          "name": "owner",
          "type": "address"
        }
      ],
      "name": "nonces",
      "outputs": [
        {
          "internalType": "uint256",
          "name": "",
          "type": "uint256"
        }
      ],
      "stateMutability": "view",
      "type": "function"
    },
    {
      "inputs": [],
      "name": "owner",
      "outputs": [
        {
          "internalType": "address",
          "name": "",
          "type": "address"
        }
      ],
      "stateMutability": "view",
      "type": "function"
    },
    {
      "inputs": [
        {
          "internalType": "address",
          "name": "owner",
          "type": "address"
        },
        {
          "internalType": "address",
          "name": "spender",
          "type": "address"
        },
        {
          "internalType": "uint256",
          "name": "value",
          "type": "uint256"
        },
        {
          "internalType": "uint256",
          "name": "deadline",
          "type": "uint256"
        },
        {
          "internalType": "uint8",
          "name": "v",
          "type": "uint8"
        },
        {
          "internalType": "bytes32",
          "name": "r",
          "type": "bytes32"
        },
        {
          "internalType": "bytes32",
          "name": "s",
          "type": "bytes32"
        }
      ],
      "name": "permit",
      "outputs": [],
      "stateMutability": "nonpayable",
      "type": "function"
    },
    {
      "inputs": [],
      "name": "proxiableUUID",
      "outputs": [
        {
          "internalType": "bytes32",
          "name": "",
          "type": "bytes32"
        }
      ],
      "stateMutability": "view",
      "type": "function"
    },
    {
      "inputs": [],
      "name": "renounceOwnership",
      "outputs": [],
      "stateMutability": "nonpayable",
      "type": "function"
    },
    {
      "inputs": [],
      "name": "symbol",
      "outputs": [
        {
          "internalType": "string",
          "name": "",
          "type": "string"
        }
      ],
      "stateMutability": "view",
      "type": "function"
    },
    {
      "inputs": [],
      "name": "totalSupply",
      "outputs": [
        {
          "internalType": "uint256",
          "name": "",
          "type": "uint256"
        }
      ],
      "stateMutability": "view",
      "type": "function"
    },
    {
      "inputs": [
        {
          "internalType": "address",
          "name": "to",
          "type": "address"
        },
        {
          "internalType": "uint256",
          "name": "amount",
          "type": "uint256"
        }
      ],
      "name": "transfer",
      "outputs": [
        {
          "internalType": "bool",
          "name": "",
          "type": "bool"
        }
      ],
      "stateMutability": "nonpayable",
      "type": "function"
    },
    {
      "inputs": [
        {
          "internalType": "address",
          "name": "from",
          "type": "address"
        },
        {
          "internalType": "address",
          "name": "to",
          "type": "address"
        },
        {
          "internalType": "uint256",
          "name": "amount",
          "type": "uint256"
        }
      ],
      "name": "transferFrom",
      "outputs": [
        {
          "internalType": "bool",
          "name": "",
          "type": "bool"
        }
      ],
      "stateMutability": "nonpayable",
      "type": "function"
    },
    {
      "inputs": [
        {
          "internalType": "address",
          "name": "newOwner",
          "type": "address"
        }
      ],
      "name": "transferOwnership",
      "outputs": [],
      "stateMutability": "nonpayable",
      "type": "function"
    },
    {
      "inputs": [
        {
          "internalType": "address",
          "name": "newImplementation",
          "type": "address"
        }
      ],
      "name": "upgradeTo",
      "outputs": [],
      "stateMutability": "nonpayable",
      "type": "function"
    },
    {
      "inputs": [
        {
          "internalType": "address",
          "name": "newImplementation",
          "type": "address"
        },
        {
          "internalType": "bytes",
          "name": "data",
          "type": "bytes"
        }
      ],
      "name": "upgradeToAndCall",
      "outputs": [],
      "stateMutability": "payable",
      "type": "function"
    }
  ],
  "bytecode": "0x60a0604052306080523480156200001557600080fd5b506200002062000026565b620000e7565b600054610100900460ff1615620000935760405162461bcd60e51b815260206004820152602760248201527f496e697469616c697a61626c653a20636f6e747261637420697320696e697469604482015266616c697a696e6760c81b606482015260840160405180910390fd5b60005460ff90811614620000e5576000805460ff191660ff9081179091556040519081527f7f26b83ff96e1f2b6a682f133852f6798a09c465da95921460cefb38474024989060200160405180910390a15b565b6080516127cb6200011f60003960008181610640015281816106800152818161074b0152818161078b015261081e01526127cb6000f3fe60806040526004361061019c5760003560e01c806370a08231116100ec57806395d89b411161008a578063cf93340d11610064578063cf93340d1461048a578063d505accf146104aa578063dd62ed3e146104ca578063f2fde38b146104ea57600080fd5b806395d89b4114610435578063a457c2d71461044a578063a9059cbb1461046a57600080fd5b80637ecebe00116100c65780637ecebe00146103af5780638129fc1c146103cf57806384b0196e146103e45780638da5cb5b1461040c57600080fd5b806370a0823114610344578063715018a61461037a57806379cc67901461038f57600080fd5b80633659cfe6116101595780634f1ef286116101335780634f1ef286146102ce57806352d1902d146102e15780636234ba27146102f65780636c24a76f1461030f57600080fd5b80633659cfe61461026c578063395093511461028e57806342966c68146102ae57600080fd5b806306fdde03146101a1578063095ea7b3146101cc57806318160ddd146101fc57806323b872dd1461021b578063313ce5671461023b5780633644e51514610257575b600080fd5b3480156101ad57600080fd5b506101b661050a565b6040516101c3919061201a565b60405180910390f35b3480156101d857600080fd5b506101ec6101e7366004612049565b61059c565b60405190151581526020016101c3565b34801561020857600080fd5b506035545b6040519081526020016101c3565b34801561022757600080fd5b506101ec610236366004612073565b6105b6565b34801561024757600080fd5b50604051601281526020016101c3565b34801561026357600080fd5b5061020d610627565b34801561027857600080fd5b5061028c6102873660046120af565b610636565b005b34801561029a57600080fd5b506101ec6102a9366004612049565b610715565b3480156102ba57600080fd5b5061028c6102c93660046120ca565b610737565b61028c6102dc3660046120f9565b610741565b3480156102ed57600080fd5b5061020d610811565b34801561030257600080fd5b5061020d640757b12c0081565b34801561031b57600080fd5b5061032f61032a3660046120af565b6108c4565b604080519283526020830191909152016101c3565b34801561035057600080fd5b5061020d61035f3660046120af565b6001600160a01b031660009081526033602052604090205490565b34801561038657600080fd5b5061028c610907565b34801561039b57600080fd5b5061028c6103aa366004612049565b61091b565b3480156103bb57600080fd5b5061020d6103ca3660046120af565b610930565b3480156103db57600080fd5b5061028c61094e565b3480156103f057600080fd5b506103f9610b0a565b6040516101c397969594939291906121bb565b34801561041857600080fd5b50610130546040516001600160a01b0390911681526020016101c3565b34801561044157600080fd5b506101b6610ba8565b34801561045657600080fd5b506101ec610465366004612049565b610bb7565b34801561047657600080fd5b506101ec610485366004612049565b610c3d565b34801561049657600080fd5b5061032f6104a5366004612254565b610c99565b3480156104b657600080fd5b5061028c6104c5366004612292565b610d6d565b3480156104d657600080fd5b5061020d6104e5366004612305565b610ed1565b3480156104f657600080fd5b5061028c6105053660046120af565b610efc565b60606036805461051990612338565b80601f016020809104026020016040519081016040528092919081815260200182805461054590612338565b80156105925780601f1061056757610100808354040283529160200191610592565b820191906000526020600020905b81548152906001019060200180831161057557829003601f168201915b5050505050905090565b6000336105aa818585610f72565b60019150505b92915050565b60006001600160a01b03831615806105cc575081155b156105e3576105dc848484611096565b9050610620565b6105ed84836110af565b6106125760405162461bcd60e51b81526004016106099061236c565b60405180910390fd5b61061d848484611096565b90505b9392505050565b60006106316110f4565b905090565b6001600160a01b037f000000000000000000000000000000000000000000000000000000000000000016300361067e5760405162461bcd60e51b8152600401610609906123b4565b7f00000000000000000000000000000000000000000000000000000000000000006001600160a01b03166106c760008051602061274f833981519152546001600160a01b031690565b6001600160a01b0316146106ed5760405162461bcd60e51b815260040161060990612400565b6106f6816110fe565b6040805160008082526020820190925261071291839190611106565b50565b6000336105aa8185856107288383610ed1565b6107329190612462565b610f72565b6107123382611276565b6001600160a01b037f00000000000000000000000000000000000000000000000000000000000000001630036107895760405162461bcd60e51b8152600401610609906123b4565b7f00000000000000000000000000000000000000000000000000000000000000006001600160a01b03166107d260008051602061274f833981519152546001600160a01b031690565b6001600160a01b0316146107f85760405162461bcd60e51b815260040161060990612400565b610801826110fe565b61080d82826001611106565b5050565b6000306001600160a01b037f000000000000000000000000000000000000000000000000000000000000000016146108b15760405162461bcd60e51b815260206004820152603860248201527f555550535570677261646561626c653a206d757374206e6f742062652063616c60448201527f6c6564207468726f7567682064656c656761746563616c6c00000000000000006064820152608401610609565b5060008051602061274f83398151915290565b60008060006108d2846113aa565b90506108f3846001600160a01b031660009081526033602052604090205490565b92506108ff8382611443565b915050915091565b61090f61144f565b61091960006114aa565b565b6109268233836114fd565b61080d8282611276565b6001600160a01b038116600090815260cb60205260408120546105b0565b600054610100900460ff161580801561096e5750600054600160ff909116105b806109885750303b158015610988575060005460ff166001145b6109eb5760405162461bcd60e51b815260206004820152602e60248201527f496e697469616c697a61626c653a20636f6e747261637420697320616c72656160448201526d191e481a5b9a5d1a585b1a5e995960921b6064820152608401610609565b6000805460ff191660011790558015610a0e576000805461ff0019166101001790555b610a54604051806040016040528060098152602001682c20a0902a37b5b2b760b91b8152506040518060400160405280600381526020016258414160e81b815250611577565b610a5c6115a8565b610a86604051806040016040528060098152602001682c20a0902a37b5b2b760b91b8152506115cf565b610a8e611619565b610a96611648565b610a9e6115a8565b610ac233610aae6012600a612559565b610abd9064e8d4a51000612568565b611677565b8015610712576000805461ff0019169055604051600181527f7f26b83ff96e1f2b6a682f133852f6798a09c465da95921460cefb38474024989060200160405180910390a150565b6000606080600080600060606097546000801b148015610b2a5750609854155b610b6e5760405162461bcd60e51b81526020600482015260156024820152741152540dcc4c8e88155b9a5b9a5d1a585b1a5e9959605a1b6044820152606401610609565b610b76611738565b610b7e611747565b60408051600080825260208201909252600f60f81b9b939a50919850469750309650945092509050565b60606037805461051990612338565b60003381610bc58286610ed1565b905083811015610c255760405162461bcd60e51b815260206004820152602560248201527f45524332303a2064656372656173656420616c6c6f77616e63652062656c6f77604482015264207a65726f60d81b6064820152608401610609565b610c328286868403610f72565b506001949350505050565b60006001600160a01b0383161580610c53575081155b15610c6957610c628383611756565b90506105b0565b610c7333836110af565b610c8f5760405162461bcd60e51b81526004016106099061236c565b6106208383611756565b6001600160a01b03821660009081526101c66020526040812054819061ffff841610610cfc5760405162461bcd60e51b8152602060048201526012602482015271496e646578206f7574206f662072616e676560701b6044820152606401610609565b6001600160a01b03841660009081526101c660205260408120805461ffff8616908110610d2b57610d2b61257f565b60009182526020918290206040805160608101825260039093029091018054835260018101549383018490526002015491018190529093509150509250929050565b83421115610dbd5760405162461bcd60e51b815260206004820152601d60248201527f45524332305065726d69743a206578706972656420646561646c696e650000006044820152606401610609565b60007f6e71edae12b1b97f4d1f60370fef10105fa2faae0126114a169c64845d6126c9888888610dec8c611764565b6040805160208101969096526001600160a01b0394851690860152929091166060840152608083015260a082015260c0810186905260e0016040516020818303038152906040528051906020012090506000610e478261178c565b90506000610e57828787876117b9565b9050896001600160a01b0316816001600160a01b031614610eba5760405162461bcd60e51b815260206004820152601e60248201527f45524332305065726d69743a20696e76616c6964207369676e617475726500006044820152606401610609565b610ec58a8a8a610f72565b50505050505050505050565b6001600160a01b03918216600090815260346020908152604080832093909416825291909152205490565b610f0461144f565b6001600160a01b038116610f695760405162461bcd60e51b815260206004820152602660248201527f4f776e61626c653a206e6577206f776e657220697320746865207a65726f206160448201526564647265737360d01b6064820152608401610609565b610712816114aa565b6001600160a01b038316610fd45760405162461bcd60e51b8152602060048201526024808201527f45524332303a20617070726f76652066726f6d20746865207a65726f206164646044820152637265737360e01b6064820152608401610609565b6001600160a01b0382166110355760405162461bcd60e51b815260206004820152602260248201527f45524332303a20617070726f766520746f20746865207a65726f206164647265604482015261737360f01b6064820152608401610609565b6001600160a01b0383811660008181526034602090815260408083209487168084529482529182902085905590518481527f8c5be1e5ebec7d5bd14f71427d1e84f3dd0314c0f7b2291e5b200ac8c7c3b925910160405180910390a3505050565b6000336110a48582856114fd565b610c328585856117e3565b6000806110bb846113aa565b905060006110e8826110e2876001600160a01b031660009081526033602052604090205490565b90611443565b90931115949350505050565b600061063161198e565b61071261144f565b7f4910fdfa16fed3260ed0e7147f7cc6da11a60208b5b9406d12a635614ffd91435460ff161561113e5761113983611a02565b505050565b826001600160a01b03166352d1902d6040518163ffffffff1660e01b8152600401602060405180830381865afa925050508015611198575060408051601f3d908101601f1916820190925261119591810190612595565b60015b6111fb5760405162461bcd60e51b815260206004820152602e60248201527f45524331393637557067726164653a206e657720696d706c656d656e7461746960448201526d6f6e206973206e6f74205555505360901b6064820152608401610609565b60008051602061274f833981519152811461126a5760405162461bcd60e51b815260206004820152602960248201527f45524331393637557067726164653a20756e737570706f727465642070726f786044820152681a58589b195555525160ba1b6064820152608401610609565b50611139838383611a9e565b6001600160a01b0382166112d65760405162461bcd60e51b815260206004820152602160248201527f45524332303a206275726e2066726f6d20746865207a65726f206164647265736044820152607360f81b6064820152608401610609565b6001600160a01b0382166000908152603360205260409020548181101561134a5760405162461bcd60e51b815260206004820152602260248201527f45524332303a206275726e20616d6f756e7420657863656564732062616c616e604482015261636560f01b6064820152608401610609565b6001600160a01b03831660008181526033602090815260408083208686039055603580548790039055518581529192917fddf252ad1be2c89b69c2b068fc378daa952ba7f163c4a11628f55a4df523b3ef910160405180910390a3505050565b6001600160a01b03811660009081526101c66020526040812081805b825481101561143b578281815481106113e1576113e161257f565b9060005260206000209060030201600201544210156114335761143083828154811061140f5761140f61257f565b90600052602060002090600302016001015483611ac390919063ffffffff16565b91505b6001016113c6565b509392505050565b600061062082846125ae565b610130546001600160a01b031633146109195760405162461bcd60e51b815260206004820181905260248201527f4f776e61626c653a2063616c6c6572206973206e6f7420746865206f776e65726044820152606401610609565b61013080546001600160a01b038381166001600160a01b0319831681179093556040519116919082907f8be0079c531659141344cd1fd0a4f28419497f9722a3daafe3b4186f6b6457e090600090a35050565b60006115098484610ed1565b9050600019811461157157818110156115645760405162461bcd60e51b815260206004820152601d60248201527f45524332303a20696e73756666696369656e7420616c6c6f77616e63650000006044820152606401610609565b6115718484848403610f72565b50505050565b600054610100900460ff1661159e5760405162461bcd60e51b8152600401610609906125c1565b61080d8282611acf565b600054610100900460ff166109195760405162461bcd60e51b8152600401610609906125c1565b600054610100900460ff166115f65760405162461bcd60e51b8152600401610609906125c1565b61071281604051806040016040528060018152602001603160f81b815250611b0f565b600054610100900460ff166116405760405162461bcd60e51b8152600401610609906125c1565b610919611b5e565b600054610100900460ff1661166f5760405162461bcd60e51b8152600401610609906125c1565b610919611b8c565b6001600160a01b0382166116cd5760405162461bcd60e51b815260206004820152601f60248201527f45524332303a206d696e7420746f20746865207a65726f2061646472657373006044820152606401610609565b80603560008282546116df9190612462565b90915550506001600160a01b0382166000818152603360209081526040808320805486019055518481527fddf252ad1be2c89b69c2b068fc378daa952ba7f163c4a11628f55a4df523b3ef910160405180910390a35050565b60606099805461051990612338565b6060609a805461051990612338565b6000336105aa8185856117e3565b6001600160a01b038116600090815260cb602052604090208054600181018255905b50919050565b60006105b06117996110f4565b8360405161190160f01b8152600281019290925260228201526042902090565b60008060006117ca87878787611bbc565b915091506117d781611c80565b5090505b949350505050565b6001600160a01b0383166118475760405162461bcd60e51b815260206004820152602560248201527f45524332303a207472616e736665722066726f6d20746865207a65726f206164604482015264647265737360d81b6064820152608401610609565b6001600160a01b0382166118a95760405162461bcd60e51b815260206004820152602360248201527f45524332303a207472616e7366657220746f20746865207a65726f206164647260448201526265737360e81b6064820152608401610609565b6001600160a01b038316600090815260336020526040902054818110156119215760405162461bcd60e51b815260206004820152602660248201527f45524332303a207472616e7366657220616d6f756e7420657863656564732062604482015265616c616e636560d01b6064820152608401610609565b6001600160a01b0380851660008181526033602052604080822086860390559286168082529083902080548601905591517fddf252ad1be2c89b69c2b068fc378daa952ba7f163c4a11628f55a4df523b3ef906119819086815260200190565b60405180910390a3611571565b60007f8b73c3c69bb8fe3d512ecc4cf759cc79239f7b179b0ffacaa9a75d522b39400f6119b9611dca565b6119c1611e23565b60408051602081019490945283019190915260608201524660808201523060a082015260c00160405160208183030381529060405280519060200120905090565b6001600160a01b0381163b611a6f5760405162461bcd60e51b815260206004820152602d60248201527f455243313936373a206e657720696d706c656d656e746174696f6e206973206e60448201526c1bdd08184818dbdb9d1c9858dd609a1b6064820152608401610609565b60008051602061274f83398151915280546001600160a01b0319166001600160a01b0392909216919091179055565b611aa783611e54565b600082511180611ab45750805b15611139576115718383611e94565b60006106208284612462565b600054610100900460ff16611af65760405162461bcd60e51b8152600401610609906125c1565b6036611b02838261265c565b506037611139828261265c565b600054610100900460ff16611b365760405162461bcd60e51b8152600401610609906125c1565b6099611b42838261265c565b50609a611b4f828261265c565b50506000609781905560985550565b600054610100900460ff16611b855760405162461bcd60e51b8152600401610609906125c1565b600160fe55565b600054610100900460ff16611bb35760405162461bcd60e51b8152600401610609906125c1565b610919336114aa565b6000807f7fffffffffffffffffffffffffffffff5d576e7357a4501ddfe92f46681b20a0831115611bf35750600090506003611c77565b6040805160008082526020820180845289905260ff881692820192909252606081018690526080810185905260019060a0016020604051602081039080840390855afa158015611c47573d6000803e3d6000fd5b5050604051601f1901519150506001600160a01b038116611c7057600060019250925050611c77565b9150600090505b94509492505050565b6000816004811115611c9457611c9461271c565b03611c9c5750565b6001816004811115611cb057611cb061271c565b03611cfd5760405162461bcd60e51b815260206004820152601860248201527f45434453413a20696e76616c6964207369676e617475726500000000000000006044820152606401610609565b6002816004811115611d1157611d1161271c565b03611d5e5760405162461bcd60e51b815260206004820152601f60248201527f45434453413a20696e76616c6964207369676e6174757265206c656e677468006044820152606401610609565b6003816004811115611d7257611d7261271c565b036107125760405162461bcd60e51b815260206004820152602260248201527f45434453413a20696e76616c6964207369676e6174757265202773272076616c604482015261756560f01b6064820152608401610609565b600080611dd5611738565b805190915015611dec578051602090910120919050565b6097548015611dfb5792915050565b7fc5d2460186f7233c927e7db2dcc703c0e500b653ca82273b7bfad8045d85a4709250505090565b600080611e2e611747565b805190915015611e45578051602090910120919050565b6098548015611dfb5792915050565b611e5d81611a02565b6040516001600160a01b038216907fbc7cd75a20ee27fd9adebab32041f755214dbc6bffa90cc0225b39da2e5c2d3b90600090a250565b6060610620838360405180606001604052806027815260200161276f602791396060600080856001600160a01b031685604051611ed19190612732565b600060405180830381855af49150503d8060008114611f0c576040519150601f19603f3d011682016040523d82523d6000602084013e611f11565b606091505b5091509150611f2286838387611f2c565b9695505050505050565b60608315611f9b578251600003611f94576001600160a01b0385163b611f945760405162461bcd60e51b815260206004820152601d60248201527f416464726573733a2063616c6c20746f206e6f6e2d636f6e74726163740000006044820152606401610609565b50816117db565b6117db8383815115611fb05781518083602001fd5b8060405162461bcd60e51b8152600401610609919061201a565b60005b83811015611fe5578181015183820152602001611fcd565b50506000910152565b60008151808452612006816020860160208601611fca565b601f01601f19169290920160200192915050565b6020815260006106206020830184611fee565b80356001600160a01b038116811461204457600080fd5b919050565b6000806040838503121561205c57600080fd5b6120658361202d565b946020939093013593505050565b60008060006060848603121561208857600080fd5b6120918461202d565b925061209f6020850161202d565b9150604084013590509250925092565b6000602082840312156120c157600080fd5b6106208261202d565b6000602082840312156120dc57600080fd5b5035919050565b634e487b7160e01b600052604160045260246000fd5b6000806040838503121561210c57600080fd5b6121158361202d565b9150602083013567ffffffffffffffff8082111561213257600080fd5b818501915085601f83011261214657600080fd5b813581811115612158576121586120e3565b604051601f8201601f19908116603f01168101908382118183101715612180576121806120e3565b8160405282815288602084870101111561219957600080fd5b8260208601602083013760006020848301015280955050505050509250929050565b60ff60f81b881681526000602060e060208401526121dc60e084018a611fee565b83810360408501526121ee818a611fee565b606085018990526001600160a01b038816608086015260a0850187905284810360c08601528551808252602080880193509091019060005b8181101561224257835183529284019291840191600101612226565b50909c9b505050505050505050505050565b6000806040838503121561226757600080fd5b6122708361202d565b9150602083013561ffff8116811461228757600080fd5b809150509250929050565b600080600080600080600060e0888a0312156122ad57600080fd5b6122b68861202d565b96506122c46020890161202d565b95506040880135945060608801359350608088013560ff811681146122e857600080fd5b9699959850939692959460a0840135945060c09093013592915050565b6000806040838503121561231857600080fd5b6123218361202d565b915061232f6020840161202d565b90509250929050565b600181811c9082168061234c57607f821691505b60208210810361178657634e487b7160e01b600052602260045260246000fd5b60208082526028908201527f5472616e7366657220616d6f756e74206578636565647320756e6c6f636b65646040820152672062616c616e636560c01b606082015260800190565b6020808252602c908201527f46756e6374696f6e206d7573742062652063616c6c6564207468726f7567682060408201526b19195b1959d85d1958d85b1b60a21b606082015260800190565b6020808252602c908201527f46756e6374696f6e206d7573742062652063616c6c6564207468726f7567682060408201526b6163746976652070726f787960a01b606082015260800190565b634e487b7160e01b600052601160045260246000fd5b808201808211156105b0576105b061244c565b600181815b808511156124b05781600019048211156124965761249661244c565b808516156124a357918102915b93841c939080029061247a565b509250929050565b6000826124c7575060016105b0565b816124d4575060006105b0565b81600181146124ea57600281146124f457612510565b60019150506105b0565b60ff8411156125055761250561244c565b50506001821b6105b0565b5060208310610133831016604e8410600b8410161715612533575081810a6105b0565b61253d8383612475565b80600019048211156125515761255161244c565b029392505050565b600061062060ff8416836124b8565b80820281158282048414176105b0576105b061244c565b634e487b7160e01b600052603260045260246000fd5b6000602082840312156125a757600080fd5b5051919050565b818103818111156105b0576105b061244c565b6020808252602b908201527f496e697469616c697a61626c653a20636f6e7472616374206973206e6f74206960408201526a6e697469616c697a696e6760a81b606082015260800190565b601f821115611139576000816000526020600020601f850160051c810160208610156126355750805b601f850160051c820191505b8181101561265457828155600101612641565b505050505050565b815167ffffffffffffffff811115612676576126766120e3565b61268a816126848454612338565b8461260c565b602080601f8311600181146126bf57600084156126a75750858301515b600019600386901b1c1916600185901b178555612654565b600085815260208120601f198616915b828110156126ee578886015182559484019460019091019084016126cf565b508582101561270c5787850151600019600388901b60f8161c191681555b5050505050600190811b01905550565b634e487b7160e01b600052602160045260246000fd5b60008251612744818460208701611fca565b919091019291505056fe360894a13ba1a3210667c828492db98dca3e2076cc3735a920a3ca505d382bbc416464726573733a206c6f772d6c6576656c2064656c65676174652063616c6c206661696c6564a264697066735822122084d753ef6f1abf649297b448f6e8a922d4af06a037290278e16f54378f8d59cb64736f6c63430008160033",
  "linkReferences": {},
  "deployedLinkReferences": {}
}