{
  "_format": "hh-sol-artifact-1",
  "contractName": "XAIAgentDRC20Upgradeable",
  "sourceName": "contracts/XAIAgentDRC20Upgradeable.sol",
  "abi": [
    {
      "inputs": [],
      "stateMutability": "nonpayable",
      "type": "constructor"
    },
    {
      "anonymous": false,
      "inputs": [
        {
          "indexed": true,
          "internalType": "address",
          "name": "addr",
          "type": "address"
        }
      ],
      "name": "AddLockTransferAdmin",
      "type": "event"
    },
    {
      "anonymous": false,
      "inputs": [
        {
          "indexed": false,
          "internalType": "address",
          "name": "previousAdmin",
          "type": "address"
        },
        {
          "indexed": false,
          "internalType": "address",
          "name": "newAdmin",
          "type": "address"
        }
      ],
      "name": "AdminChanged",
      "type": "event"
    },
    {
      "anonymous": false,
      "inputs": [
        {
          "indexed": true,
          "internalType": "address",
          "name": "owner",
          "type": "address"
        },
        {
          "indexed": true,
          "internalType": "address",
          "name": "spender",
          "type": "address"
        },
        {
          "indexed": false,
          "internalType": "uint256",
          "name": "value",
          "type": "uint256"
        }
      ],
      "name": "Approval",
      "type": "event"
    },
    {
      "anonymous": false,
      "inputs": [
        {
          "indexed": true,
          "internalType": "address",
          "name": "upgradeAddress",
          "type": "address"
        }
      ],
      "name": "AuthorizedUpgradeSelf",
      "type": "event"
    },
    {
      "anonymous": false,
      "inputs": [
        {
          "indexed": true,
          "internalType": "address",
          "name": "beacon",
          "type": "address"
        }
      ],
      "name": "BeaconUpgraded",
      "type": "event"
    },
    {
      "anonymous": false,
      "inputs": [
        {
          "indexed": false,
          "internalType": "uint256",
          "name": "timestamp",
          "type": "uint256"
        }
      ],
      "name": "DisableContractUpgrade",
      "type": "event"
    },
    {
      "anonymous": false,
      "inputs": [],
      "name": "EIP712DomainChanged",
      "type": "event"
    },
    {
      "anonymous": false,
      "inputs": [
        {
          "indexed": false,
          "internalType": "uint8",
          "name": "version",
          "type": "uint8"
        }
      ],
      "name": "Initialized",
      "type": "event"
    },
    {
      "anonymous": false,
      "inputs": [
        {
          "indexed": false,
          "internalType": "uint256",
          "name": "timestamp",
          "type": "uint256"
        },
        {
          "indexed": false,
          "internalType": "uint256",
          "name": "blockNumber",
          "type": "uint256"
        }
      ],
      "name": "LockDisabled",
      "type": "event"
    },
    {
      "anonymous": false,
      "inputs": [
        {
          "indexed": false,
          "internalType": "uint256",
          "name": "timestamp",
          "type": "uint256"
        },
        {
          "indexed": false,
          "internalType": "uint256",
          "name": "blockNumber",
          "type": "uint256"
        }
      ],
      "name": "LockEnabled",
      "type": "event"
    },
    {
      "anonymous": false,
      "inputs": [
        {
          "indexed": true,
          "internalType": "address",
          "name": "previousOwner",
          "type": "address"
        },
        {
          "indexed": true,
          "internalType": "address",
          "name": "newOwner",
          "type": "address"
        }
      ],
      "name": "OwnershipTransferred",
      "type": "event"
    },
    {
      "anonymous": false,
      "inputs": [
        {
          "indexed": true,
          "internalType": "address",
          "name": "addr",
          "type": "address"
        }
      ],
      "name": "RemoveLockTransferAdmin",
      "type": "event"
    },
    {
      "anonymous": false,
      "inputs": [
        {
          "indexed": true,
          "internalType": "address",
          "name": "from",
          "type": "address"
        },
        {
          "indexed": true,
          "internalType": "address",
          "name": "to",
          "type": "address"
        },
        {
          "indexed": false,
          "internalType": "uint256",
          "name": "value",
          "type": "uint256"
        }
      ],
      "name": "Transfer",
      "type": "event"
    },
    {
      "anonymous": false,
      "inputs": [
        {
          "indexed": true,
          "internalType": "address",
          "name": "from",
          "type": "address"
        },
        {
          "indexed": true,
          "internalType": "address",
          "name": "to",
          "type": "address"
        },
        {
          "indexed": false,
          "internalType": "uint256",
          "name": "value",
          "type": "uint256"
        },
        {
          "indexed": false,
          "internalType": "uint256",
          "name": "blockNumber",
          "type": "uint256"
        }
      ],
      "name": "TransferAndLock",
      "type": "event"
    },
    {
      "anonymous": false,
      "inputs": [
        {
          "indexed": true,
          "internalType": "address",
          "name": "implementation",
          "type": "address"
        }
      ],
      "name": "Upgraded",
      "type": "event"
    },
    {
      "inputs": [],
      "name": "DOMAIN_SEPARATOR",
      "outputs": [
        {
          "internalType": "bytes32",
          "name": "",
          "type": "bytes32"
        }
      ],
      "stateMutability": "view",
      "type": "function"
    },
    {
      "inputs": [
        {
          "internalType": "address",
          "name": "addr",
          "type": "address"
        }
      ],
      "name": "addLockTransferAdmin",
      "outputs": [],
      "stateMutability": "nonpayable",
      "type": "function"
    },
    {
      "inputs": [
        {
          "internalType": "address",
          "name": "owner",
          "type": "address"
        },
        {
          "internalType": "address",
          "name": "spender",
          "type": "address"
        }
      ],
      "name": "allowance",
      "outputs": [
        {
          "internalType": "uint256",
          "name": "",
          "type": "uint256"
        }
      ],
      "stateMutability": "view",
      "type": "function"
    },
    {
      "inputs": [
        {
          "internalType": "address",
          "name": "spender",
          "type": "address"
        },
        {
          "internalType": "uint256",
          "name": "amount",
          "type": "uint256"
        }
      ],
      "name": "approve",
      "outputs": [
        {
          "internalType": "bool",
          "name": "",
          "type": "bool"
        }
      ],
      "stateMutability": "nonpayable",
      "type": "function"
    },
    {
      "inputs": [
        {
          "internalType": "address",
          "name": "account",
          "type": "address"
        }
      ],
      "name": "balanceOf",
      "outputs": [
        {
          "internalType": "uint256",
          "name": "",
          "type": "uint256"
        }
      ],
      "stateMutability": "view",
      "type": "function"
    },
    {
      "inputs": [
        {
          "internalType": "uint256",
          "name": "amount",
          "type": "uint256"
        }
      ],
      "name": "burn",
      "outputs": [],
      "stateMutability": "nonpayable",
      "type": "function"
    },
    {
      "inputs": [
        {
          "internalType": "address",
          "name": "account",
          "type": "address"
        },
        {
          "internalType": "uint256",
          "name": "amount",
          "type": "uint256"
        }
      ],
      "name": "burnFrom",
      "outputs": [],
      "stateMutability": "nonpayable",
      "type": "function"
    },
    {
      "inputs": [
        {
          "internalType": "address",
          "name": "from",
          "type": "address"
        },
        {
          "internalType": "uint256",
          "name": "transferAmount",
          "type": "uint256"
        }
      ],
      "name": "canTransferAmount",
      "outputs": [
        {
          "internalType": "bool",
          "name": "",
          "type": "bool"
        }
      ],
      "stateMutability": "view",
      "type": "function"
    },
    {
      "inputs": [],
      "name": "canUpgradeAddress",
      "outputs": [
        {
          "internalType": "address",
          "name": "",
          "type": "address"
        }
      ],
      "stateMutability": "view",
      "type": "function"
    },
    {
      "inputs": [],
      "name": "decimals",
      "outputs": [
        {
          "internalType": "uint8",
          "name": "",
          "type": "uint8"
        }
      ],
      "stateMutability": "view",
      "type": "function"
    },
    {
      "inputs": [
        {
          "internalType": "address",
          "name": "spender",
          "type": "address"
        },
        {
          "internalType": "uint256",
          "name": "subtractedValue",
          "type": "uint256"
        }
      ],
      "name": "decreaseAllowance",
      "outputs": [
        {
          "internalType": "bool",
          "name": "",
          "type": "bool"
        }
      ],
      "stateMutability": "nonpayable",
      "type": "function"
    },
    {
      "inputs": [],
      "name": "disableContractUpgrade",
      "outputs": [],
      "stateMutability": "nonpayable",
      "type": "function"
    },
    {
      "inputs": [],
      "name": "disableUpgrade",
      "outputs": [
        {
          "internalType": "bool",
          "name": "",
          "type": "bool"
        }
      ],
      "stateMutability": "view",
      "type": "function"
    },
    {
      "inputs": [],
      "name": "eip712Domain",
      "outputs": [
        {
          "internalType": "bytes1",
          "name": "fields",
          "type": "bytes1"
        },
        {
          "internalType": "string",
          "name": "name",
          "type": "string"
        },
        {
          "internalType": "string",
          "name": "version",
          "type": "string"
        },
        {
          "internalType": "uint256",
          "name": "chainId",
          "type": "uint256"
        },
        {
          "internalType": "address",
          "name": "verifyingContract",
          "type": "address"
        },
        {
          "internalType": "bytes32",
          "name": "salt",
          "type": "bytes32"
        },
        {
          "internalType": "uint256[]",
          "name": "extensions",
          "type": "uint256[]"
        }
      ],
      "stateMutability": "view",
      "type": "function"
    },
    {
      "inputs": [
        {
          "internalType": "address",
          "name": "caller",
          "type": "address"
        }
      ],
      "name": "getAvailableBalance",
      "outputs": [
        {
          "internalType": "uint256",
          "name": "total",
          "type": "uint256"
        },
        {
          "internalType": "uint256",
          "name": "available",
          "type": "uint256"
        }
      ],
      "stateMutability": "view",
      "type": "function"
    },
    {
      "inputs": [
        {
          "internalType": "address",
          "name": "caller",
          "type": "address"
        },
        {
          "internalType": "uint16",
          "name": "index",
          "type": "uint16"
        }
      ],
      "name": "getLockAmountAndUnlockAt",
      "outputs": [
        {
          "internalType": "uint256",
          "name": "amount",
          "type": "uint256"
        },
        {
          "internalType": "uint256",
          "name": "unlockTime",
          "type": "uint256"
        }
      ],
      "stateMutability": "view",
      "type": "function"
    },
    {
      "inputs": [
        {
          "internalType": "address",
          "name": "spender",
          "type": "address"
        },
        {
          "internalType": "uint256",
          "name": "addedValue",
          "type": "uint256"
        }
      ],
      "name": "increaseAllowance",
      "outputs": [
        {
          "internalType": "bool",
          "name": "",
          "type": "bool"
        }
      ],
      "stateMutability": "nonpayable",
      "type": "function"
    },
    {
      "inputs": [],
      "name": "initialize",
      "outputs": [],
      "stateMutability": "nonpayable",
      "type": "function"
    },
    {
      "inputs": [],
      "name": "isLockActive",
      "outputs": [
        {
          "internalType": "bool",
          "name": "",
          "type": "bool"
        }
      ],
      "stateMutability": "view",
      "type": "function"
    },
    {
      "inputs": [],
      "name": "lockTokensDisable",
      "outputs": [],
      "stateMutability": "nonpayable",
      "type": "function"
    },
    {
      "inputs": [],
      "name": "lockTokensEnable",
      "outputs": [],
      "stateMutability": "nonpayable",
      "type": "function"
    },
    {
      "inputs": [
        {
          "internalType": "address",
          "name": "",
          "type": "address"
        }
      ],
      "name": "lockTransferAdmins",
      "outputs": [
        {
          "internalType": "bool",
          "name": "",
          "type": "bool"
        }
      ],
      "stateMutability": "view",
      "type": "function"
    },
    {
      "inputs": [],
      "name": "name",
      "outputs": [
        {
          "internalType": "string",
          "name": "",
          "type": "string"
        }
      ],
      "stateMutability": "view",
      "type": "function"
    },
    {
      "inputs": [
        {
          "internalType": "address",
          "name": "owner",
          "type": "address"
        }
      ],
      "name": "nonces",
      "outputs": [
        {
          "internalType": "uint256",
          "name": "",
          "type": "uint256"
        }
      ],
      "stateMutability": "view",
      "type": "function"
    },
    {
      "inputs": [],
      "name": "owner",
      "outputs": [
        {
          "internalType": "address",
          "name": "",
          "type": "address"
        }
      ],
      "stateMutability": "view",
      "type": "function"
    },
    {
      "inputs": [
        {
          "internalType": "address",
          "name": "owner",
          "type": "address"
        },
        {
          "internalType": "address",
          "name": "spender",
          "type": "address"
        },
        {
          "internalType": "uint256",
          "name": "value",
          "type": "uint256"
        },
        {
          "internalType": "uint256",
          "name": "deadline",
          "type": "uint256"
        },
        {
          "internalType": "uint8",
          "name": "v",
          "type": "uint8"
        },
        {
          "internalType": "bytes32",
          "name": "r",
          "type": "bytes32"
        },
        {
          "internalType": "bytes32",
          "name": "s",
          "type": "bytes32"
        }
      ],
      "name": "permit",
      "outputs": [],
      "stateMutability": "nonpayable",
      "type": "function"
    },
    {
      "inputs": [],
      "name": "proxiableUUID",
      "outputs": [
        {
          "internalType": "bytes32",
          "name": "",
          "type": "bytes32"
        }
      ],
      "stateMutability": "view",
      "type": "function"
    },
    {
      "inputs": [
        {
          "internalType": "address",
          "name": "addr",
          "type": "address"
        }
      ],
      "name": "removeLockTransferAdmin",
      "outputs": [],
      "stateMutability": "nonpayable",
      "type": "function"
    },
    {
      "inputs": [],
      "name": "renounceOwnership",
      "outputs": [],
      "stateMutability": "nonpayable",
      "type": "function"
    },
    {
      "inputs": [
        {
          "internalType": "address",
          "name": "_canUpgradeAddress",
          "type": "address"
        }
      ],
      "name": "setUpgradePermission",
      "outputs": [],
      "stateMutability": "nonpayable",
      "type": "function"
    },
    {
      "inputs": [],
      "name": "symbol",
      "outputs": [
        {
          "internalType": "string",
          "name": "",
          "type": "string"
        }
      ],
      "stateMutability": "view",
      "type": "function"
    },
    {
      "inputs": [],
      "name": "totalSupply",
      "outputs": [
        {
          "internalType": "uint256",
          "name": "",
          "type": "uint256"
        }
      ],
      "stateMutability": "view",
      "type": "function"
    },
    {
      "inputs": [
        {
          "internalType": "address",
          "name": "to",
          "type": "address"
        },
        {
          "internalType": "uint256",
          "name": "amount",
          "type": "uint256"
        }
      ],
      "name": "transfer",
      "outputs": [
        {
          "internalType": "bool",
          "name": "",
          "type": "bool"
        }
      ],
      "stateMutability": "nonpayable",
      "type": "function"
    },
    {
      "inputs": [
        {
          "internalType": "address",
          "name": "to",
          "type": "address"
        },
        {
          "internalType": "uint256",
          "name": "value",
          "type": "uint256"
        },
        {
          "internalType": "uint256",
          "name": "lockSeconds",
          "type": "uint256"
        }
      ],
      "name": "transferAndLock",
      "outputs": [],
      "stateMutability": "nonpayable",
      "type": "function"
    },
    {
      "inputs": [
        {
          "internalType": "address",
          "name": "from",
          "type": "address"
        },
        {
          "internalType": "address",
          "name": "to",
          "type": "address"
        },
        {
          "internalType": "uint256",
          "name": "amount",
          "type": "uint256"
        }
      ],
      "name": "transferFrom",
      "outputs": [
        {
          "internalType": "bool",
          "name": "",
          "type": "bool"
        }
      ],
      "stateMutability": "nonpayable",
      "type": "function"
    },
    {
      "inputs": [
        {
          "internalType": "address",
          "name": "newOwner",
          "type": "address"
        }
      ],
      "name": "transferOwnership",
      "outputs": [],
      "stateMutability": "nonpayable",
      "type": "function"
    },
    {
      "inputs": [
        {
          "internalType": "address",
          "name": "newImplementation",
          "type": "address"
        }
      ],
      "name": "upgradeTo",
      "outputs": [],
      "stateMutability": "nonpayable",
      "type": "function"
    },
    {
      "inputs": [
        {
          "internalType": "address",
          "name": "newImplementation",
          "type": "address"
        },
        {
          "internalType": "bytes",
          "name": "data",
          "type": "bytes"
        }
      ],
      "name": "upgradeToAndCall",
      "outputs": [],
      "stateMutability": "payable",
      "type": "function"
    },
    {
      "inputs": [],
      "name": "version",
      "outputs": [
        {
          "internalType": "uint256",
          "name": "",
          "type": "uint256"
        }
      ],
      "stateMutability": "pure",
      "type": "function"
    }
  ],
  "bytecode": "0x60a0604052306080523480156200001557600080fd5b506200002062000026565b620000e7565b600054610100900460ff1615620000935760405162461bcd60e51b815260206004820152602760248201527f496e697469616c697a61626c653a20636f6e747261637420697320696e697469604482015266616c697a696e6760c81b606482015260840160405180910390fd5b60005460ff90811614620000e5576000805460ff191660ff9081179091556040519081527f7f26b83ff96e1f2b6a682f133852f6798a09c465da95921460cefb38474024989060200160405180910390a15b565b6080516133776200011f600039600081816109f301528181610a3301528181610ba901528181610be90152610c7c01526133776000f3fe6080604052600436106102305760003560e01c806375dfe2211161012e578063a9059cbb116100ab578063d86f0fae1161006f578063d86f0fae14610681578063dd62ed3e146106b2578063f2fde38b146106d2578063f5adb258146106f2578063fcc513ed1461070757600080fd5b8063a9059cbb146105df578063b6862f90146105ff578063cf93340d1461061f578063cfa6e9111461063f578063d505accf1461066157600080fd5b806384d5d944116100f257806384d5d9441461054b5780638ce815251461056b5780638da5cb5b1461058b57806395d89b41146105aa578063a457c2d7146105bf57600080fd5b806375dfe2211461049557806379cc6790146104ce5780637ecebe00146104ee5780638129fc1c1461050e57806384b0196e1461052357600080fd5b80633bfff140116101bc57806354fd4d501161018057806354fd4d50146103df57806367fc9138146103f35780636c24a76f1461041557806370a082311461044a578063715018a61461048057600080fd5b80633bfff1401461036257806342966c68146103775780634a59e7bf146103975780634f1ef286146103b757806352d1902d146103ca57600080fd5b806323b872dd1161020357806323b872dd146102d1578063313ce567146102f15780633644e5151461030d5780633659cfe614610322578063395093511461034257600080fd5b806306fdde031461023557806308c4975514610260578063095ea7b31461028257806318160ddd146102b2575b600080fd5b34801561024157600080fd5b5061024a61071c565b6040516102579190612bb2565b60405180910390f35b34801561026c57600080fd5b5061028061027b366004612be1565b6107ae565b005b34801561028e57600080fd5b506102a261029d366004612bfc565b6108c6565b6040519015158152602001610257565b3480156102be57600080fd5b506035545b604051908152602001610257565b3480156102dd57600080fd5b506102a26102ec366004612c26565b6108e0565b3480156102fd57600080fd5b5060405160128152602001610257565b34801561031957600080fd5b506102c36109da565b34801561032e57600080fd5b5061028061033d366004612be1565b6109e9565b34801561034e57600080fd5b506102a261035d366004612bfc565b610ac8565b34801561036e57600080fd5b50610280610aea565b34801561038357600080fd5b50610280610392366004612c62565b610b42565b3480156103a357600080fd5b506102806103b2366004612be1565b610b4c565b6102806103c5366004612c91565b610b9f565b3480156103d657600080fd5b506102c3610c6f565b3480156103eb57600080fd5b5060016102c3565b3480156103ff57600080fd5b506101c7546102a290600160a01b900460ff1681565b34801561042157600080fd5b50610435610430366004612be1565b610d22565b60408051928352602083019190915201610257565b34801561045657600080fd5b506102c3610465366004612be1565b6001600160a01b031660009081526033602052604090205490565b34801561048c57600080fd5b50610280610d65565b3480156104a157600080fd5b506101c7546104b6906001600160a01b031681565b6040516001600160a01b039091168152602001610257565b3480156104da57600080fd5b506102806104e9366004612bfc565b610d79565b3480156104fa57600080fd5b506102c3610509366004612be1565b610d8e565b34801561051a57600080fd5b50610280610dac565b34801561052f57600080fd5b50610538610f7a565b6040516102579796959493929190612d53565b34801561055757600080fd5b50610280610566366004612dec565b611018565b34801561057757600080fd5b50610280610586366004612be1565b6111e1565b34801561059757600080fd5b50610130546001600160a01b03166104b6565b3480156105b657600080fd5b5061024a6112fc565b3480156105cb57600080fd5b506102a26105da366004612bfc565b61130b565b3480156105eb57600080fd5b506102a26105fa366004612bfc565b611391565b34801561060b57600080fd5b506102a261061a366004612bfc565b611473565b34801561062b57600080fd5b5061043561063a366004612e1f565b6114d4565b34801561064b57600080fd5b506101c7546102a290600160a81b900460ff1681565b34801561066d57600080fd5b5061028061067c366004612e5d565b6115a8565b34801561068d57600080fd5b506102a261069c366004612be1565b6101c66020526000908152604090205460ff1681565b3480156106be57600080fd5b506102c36106cd366004612ed0565b61170c565b3480156106de57600080fd5b506102806106ed366004612be1565b611737565b3480156106fe57600080fd5b506102806117ad565b34801561071357600080fd5b506102806117f8565b60606036805461072b90612f03565b80601f016020809104026020016040519081016040528092919081815260200182805461075790612f03565b80156107a45780601f10610779576101008083540402835291602001916107a4565b820191906000526020600020905b81548152906001019060200180831161078757829003601f168201915b5050505050905090565b6107b6611849565b6001600160a01b0381166108035760405162461bcd60e51b815260206004820152600f60248201526e496e76616c6964206164647265737360881b60448201526064015b60405180910390fd5b6001600160a01b03811660009081526101c6602052604090205460ff1661087c5760405162461bcd60e51b815260206004820152602760248201527f41646472657373206e6f7420696e206c6f636b207472616e736665722061646d6044820152661a5b881b1a5cdd60ca1b60648201526084016107fa565b6001600160a01b03811660008181526101c66020526040808220805460ff19169055517ffac8d29dc40b9702c55f0d7cb1cc689dae4df18e751a7aab656b137cb537ddb09190a250565b6000336108d48185856118a4565b60019150505b92915050565b60006001600160a01b03831615806108f6575081155b1561090d576109068484846119c8565b90506109d3565b6101c754600160a81b900460ff16801561093f57506001600160a01b03841660009081526101c8602052604090205415155b156109a15760006109508584611473565b90508061099f5760405162461bcd60e51b815260206004820152601d60248201527f496e73756666696369656e7420756e6c6f636b65642062616c616e636500000060448201526064016107fa565b505b60006109ae8585856119c8565b9050806109cd5760405162461bcd60e51b81526004016107fa90612f37565b60019150505b9392505050565b60006109e46119e1565b905090565b6001600160a01b037f0000000000000000000000000000000000000000000000000000000000000000163003610a315760405162461bcd60e51b81526004016107fa90612f60565b7f00000000000000000000000000000000000000000000000000000000000000006001600160a01b0316610a7a6000805160206132fb833981519152546001600160a01b031690565b6001600160a01b031614610aa05760405162461bcd60e51b81526004016107fa90612fac565b610aa9816119eb565b60408051600080825260208201909252610ac591839190611b6f565b50565b6000336108d4818585610adb838361170c565b610ae5919061300e565b6118a4565b610af2611849565b6101c7805460ff60a01b1916600160a01b1790556040517f2b12836a7bcd9e01b54ee262c1c3079c9d8cd8dba247dc7b7e7965f652ca141690610b389042815260200190565b60405180910390a1565b610ac53382611cdf565b610b54611849565b6101c780546001600160a01b0319166001600160a01b0383169081179091556040517f7def7bec2a73f6c42dfba89d246c5f973ffb3b544d40057665f8584d6c773b5890600090a250565b6001600160a01b037f0000000000000000000000000000000000000000000000000000000000000000163003610be75760405162461bcd60e51b81526004016107fa90612f60565b7f00000000000000000000000000000000000000000000000000000000000000006001600160a01b0316610c306000805160206132fb833981519152546001600160a01b031690565b6001600160a01b031614610c565760405162461bcd60e51b81526004016107fa90612fac565b610c5f826119eb565b610c6b82826001611b6f565b5050565b6000306001600160a01b037f00000000000000000000000000000000000000000000000000000000000000001614610d0f5760405162461bcd60e51b815260206004820152603860248201527f555550535570677261646561626c653a206d757374206e6f742062652063616c60448201527f6c6564207468726f7567682064656c656761746563616c6c000000000000000060648201526084016107fa565b506000805160206132fb83398151915290565b6000806000610d3084611e13565b9050610d51846001600160a01b031660009081526033602052604090205490565b9250610d5d8382611eac565b915050915091565b610d6d611849565b610d776000611eb8565b565b610d84823383611f0b565b610c6b8282611cdf565b6001600160a01b038116600090815260cb60205260408120546108da565b600054610100900460ff1615808015610dcc5750600054600160ff909116105b80610de65750303b158015610de6575060005460ff166001145b610e495760405162461bcd60e51b815260206004820152602e60248201527f496e697469616c697a61626c653a20636f6e747261637420697320616c72656160448201526d191e481a5b9a5d1a585b1a5e995960921b60648201526084016107fa565b6000805460ff191660011790558015610e6c576000805461ff0019166101001790555b610eb1604051806040016040528060088152602001671610525059d95b9d60c21b8152506040518060400160405280600381526020016258414160e81b815250611f7f565b610eb9611fb0565b610ee2604051806040016040528060088152602001671610525059d95b9d60c21b815250611fd7565b610eea612021565b610ef2612050565b610efa611fb0565b610f1e33610f0a6012600a613105565b610f199064174876e800613114565b61207f565b6101c7805460ff60a81b1916600160a81b1790558015610ac5576000805461ff0019169055604051600181527f7f26b83ff96e1f2b6a682f133852f6798a09c465da95921460cefb38474024989060200160405180910390a150565b6000606080600080600060606097546000801b148015610f9a5750609854155b610fde5760405162461bcd60e51b81526020600482015260156024820152741152540dcc4c8e88155b9a5b9a5d1a585b1a5e9959605a1b60448201526064016107fa565b610fe6612140565b610fee61214f565b60408051600080825260208201909252600f60f81b9b939a50919850469750309650945092509050565b3360009081526101c6602052604090205460ff166110785760405162461bcd60e51b815260206004820152601760248201527f4e6f74206c6f636b207472616e736665722061646d696e00000000000000000060448201526064016107fa565b6001600160a01b0383166110c25760405162461bcd60e51b8152602060048201526011602482015270125b9d985b1a59081c9958da5c1a595b9d607a1b60448201526064016107fa565b600082116111035760405162461bcd60e51b815260206004820152600e60248201526d125b9d985b1a5908185b5bdd5b9d60921b60448201526064016107fa565b6000811161114b5760405162461bcd60e51b815260206004820152601560248201527424b73b30b634b2103637b1b590323ab930ba34b7b760591b60448201526064016107fa565b6101c754600160a81b900460ff166111a55760405162461bcd60e51b815260206004820152601e60248201527f4c6f636b2066756e6374696f6e616c6974792069732064697361626c6564000060448201526064016107fa565b60006111b1848461215e565b9050806111d05760405162461bcd60e51b81526004016107fa90612f37565b6111db84848461216c565b50505050565b6111e9611849565b6001600160a01b0381166112315760405162461bcd60e51b815260206004820152600f60248201526e496e76616c6964206164647265737360881b60448201526064016107fa565b6001600160a01b03811660009081526101c6602052604090205460ff16156112af5760405162461bcd60e51b815260206004820152602b60248201527f4164647265737320616c726561647920696e206c6f636b207472616e7366657260448201526a0818591b5a5b881b1a5cdd60aa1b60648201526084016107fa565b6001600160a01b03811660008181526101c66020526040808220805460ff19166001179055517fe74b3ba98973e3c76be8eebbd635febd40794bf314036712609ecedc14b52eb49190a250565b60606037805461072b90612f03565b60003381611319828661170c565b9050838110156113795760405162461bcd60e51b815260206004820152602560248201527f45524332303a2064656372656173656420616c6c6f77616e63652062656c6f77604482015264207a65726f60d81b60648201526084016107fa565b61138682868684036118a4565b506001949350505050565b60006001600160a01b03831615806113a7575081155b156113bd576113b6838361215e565b90506108da565b6101c754600160a81b900460ff1680156113e657503360009081526101c8602052604090205415155b156114485760006113f73384611473565b9050806114465760405162461bcd60e51b815260206004820152601d60248201527f496e73756666696369656e7420756e6c6f636b65642062616c616e636500000060448201526064016107fa565b505b6000611454848461215e565b9050806108d45760405162461bcd60e51b81526004016107fa90612f37565b6101c754600090600160a81b900460ff16611490575060016108da565b600061149b84611e13565b905060006114c8826114c2876001600160a01b031660009081526033602052604090205490565b90611eac565b90931115949350505050565b6001600160a01b03821660009081526101c86020526040812054819061ffff8416106115375760405162461bcd60e51b8152602060048201526012602482015271496e646578206f7574206f662072616e676560701b60448201526064016107fa565b6001600160a01b03841660009081526101c860205260408120805461ffff86169081106115665761156661312b565b60009182526020918290206040805160608101825260039093029091018054835260018101549383018490526002015491018190529093509150509250929050565b834211156115f85760405162461bcd60e51b815260206004820152601d60248201527f45524332305065726d69743a206578706972656420646561646c696e6500000060448201526064016107fa565b60007f6e71edae12b1b97f4d1f60370fef10105fa2faae0126114a169c64845d6126c98888886116278c6122fc565b6040805160208101969096526001600160a01b0394851690860152929091166060840152608083015260a082015260c0810186905260e001604051602081830303815290604052805190602001209050600061168282612324565b9050600061169282878787612351565b9050896001600160a01b0316816001600160a01b0316146116f55760405162461bcd60e51b815260206004820152601e60248201527f45524332305065726d69743a20696e76616c6964207369676e6174757265000060448201526064016107fa565b6117008a8a8a6118a4565b50505050505050505050565b6001600160a01b03918216600090815260346020908152604080832093909416825291909152205490565b61173f611849565b6001600160a01b0381166117a45760405162461bcd60e51b815260206004820152602660248201527f4f776e61626c653a206e6577206f776e657220697320746865207a65726f206160448201526564647265737360d01b60648201526084016107fa565b610ac581611eb8565b6117b5611849565b6101c7805460ff60a81b19169055604080514281524360208201527fb5e70c210d2e71a1c7a0374093a7500a98144cb3e42b1347119779fc7f6e1e779101610b38565b611800611849565b6101c7805460ff60a81b1916600160a81b179055604080514281524360208201527f36f626ff436289b843a75d20dd61a7675ca89ff5930b2ba1f10dad7315ce08529101610b38565b610130546001600160a01b03163314610d775760405162461bcd60e51b815260206004820181905260248201527f4f776e61626c653a2063616c6c6572206973206e6f7420746865206f776e657260448201526064016107fa565b6001600160a01b0383166119065760405162461bcd60e51b8152602060048201526024808201527f45524332303a20617070726f76652066726f6d20746865207a65726f206164646044820152637265737360e01b60648201526084016107fa565b6001600160a01b0382166119675760405162461bcd60e51b815260206004820152602260248201527f45524332303a20617070726f766520746f20746865207a65726f206164647265604482015261737360f01b60648201526084016107fa565b6001600160a01b0383811660008181526034602090815260408083209487168084529482529182902085905590518481527f8c5be1e5ebec7d5bd14f71427d1e84f3dd0314c0f7b2291e5b200ac8c7c3b925910160405180910390a3505050565b6000336119d6858285611f0b565b6109cd85858561237b565b60006109e4612526565b6101c754600160a01b900460ff1615611a465760405162461bcd60e51b815260206004820152601c60248201527f436f6e747261637420757067726164652069732064697361626c65640000000060448201526064016107fa565b6101c7546001600160a01b0316611a9f5760405162461bcd60e51b815260206004820152601960248201527f4e6f2075706772616465207065726d697373696f6e207365740000000000000060448201526064016107fa565b6101c7546001600160a01b03163314611b055760405162461bcd60e51b815260206004820152602260248201527f4f6e6c792063616e55706772616465416464726573732063616e207570677261604482015261646560f01b60648201526084016107fa565b6001600160a01b038116611b5b5760405162461bcd60e51b815260206004820152601e60248201527f496e76616c696420696d706c656d656e746174696f6e2061646472657373000060448201526064016107fa565b506101c780546001600160a01b0319169055565b7f4910fdfa16fed3260ed0e7147f7cc6da11a60208b5b9406d12a635614ffd91435460ff1615611ba757611ba28361259a565b505050565b826001600160a01b03166352d1902d6040518163ffffffff1660e01b8152600401602060405180830381865afa925050508015611c01575060408051601f3d908101601f19168201909252611bfe91810190613141565b60015b611c645760405162461bcd60e51b815260206004820152602e60248201527f45524331393637557067726164653a206e657720696d706c656d656e7461746960448201526d6f6e206973206e6f74205555505360901b60648201526084016107fa565b6000805160206132fb8339815191528114611cd35760405162461bcd60e51b815260206004820152602960248201527f45524331393637557067726164653a20756e737570706f727465642070726f786044820152681a58589b195555525160ba1b60648201526084016107fa565b50611ba2838383612636565b6001600160a01b038216611d3f5760405162461bcd60e51b815260206004820152602160248201527f45524332303a206275726e2066726f6d20746865207a65726f206164647265736044820152607360f81b60648201526084016107fa565b6001600160a01b03821660009081526033602052604090205481811015611db35760405162461bcd60e51b815260206004820152602260248201527f45524332303a206275726e20616d6f756e7420657863656564732062616c616e604482015261636560f01b60648201526084016107fa565b6001600160a01b03831660008181526033602090815260408083208686039055603580548790039055518581529192917fddf252ad1be2c89b69c2b068fc378daa952ba7f163c4a11628f55a4df523b3ef910160405180910390a3505050565b6001600160a01b03811660009081526101c86020526040812081805b8254811015611ea457828181548110611e4a57611e4a61312b565b906000526020600020906003020160020154421015611e9c57611e99838281548110611e7857611e7861312b565b9060005260206000209060030201600101548361265b90919063ffffffff16565b91505b600101611e2f565b509392505050565b60006109d3828461315a565b61013080546001600160a01b038381166001600160a01b0319831681179093556040519116919082907f8be0079c531659141344cd1fd0a4f28419497f9722a3daafe3b4186f6b6457e090600090a35050565b6000611f17848461170c565b905060001981146111db5781811015611f725760405162461bcd60e51b815260206004820152601d60248201527f45524332303a20696e73756666696369656e7420616c6c6f77616e636500000060448201526064016107fa565b6111db84848484036118a4565b600054610100900460ff16611fa65760405162461bcd60e51b81526004016107fa9061316d565b610c6b8282612667565b600054610100900460ff16610d775760405162461bcd60e51b81526004016107fa9061316d565b600054610100900460ff16611ffe5760405162461bcd60e51b81526004016107fa9061316d565b610ac581604051806040016040528060018152602001603160f81b8152506126a7565b600054610100900460ff166120485760405162461bcd60e51b81526004016107fa9061316d565b610d776126f6565b600054610100900460ff166120775760405162461bcd60e51b81526004016107fa9061316d565b610d77612724565b6001600160a01b0382166120d55760405162461bcd60e51b815260206004820152601f60248201527f45524332303a206d696e7420746f20746865207a65726f20616464726573730060448201526064016107fa565b80603560008282546120e7919061300e565b90915550506001600160a01b0382166000818152603360209081526040808320805486019055518481527fddf252ad1be2c89b69c2b068fc378daa952ba7f163c4a11628f55a4df523b3ef910160405180910390a35050565b60606099805461072b90612f03565b6060609a805461072b90612f03565b6000336108d481858561237b565b6001600160a01b0383166121bb5760405162461bcd60e51b8152602060048201526016602482015275496e76616c69642077616c6c6574206164647265737360501b60448201526064016107fa565b600082116121fc5760405162461bcd60e51b815260206004820152600e60248201526d125b9d985b1a5908185b5bdd5b9d60921b60448201526064016107fa565b600081116122445760405162461bcd60e51b815260206004820152601560248201527424b73b30b634b2103637b1b590323ab930ba34b7b760591b60448201526064016107fa565b426000612251838361300e565b6001600160a01b03861660008181526101c86020908152604080832081516060810183528881528084018b8152818401888152835460018181018655948852959096209151600390950290910193845551908301559151600290910155519192509033907f44d8e77a775c28caeb187f3d075393023f89802855771a543607e45e1094e09c906122ed9088904390918252602082015260400190565b60405180910390a35050505050565b6001600160a01b038116600090815260cb602052604090208054600181018255905b50919050565b60006108da6123316119e1565b8360405161190160f01b8152600281019290925260228201526042902090565b600080600061236287878787612754565b9150915061236f81612818565b5090505b949350505050565b6001600160a01b0383166123df5760405162461bcd60e51b815260206004820152602560248201527f45524332303a207472616e736665722066726f6d20746865207a65726f206164604482015264647265737360d81b60648201526084016107fa565b6001600160a01b0382166124415760405162461bcd60e51b815260206004820152602360248201527f45524332303a207472616e7366657220746f20746865207a65726f206164647260448201526265737360e81b60648201526084016107fa565b6001600160a01b038316600090815260336020526040902054818110156124b95760405162461bcd60e51b815260206004820152602660248201527f45524332303a207472616e7366657220616d6f756e7420657863656564732062604482015265616c616e636560d01b60648201526084016107fa565b6001600160a01b0380851660008181526033602052604080822086860390559286168082529083902080548601905591517fddf252ad1be2c89b69c2b068fc378daa952ba7f163c4a11628f55a4df523b3ef906125199086815260200190565b60405180910390a36111db565b60007f8b73c3c69bb8fe3d512ecc4cf759cc79239f7b179b0ffacaa9a75d522b39400f612551612962565b6125596129bb565b60408051602081019490945283019190915260608201524660808201523060a082015260c00160405160208183030381529060405280519060200120905090565b6001600160a01b0381163b6126075760405162461bcd60e51b815260206004820152602d60248201527f455243313936373a206e657720696d706c656d656e746174696f6e206973206e60448201526c1bdd08184818dbdb9d1c9858dd609a1b60648201526084016107fa565b6000805160206132fb83398151915280546001600160a01b0319166001600160a01b0392909216919091179055565b61263f836129ec565b60008251118061264c5750805b15611ba2576111db8383612a2c565b60006109d3828461300e565b600054610100900460ff1661268e5760405162461bcd60e51b81526004016107fa9061316d565b603661269a8382613208565b506037611ba28282613208565b600054610100900460ff166126ce5760405162461bcd60e51b81526004016107fa9061316d565b60996126da8382613208565b50609a6126e78282613208565b50506000609781905560985550565b600054610100900460ff1661271d5760405162461bcd60e51b81526004016107fa9061316d565b600160fe55565b600054610100900460ff1661274b5760405162461bcd60e51b81526004016107fa9061316d565b610d7733611eb8565b6000807f7fffffffffffffffffffffffffffffff5d576e7357a4501ddfe92f46681b20a083111561278b575060009050600361280f565b6040805160008082526020820180845289905260ff881692820192909252606081018690526080810185905260019060a0016020604051602081039080840390855afa1580156127df573d6000803e3d6000fd5b5050604051601f1901519150506001600160a01b0381166128085760006001925092505061280f565b9150600090505b94509492505050565b600081600481111561282c5761282c6132c8565b036128345750565b6001816004811115612848576128486132c8565b036128955760405162461bcd60e51b815260206004820152601860248201527f45434453413a20696e76616c6964207369676e6174757265000000000000000060448201526064016107fa565b60028160048111156128a9576128a96132c8565b036128f65760405162461bcd60e51b815260206004820152601f60248201527f45434453413a20696e76616c6964207369676e6174757265206c656e6774680060448201526064016107fa565b600381600481111561290a5761290a6132c8565b03610ac55760405162461bcd60e51b815260206004820152602260248201527f45434453413a20696e76616c6964207369676e6174757265202773272076616c604482015261756560f01b60648201526084016107fa565b60008061296d612140565b805190915015612984578051602090910120919050565b60975480156129935792915050565b7fc5d2460186f7233c927e7db2dcc703c0e500b653ca82273b7bfad8045d85a4709250505090565b6000806129c661214f565b8051909150156129dd578051602090910120919050565b60985480156129935792915050565b6129f58161259a565b6040516001600160a01b038216907fbc7cd75a20ee27fd9adebab32041f755214dbc6bffa90cc0225b39da2e5c2d3b90600090a250565b60606109d3838360405180606001604052806027815260200161331b602791396060600080856001600160a01b031685604051612a6991906132de565b600060405180830381855af49150503d8060008114612aa4576040519150601f19603f3d011682016040523d82523d6000602084013e612aa9565b606091505b5091509150612aba86838387612ac4565b9695505050505050565b60608315612b33578251600003612b2c576001600160a01b0385163b612b2c5760405162461bcd60e51b815260206004820152601d60248201527f416464726573733a2063616c6c20746f206e6f6e2d636f6e747261637400000060448201526064016107fa565b5081612373565b6123738383815115612b485781518083602001fd5b8060405162461bcd60e51b81526004016107fa9190612bb2565b60005b83811015612b7d578181015183820152602001612b65565b50506000910152565b60008151808452612b9e816020860160208601612b62565b601f01601f19169290920160200192915050565b6020815260006109d36020830184612b86565b80356001600160a01b0381168114612bdc57600080fd5b919050565b600060208284031215612bf357600080fd5b6109d382612bc5565b60008060408385031215612c0f57600080fd5b612c1883612bc5565b946020939093013593505050565b600080600060608486031215612c3b57600080fd5b612c4484612bc5565b9250612c5260208501612bc5565b9150604084013590509250925092565b600060208284031215612c7457600080fd5b5035919050565b634e487b7160e01b600052604160045260246000fd5b60008060408385031215612ca457600080fd5b612cad83612bc5565b9150602083013567ffffffffffffffff80821115612cca57600080fd5b818501915085601f830112612cde57600080fd5b813581811115612cf057612cf0612c7b565b604051601f8201601f19908116603f01168101908382118183101715612d1857612d18612c7b565b81604052828152886020848701011115612d3157600080fd5b8260208601602083013760006020848301015280955050505050509250929050565b60ff60f81b881681526000602060e06020840152612d7460e084018a612b86565b8381036040850152612d86818a612b86565b606085018990526001600160a01b038816608086015260a0850187905284810360c08601528551808252602080880193509091019060005b81811015612dda57835183529284019291840191600101612dbe565b50909c9b505050505050505050505050565b600080600060608486031215612e0157600080fd5b612e0a84612bc5565b95602085013595506040909401359392505050565b60008060408385031215612e3257600080fd5b612e3b83612bc5565b9150602083013561ffff81168114612e5257600080fd5b809150509250929050565b600080600080600080600060e0888a031215612e7857600080fd5b612e8188612bc5565b9650612e8f60208901612bc5565b95506040880135945060608801359350608088013560ff81168114612eb357600080fd5b9699959850939692959460a0840135945060c09093013592915050565b60008060408385031215612ee357600080fd5b612eec83612bc5565b9150612efa60208401612bc5565b90509250929050565b600181811c90821680612f1757607f821691505b60208210810361231e57634e487b7160e01b600052602260045260246000fd5b6020808252600f908201526e151c985b9cd9995c8819985a5b1959608a1b604082015260600190565b6020808252602c908201527f46756e6374696f6e206d7573742062652063616c6c6564207468726f7567682060408201526b19195b1959d85d1958d85b1b60a21b606082015260800190565b6020808252602c908201527f46756e6374696f6e206d7573742062652063616c6c6564207468726f7567682060408201526b6163746976652070726f787960a01b606082015260800190565b634e487b7160e01b600052601160045260246000fd5b808201808211156108da576108da612ff8565b600181815b8085111561305c57816000190482111561304257613042612ff8565b8085161561304f57918102915b93841c9390800290613026565b509250929050565b600082613073575060016108da565b81613080575060006108da565b816001811461309657600281146130a0576130bc565b60019150506108da565b60ff8411156130b1576130b1612ff8565b50506001821b6108da565b5060208310610133831016604e8410600b84101617156130df575081810a6108da565b6130e98383613021565b80600019048211156130fd576130fd612ff8565b029392505050565b60006109d360ff841683613064565b80820281158282048414176108da576108da612ff8565b634e487b7160e01b600052603260045260246000fd5b60006020828403121561315357600080fd5b5051919050565b818103818111156108da576108da612ff8565b6020808252602b908201527f496e697469616c697a61626c653a20636f6e7472616374206973206e6f74206960408201526a6e697469616c697a696e6760a81b606082015260800190565b601f821115611ba2576000816000526020600020601f850160051c810160208610156131e15750805b601f850160051c820191505b81811015613200578281556001016131ed565b505050505050565b815167ffffffffffffffff81111561322257613222612c7b565b613236816132308454612f03565b846131b8565b602080601f83116001811461326b57600084156132535750858301515b600019600386901b1c1916600185901b178555613200565b600085815260208120601f198616915b8281101561329a5788860151825594840194600190910190840161327b565b50858210156132b85787850151600019600388901b60f8161c191681555b5050505050600190811b01905550565b634e487b7160e01b600052602160045260246000fd5b600082516132f0818460208701612b62565b919091019291505056fe360894a13ba1a3210667c828492db98dca3e2076cc3735a920a3ca505d382bbc416464726573733a206c6f772d6c6576656c2064656c65676174652063616c6c206661696c6564a26469706673582212200cc8144f9e496b2200401656e12bf324caa1fda5d6e5c77247274476a097388764736f6c63430008160033",
  "linkReferences": {},
  "deployedLinkReferences": {}
}