{
  "_format": "hh-sol-artifact-1",
  "contractName": "XAIAgentDRC20Upgradeable",
  "sourceName": "contracts/XAIAgentDRC20Upgradeable.sol",
  "abi": [
    {
      "inputs": [],
      "stateMutability": "nonpayable",
      "type": "constructor"
    },
    {
      "anonymous": false,
      "inputs": [
        {
          "indexed": false,
          "internalType": "address",
          "name": "previousAdmin",
          "type": "address"
        },
        {
          "indexed": false,
          "internalType": "address",
          "name": "newAdmin",
          "type": "address"
        }
      ],
      "name": "AdminChanged",
      "type": "event"
    },
    {
      "anonymous": false,
      "inputs": [
        {
          "indexed": true,
          "internalType": "address",
          "name": "owner",
          "type": "address"
        },
        {
          "indexed": true,
          "internalType": "address",
          "name": "spender",
          "type": "address"
        },
        {
          "indexed": false,
          "internalType": "uint256",
          "name": "value",
          "type": "uint256"
        }
      ],
      "name": "Approval",
      "type": "event"
    },
    {
      "anonymous": false,
      "inputs": [
        {
          "indexed": true,
          "internalType": "address",
          "name": "beacon",
          "type": "address"
        }
      ],
      "name": "BeaconUpgraded",
      "type": "event"
    },
    {
      "anonymous": false,
      "inputs": [
        {
          "indexed": true,
          "internalType": "address",
          "name": "investor",
          "type": "address"
        },
        {
          "indexed": false,
          "internalType": "uint256",
          "name": "amount",
          "type": "uint256"
        }
      ],
      "name": "DBCRefunded",
      "type": "event"
    },
    {
      "anonymous": false,
      "inputs": [],
      "name": "EIP712DomainChanged",
      "type": "event"
    },
    {
      "anonymous": false,
      "inputs": [
        {
          "indexed": false,
          "internalType": "uint8",
          "name": "version",
          "type": "uint8"
        }
      ],
      "name": "Initialized",
      "type": "event"
    },
    {
      "anonymous": false,
      "inputs": [
        {
          "indexed": false,
          "internalType": "uint256",
          "name": "totalInvested",
          "type": "uint256"
        }
      ],
      "name": "InvestmentEnded",
      "type": "event"
    },
    {
      "anonymous": false,
      "inputs": [
        {
          "indexed": true,
          "internalType": "address",
          "name": "investor",
          "type": "address"
        },
        {
          "indexed": false,
          "internalType": "uint256",
          "name": "amount",
          "type": "uint256"
        }
      ],
      "name": "InvestmentReceived",
      "type": "event"
    },
    {
      "anonymous": false,
      "inputs": [
        {
          "indexed": false,
          "internalType": "uint256",
          "name": "startTime",
          "type": "uint256"
        },
        {
          "indexed": false,
          "internalType": "uint256",
          "name": "endTime",
          "type": "uint256"
        }
      ],
      "name": "InvestmentStarted",
      "type": "event"
    },
    {
      "anonymous": false,
      "inputs": [
        {
          "indexed": true,
          "internalType": "address",
          "name": "previousOwner",
          "type": "address"
        },
        {
          "indexed": true,
          "internalType": "address",
          "name": "newOwner",
          "type": "address"
        }
      ],
      "name": "OwnershipTransferred",
      "type": "event"
    },
    {
      "anonymous": false,
      "inputs": [
        {
          "indexed": true,
          "internalType": "address",
          "name": "tokenAddress",
          "type": "address"
        },
        {
          "indexed": false,
          "internalType": "uint256",
          "name": "tokenAmount",
          "type": "uint256"
        },
        {
          "indexed": false,
          "internalType": "uint256",
          "name": "dbcAmount",
          "type": "uint256"
        }
      ],
      "name": "PoolCreated",
      "type": "event"
    },
    {
      "anonymous": false,
      "inputs": [
        {
          "indexed": true,
          "internalType": "address",
          "name": "tokenAddress",
          "type": "address"
        },
        {
          "indexed": false,
          "internalType": "uint256",
          "name": "lockedAmount",
          "type": "uint256"
        }
      ],
      "name": "PoolLocked",
      "type": "event"
    },
    {
      "anonymous": false,
      "inputs": [
        {
          "indexed": true,
          "internalType": "address",
          "name": "investor",
          "type": "address"
        },
        {
          "indexed": false,
          "internalType": "uint256",
          "name": "amount",
          "type": "uint256"
        }
      ],
      "name": "TokensDistributed",
      "type": "event"
    },
    {
      "anonymous": false,
      "inputs": [
        {
          "indexed": true,
          "internalType": "address",
          "name": "wallet",
          "type": "address"
        },
        {
          "indexed": false,
          "internalType": "uint256",
          "name": "amount",
          "type": "uint256"
        },
        {
          "indexed": false,
          "internalType": "uint256",
          "name": "unlockTime",
          "type": "uint256"
        }
      ],
      "name": "TokensLocked",
      "type": "event"
    },
    {
      "anonymous": false,
      "inputs": [
        {
          "indexed": true,
          "internalType": "address",
          "name": "from",
          "type": "address"
        },
        {
          "indexed": true,
          "internalType": "address",
          "name": "to",
          "type": "address"
        },
        {
          "indexed": false,
          "internalType": "uint256",
          "name": "value",
          "type": "uint256"
        }
      ],
      "name": "Transfer",
      "type": "event"
    },
    {
      "anonymous": false,
      "inputs": [
        {
          "indexed": true,
          "internalType": "address",
          "name": "implementation",
          "type": "address"
        }
      ],
      "name": "Upgraded",
      "type": "event"
    },
    {
      "inputs": [],
      "name": "CREATOR_ALLOCATION",
      "outputs": [
        {
          "internalType": "uint256",
          "name": "",
          "type": "uint256"
        }
      ],
      "stateMutability": "view",
      "type": "function"
    },
    {
      "inputs": [],
      "name": "CREATOR_LOCK_DURATION",
      "outputs": [
        {
          "internalType": "uint256",
          "name": "",
          "type": "uint256"
        }
      ],
      "stateMutability": "view",
      "type": "function"
    },
    {
      "inputs": [],
      "name": "DBC_POOL_INVESTOR",
      "outputs": [
        {
          "internalType": "uint256",
          "name": "",
          "type": "uint256"
        }
      ],
      "stateMutability": "view",
      "type": "function"
    },
    {
      "inputs": [],
      "name": "DBC_POOL_PERMANENT",
      "outputs": [
        {
          "internalType": "uint256",
          "name": "",
          "type": "uint256"
        }
      ],
      "stateMutability": "view",
      "type": "function"
    },
    {
      "inputs": [],
      "name": "DOMAIN_SEPARATOR",
      "outputs": [
        {
          "internalType": "bytes32",
          "name": "",
          "type": "bytes32"
        }
      ],
      "stateMutability": "view",
      "type": "function"
    },
    {
      "inputs": [],
      "name": "ECOSYSTEM_ALLOCATION",
      "outputs": [
        {
          "internalType": "uint256",
          "name": "",
          "type": "uint256"
        }
      ],
      "stateMutability": "view",
      "type": "function"
    },
    {
      "inputs": [],
      "name": "ECOSYSTEM_LOCK_DURATION",
      "outputs": [
        {
          "internalType": "uint256",
          "name": "",
          "type": "uint256"
        }
      ],
      "stateMutability": "view",
      "type": "function"
    },
    {
      "inputs": [],
      "name": "INITIAL_MARKET_VALUE",
      "outputs": [
        {
          "internalType": "uint256",
          "name": "",
          "type": "uint256"
        }
      ],
      "stateMutability": "view",
      "type": "function"
    },
    {
      "inputs": [],
      "name": "INVESTMENT_DURATION",
      "outputs": [
        {
          "internalType": "uint256",
          "name": "",
          "type": "uint256"
        }
      ],
      "stateMutability": "view",
      "type": "function"
    },
    {
      "inputs": [],
      "name": "MIN_MARKET_VALUE",
      "outputs": [
        {
          "internalType": "uint256",
          "name": "",
          "type": "uint256"
        }
      ],
      "stateMutability": "view",
      "type": "function"
    },
    {
      "inputs": [],
      "name": "PERMANENT_LOCK_DURATION",
      "outputs": [
        {
          "internalType": "uint256",
          "name": "",
          "type": "uint256"
        }
      ],
      "stateMutability": "view",
      "type": "function"
    },
    {
      "inputs": [],
      "name": "TARGET_DBC_VALUE",
      "outputs": [
        {
          "internalType": "uint256",
          "name": "",
          "type": "uint256"
        }
      ],
      "stateMutability": "view",
      "type": "function"
    },
    {
      "inputs": [],
      "name": "XAA_POOL_ALLOCATION",
      "outputs": [
        {
          "internalType": "uint256",
          "name": "",
          "type": "uint256"
        }
      ],
      "stateMutability": "view",
      "type": "function"
    },
    {
      "inputs": [
        {
          "internalType": "address",
          "name": "owner",
          "type": "address"
        },
        {
          "internalType": "address",
          "name": "spender",
          "type": "address"
        }
      ],
      "name": "allowance",
      "outputs": [
        {
          "internalType": "uint256",
          "name": "",
          "type": "uint256"
        }
      ],
      "stateMutability": "view",
      "type": "function"
    },
    {
      "inputs": [
        {
          "internalType": "address",
          "name": "spender",
          "type": "address"
        },
        {
          "internalType": "uint256",
          "name": "amount",
          "type": "uint256"
        }
      ],
      "name": "approve",
      "outputs": [
        {
          "internalType": "bool",
          "name": "",
          "type": "bool"
        }
      ],
      "stateMutability": "nonpayable",
      "type": "function"
    },
    {
      "inputs": [
        {
          "internalType": "address",
          "name": "account",
          "type": "address"
        }
      ],
      "name": "balanceOf",
      "outputs": [
        {
          "internalType": "uint256",
          "name": "",
          "type": "uint256"
        }
      ],
      "stateMutability": "view",
      "type": "function"
    },
    {
      "inputs": [
        {
          "internalType": "uint256",
          "name": "amount",
          "type": "uint256"
        }
      ],
      "name": "burn",
      "outputs": [],
      "stateMutability": "nonpayable",
      "type": "function"
    },
    {
      "inputs": [
        {
          "internalType": "address",
          "name": "account",
          "type": "address"
        },
        {
          "internalType": "uint256",
          "name": "amount",
          "type": "uint256"
        }
      ],
      "name": "burnFrom",
      "outputs": [],
      "stateMutability": "nonpayable",
      "type": "function"
    },
    {
      "inputs": [],
      "name": "creatorAddress",
      "outputs": [
        {
          "internalType": "address",
          "name": "",
          "type": "address"
        }
      ],
      "stateMutability": "view",
      "type": "function"
    },
    {
      "inputs": [],
      "name": "dbcPool",
      "outputs": [
        {
          "internalType": "address",
          "name": "tokenAddress",
          "type": "address"
        },
        {
          "internalType": "uint256",
          "name": "tokenAmount",
          "type": "uint256"
        },
        {
          "internalType": "uint256",
          "name": "dbcAmount",
          "type": "uint256"
        },
        {
          "internalType": "bool",
          "name": "isLocked",
          "type": "bool"
        }
      ],
      "stateMutability": "view",
      "type": "function"
    },
    {
      "inputs": [],
      "name": "dbcToken",
      "outputs": [
        {
          "internalType": "contract IERC20",
          "name": "",
          "type": "address"
        }
      ],
      "stateMutability": "view",
      "type": "function"
    },
    {
      "inputs": [],
      "name": "decimals",
      "outputs": [
        {
          "internalType": "uint8",
          "name": "",
          "type": "uint8"
        }
      ],
      "stateMutability": "view",
      "type": "function"
    },
    {
      "inputs": [
        {
          "internalType": "address",
          "name": "spender",
          "type": "address"
        },
        {
          "internalType": "uint256",
          "name": "subtractedValue",
          "type": "uint256"
        }
      ],
      "name": "decreaseAllowance",
      "outputs": [
        {
          "internalType": "bool",
          "name": "",
          "type": "bool"
        }
      ],
      "stateMutability": "nonpayable",
      "type": "function"
    },
    {
      "inputs": [],
      "name": "ecosystemAddress",
      "outputs": [
        {
          "internalType": "address",
          "name": "",
          "type": "address"
        }
      ],
      "stateMutability": "view",
      "type": "function"
    },
    {
      "inputs": [],
      "name": "eip712Domain",
      "outputs": [
        {
          "internalType": "bytes1",
          "name": "fields",
          "type": "bytes1"
        },
        {
          "internalType": "string",
          "name": "name",
          "type": "string"
        },
        {
          "internalType": "string",
          "name": "version",
          "type": "string"
        },
        {
          "internalType": "uint256",
          "name": "chainId",
          "type": "uint256"
        },
        {
          "internalType": "address",
          "name": "verifyingContract",
          "type": "address"
        },
        {
          "internalType": "bytes32",
          "name": "salt",
          "type": "bytes32"
        },
        {
          "internalType": "uint256[]",
          "name": "extensions",
          "type": "uint256[]"
        }
      ],
      "stateMutability": "view",
      "type": "function"
    },
    {
      "inputs": [
        {
          "internalType": "address",
          "name": "caller",
          "type": "address"
        }
      ],
      "name": "getAvailableAmount",
      "outputs": [
        {
          "internalType": "uint256",
          "name": "total",
          "type": "uint256"
        },
        {
          "internalType": "uint256",
          "name": "availableAmount",
          "type": "uint256"
        }
      ],
      "stateMutability": "view",
      "type": "function"
    },
    {
      "inputs": [
        {
          "internalType": "address",
          "name": "caller",
          "type": "address"
        },
        {
          "internalType": "uint16",
          "name": "index",
          "type": "uint16"
        }
      ],
      "name": "getLockAmountAndUnlockAt",
      "outputs": [
        {
          "internalType": "uint256",
          "name": "amount",
          "type": "uint256"
        },
        {
          "internalType": "uint256",
          "name": "unlockTime",
          "type": "uint256"
        }
      ],
      "stateMutability": "view",
      "type": "function"
    },
    {
      "inputs": [
        {
          "internalType": "address",
          "name": "spender",
          "type": "address"
        },
        {
          "internalType": "uint256",
          "name": "addedValue",
          "type": "uint256"
        }
      ],
      "name": "increaseAllowance",
      "outputs": [
        {
          "internalType": "bool",
          "name": "",
          "type": "bool"
        }
      ],
      "stateMutability": "nonpayable",
      "type": "function"
    },
    {
      "inputs": [],
      "name": "initialTokenPrice",
      "outputs": [
        {
          "internalType": "uint256",
          "name": "",
          "type": "uint256"
        }
      ],
      "stateMutability": "view",
      "type": "function"
    },
    {
      "inputs": [
        {
          "internalType": "uint256",
          "name": "_initialTokenPrice",
          "type": "uint256"
        },
        {
          "internalType": "address",
          "name": "_dbcTokenAddress",
          "type": "address"
        },
        {
          "internalType": "address",
          "name": "_xaaPoolAddress",
          "type": "address"
        },
        {
          "internalType": "address",
          "name": "_ecosystemAddress",
          "type": "address"
        },
        {
          "internalType": "address",
          "name": "_creatorAddress",
          "type": "address"
        }
      ],
      "name": "initialize",
      "outputs": [],
      "stateMutability": "nonpayable",
      "type": "function"
    },
    {
      "inputs": [
        {
          "internalType": "uint256",
          "name": "amount",
          "type": "uint256"
        }
      ],
      "name": "invest",
      "outputs": [],
      "stateMutability": "nonpayable",
      "type": "function"
    },
    {
      "inputs": [],
      "name": "investmentEndTime",
      "outputs": [
        {
          "internalType": "uint256",
          "name": "",
          "type": "uint256"
        }
      ],
      "stateMutability": "view",
      "type": "function"
    },
    {
      "inputs": [],
      "name": "investmentOpen",
      "outputs": [
        {
          "internalType": "bool",
          "name": "",
          "type": "bool"
        }
      ],
      "stateMutability": "view",
      "type": "function"
    },
    {
      "inputs": [],
      "name": "investmentStartTime",
      "outputs": [
        {
          "internalType": "uint256",
          "name": "",
          "type": "uint256"
        }
      ],
      "stateMutability": "view",
      "type": "function"
    },
    {
      "inputs": [
        {
          "internalType": "address",
          "name": "",
          "type": "address"
        }
      ],
      "name": "investments",
      "outputs": [
        {
          "internalType": "uint256",
          "name": "",
          "type": "uint256"
        }
      ],
      "stateMutability": "view",
      "type": "function"
    },
    {
      "inputs": [],
      "name": "name",
      "outputs": [
        {
          "internalType": "string",
          "name": "",
          "type": "string"
        }
      ],
      "stateMutability": "view",
      "type": "function"
    },
    {
      "inputs": [
        {
          "internalType": "address",
          "name": "owner",
          "type": "address"
        }
      ],
      "name": "nonces",
      "outputs": [
        {
          "internalType": "uint256",
          "name": "",
          "type": "uint256"
        }
      ],
      "stateMutability": "view",
      "type": "function"
    },
    {
      "inputs": [],
      "name": "owner",
      "outputs": [
        {
          "internalType": "address",
          "name": "",
          "type": "address"
        }
      ],
      "stateMutability": "view",
      "type": "function"
    },
    {
      "inputs": [
        {
          "internalType": "address",
          "name": "owner",
          "type": "address"
        },
        {
          "internalType": "address",
          "name": "spender",
          "type": "address"
        },
        {
          "internalType": "uint256",
          "name": "value",
          "type": "uint256"
        },
        {
          "internalType": "uint256",
          "name": "deadline",
          "type": "uint256"
        },
        {
          "internalType": "uint8",
          "name": "v",
          "type": "uint8"
        },
        {
          "internalType": "bytes32",
          "name": "r",
          "type": "bytes32"
        },
        {
          "internalType": "bytes32",
          "name": "s",
          "type": "bytes32"
        }
      ],
      "name": "permit",
      "outputs": [],
      "stateMutability": "nonpayable",
      "type": "function"
    },
    {
      "inputs": [],
      "name": "proxiableUUID",
      "outputs": [
        {
          "internalType": "bytes32",
          "name": "",
          "type": "bytes32"
        }
      ],
      "stateMutability": "view",
      "type": "function"
    },
    {
      "inputs": [],
      "name": "renounceOwnership",
      "outputs": [],
      "stateMutability": "nonpayable",
      "type": "function"
    },
    {
      "inputs": [],
      "name": "startInvestment",
      "outputs": [],
      "stateMutability": "nonpayable",
      "type": "function"
    },
    {
      "inputs": [],
      "name": "symbol",
      "outputs": [
        {
          "internalType": "string",
          "name": "",
          "type": "string"
        }
      ],
      "stateMutability": "view",
      "type": "function"
    },
    {
      "inputs": [],
      "name": "tokensDistributed",
      "outputs": [
        {
          "internalType": "bool",
          "name": "",
          "type": "bool"
        }
      ],
      "stateMutability": "view",
      "type": "function"
    },
    {
      "inputs": [],
      "name": "totalDBCInvested",
      "outputs": [
        {
          "internalType": "uint256",
          "name": "",
          "type": "uint256"
        }
      ],
      "stateMutability": "view",
      "type": "function"
    },
    {
      "inputs": [],
      "name": "totalSupply",
      "outputs": [
        {
          "internalType": "uint256",
          "name": "",
          "type": "uint256"
        }
      ],
      "stateMutability": "view",
      "type": "function"
    },
    {
      "inputs": [
        {
          "internalType": "address",
          "name": "to",
          "type": "address"
        },
        {
          "internalType": "uint256",
          "name": "amount",
          "type": "uint256"
        }
      ],
      "name": "transfer",
      "outputs": [
        {
          "internalType": "bool",
          "name": "",
          "type": "bool"
        }
      ],
      "stateMutability": "nonpayable",
      "type": "function"
    },
    {
      "inputs": [
        {
          "internalType": "address",
          "name": "from",
          "type": "address"
        },
        {
          "internalType": "address",
          "name": "to",
          "type": "address"
        },
        {
          "internalType": "uint256",
          "name": "amount",
          "type": "uint256"
        }
      ],
      "name": "transferFrom",
      "outputs": [
        {
          "internalType": "bool",
          "name": "",
          "type": "bool"
        }
      ],
      "stateMutability": "nonpayable",
      "type": "function"
    },
    {
      "inputs": [
        {
          "internalType": "address",
          "name": "newOwner",
          "type": "address"
        }
      ],
      "name": "transferOwnership",
      "outputs": [],
      "stateMutability": "nonpayable",
      "type": "function"
    },
    {
      "inputs": [
        {
          "internalType": "address",
          "name": "newImplementation",
          "type": "address"
        }
      ],
      "name": "upgradeTo",
      "outputs": [],
      "stateMutability": "nonpayable",
      "type": "function"
    },
    {
      "inputs": [
        {
          "internalType": "address",
          "name": "newImplementation",
          "type": "address"
        },
        {
          "internalType": "bytes",
          "name": "data",
          "type": "bytes"
        }
      ],
      "name": "upgradeToAndCall",
      "outputs": [],
      "stateMutability": "payable",
      "type": "function"
    },
    {
      "inputs": [],
      "name": "xaaPool",
      "outputs": [
        {
          "internalType": "address",
          "name": "tokenAddress",
          "type": "address"
        },
        {
          "internalType": "uint256",
          "name": "tokenAmount",
          "type": "uint256"
        },
        {
          "internalType": "uint256",
          "name": "dbcAmount",
          "type": "uint256"
        },
        {
          "internalType": "bool",
          "name": "isLocked",
          "type": "bool"
        }
      ],
      "stateMutability": "view",
      "type": "function"
    },
    {
      "inputs": [],
      "name": "xaaPoolAddress",
      "outputs": [
        {
          "internalType": "address",
          "name": "",
          "type": "address"
        }
      ],
      "stateMutability": "view",
      "type": "function"
    }
  ],
  "bytecode": "0x60a0604052306080523480156200001557600080fd5b506200002062000026565b620000e7565b600054610100900460ff1615620000935760405162461bcd60e51b815260206004820152602760248201527f496e697469616c697a61626c653a20636f6e747261637420697320696e697469604482015266616c697a696e6760c81b606482015260840160405180910390fd5b60005460ff90811614620000e5576000805460ff191660ff9081179091556040519081527f7f26b83ff96e1f2b6a682f133852f6798a09c465da95921460cefb38474024989060200160405180910390a15b565b6080516139176200011f6000396000818161114e0152818161118e0152818161125601528181611296015261132901526139176000f3fe60806040526004361061031a5760003560e01c806373ef8387116101ab578063afa98831116100f7578063dcd8bc4111610095578063e487709d1161006f578063e487709d1461093a578063e927fc5c14610950578063ee84258414610971578063f2fde38b1461098857600080fd5b8063dcd8bc41146108ec578063dd62ed3e14610903578063e0ea29441461092357600080fd5b8063c980270d116100d1578063c980270d14610862578063cf93340d14610879578063d2d8ca5614610899578063d505accf146108cc57600080fd5b8063afa9883114610815578063b95b43bf14610836578063c43d8aa61461084d57600080fd5b806390534f2411610164578063a18b56741161013e578063a18b5674146107a1578063a457c2d7146107bf578063a9059cbb146107df578063add78ad0146107ff57600080fd5b806390534f24146104ff57806395d89b411461075e57806396b988621461077357600080fd5b806373ef83871461069e57806379cc6790146106b95780637e23ecc2146106d95780637ecebe00146106f757806384b0196e146107175780638da5cb5b1461073f57600080fd5b8063313ce5671161026a5780634498c446116102235780636234ba27116101fd5780636234ba271461061c57806370a0823114610635578063715018a61461066b5780637346069d1461068057600080fd5b80634498c446146105dd5780634f1ef286146105f457806352d1902d1461060757600080fd5b8063313ce5671461052c5780633641e083146105485780633644e515146105685780633659cfe61461057d578063395093511461059d57806342966c68146105bd57600080fd5b806318160ddd116102d757806327d2f915116102b157806327d2f915146104b75780632afcf480146104dd5780632bc73063146104ff5780632ca0228a1461051557600080fd5b806318160ddd1461044d5780631f3a71ba1461046257806323b872dd1461049757600080fd5b806302ce3d671461031f57806306a5cb3a1461034857806306fdde0314610381578063095ea7b3146103a3578063152e84a7146103d357806317defd8f146103ee575b600080fd5b34801561032b57600080fd5b506103356101f481565b6040519081526020015b60405180910390f35b34801561035457600080fd5b506101cd54610369906001600160a01b031681565b6040516001600160a01b03909116815260200161033f565b34801561038d57600080fd5b506103966109a8565b60405161033f91906130ac565b3480156103af57600080fd5b506103c36103be3660046130db565b610a3a565b604051901515815260200161033f565b3480156103df57600080fd5b506101cb546103c39060ff1681565b3480156103fa57600080fd5b506101d6546101d7546101d8546101d954610421936001600160a01b031692919060ff1684565b604080516001600160a01b0390951685526020850193909352918301521515606082015260800161033f565b34801561045957600080fd5b50603554610335565b34801561046e57600080fd5b5061048261047d366004613105565b610a54565b6040805192835260208301919091520161033f565b3480156104a357600080fd5b506103c36104b2366004613120565b610a97565b3480156104c357600080fd5b506101cb546103699061010090046001600160a01b031681565b3480156104e957600080fd5b506104fd6104f836600461315c565b610b08565b005b34801561050b57600080fd5b506103356103e881565b34801561052157600080fd5b506103356101c95481565b34801561053857600080fd5b506040516012815260200161033f565b34801561055457600080fd5b506104fd610563366004613175565b610daa565b34801561057457600080fd5b50610335611135565b34801561058957600080fd5b506104fd610598366004613105565b611144565b3480156105a957600080fd5b506103c36105b83660046130db565b611220565b3480156105c957600080fd5b506104fd6105d836600461315c565b611242565b3480156105e957600080fd5b5061033562278d0081565b6104fd6106023660046131e9565b61124c565b34801561061357600080fd5b5061033561131c565b34801561062857600080fd5b50610335640757b12c0081565b34801561064157600080fd5b50610335610650366004613105565b6001600160a01b031660009081526033602052604090205490565b34801561067757600080fd5b506104fd6113cf565b34801561068c57600080fd5b5061033569054b40b1f852bda0000081565b3480156106aa57600080fd5b506101c7546103c39060ff1681565b3480156106c557600080fd5b506104fd6106d43660046130db565b6113e3565b3480156106e557600080fd5b50610335690fe1c215e8f838e0000081565b34801561070357600080fd5b50610335610712366004613105565b6113f8565b34801561072357600080fd5b5061072c611416565b60405161033f97969594939291906132ab565b34801561074b57600080fd5b50610130546001600160a01b0316610369565b34801561076a57600080fd5b506103966114b4565b34801561077f57600080fd5b5061033561078e366004613105565b6101d06020526000908152604090205481565b3480156107ad57600080fd5b5061033569152d02c7e14af680000081565b3480156107cb57600080fd5b506103c36107da3660046130db565b6114c3565b3480156107eb57600080fd5b506103c36107fa3660046130db565b611549565b34801561080b57600080fd5b506103356109c481565b34801561082157600080fd5b506101cc54610369906001600160a01b031681565b34801561084257600080fd5b506103356203f48081565b34801561085957600080fd5b506104fd6115a5565b34801561086e57600080fd5b506103356101ca5481565b34801561088557600080fd5b50610482610894366004613344565b61166e565b3480156108a557600080fd5b506101d2546101d3546101d4546101d554610421936001600160a01b031692919060ff1684565b3480156108d857600080fd5b506104fd6108e7366004613382565b611742565b3480156108f857600080fd5b506103356101c65481565b34801561090f57600080fd5b5061033561091e3660046133f5565b6118a6565b34801561092f57600080fd5b5061033562ed4e0081565b34801561094657600080fd5b5061033561138881565b34801561095c57600080fd5b506101ce54610369906001600160a01b031681565b34801561097d57600080fd5b506103356101c85481565b34801561099457600080fd5b506104fd6109a3366004613105565b6118d1565b6060603680546109b790613428565b80601f01602080910402602001604051908101604052809291908181526020018280546109e390613428565b8015610a305780601f10610a0557610100808354040283529160200191610a30565b820191906000526020600020905b815481529060010190602001808311610a1357829003601f168201915b5050505050905090565b600033610a48818585611947565b60019150505b92915050565b6000806000610a6284611a6b565b9050610a83846001600160a01b031660009081526033602052604090205490565b9250610a8f8382611b04565b915050915091565b60006001600160a01b0383161580610aad575081155b15610ac457610abd848484611b10565b9050610b01565b610ace8483611b29565b610af35760405162461bcd60e51b8152600401610aea9061345c565b60405180910390fd5b610afe848484611b10565b90505b9392505050565b610b10611b6e565b6101c75460ff16610b595760405162461bcd60e51b815260206004820152601360248201527224b73b32b9ba36b2b73a103737ba1037b832b760691b6044820152606401610aea565b6101ca544210610bab5760405162461bcd60e51b815260206004820152601760248201527f496e766573746d656e7420706572696f6420656e6465640000000000000000006044820152606401610aea565b60008111610bfb5760405162461bcd60e51b815260206004820152601760248201527f416d6f756e74206d75737420626520706f7369746976650000000000000000006044820152606401610aea565b6101cb546040516323b872dd60e01b8152336004820152306024820152604481018390526101009091046001600160a01b0316906323b872dd906064016020604051808303816000875af1158015610c57573d6000803e3d6000fd5b505050506040513d601f19601f82011682018060405250810190610c7b91906134a4565b610cbd5760405162461bcd60e51b8152602060048201526013602482015272111090c81d1c985b9cd9995c8819985a5b1959606a1b6044820152606401610aea565b3360009081526101d060205260408120549003610d18576101cf80546001810182556000919091527fb3c3535b893c543659d6222f95c1d595efa197ef5bb8ab413f33658de985b0910180546001600160a01b031916331790555b3360009081526101d06020526040902054610d339082611bc7565b3360009081526101d060205260409020556101c854610d529082611bc7565b6101c85560405181815233907f7135637f5e782b6b2ed97949ee4a45a8c7a56c48f46aa929872aff79109c131a9060200160405180910390a26101ca544210610d9d57610d9d611bd3565b610da7600160fe55565b50565b600054610100900460ff1615808015610dca5750600054600160ff909116105b80610de45750303b158015610de4575060005460ff166001145b610e475760405162461bcd60e51b815260206004820152602e60248201527f496e697469616c697a61626c653a20636f6e747261637420697320616c72656160448201526d191e481a5b9a5d1a585b1a5e995960921b6064820152608401610aea565b6000805460ff191660011790558015610e6a576000805461ff0019166101001790555b610eb0604051806040016040528060098152602001682c20a0902a37b5b2b760b91b8152506040518060400160405280600381526020016258414160e81b815250612170565b610eb86121a1565b610ee2604051806040016040528060098152602001682c20a0902a37b5b2b760b91b8152506121c8565b610eea612212565b610ef2612241565b610efa6121a1565b6001600160a01b038516610f505760405162461bcd60e51b815260206004820152601960248201527f496e76616c69642044424320746f6b656e2061646472657373000000000000006044820152606401610aea565b6001600160a01b038416610fa65760405162461bcd60e51b815260206004820152601860248201527f496e76616c69642058414120706f6f6c206164647265737300000000000000006044820152606401610aea565b6001600160a01b038316610ffc5760405162461bcd60e51b815260206004820152601960248201527f496e76616c69642065636f73797374656d2061646472657373000000000000006044820152606401610aea565b6001600160a01b0382166110525760405162461bcd60e51b815260206004820152601760248201527f496e76616c69642063726561746f7220616464726573730000000000000000006044820152606401610aea565b6101cb8054610100600160a81b0319166101006001600160a01b0388811691909102919091179091556101c98790556101cc80546001600160a01b0319908116878416179091556101cd805482168684161790556101ce80549091169184169190911790556101c7805460ff191690556110e73060126110d390600a6135c0565b6110e29064e8d4a510006135cf565b612270565b801561112d576000805461ff0019169055604051600181527f7f26b83ff96e1f2b6a682f133852f6798a09c465da95921460cefb38474024989060200160405180910390a15b505050505050565b600061113f612331565b905090565b6001600160a01b037f000000000000000000000000000000000000000000000000000000000000000016300361118c5760405162461bcd60e51b8152600401610aea906135e6565b7f00000000000000000000000000000000000000000000000000000000000000006001600160a01b03166111d560008051602061387b833981519152546001600160a01b031690565b6001600160a01b0316146111fb5760405162461bcd60e51b8152600401610aea90613632565b6112048161233b565b60408051600080825260208201909252610da791839190612343565b600033610a4881858561123383836118a6565b61123d919061367e565b611947565b610da733826124b3565b6001600160a01b037f00000000000000000000000000000000000000000000000000000000000000001630036112945760405162461bcd60e51b8152600401610aea906135e6565b7f00000000000000000000000000000000000000000000000000000000000000006001600160a01b03166112dd60008051602061387b833981519152546001600160a01b031690565b6001600160a01b0316146113035760405162461bcd60e51b8152600401610aea90613632565b61130c8261233b565b61131882826001612343565b5050565b6000306001600160a01b037f000000000000000000000000000000000000000000000000000000000000000016146113bc5760405162461bcd60e51b815260206004820152603860248201527f555550535570677261646561626c653a206d757374206e6f742062652063616c60448201527f6c6564207468726f7567682064656c656761746563616c6c00000000000000006064820152608401610aea565b5060008051602061387b83398151915290565b6113d76125e7565b6113e16000612642565b565b6113ee823383612695565b61131882826124b3565b6001600160a01b038116600090815260cb6020526040812054610a4e565b6000606080600080600060606097546000801b1480156114365750609854155b61147a5760405162461bcd60e51b81526020600482015260156024820152741152540dcc4c8e88155b9a5b9a5d1a585b1a5e9959605a1b6044820152606401610aea565b61148261270f565b61148a61271e565b60408051600080825260208201909252600f60f81b9b939a50919850469750309650945092509050565b6060603780546109b790613428565b600033816114d182866118a6565b9050838110156115315760405162461bcd60e51b815260206004820152602560248201527f45524332303a2064656372656173656420616c6c6f77616e63652062656c6f77604482015264207a65726f60d81b6064820152608401610aea565b61153e8286868403611947565b506001949350505050565b60006001600160a01b038316158061155f575081155b156115755761156e838361272d565b9050610a4e565b61157f3383611b29565b61159b5760405162461bcd60e51b8152600401610aea9061345c565b610b01838361272d565b6115ad6125e7565b6101c75460ff16156116015760405162461bcd60e51b815260206004820152601a60248201527f496e766573746d656e7420616c726561647920737461727465640000000000006044820152606401610aea565b426101c6819055611616906203f4809061367e565b6101ca8190556101c7805460ff191660011790556101c6546040517f0be3ba938ea6553428c5a838b72ee53805d227fc093444cb9ef98fd0c016be0092611664928252602082015260400190565b60405180910390a1565b6001600160a01b03821660009081526101d16020526040812054819061ffff8416106116d15760405162461bcd60e51b8152602060048201526012602482015271496e646578206f7574206f662072616e676560701b6044820152606401610aea565b6001600160a01b03841660009081526101d160205260408120805461ffff861690811061170057611700613691565b60009182526020918290206040805160608101825260039093029091018054835260018101549383018490526002015491018190529093509150509250929050565b834211156117925760405162461bcd60e51b815260206004820152601d60248201527f45524332305065726d69743a206578706972656420646561646c696e650000006044820152606401610aea565b60007f6e71edae12b1b97f4d1f60370fef10105fa2faae0126114a169c64845d6126c98888886117c18c61273b565b6040805160208101969096526001600160a01b0394851690860152929091166060840152608083015260a082015260c0810186905260e001604051602081830303815290604052805190602001209050600061181c82612763565b9050600061182c82878787612790565b9050896001600160a01b0316816001600160a01b03161461188f5760405162461bcd60e51b815260206004820152601e60248201527f45524332305065726d69743a20696e76616c6964207369676e617475726500006044820152606401610aea565b61189a8a8a8a611947565b50505050505050505050565b6001600160a01b03918216600090815260346020908152604080832093909416825291909152205490565b6118d96125e7565b6001600160a01b03811661193e5760405162461bcd60e51b815260206004820152602660248201527f4f776e61626c653a206e6577206f776e657220697320746865207a65726f206160448201526564647265737360d01b6064820152608401610aea565b610da781612642565b6001600160a01b0383166119a95760405162461bcd60e51b8152602060048201526024808201527f45524332303a20617070726f76652066726f6d20746865207a65726f206164646044820152637265737360e01b6064820152608401610aea565b6001600160a01b038216611a0a5760405162461bcd60e51b815260206004820152602260248201527f45524332303a20617070726f766520746f20746865207a65726f206164647265604482015261737360f01b6064820152608401610aea565b6001600160a01b0383811660008181526034602090815260408083209487168084529482529182902085905590518481527f8c5be1e5ebec7d5bd14f71427d1e84f3dd0314c0f7b2291e5b200ac8c7c3b925910160405180910390a3505050565b6001600160a01b03811660009081526101d16020526040812081805b8254811015611afc57828181548110611aa257611aa2613691565b906000526020600020906003020160020154421015611af457611af1838281548110611ad057611ad0613691565b90600052602060002090600302016001015483611bc790919063ffffffff16565b91505b600101611a87565b509392505050565b6000610b0182846136a7565b600033611b1e858285612695565b61153e8585856127ba565b600080611b3584611a6b565b90506000611b6282611b5c876001600160a01b031660009081526033602052604090205490565b90611b04565b90931115949350505050565b600260fe5403611bc05760405162461bcd60e51b815260206004820152601f60248201527f5265656e7472616e637947756172643a207265656e7472616e742063616c6c006044820152606401610aea565b600260fe55565b6000610b01828461367e565b6101c75460ff16611c1c5760405162461bcd60e51b815260206004820152601360248201527224b73b32b9ba36b2b73a103737ba1037b832b760691b6044820152606401610aea565b6101ca54421015611c6f5760405162461bcd60e51b815260206004820152601b60248201527f496e766573746d656e7420706572696f64206e6f7420656e64656400000000006044820152606401610aea565b6101cb5460ff1615611cc35760405162461bcd60e51b815260206004820152601a60248201527f546f6b656e7320616c72656164792064697374726962757465640000000000006044820152606401610aea565b6101c7805460ff199081169091556101cb8054909116600117905569152d02c7e14af68000006000611d03612710611cfd846103e8612965565b90612971565b90506000611d19612710611cfd856101f4612965565b90506000611d2f612710611cfd866103e8612965565b90506000611d45612710611cfd87611388612965565b90506000611d5b612710611cfd886109c4612965565b6101ce54909150611d75906001600160a01b031686612270565b6101ce54611d90906001600160a01b03168662278d0061297d565b6101ce546040518681526001600160a01b03909116906000805160206138c28339815191529060200160405180910390a26101cc54611dd8906001600160a01b031685612270565b6101cc54611df5906001600160a01b031685640757b12c0061297d565b6040805160808101825230808252602082018790526000828401819052600160609093018390526101d280546001600160a01b0319169092179091556101d38790556101d4556101d5805460ff191690911790556101cc5490516001600160a01b0391909116906000805160206138c283398151915290611e799087815260200190565b60405180910390a2604080518581526000602082015230917f620f7d92e94f37e846b7a037fa45c886f3ab726b58c6531813825a47ad4eec50910160405180910390a26101cd54611ed3906001600160a01b031684612270565b6101cd54611eee906001600160a01b03168462ed4e0061297d565b6101cd546040518481526001600160a01b03909116906000805160206138c28339815191529060200160405180910390a26101c85460009015612049576000611f376101c85490565b9050600069054b40b1f852bda000008210611f5b5750670de0b6b3a7640000611f7e565b611f7b69054b40b1f852bda00000611cfd84670de0b6b3a7640000612965565b90505b611f94670de0b6b3a7640000611cfd8684612965565b925060005b6101cf548110156120455760006101cf8281548110611fba57611fba613691565b60009182526020808320909101546101c8546001600160a01b039091168084526101d09092526040832054919350611ff791611cfd908990612965565b9050801561203b576120098282612270565b816001600160a01b03166000805160206138c28339815191528260405161203291815260200190565b60405180910390a25b5050600101611f99565b5050505b6040805160808101825230808252602082018690526101c854928201839052600160609092018290526101d680546001600160a01b031916821790556101d78690556101d8929092556101d9805460ff191690911790556120aa9084612270565b6101c85460405130917f620f7d92e94f37e846b7a037fa45c886f3ab726b58c6531813825a47ad4eec50916120e791878252602082015260400190565b60405180910390a260405183815230907f82ab8ae7f98a9010f180c0ad679a83f4fa19c087feb670d62ae653b6961564c09060200160405180910390a27fa5312aa2758835a367a1d72034e51ac82b29dee733a5f5eed3a51f6f2f5bc53a6101c85460405161215891815260200190565b60405180910390a150505050505050565b600160fe55565b600054610100900460ff166121975760405162461bcd60e51b8152600401610aea906136ba565b6113188282612a33565b600054610100900460ff166113e15760405162461bcd60e51b8152600401610aea906136ba565b600054610100900460ff166121ef5760405162461bcd60e51b8152600401610aea906136ba565b610da781604051806040016040528060018152602001603160f81b815250612a73565b600054610100900460ff166122395760405162461bcd60e51b8152600401610aea906136ba565b6113e1612ac2565b600054610100900460ff166122685760405162461bcd60e51b8152600401610aea906136ba565b6113e1612ae9565b6001600160a01b0382166122c65760405162461bcd60e51b815260206004820152601f60248201527f45524332303a206d696e7420746f20746865207a65726f2061646472657373006044820152606401610aea565b80603560008282546122d8919061367e565b90915550506001600160a01b0382166000818152603360209081526040808320805486019055518481527fddf252ad1be2c89b69c2b068fc378daa952ba7f163c4a11628f55a4df523b3ef910160405180910390a35050565b600061113f612b19565b610da76125e7565b7f4910fdfa16fed3260ed0e7147f7cc6da11a60208b5b9406d12a635614ffd91435460ff161561237b5761237683612b8d565b505050565b826001600160a01b03166352d1902d6040518163ffffffff1660e01b8152600401602060405180830381865afa9250505080156123d5575060408051601f3d908101601f191682019092526123d291810190613705565b60015b6124385760405162461bcd60e51b815260206004820152602e60248201527f45524331393637557067726164653a206e657720696d706c656d656e7461746960448201526d6f6e206973206e6f74205555505360901b6064820152608401610aea565b60008051602061387b83398151915281146124a75760405162461bcd60e51b815260206004820152602960248201527f45524331393637557067726164653a20756e737570706f727465642070726f786044820152681a58589b195555525160ba1b6064820152608401610aea565b50612376838383612c29565b6001600160a01b0382166125135760405162461bcd60e51b815260206004820152602160248201527f45524332303a206275726e2066726f6d20746865207a65726f206164647265736044820152607360f81b6064820152608401610aea565b6001600160a01b038216600090815260336020526040902054818110156125875760405162461bcd60e51b815260206004820152602260248201527f45524332303a206275726e20616d6f756e7420657863656564732062616c616e604482015261636560f01b6064820152608401610aea565b6001600160a01b03831660008181526033602090815260408083208686039055603580548790039055518581529192917fddf252ad1be2c89b69c2b068fc378daa952ba7f163c4a11628f55a4df523b3ef910160405180910390a3505050565b610130546001600160a01b031633146113e15760405162461bcd60e51b815260206004820181905260248201527f4f776e61626c653a2063616c6c6572206973206e6f7420746865206f776e65726044820152606401610aea565b61013080546001600160a01b038381166001600160a01b0319831681179093556040519116919082907f8be0079c531659141344cd1fd0a4f28419497f9722a3daafe3b4186f6b6457e090600090a35050565b60006126a184846118a6565b9050600019811461270957818110156126fc5760405162461bcd60e51b815260206004820152601d60248201527f45524332303a20696e73756666696369656e7420616c6c6f77616e63650000006044820152606401610aea565b6127098484848403611947565b50505050565b6060609980546109b790613428565b6060609a80546109b790613428565b600033610a488185856127ba565b6001600160a01b038116600090815260cb602052604090208054600181018255905b50919050565b6000610a4e612770612331565b8360405161190160f01b8152600281019290925260228201526042902090565b60008060006127a187878787612c4e565b915091506127ae81612d12565b5090505b949350505050565b6001600160a01b03831661281e5760405162461bcd60e51b815260206004820152602560248201527f45524332303a207472616e736665722066726f6d20746865207a65726f206164604482015264647265737360d81b6064820152608401610aea565b6001600160a01b0382166128805760405162461bcd60e51b815260206004820152602360248201527f45524332303a207472616e7366657220746f20746865207a65726f206164647260448201526265737360e81b6064820152608401610aea565b6001600160a01b038316600090815260336020526040902054818110156128f85760405162461bcd60e51b815260206004820152602660248201527f45524332303a207472616e7366657220616d6f756e7420657863656564732062604482015265616c616e636560d01b6064820152608401610aea565b6001600160a01b0380851660008181526033602052604080822086860390559286168082529083902080548601905591517fddf252ad1be2c89b69c2b068fc378daa952ba7f163c4a11628f55a4df523b3ef906129589086815260200190565b60405180910390a3612709565b6000610b0182846135cf565b6000610b01828461371e565b42600061298a838361367e565b6001600160a01b03861660008181526101d16020908152604080832081516060810183528881528084018b815281840188815283546001818101865594885295909620915160039095029091019384555190830155915160029091015551919250907fd741e738a23fd18a03a26522320d9fc6cac1fed483e215ea9150fbc2fc43385d90612a249087908590918252602082015260400190565b60405180910390a25050505050565b600054610100900460ff16612a5a5760405162461bcd60e51b8152600401610aea906136ba565b6036612a668382613788565b5060376123768282613788565b600054610100900460ff16612a9a5760405162461bcd60e51b8152600401610aea906136ba565b6099612aa68382613788565b50609a612ab38282613788565b50506000609781905560985550565b600054610100900460ff166121695760405162461bcd60e51b8152600401610aea906136ba565b600054610100900460ff16612b105760405162461bcd60e51b8152600401610aea906136ba565b6113e133612642565b60007f8b73c3c69bb8fe3d512ecc4cf759cc79239f7b179b0ffacaa9a75d522b39400f612b44612e5c565b612b4c612eb5565b60408051602081019490945283019190915260608201524660808201523060a082015260c00160405160208183030381529060405280519060200120905090565b6001600160a01b0381163b612bfa5760405162461bcd60e51b815260206004820152602d60248201527f455243313936373a206e657720696d706c656d656e746174696f6e206973206e60448201526c1bdd08184818dbdb9d1c9858dd609a1b6064820152608401610aea565b60008051602061387b83398151915280546001600160a01b0319166001600160a01b0392909216919091179055565b612c3283612ee6565b600082511180612c3f5750805b15612376576127098383612f26565b6000807f7fffffffffffffffffffffffffffffff5d576e7357a4501ddfe92f46681b20a0831115612c855750600090506003612d09565b6040805160008082526020820180845289905260ff881692820192909252606081018690526080810185905260019060a0016020604051602081039080840390855afa158015612cd9573d6000803e3d6000fd5b5050604051601f1901519150506001600160a01b038116612d0257600060019250925050612d09565b9150600090505b94509492505050565b6000816004811115612d2657612d26613848565b03612d2e5750565b6001816004811115612d4257612d42613848565b03612d8f5760405162461bcd60e51b815260206004820152601860248201527f45434453413a20696e76616c6964207369676e617475726500000000000000006044820152606401610aea565b6002816004811115612da357612da3613848565b03612df05760405162461bcd60e51b815260206004820152601f60248201527f45434453413a20696e76616c6964207369676e6174757265206c656e677468006044820152606401610aea565b6003816004811115612e0457612e04613848565b03610da75760405162461bcd60e51b815260206004820152602260248201527f45434453413a20696e76616c6964207369676e6174757265202773272076616c604482015261756560f01b6064820152608401610aea565b600080612e6761270f565b805190915015612e7e578051602090910120919050565b6097548015612e8d5792915050565b7fc5d2460186f7233c927e7db2dcc703c0e500b653ca82273b7bfad8045d85a4709250505090565b600080612ec061271e565b805190915015612ed7578051602090910120919050565b6098548015612e8d5792915050565b612eef81612b8d565b6040516001600160a01b038216907fbc7cd75a20ee27fd9adebab32041f755214dbc6bffa90cc0225b39da2e5c2d3b90600090a250565b6060610b01838360405180606001604052806027815260200161389b602791396060600080856001600160a01b031685604051612f63919061385e565b600060405180830381855af49150503d8060008114612f9e576040519150601f19603f3d011682016040523d82523d6000602084013e612fa3565b606091505b5091509150612fb486838387612fbe565b9695505050505050565b6060831561302d578251600003613026576001600160a01b0385163b6130265760405162461bcd60e51b815260206004820152601d60248201527f416464726573733a2063616c6c20746f206e6f6e2d636f6e74726163740000006044820152606401610aea565b50816127b2565b6127b283838151156130425781518083602001fd5b8060405162461bcd60e51b8152600401610aea91906130ac565b60005b8381101561307757818101518382015260200161305f565b50506000910152565b6000815180845261309881602086016020860161305c565b601f01601f19169290920160200192915050565b602081526000610b016020830184613080565b80356001600160a01b03811681146130d657600080fd5b919050565b600080604083850312156130ee57600080fd5b6130f7836130bf565b946020939093013593505050565b60006020828403121561311757600080fd5b610b01826130bf565b60008060006060848603121561313557600080fd5b61313e846130bf565b925061314c602085016130bf565b9150604084013590509250925092565b60006020828403121561316e57600080fd5b5035919050565b600080600080600060a0868803121561318d57600080fd5b8535945061319d602087016130bf565b93506131ab604087016130bf565b92506131b9606087016130bf565b91506131c7608087016130bf565b90509295509295909350565b634e487b7160e01b600052604160045260246000fd5b600080604083850312156131fc57600080fd5b613205836130bf565b9150602083013567ffffffffffffffff8082111561322257600080fd5b818501915085601f83011261323657600080fd5b813581811115613248576132486131d3565b604051601f8201601f19908116603f01168101908382118183101715613270576132706131d3565b8160405282815288602084870101111561328957600080fd5b8260208601602083013760006020848301015280955050505050509250929050565b60ff60f81b881681526000602060e060208401526132cc60e084018a613080565b83810360408501526132de818a613080565b606085018990526001600160a01b038816608086015260a0850187905284810360c08601528551808252602080880193509091019060005b8181101561333257835183529284019291840191600101613316565b50909c9b505050505050505050505050565b6000806040838503121561335757600080fd5b613360836130bf565b9150602083013561ffff8116811461337757600080fd5b809150509250929050565b600080600080600080600060e0888a03121561339d57600080fd5b6133a6886130bf565b96506133b4602089016130bf565b95506040880135945060608801359350608088013560ff811681146133d857600080fd5b9699959850939692959460a0840135945060c09093013592915050565b6000806040838503121561340857600080fd5b613411836130bf565b915061341f602084016130bf565b90509250929050565b600181811c9082168061343c57607f821691505b60208210810361275d57634e487b7160e01b600052602260045260246000fd5b60208082526028908201527f5472616e7366657220616d6f756e74206578636565647320756e6c6f636b65646040820152672062616c616e636560c01b606082015260800190565b6000602082840312156134b657600080fd5b81518015158114610b0157600080fd5b634e487b7160e01b600052601160045260246000fd5b600181815b808511156135175781600019048211156134fd576134fd6134c6565b8085161561350a57918102915b93841c93908002906134e1565b509250929050565b60008261352e57506001610a4e565b8161353b57506000610a4e565b8160018114613551576002811461355b57613577565b6001915050610a4e565b60ff84111561356c5761356c6134c6565b50506001821b610a4e565b5060208310610133831016604e8410600b841016171561359a575081810a610a4e565b6135a483836134dc565b80600019048211156135b8576135b86134c6565b029392505050565b6000610b0160ff84168361351f565b8082028115828204841417610a4e57610a4e6134c6565b6020808252602c908201527f46756e6374696f6e206d7573742062652063616c6c6564207468726f7567682060408201526b19195b1959d85d1958d85b1b60a21b606082015260800190565b6020808252602c908201527f46756e6374696f6e206d7573742062652063616c6c6564207468726f7567682060408201526b6163746976652070726f787960a01b606082015260800190565b80820180821115610a4e57610a4e6134c6565b634e487b7160e01b600052603260045260246000fd5b81810381811115610a4e57610a4e6134c6565b6020808252602b908201527f496e697469616c697a61626c653a20636f6e7472616374206973206e6f74206960408201526a6e697469616c697a696e6760a81b606082015260800190565b60006020828403121561371757600080fd5b5051919050565b60008261373b57634e487b7160e01b600052601260045260246000fd5b500490565b601f821115612376576000816000526020600020601f850160051c810160208610156137695750805b601f850160051c820191505b8181101561112d57828155600101613775565b815167ffffffffffffffff8111156137a2576137a26131d3565b6137b6816137b08454613428565b84613740565b602080601f8311600181146137eb57600084156137d35750858301515b600019600386901b1c1916600185901b17855561112d565b600085815260208120601f198616915b8281101561381a578886015182559484019460019091019084016137fb565b50858210156138385787850151600019600388901b60f8161c191681555b5050505050600190811b01905550565b634e487b7160e01b600052602160045260246000fd5b6000825161387081846020870161305c565b919091019291505056fe360894a13ba1a3210667c828492db98dca3e2076cc3735a920a3ca505d382bbc416464726573733a206c6f772d6c6576656c2064656c65676174652063616c6c206661696c656416b0da2ffcb90c6723317bd637d9aad7f04711f42bbe0ac0918ebe10f1f9001ca2646970667358221220c828cdc338b1f1145bb71b6eb6b5c85cd7e125247937571b0afccd2c2e5a277664736f6c63430008160033",
  "linkReferences": {},
  "deployedLinkReferences": {}
}