{
  "_format": "hh-sol-artifact-1",
  "contractName": "XAIAgentDRC20Upgradeable",
  "sourceName": "contracts/XAIAgentDRC20Upgradeable.sol",
  "abi": [
    {
      "inputs": [],
      "stateMutability": "nonpayable",
      "type": "constructor"
    },
    {
      "anonymous": false,
      "inputs": [
        {
          "indexed": false,
          "internalType": "address",
          "name": "previousAdmin",
          "type": "address"
        },
        {
          "indexed": false,
          "internalType": "address",
          "name": "newAdmin",
          "type": "address"
        }
      ],
      "name": "AdminChanged",
      "type": "event"
    },
    {
      "anonymous": false,
      "inputs": [
        {
          "indexed": true,
          "internalType": "address",
          "name": "owner",
          "type": "address"
        },
        {
          "indexed": true,
          "internalType": "address",
          "name": "spender",
          "type": "address"
        },
        {
          "indexed": false,
          "internalType": "uint256",
          "name": "value",
          "type": "uint256"
        }
      ],
      "name": "Approval",
      "type": "event"
    },
    {
      "anonymous": false,
      "inputs": [
        {
          "indexed": true,
          "internalType": "address",
          "name": "upgradeAddress",
          "type": "address"
        }
      ],
      "name": "AuthorizedUpgradeSelf",
      "type": "event"
    },
    {
      "anonymous": false,
      "inputs": [
        {
          "indexed": true,
          "internalType": "address",
          "name": "beacon",
          "type": "address"
        }
      ],
      "name": "BeaconUpgraded",
      "type": "event"
    },
    {
      "anonymous": false,
      "inputs": [
        {
          "indexed": false,
          "internalType": "uint256",
          "name": "timestamp",
          "type": "uint256"
        }
      ],
      "name": "DisableContractUpgrade",
      "type": "event"
    },
    {
      "anonymous": false,
      "inputs": [],
      "name": "EIP712DomainChanged",
      "type": "event"
    },
    {
      "anonymous": false,
      "inputs": [
        {
          "indexed": false,
          "internalType": "uint8",
          "name": "version",
          "type": "uint8"
        }
      ],
      "name": "Initialized",
      "type": "event"
    },
    {
      "anonymous": false,
      "inputs": [
        {
          "indexed": false,
          "internalType": "uint256",
          "name": "timestamp",
          "type": "uint256"
        },
        {
          "indexed": false,
          "internalType": "uint256",
          "name": "blockNumber",
          "type": "uint256"
        }
      ],
      "name": "LockDisabled",
      "type": "event"
    },
    {
      "anonymous": false,
      "inputs": [
        {
          "indexed": false,
          "internalType": "uint256",
          "name": "timestamp",
          "type": "uint256"
        },
        {
          "indexed": false,
          "internalType": "uint256",
          "name": "blockNumber",
          "type": "uint256"
        }
      ],
      "name": "LockEnabled",
      "type": "event"
    },
    {
      "anonymous": false,
      "inputs": [
        {
          "indexed": true,
          "internalType": "address",
          "name": "wallet",
          "type": "address"
        }
      ],
      "name": "LockPermissionDisabled",
      "type": "event"
    },
    {
      "anonymous": false,
      "inputs": [
        {
          "indexed": true,
          "internalType": "address",
          "name": "wallet",
          "type": "address"
        }
      ],
      "name": "LockPermissionEnabled",
      "type": "event"
    },
    {
      "anonymous": false,
      "inputs": [
        {
          "indexed": true,
          "internalType": "address",
          "name": "previousOwner",
          "type": "address"
        },
        {
          "indexed": true,
          "internalType": "address",
          "name": "newOwner",
          "type": "address"
        }
      ],
      "name": "OwnershipTransferred",
      "type": "event"
    },
    {
      "anonymous": false,
      "inputs": [
        {
          "indexed": true,
          "internalType": "address",
          "name": "from",
          "type": "address"
        },
        {
          "indexed": true,
          "internalType": "address",
          "name": "to",
          "type": "address"
        },
        {
          "indexed": false,
          "internalType": "uint256",
          "name": "value",
          "type": "uint256"
        }
      ],
      "name": "Transfer",
      "type": "event"
    },
    {
      "anonymous": false,
      "inputs": [
        {
          "indexed": true,
          "internalType": "address",
          "name": "from",
          "type": "address"
        },
        {
          "indexed": true,
          "internalType": "address",
          "name": "to",
          "type": "address"
        },
        {
          "indexed": false,
          "internalType": "uint256",
          "name": "value",
          "type": "uint256"
        },
        {
          "indexed": false,
          "internalType": "uint256",
          "name": "blockNumber",
          "type": "uint256"
        }
      ],
      "name": "TransferAndLock",
      "type": "event"
    },
    {
      "anonymous": false,
      "inputs": [
        {
          "indexed": true,
          "internalType": "address",
          "name": "implementation",
          "type": "address"
        }
      ],
      "name": "Upgraded",
      "type": "event"
    },
    {
      "inputs": [],
      "name": "DOMAIN_SEPARATOR",
      "outputs": [
        {
          "internalType": "bytes32",
          "name": "",
          "type": "bytes32"
        }
      ],
      "stateMutability": "view",
      "type": "function"
    },
    {
      "inputs": [
        {
          "internalType": "address",
          "name": "owner",
          "type": "address"
        },
        {
          "internalType": "address",
          "name": "spender",
          "type": "address"
        }
      ],
      "name": "allowance",
      "outputs": [
        {
          "internalType": "uint256",
          "name": "",
          "type": "uint256"
        }
      ],
      "stateMutability": "view",
      "type": "function"
    },
    {
      "inputs": [
        {
          "internalType": "address",
          "name": "spender",
          "type": "address"
        },
        {
          "internalType": "uint256",
          "name": "amount",
          "type": "uint256"
        }
      ],
      "name": "approve",
      "outputs": [
        {
          "internalType": "bool",
          "name": "",
          "type": "bool"
        }
      ],
      "stateMutability": "nonpayable",
      "type": "function"
    },
    {
      "inputs": [
        {
          "internalType": "address",
          "name": "account",
          "type": "address"
        }
      ],
      "name": "balanceOf",
      "outputs": [
        {
          "internalType": "uint256",
          "name": "",
          "type": "uint256"
        }
      ],
      "stateMutability": "view",
      "type": "function"
    },
    {
      "inputs": [
        {
          "internalType": "uint256",
          "name": "amount",
          "type": "uint256"
        }
      ],
      "name": "burn",
      "outputs": [],
      "stateMutability": "nonpayable",
      "type": "function"
    },
    {
      "inputs": [
        {
          "internalType": "address",
          "name": "account",
          "type": "address"
        },
        {
          "internalType": "uint256",
          "name": "amount",
          "type": "uint256"
        }
      ],
      "name": "burnFrom",
      "outputs": [],
      "stateMutability": "nonpayable",
      "type": "function"
    },
    {
      "inputs": [
        {
          "internalType": "address",
          "name": "from",
          "type": "address"
        },
        {
          "internalType": "uint256",
          "name": "transferAmount",
          "type": "uint256"
        }
      ],
      "name": "canTransferAmount",
      "outputs": [
        {
          "internalType": "bool",
          "name": "",
          "type": "bool"
        }
      ],
      "stateMutability": "view",
      "type": "function"
    },
    {
      "inputs": [],
      "name": "canUpgradeAddress",
      "outputs": [
        {
          "internalType": "address",
          "name": "",
          "type": "address"
        }
      ],
      "stateMutability": "view",
      "type": "function"
    },
    {
      "inputs": [],
      "name": "decimals",
      "outputs": [
        {
          "internalType": "uint8",
          "name": "",
          "type": "uint8"
        }
      ],
      "stateMutability": "view",
      "type": "function"
    },
    {
      "inputs": [
        {
          "internalType": "address",
          "name": "spender",
          "type": "address"
        },
        {
          "internalType": "uint256",
          "name": "subtractedValue",
          "type": "uint256"
        }
      ],
      "name": "decreaseAllowance",
      "outputs": [
        {
          "internalType": "bool",
          "name": "",
          "type": "bool"
        }
      ],
      "stateMutability": "nonpayable",
      "type": "function"
    },
    {
      "inputs": [],
      "name": "disableContractUpgrade",
      "outputs": [],
      "stateMutability": "nonpayable",
      "type": "function"
    },
    {
      "inputs": [
        {
          "internalType": "address",
          "name": "wallet",
          "type": "address"
        }
      ],
      "name": "disableLockForWallet",
      "outputs": [],
      "stateMutability": "nonpayable",
      "type": "function"
    },
    {
      "inputs": [],
      "name": "disableUpgrade",
      "outputs": [
        {
          "internalType": "bool",
          "name": "",
          "type": "bool"
        }
      ],
      "stateMutability": "view",
      "type": "function"
    },
    {
      "inputs": [],
      "name": "eip712Domain",
      "outputs": [
        {
          "internalType": "bytes1",
          "name": "fields",
          "type": "bytes1"
        },
        {
          "internalType": "string",
          "name": "name",
          "type": "string"
        },
        {
          "internalType": "string",
          "name": "version",
          "type": "string"
        },
        {
          "internalType": "uint256",
          "name": "chainId",
          "type": "uint256"
        },
        {
          "internalType": "address",
          "name": "verifyingContract",
          "type": "address"
        },
        {
          "internalType": "bytes32",
          "name": "salt",
          "type": "bytes32"
        },
        {
          "internalType": "uint256[]",
          "name": "extensions",
          "type": "uint256[]"
        }
      ],
      "stateMutability": "view",
      "type": "function"
    },
    {
      "inputs": [
        {
          "internalType": "address",
          "name": "wallet",
          "type": "address"
        }
      ],
      "name": "enableLockForWallet",
      "outputs": [],
      "stateMutability": "nonpayable",
      "type": "function"
    },
    {
      "inputs": [
        {
          "internalType": "address",
          "name": "caller",
          "type": "address"
        }
      ],
      "name": "getAvailableBalance",
      "outputs": [
        {
          "internalType": "uint256",
          "name": "total",
          "type": "uint256"
        },
        {
          "internalType": "uint256",
          "name": "available",
          "type": "uint256"
        }
      ],
      "stateMutability": "view",
      "type": "function"
    },
    {
      "inputs": [
        {
          "internalType": "address",
          "name": "caller",
          "type": "address"
        },
        {
          "internalType": "uint16",
          "name": "index",
          "type": "uint16"
        }
      ],
      "name": "getLockAmountAndUnlockAt",
      "outputs": [
        {
          "internalType": "uint256",
          "name": "amount",
          "type": "uint256"
        },
        {
          "internalType": "uint256",
          "name": "unlockTime",
          "type": "uint256"
        }
      ],
      "stateMutability": "view",
      "type": "function"
    },
    {
      "inputs": [
        {
          "internalType": "address",
          "name": "spender",
          "type": "address"
        },
        {
          "internalType": "uint256",
          "name": "addedValue",
          "type": "uint256"
        }
      ],
      "name": "increaseAllowance",
      "outputs": [
        {
          "internalType": "bool",
          "name": "",
          "type": "bool"
        }
      ],
      "stateMutability": "nonpayable",
      "type": "function"
    },
    {
      "inputs": [],
      "name": "initialize",
      "outputs": [],
      "stateMutability": "nonpayable",
      "type": "function"
    },
    {
      "inputs": [],
      "name": "isLockActive",
      "outputs": [
        {
          "internalType": "bool",
          "name": "",
          "type": "bool"
        }
      ],
      "stateMutability": "view",
      "type": "function"
    },
    {
      "inputs": [],
      "name": "lockTokensDisable",
      "outputs": [],
      "stateMutability": "nonpayable",
      "type": "function"
    },
    {
      "inputs": [],
      "name": "lockTokensEnable",
      "outputs": [],
      "stateMutability": "nonpayable",
      "type": "function"
    },
    {
      "inputs": [],
      "name": "name",
      "outputs": [
        {
          "internalType": "string",
          "name": "",
          "type": "string"
        }
      ],
      "stateMutability": "view",
      "type": "function"
    },
    {
      "inputs": [
        {
          "internalType": "address",
          "name": "owner",
          "type": "address"
        }
      ],
      "name": "nonces",
      "outputs": [
        {
          "internalType": "uint256",
          "name": "",
          "type": "uint256"
        }
      ],
      "stateMutability": "view",
      "type": "function"
    },
    {
      "inputs": [],
      "name": "owner",
      "outputs": [
        {
          "internalType": "address",
          "name": "",
          "type": "address"
        }
      ],
      "stateMutability": "view",
      "type": "function"
    },
    {
      "inputs": [
        {
          "internalType": "address",
          "name": "owner",
          "type": "address"
        },
        {
          "internalType": "address",
          "name": "spender",
          "type": "address"
        },
        {
          "internalType": "uint256",
          "name": "value",
          "type": "uint256"
        },
        {
          "internalType": "uint256",
          "name": "deadline",
          "type": "uint256"
        },
        {
          "internalType": "uint8",
          "name": "v",
          "type": "uint8"
        },
        {
          "internalType": "bytes32",
          "name": "r",
          "type": "bytes32"
        },
        {
          "internalType": "bytes32",
          "name": "s",
          "type": "bytes32"
        }
      ],
      "name": "permit",
      "outputs": [],
      "stateMutability": "nonpayable",
      "type": "function"
    },
    {
      "inputs": [],
      "name": "proxiableUUID",
      "outputs": [
        {
          "internalType": "bytes32",
          "name": "",
          "type": "bytes32"
        }
      ],
      "stateMutability": "view",
      "type": "function"
    },
    {
      "inputs": [],
      "name": "renounceOwnership",
      "outputs": [],
      "stateMutability": "nonpayable",
      "type": "function"
    },
    {
      "inputs": [
        {
          "internalType": "address",
          "name": "_canUpgradeAddress",
          "type": "address"
        }
      ],
      "name": "setUpgradePermission",
      "outputs": [],
      "stateMutability": "nonpayable",
      "type": "function"
    },
    {
      "inputs": [],
      "name": "symbol",
      "outputs": [
        {
          "internalType": "string",
          "name": "",
          "type": "string"
        }
      ],
      "stateMutability": "view",
      "type": "function"
    },
    {
      "inputs": [],
      "name": "totalSupply",
      "outputs": [
        {
          "internalType": "uint256",
          "name": "",
          "type": "uint256"
        }
      ],
      "stateMutability": "view",
      "type": "function"
    },
    {
      "inputs": [
        {
          "internalType": "address",
          "name": "to",
          "type": "address"
        },
        {
          "internalType": "uint256",
          "name": "amount",
          "type": "uint256"
        }
      ],
      "name": "transfer",
      "outputs": [
        {
          "internalType": "bool",
          "name": "",
          "type": "bool"
        }
      ],
      "stateMutability": "nonpayable",
      "type": "function"
    },
    {
      "inputs": [
        {
          "internalType": "address",
          "name": "to",
          "type": "address"
        },
        {
          "internalType": "uint256",
          "name": "value",
          "type": "uint256"
        },
        {
          "internalType": "uint256",
          "name": "lockSeconds",
          "type": "uint256"
        }
      ],
      "name": "transferAndLock",
      "outputs": [],
      "stateMutability": "nonpayable",
      "type": "function"
    },
    {
      "inputs": [
        {
          "internalType": "address",
          "name": "from",
          "type": "address"
        },
        {
          "internalType": "address",
          "name": "to",
          "type": "address"
        },
        {
          "internalType": "uint256",
          "name": "amount",
          "type": "uint256"
        }
      ],
      "name": "transferFrom",
      "outputs": [
        {
          "internalType": "bool",
          "name": "",
          "type": "bool"
        }
      ],
      "stateMutability": "nonpayable",
      "type": "function"
    },
    {
      "inputs": [
        {
          "internalType": "address",
          "name": "newOwner",
          "type": "address"
        }
      ],
      "name": "transferOwnership",
      "outputs": [],
      "stateMutability": "nonpayable",
      "type": "function"
    },
    {
      "inputs": [
        {
          "internalType": "address",
          "name": "newImplementation",
          "type": "address"
        }
      ],
      "name": "upgradeTo",
      "outputs": [],
      "stateMutability": "nonpayable",
      "type": "function"
    },
    {
      "inputs": [
        {
          "internalType": "address",
          "name": "newImplementation",
          "type": "address"
        },
        {
          "internalType": "bytes",
          "name": "data",
          "type": "bytes"
        }
      ],
      "name": "upgradeToAndCall",
      "outputs": [],
      "stateMutability": "payable",
      "type": "function"
    },
    {
      "inputs": [],
      "name": "version",
      "outputs": [
        {
          "internalType": "uint256",
          "name": "",
          "type": "uint256"
        }
      ],
      "stateMutability": "pure",
      "type": "function"
    },
    {
      "inputs": [
        {
          "internalType": "address",
          "name": "",
          "type": "address"
        }
      ],
      "name": "walletLockPermission",
      "outputs": [
        {
          "internalType": "bool",
          "name": "",
          "type": "bool"
        }
      ],
      "stateMutability": "view",
      "type": "function"
    }
  ],
  "bytecode": "0x60a0604052306080523480156200001557600080fd5b506200002062000026565b620000e7565b600054610100900460ff1615620000935760405162461bcd60e51b815260206004820152602760248201527f496e697469616c697a61626c653a20636f6e747261637420697320696e697469604482015266616c697a696e6760c81b606482015260840160405180910390fd5b60005460ff90811614620000e5576000805460ff191660ff9081179091556040519081527f7f26b83ff96e1f2b6a682f133852f6798a09c465da95921460cefb38474024989060200160405180910390a15b565b6080516132336200011f6000396000818161095c0152818161099c01528181610b1201528181610b520152610be501526132336000f3fe6080604052600436106102305760003560e01c8063715018a61161012e578063a9059cbb116100ab578063d505accf1161006f578063d505accf14610692578063dd62ed3e146106b2578063f2fde38b146106d2578063f5adb258146106f2578063fcc513ed1461070757600080fd5b8063a9059cbb146105f0578063b6862f9014610610578063c2068d2214610630578063cf93340d14610650578063cfa6e9111461067057600080fd5b806384b0196e116100f257806384b0196e1461055457806384d5d9441461057c5780638da5cb5b1461059c57806395d89b41146105bb578063a457c2d7146105d057600080fd5b8063715018a6146104b157806375dfe221146104c657806379cc6790146104ff5780637ecebe001461051f5780638129fc1c1461053f57600080fd5b806339509351116101bc57806352d1902d1161018057806352d1902d146103fb57806354fd4d501461041057806367fc9138146104245780636c24a76f1461044657806370a082311461047b57600080fd5b806339509351146103735780633bfff1401461039357806342966c68146103a85780634a59e7bf146103c85780634f1ef286146103e857600080fd5b806323b872dd1161020357806323b872dd146102d1578063313ce567146102f15780633644e5151461030d5780633659cfe61461032257806336945fdb1461034257600080fd5b806306fdde0314610235578063095ea7b314610260578063128550801461029057806318160ddd146102b2575b600080fd5b34801561024157600080fd5b5061024a61071c565b6040516102579190612a3e565b60405180910390f35b34801561026c57600080fd5b5061028061027b366004612a6d565b6107ae565b6040519015158152602001610257565b34801561029c57600080fd5b506102b06102ab366004612a97565b6107c8565b005b3480156102be57600080fd5b506035545b604051908152602001610257565b3480156102dd57600080fd5b506102806102ec366004612ab2565b610849565b3480156102fd57600080fd5b5060405160128152602001610257565b34801561031957600080fd5b506102c3610943565b34801561032e57600080fd5b506102b061033d366004612a97565b610952565b34801561034e57600080fd5b5061028061035d366004612a97565b6101c76020526000908152604090205460ff1681565b34801561037f57600080fd5b5061028061038e366004612a6d565b610a31565b34801561039f57600080fd5b506102b0610a53565b3480156103b457600080fd5b506102b06103c3366004612aee565b610aab565b3480156103d457600080fd5b506102b06103e3366004612a97565b610ab5565b6102b06103f6366004612b1d565b610b08565b34801561040757600080fd5b506102c3610bd8565b34801561041c57600080fd5b5060016102c3565b34801561043057600080fd5b506101c65461028090600160a01b900460ff1681565b34801561045257600080fd5b50610466610461366004612a97565b610c8b565b60408051928352602083019190915201610257565b34801561048757600080fd5b506102c3610496366004612a97565b6001600160a01b031660009081526033602052604090205490565b3480156104bd57600080fd5b506102b0610cce565b3480156104d257600080fd5b506101c6546104e7906001600160a01b031681565b6040516001600160a01b039091168152602001610257565b34801561050b57600080fd5b506102b061051a366004612a6d565b610ce2565b34801561052b57600080fd5b506102c361053a366004612a97565b610cf7565b34801561054b57600080fd5b506102b0610d15565b34801561056057600080fd5b50610569610ecf565b6040516102579796959493929190612bdf565b34801561058857600080fd5b506102b0610597366004612c78565b610f6d565b3480156105a857600080fd5b50610130546001600160a01b03166104e7565b3480156105c757600080fd5b5061024a611136565b3480156105dc57600080fd5b506102806105eb366004612a6d565b611145565b3480156105fc57600080fd5b5061028061060b366004612a6d565b6111cb565b34801561061c57600080fd5b5061028061062b366004612a6d565b6112ad565b34801561063c57600080fd5b506102b061064b366004612a97565b61130e565b34801561065c57600080fd5b5061046661066b366004612cab565b611389565b34801561067c57600080fd5b506101c65461028090600160a81b900460ff1681565b34801561069e57600080fd5b506102b06106ad366004612ce9565b61145d565b3480156106be57600080fd5b506102c36106cd366004612d5c565b6115c1565b3480156106de57600080fd5b506102b06106ed366004612a97565b6115ec565b3480156106fe57600080fd5b506102b0611662565b34801561071357600080fd5b506102b06116ad565b60606036805461072b90612d8f565b80601f016020809104026020016040519081016040528092919081815260200182805461075790612d8f565b80156107a45780601f10610779576101008083540402835291602001916107a4565b820191906000526020600020905b81548152906001019060200180831161078757829003601f168201915b5050505050905090565b6000336107bc8185856116fe565b60019150505b92915050565b6107d0611822565b6001600160a01b0381166107ff5760405162461bcd60e51b81526004016107f690612dc3565b60405180910390fd5b6001600160a01b03811660008181526101c76020526040808220805460ff19169055517f721c7fb6e95268e359fdd73565c0c509d03ba3a89d318f8545f8482c6d592d529190a250565b60006001600160a01b038316158061085f575081155b156108765761086f84848461187d565b905061093c565b6101c654600160a81b900460ff1680156108a857506001600160a01b03841660009081526101c8602052604090205415155b1561090a5760006108b985846112ad565b9050806109085760405162461bcd60e51b815260206004820152601d60248201527f496e73756666696369656e7420756e6c6f636b65642062616c616e636500000060448201526064016107f6565b505b600061091785858561187d565b9050806109365760405162461bcd60e51b81526004016107f690612df3565b60019150505b9392505050565b600061094d611896565b905090565b6001600160a01b037f000000000000000000000000000000000000000000000000000000000000000016300361099a5760405162461bcd60e51b81526004016107f690612e1c565b7f00000000000000000000000000000000000000000000000000000000000000006001600160a01b03166109e36000805160206131b7833981519152546001600160a01b031690565b6001600160a01b031614610a095760405162461bcd60e51b81526004016107f690612e68565b610a12816118a0565b60408051600080825260208201909252610a2e91839190611a24565b50565b6000336107bc818585610a4483836115c1565b610a4e9190612eca565b6116fe565b610a5b611822565b6101c6805460ff60a01b1916600160a01b1790556040517f2b12836a7bcd9e01b54ee262c1c3079c9d8cd8dba247dc7b7e7965f652ca141690610aa19042815260200190565b60405180910390a1565b610a2e3382611b94565b610abd611822565b6101c680546001600160a01b0319166001600160a01b0383169081179091556040517f7def7bec2a73f6c42dfba89d246c5f973ffb3b544d40057665f8584d6c773b5890600090a250565b6001600160a01b037f0000000000000000000000000000000000000000000000000000000000000000163003610b505760405162461bcd60e51b81526004016107f690612e1c565b7f00000000000000000000000000000000000000000000000000000000000000006001600160a01b0316610b996000805160206131b7833981519152546001600160a01b031690565b6001600160a01b031614610bbf5760405162461bcd60e51b81526004016107f690612e68565b610bc8826118a0565b610bd482826001611a24565b5050565b6000306001600160a01b037f00000000000000000000000000000000000000000000000000000000000000001614610c785760405162461bcd60e51b815260206004820152603860248201527f555550535570677261646561626c653a206d757374206e6f742062652063616c60448201527f6c6564207468726f7567682064656c656761746563616c6c000000000000000060648201526084016107f6565b506000805160206131b783398151915290565b6000806000610c9984611cc8565b9050610cba846001600160a01b031660009081526033602052604090205490565b9250610cc68382611d61565b915050915091565b610cd6611822565b610ce06000611d6d565b565b610ced823383611dc0565b610bd48282611b94565b6001600160a01b038116600090815260cb60205260408120546107c2565b600054610100900460ff1615808015610d355750600054600160ff909116105b80610d4f5750303b158015610d4f575060005460ff166001145b610db25760405162461bcd60e51b815260206004820152602e60248201527f496e697469616c697a61626c653a20636f6e747261637420697320616c72656160448201526d191e481a5b9a5d1a585b1a5e995960921b60648201526084016107f6565b6000805460ff191660011790558015610dd5576000805461ff0019166101001790555b610e1a604051806040016040528060088152602001671610525059d95b9d60c21b8152506040518060400160405280600381526020016258414160e81b815250611e34565b610e22611e65565b610e4b604051806040016040528060088152602001671610525059d95b9d60c21b815250611e8c565b610e53611ed6565b610e5b611f05565b610e63611e65565b610e8733610e736012600a612fc1565b610e829064174876e800612fd0565b611f34565b8015610a2e576000805461ff0019169055604051600181527f7f26b83ff96e1f2b6a682f133852f6798a09c465da95921460cefb38474024989060200160405180910390a150565b6000606080600080600060606097546000801b148015610eef5750609854155b610f335760405162461bcd60e51b81526020600482015260156024820152741152540dcc4c8e88155b9a5b9a5d1a585b1a5e9959605a1b60448201526064016107f6565b610f3b611ff5565b610f43612004565b60408051600080825260208201909252600f60f81b9b939a50919850469750309650945092509050565b3360009081526101c7602052604090205460ff16610fcd5760405162461bcd60e51b815260206004820181905260248201527f4c6f636b206e6f7420656e61626c656420666f7220746869732077616c6c657460448201526064016107f6565b6001600160a01b0383166110175760405162461bcd60e51b8152602060048201526011602482015270125b9d985b1a59081c9958da5c1a595b9d607a1b60448201526064016107f6565b600082116110585760405162461bcd60e51b815260206004820152600e60248201526d125b9d985b1a5908185b5bdd5b9d60921b60448201526064016107f6565b600081116110a05760405162461bcd60e51b815260206004820152601560248201527424b73b30b634b2103637b1b590323ab930ba34b7b760591b60448201526064016107f6565b6101c654600160a81b900460ff166110fa5760405162461bcd60e51b815260206004820152601e60248201527f4c6f636b2066756e6374696f6e616c6974792069732064697361626c6564000060448201526064016107f6565b60006111068484612013565b9050806111255760405162461bcd60e51b81526004016107f690612df3565b611130848484612021565b50505050565b60606037805461072b90612d8f565b6000338161115382866115c1565b9050838110156111b35760405162461bcd60e51b815260206004820152602560248201527f45524332303a2064656372656173656420616c6c6f77616e63652062656c6f77604482015264207a65726f60d81b60648201526084016107f6565b6111c082868684036116fe565b506001949350505050565b60006001600160a01b03831615806111e1575081155b156111f7576111f08383612013565b90506107c2565b6101c654600160a81b900460ff16801561122057503360009081526101c8602052604090205415155b1561128257600061123133846112ad565b9050806112805760405162461bcd60e51b815260206004820152601d60248201527f496e73756666696369656e7420756e6c6f636b65642062616c616e636500000060448201526064016107f6565b505b600061128e8484612013565b9050806107bc5760405162461bcd60e51b81526004016107f690612df3565b6101c654600090600160a81b900460ff166112ca575060016107c2565b60006112d584611cc8565b90506000611302826112fc876001600160a01b031660009081526033602052604090205490565b90611d61565b90931115949350505050565b611316611822565b6001600160a01b03811661133c5760405162461bcd60e51b81526004016107f690612dc3565b6001600160a01b03811660008181526101c76020526040808220805460ff19166001179055517f6853faed500a5b7c4059da967dd873dce7143afb15484ddc3c3f715669b1411c9190a250565b6001600160a01b03821660009081526101c86020526040812054819061ffff8416106113ec5760405162461bcd60e51b8152602060048201526012602482015271496e646578206f7574206f662072616e676560701b60448201526064016107f6565b6001600160a01b03841660009081526101c860205260408120805461ffff861690811061141b5761141b612fe7565b60009182526020918290206040805160608101825260039093029091018054835260018101549383018490526002015491018190529093509150509250929050565b834211156114ad5760405162461bcd60e51b815260206004820152601d60248201527f45524332305065726d69743a206578706972656420646561646c696e6500000060448201526064016107f6565b60007f6e71edae12b1b97f4d1f60370fef10105fa2faae0126114a169c64845d6126c98888886114dc8c612188565b6040805160208101969096526001600160a01b0394851690860152929091166060840152608083015260a082015260c0810186905260e0016040516020818303038152906040528051906020012090506000611537826121b0565b90506000611547828787876121dd565b9050896001600160a01b0316816001600160a01b0316146115aa5760405162461bcd60e51b815260206004820152601e60248201527f45524332305065726d69743a20696e76616c6964207369676e6174757265000060448201526064016107f6565b6115b58a8a8a6116fe565b50505050505050505050565b6001600160a01b03918216600090815260346020908152604080832093909416825291909152205490565b6115f4611822565b6001600160a01b0381166116595760405162461bcd60e51b815260206004820152602660248201527f4f776e61626c653a206e6577206f776e657220697320746865207a65726f206160448201526564647265737360d01b60648201526084016107f6565b610a2e81611d6d565b61166a611822565b6101c6805460ff60a81b19169055604080514281524360208201527fb5e70c210d2e71a1c7a0374093a7500a98144cb3e42b1347119779fc7f6e1e779101610aa1565b6116b5611822565b6101c6805460ff60a81b1916600160a81b179055604080514281524360208201527f36f626ff436289b843a75d20dd61a7675ca89ff5930b2ba1f10dad7315ce08529101610aa1565b6001600160a01b0383166117605760405162461bcd60e51b8152602060048201526024808201527f45524332303a20617070726f76652066726f6d20746865207a65726f206164646044820152637265737360e01b60648201526084016107f6565b6001600160a01b0382166117c15760405162461bcd60e51b815260206004820152602260248201527f45524332303a20617070726f766520746f20746865207a65726f206164647265604482015261737360f01b60648201526084016107f6565b6001600160a01b0383811660008181526034602090815260408083209487168084529482529182902085905590518481527f8c5be1e5ebec7d5bd14f71427d1e84f3dd0314c0f7b2291e5b200ac8c7c3b925910160405180910390a3505050565b610130546001600160a01b03163314610ce05760405162461bcd60e51b815260206004820181905260248201527f4f776e61626c653a2063616c6c6572206973206e6f7420746865206f776e657260448201526064016107f6565b60003361188b858285611dc0565b610936858585612207565b600061094d6123b2565b6101c654600160a01b900460ff16156118fb5760405162461bcd60e51b815260206004820152601c60248201527f436f6e747261637420757067726164652069732064697361626c65640000000060448201526064016107f6565b6101c6546001600160a01b03166119545760405162461bcd60e51b815260206004820152601960248201527f4e6f2075706772616465207065726d697373696f6e207365740000000000000060448201526064016107f6565b6101c6546001600160a01b031633146119ba5760405162461bcd60e51b815260206004820152602260248201527f4f6e6c792063616e55706772616465416464726573732063616e207570677261604482015261646560f01b60648201526084016107f6565b6001600160a01b038116611a105760405162461bcd60e51b815260206004820152601e60248201527f496e76616c696420696d706c656d656e746174696f6e2061646472657373000060448201526064016107f6565b506101c680546001600160a01b0319169055565b7f4910fdfa16fed3260ed0e7147f7cc6da11a60208b5b9406d12a635614ffd91435460ff1615611a5c57611a5783612426565b505050565b826001600160a01b03166352d1902d6040518163ffffffff1660e01b8152600401602060405180830381865afa925050508015611ab6575060408051601f3d908101601f19168201909252611ab391810190612ffd565b60015b611b195760405162461bcd60e51b815260206004820152602e60248201527f45524331393637557067726164653a206e657720696d706c656d656e7461746960448201526d6f6e206973206e6f74205555505360901b60648201526084016107f6565b6000805160206131b78339815191528114611b885760405162461bcd60e51b815260206004820152602960248201527f45524331393637557067726164653a20756e737570706f727465642070726f786044820152681a58589b195555525160ba1b60648201526084016107f6565b50611a578383836124c2565b6001600160a01b038216611bf45760405162461bcd60e51b815260206004820152602160248201527f45524332303a206275726e2066726f6d20746865207a65726f206164647265736044820152607360f81b60648201526084016107f6565b6001600160a01b03821660009081526033602052604090205481811015611c685760405162461bcd60e51b815260206004820152602260248201527f45524332303a206275726e20616d6f756e7420657863656564732062616c616e604482015261636560f01b60648201526084016107f6565b6001600160a01b03831660008181526033602090815260408083208686039055603580548790039055518581529192917fddf252ad1be2c89b69c2b068fc378daa952ba7f163c4a11628f55a4df523b3ef910160405180910390a3505050565b6001600160a01b03811660009081526101c86020526040812081805b8254811015611d5957828181548110611cff57611cff612fe7565b906000526020600020906003020160020154421015611d5157611d4e838281548110611d2d57611d2d612fe7565b906000526020600020906003020160010154836124e790919063ffffffff16565b91505b600101611ce4565b509392505050565b600061093c8284613016565b61013080546001600160a01b038381166001600160a01b0319831681179093556040519116919082907f8be0079c531659141344cd1fd0a4f28419497f9722a3daafe3b4186f6b6457e090600090a35050565b6000611dcc84846115c1565b905060001981146111305781811015611e275760405162461bcd60e51b815260206004820152601d60248201527f45524332303a20696e73756666696369656e7420616c6c6f77616e636500000060448201526064016107f6565b61113084848484036116fe565b600054610100900460ff16611e5b5760405162461bcd60e51b81526004016107f690613029565b610bd482826124f3565b600054610100900460ff16610ce05760405162461bcd60e51b81526004016107f690613029565b600054610100900460ff16611eb35760405162461bcd60e51b81526004016107f690613029565b610a2e81604051806040016040528060018152602001603160f81b815250612533565b600054610100900460ff16611efd5760405162461bcd60e51b81526004016107f690613029565b610ce0612582565b600054610100900460ff16611f2c5760405162461bcd60e51b81526004016107f690613029565b610ce06125b0565b6001600160a01b038216611f8a5760405162461bcd60e51b815260206004820152601f60248201527f45524332303a206d696e7420746f20746865207a65726f20616464726573730060448201526064016107f6565b8060356000828254611f9c9190612eca565b90915550506001600160a01b0382166000818152603360209081526040808320805486019055518481527fddf252ad1be2c89b69c2b068fc378daa952ba7f163c4a11628f55a4df523b3ef910160405180910390a35050565b60606099805461072b90612d8f565b6060609a805461072b90612d8f565b6000336107bc818585612207565b6001600160a01b0383166120475760405162461bcd60e51b81526004016107f690612dc3565b600082116120885760405162461bcd60e51b815260206004820152600e60248201526d125b9d985b1a5908185b5bdd5b9d60921b60448201526064016107f6565b600081116120d05760405162461bcd60e51b815260206004820152601560248201527424b73b30b634b2103637b1b590323ab930ba34b7b760591b60448201526064016107f6565b4260006120dd8383612eca565b6001600160a01b03861660008181526101c86020908152604080832081516060810183528881528084018b8152818401888152835460018181018655948852959096209151600390950290910193845551908301559151600290910155519192509033907f44d8e77a775c28caeb187f3d075393023f89802855771a543607e45e1094e09c906121799088904390918252602082015260400190565b60405180910390a35050505050565b6001600160a01b038116600090815260cb602052604090208054600181018255905b50919050565b60006107c26121bd611896565b8360405161190160f01b8152600281019290925260228201526042902090565b60008060006121ee878787876125e0565b915091506121fb816126a4565b5090505b949350505050565b6001600160a01b03831661226b5760405162461bcd60e51b815260206004820152602560248201527f45524332303a207472616e736665722066726f6d20746865207a65726f206164604482015264647265737360d81b60648201526084016107f6565b6001600160a01b0382166122cd5760405162461bcd60e51b815260206004820152602360248201527f45524332303a207472616e7366657220746f20746865207a65726f206164647260448201526265737360e81b60648201526084016107f6565b6001600160a01b038316600090815260336020526040902054818110156123455760405162461bcd60e51b815260206004820152602660248201527f45524332303a207472616e7366657220616d6f756e7420657863656564732062604482015265616c616e636560d01b60648201526084016107f6565b6001600160a01b0380851660008181526033602052604080822086860390559286168082529083902080548601905591517fddf252ad1be2c89b69c2b068fc378daa952ba7f163c4a11628f55a4df523b3ef906123a59086815260200190565b60405180910390a3611130565b60007f8b73c3c69bb8fe3d512ecc4cf759cc79239f7b179b0ffacaa9a75d522b39400f6123dd6127ee565b6123e5612847565b60408051602081019490945283019190915260608201524660808201523060a082015260c00160405160208183030381529060405280519060200120905090565b6001600160a01b0381163b6124935760405162461bcd60e51b815260206004820152602d60248201527f455243313936373a206e657720696d706c656d656e746174696f6e206973206e60448201526c1bdd08184818dbdb9d1c9858dd609a1b60648201526084016107f6565b6000805160206131b783398151915280546001600160a01b0319166001600160a01b0392909216919091179055565b6124cb83612878565b6000825111806124d85750805b15611a575761113083836128b8565b600061093c8284612eca565b600054610100900460ff1661251a5760405162461bcd60e51b81526004016107f690613029565b603661252683826130c4565b506037611a5782826130c4565b600054610100900460ff1661255a5760405162461bcd60e51b81526004016107f690613029565b609961256683826130c4565b50609a61257382826130c4565b50506000609781905560985550565b600054610100900460ff166125a95760405162461bcd60e51b81526004016107f690613029565b600160fe55565b600054610100900460ff166125d75760405162461bcd60e51b81526004016107f690613029565b610ce033611d6d565b6000807f7fffffffffffffffffffffffffffffff5d576e7357a4501ddfe92f46681b20a0831115612617575060009050600361269b565b6040805160008082526020820180845289905260ff881692820192909252606081018690526080810185905260019060a0016020604051602081039080840390855afa15801561266b573d6000803e3d6000fd5b5050604051601f1901519150506001600160a01b0381166126945760006001925092505061269b565b9150600090505b94509492505050565b60008160048111156126b8576126b8613184565b036126c05750565b60018160048111156126d4576126d4613184565b036127215760405162461bcd60e51b815260206004820152601860248201527f45434453413a20696e76616c6964207369676e6174757265000000000000000060448201526064016107f6565b600281600481111561273557612735613184565b036127825760405162461bcd60e51b815260206004820152601f60248201527f45434453413a20696e76616c6964207369676e6174757265206c656e6774680060448201526064016107f6565b600381600481111561279657612796613184565b03610a2e5760405162461bcd60e51b815260206004820152602260248201527f45434453413a20696e76616c6964207369676e6174757265202773272076616c604482015261756560f01b60648201526084016107f6565b6000806127f9611ff5565b805190915015612810578051602090910120919050565b609754801561281f5792915050565b7fc5d2460186f7233c927e7db2dcc703c0e500b653ca82273b7bfad8045d85a4709250505090565b600080612852612004565b805190915015612869578051602090910120919050565b609854801561281f5792915050565b61288181612426565b6040516001600160a01b038216907fbc7cd75a20ee27fd9adebab32041f755214dbc6bffa90cc0225b39da2e5c2d3b90600090a250565b606061093c83836040518060600160405280602781526020016131d7602791396060600080856001600160a01b0316856040516128f5919061319a565b600060405180830381855af49150503d8060008114612930576040519150601f19603f3d011682016040523d82523d6000602084013e612935565b606091505b509150915061294686838387612950565b9695505050505050565b606083156129bf5782516000036129b8576001600160a01b0385163b6129b85760405162461bcd60e51b815260206004820152601d60248201527f416464726573733a2063616c6c20746f206e6f6e2d636f6e747261637400000060448201526064016107f6565b50816121ff565b6121ff83838151156129d45781518083602001fd5b8060405162461bcd60e51b81526004016107f69190612a3e565b60005b83811015612a095781810151838201526020016129f1565b50506000910152565b60008151808452612a2a8160208601602086016129ee565b601f01601f19169290920160200192915050565b60208152600061093c6020830184612a12565b80356001600160a01b0381168114612a6857600080fd5b919050565b60008060408385031215612a8057600080fd5b612a8983612a51565b946020939093013593505050565b600060208284031215612aa957600080fd5b61093c82612a51565b600080600060608486031215612ac757600080fd5b612ad084612a51565b9250612ade60208501612a51565b9150604084013590509250925092565b600060208284031215612b0057600080fd5b5035919050565b634e487b7160e01b600052604160045260246000fd5b60008060408385031215612b3057600080fd5b612b3983612a51565b9150602083013567ffffffffffffffff80821115612b5657600080fd5b818501915085601f830112612b6a57600080fd5b813581811115612b7c57612b7c612b07565b604051601f8201601f19908116603f01168101908382118183101715612ba457612ba4612b07565b81604052828152886020848701011115612bbd57600080fd5b8260208601602083013760006020848301015280955050505050509250929050565b60ff60f81b881681526000602060e06020840152612c0060e084018a612a12565b8381036040850152612c12818a612a12565b606085018990526001600160a01b038816608086015260a0850187905284810360c08601528551808252602080880193509091019060005b81811015612c6657835183529284019291840191600101612c4a565b50909c9b505050505050505050505050565b600080600060608486031215612c8d57600080fd5b612c9684612a51565b95602085013595506040909401359392505050565b60008060408385031215612cbe57600080fd5b612cc783612a51565b9150602083013561ffff81168114612cde57600080fd5b809150509250929050565b600080600080600080600060e0888a031215612d0457600080fd5b612d0d88612a51565b9650612d1b60208901612a51565b95506040880135945060608801359350608088013560ff81168114612d3f57600080fd5b9699959850939692959460a0840135945060c09093013592915050565b60008060408385031215612d6f57600080fd5b612d7883612a51565b9150612d8660208401612a51565b90509250929050565b600181811c90821680612da357607f821691505b6020821081036121aa57634e487b7160e01b600052602260045260246000fd5b602080825260169082015275496e76616c69642077616c6c6574206164647265737360501b604082015260600190565b6020808252600f908201526e151c985b9cd9995c8819985a5b1959608a1b604082015260600190565b6020808252602c908201527f46756e6374696f6e206d7573742062652063616c6c6564207468726f7567682060408201526b19195b1959d85d1958d85b1b60a21b606082015260800190565b6020808252602c908201527f46756e6374696f6e206d7573742062652063616c6c6564207468726f7567682060408201526b6163746976652070726f787960a01b606082015260800190565b634e487b7160e01b600052601160045260246000fd5b808201808211156107c2576107c2612eb4565b600181815b80851115612f18578160001904821115612efe57612efe612eb4565b80851615612f0b57918102915b93841c9390800290612ee2565b509250929050565b600082612f2f575060016107c2565b81612f3c575060006107c2565b8160018114612f525760028114612f5c57612f78565b60019150506107c2565b60ff841115612f6d57612f6d612eb4565b50506001821b6107c2565b5060208310610133831016604e8410600b8410161715612f9b575081810a6107c2565b612fa58383612edd565b8060001904821115612fb957612fb9612eb4565b029392505050565b600061093c60ff841683612f20565b80820281158282048414176107c2576107c2612eb4565b634e487b7160e01b600052603260045260246000fd5b60006020828403121561300f57600080fd5b5051919050565b818103818111156107c2576107c2612eb4565b6020808252602b908201527f496e697469616c697a61626c653a20636f6e7472616374206973206e6f74206960408201526a6e697469616c697a696e6760a81b606082015260800190565b601f821115611a57576000816000526020600020601f850160051c8101602086101561309d5750805b601f850160051c820191505b818110156130bc578281556001016130a9565b505050505050565b815167ffffffffffffffff8111156130de576130de612b07565b6130f2816130ec8454612d8f565b84613074565b602080601f831160018114613127576000841561310f5750858301515b600019600386901b1c1916600185901b1785556130bc565b600085815260208120601f198616915b8281101561315657888601518255948401946001909101908401613137565b50858210156131745787850151600019600388901b60f8161c191681555b5050505050600190811b01905550565b634e487b7160e01b600052602160045260246000fd5b600082516131ac8184602087016129ee565b919091019291505056fe360894a13ba1a3210667c828492db98dca3e2076cc3735a920a3ca505d382bbc416464726573733a206c6f772d6c6576656c2064656c65676174652063616c6c206661696c6564a264697066735822122082c933ac6e29a7c81436dc1da3c638d8a227b271ac9dcc3356030c535d06bbe864736f6c63430008160033",
  "linkReferences": {},
  "deployedLinkReferences": {}
}