{
  "_format": "hh-sol-artifact-1",
  "contractName": "XAIAgentDRC20",
  "sourceName": "contracts/XAIAgentDRC20.sol",
  "abi": [
    {
      "inputs": [],
      "stateMutability": "nonpayable",
      "type": "constructor"
    },
    {
      "anonymous": false,
      "inputs": [
        {
          "indexed": true,
          "internalType": "address",
          "name": "owner",
          "type": "address"
        },
        {
          "indexed": true,
          "internalType": "address",
          "name": "spender",
          "type": "address"
        },
        {
          "indexed": false,
          "internalType": "uint256",
          "name": "value",
          "type": "uint256"
        }
      ],
      "name": "Approval",
      "type": "event"
    },
    {
      "anonymous": false,
      "inputs": [
        {
          "indexed": true,
          "internalType": "address",
          "name": "previousOwner",
          "type": "address"
        },
        {
          "indexed": true,
          "internalType": "address",
          "name": "newOwner",
          "type": "address"
        }
      ],
      "name": "OwnershipTransferred",
      "type": "event"
    },
    {
      "anonymous": false,
      "inputs": [
        {
          "indexed": true,
          "internalType": "address",
          "name": "wallet",
          "type": "address"
        },
        {
          "indexed": false,
          "internalType": "uint256",
          "name": "amount",
          "type": "uint256"
        },
        {
          "indexed": false,
          "internalType": "uint256",
          "name": "unlockTime",
          "type": "uint256"
        }
      ],
      "name": "TokensLocked",
      "type": "event"
    },
    {
      "anonymous": false,
      "inputs": [
        {
          "indexed": true,
          "internalType": "address",
          "name": "from",
          "type": "address"
        },
        {
          "indexed": true,
          "internalType": "address",
          "name": "to",
          "type": "address"
        },
        {
          "indexed": false,
          "internalType": "uint256",
          "name": "value",
          "type": "uint256"
        }
      ],
      "name": "Transfer",
      "type": "event"
    },
    {
      "inputs": [],
      "name": "PERMANENT_LOCK_DURATION",
      "outputs": [
        {
          "internalType": "uint256",
          "name": "",
          "type": "uint256"
        }
      ],
      "stateMutability": "view",
      "type": "function"
    },
    {
      "inputs": [
        {
          "internalType": "address",
          "name": "owner",
          "type": "address"
        },
        {
          "internalType": "address",
          "name": "spender",
          "type": "address"
        }
      ],
      "name": "allowance",
      "outputs": [
        {
          "internalType": "uint256",
          "name": "",
          "type": "uint256"
        }
      ],
      "stateMutability": "view",
      "type": "function"
    },
    {
      "inputs": [
        {
          "internalType": "address",
          "name": "spender",
          "type": "address"
        },
        {
          "internalType": "uint256",
          "name": "amount",
          "type": "uint256"
        }
      ],
      "name": "approve",
      "outputs": [
        {
          "internalType": "bool",
          "name": "",
          "type": "bool"
        }
      ],
      "stateMutability": "nonpayable",
      "type": "function"
    },
    {
      "inputs": [
        {
          "internalType": "address",
          "name": "account",
          "type": "address"
        }
      ],
      "name": "balanceOf",
      "outputs": [
        {
          "internalType": "uint256",
          "name": "",
          "type": "uint256"
        }
      ],
      "stateMutability": "view",
      "type": "function"
    },
    {
      "inputs": [
        {
          "internalType": "uint256",
          "name": "amount",
          "type": "uint256"
        }
      ],
      "name": "burn",
      "outputs": [],
      "stateMutability": "nonpayable",
      "type": "function"
    },
    {
      "inputs": [
        {
          "internalType": "address",
          "name": "account",
          "type": "address"
        },
        {
          "internalType": "uint256",
          "name": "amount",
          "type": "uint256"
        }
      ],
      "name": "burnFrom",
      "outputs": [],
      "stateMutability": "nonpayable",
      "type": "function"
    },
    {
      "inputs": [
        {
          "internalType": "address",
          "name": "from",
          "type": "address"
        }
      ],
      "name": "calculateLockedAmount",
      "outputs": [
        {
          "internalType": "uint256",
          "name": "",
          "type": "uint256"
        }
      ],
      "stateMutability": "view",
      "type": "function"
    },
    {
      "inputs": [],
      "name": "decimals",
      "outputs": [
        {
          "internalType": "uint8",
          "name": "",
          "type": "uint8"
        }
      ],
      "stateMutability": "view",
      "type": "function"
    },
    {
      "inputs": [
        {
          "internalType": "address",
          "name": "spender",
          "type": "address"
        },
        {
          "internalType": "uint256",
          "name": "subtractedValue",
          "type": "uint256"
        }
      ],
      "name": "decreaseAllowance",
      "outputs": [
        {
          "internalType": "bool",
          "name": "",
          "type": "bool"
        }
      ],
      "stateMutability": "nonpayable",
      "type": "function"
    },
    {
      "inputs": [
        {
          "internalType": "address",
          "name": "account",
          "type": "address"
        }
      ],
      "name": "getAvailableBalance",
      "outputs": [
        {
          "internalType": "uint256",
          "name": "total",
          "type": "uint256"
        },
        {
          "internalType": "uint256",
          "name": "available",
          "type": "uint256"
        }
      ],
      "stateMutability": "view",
      "type": "function"
    },
    {
      "inputs": [
        {
          "internalType": "address",
          "name": "spender",
          "type": "address"
        },
        {
          "internalType": "uint256",
          "name": "addedValue",
          "type": "uint256"
        }
      ],
      "name": "increaseAllowance",
      "outputs": [
        {
          "internalType": "bool",
          "name": "",
          "type": "bool"
        }
      ],
      "stateMutability": "nonpayable",
      "type": "function"
    },
    {
      "inputs": [
        {
          "internalType": "address",
          "name": "",
          "type": "address"
        }
      ],
      "name": "lockTransferAdmins",
      "outputs": [
        {
          "internalType": "bool",
          "name": "",
          "type": "bool"
        }
      ],
      "stateMutability": "view",
      "type": "function"
    },
    {
      "inputs": [],
      "name": "name",
      "outputs": [
        {
          "internalType": "string",
          "name": "",
          "type": "string"
        }
      ],
      "stateMutability": "view",
      "type": "function"
    },
    {
      "inputs": [],
      "name": "owner",
      "outputs": [
        {
          "internalType": "address",
          "name": "",
          "type": "address"
        }
      ],
      "stateMutability": "view",
      "type": "function"
    },
    {
      "inputs": [],
      "name": "renounceOwnership",
      "outputs": [],
      "stateMutability": "nonpayable",
      "type": "function"
    },
    {
      "inputs": [],
      "name": "symbol",
      "outputs": [
        {
          "internalType": "string",
          "name": "",
          "type": "string"
        }
      ],
      "stateMutability": "view",
      "type": "function"
    },
    {
      "inputs": [
        {
          "internalType": "address",
          "name": "to",
          "type": "address"
        },
        {
          "internalType": "uint256",
          "name": "amount",
          "type": "uint256"
        },
        {
          "internalType": "uint256",
          "name": "duration",
          "type": "uint256"
        }
      ],
      "name": "testLockTokens",
      "outputs": [],
      "stateMutability": "nonpayable",
      "type": "function"
    },
    {
      "inputs": [],
      "name": "totalSupply",
      "outputs": [
        {
          "internalType": "uint256",
          "name": "",
          "type": "uint256"
        }
      ],
      "stateMutability": "view",
      "type": "function"
    },
    {
      "inputs": [
        {
          "internalType": "address",
          "name": "to",
          "type": "address"
        },
        {
          "internalType": "uint256",
          "name": "amount",
          "type": "uint256"
        }
      ],
      "name": "transfer",
      "outputs": [
        {
          "internalType": "bool",
          "name": "",
          "type": "bool"
        }
      ],
      "stateMutability": "nonpayable",
      "type": "function"
    },
    {
      "inputs": [
        {
          "internalType": "address",
          "name": "from",
          "type": "address"
        },
        {
          "internalType": "address",
          "name": "to",
          "type": "address"
        },
        {
          "internalType": "uint256",
          "name": "amount",
          "type": "uint256"
        }
      ],
      "name": "transferFrom",
      "outputs": [
        {
          "internalType": "bool",
          "name": "",
          "type": "bool"
        }
      ],
      "stateMutability": "nonpayable",
      "type": "function"
    },
    {
      "inputs": [
        {
          "internalType": "address",
          "name": "newOwner",
          "type": "address"
        }
      ],
      "name": "transferOwnership",
      "outputs": [],
      "stateMutability": "nonpayable",
      "type": "function"
    }
  ],
  "bytecode": "0x60806040523480156200001157600080fd5b50604051806040016040528060098152602001682c20a0902a37b5b2b760b91b8152506040518060400160405280600381526020016258414160e81b815250816003908162000061919062000276565b50600462000070828262000276565b50506001600555506200008333620000b3565b620000ad33620000966012600a62000457565b620000a79064e8d4a510006200046f565b62000105565b6200049f565b600680546001600160a01b038381166001600160a01b0319831681179093556040519116919082907f8be0079c531659141344cd1fd0a4f28419497f9722a3daafe3b4186f6b6457e090600090a35050565b6001600160a01b038216620001605760405162461bcd60e51b815260206004820152601f60248201527f45524332303a206d696e7420746f20746865207a65726f206164647265737300604482015260640160405180910390fd5b806002600082825462000174919062000489565b90915550506001600160a01b038216600081815260208181526040808320805486019055518481527fddf252ad1be2c89b69c2b068fc378daa952ba7f163c4a11628f55a4df523b3ef910160405180910390a35050565b505050565b634e487b7160e01b600052604160045260246000fd5b600181811c90821680620001fb57607f821691505b6020821081036200021c57634e487b7160e01b600052602260045260246000fd5b50919050565b601f821115620001cb576000816000526020600020601f850160051c810160208610156200024d5750805b601f850160051c820191505b818110156200026e5782815560010162000259565b505050505050565b81516001600160401b03811115620002925762000292620001d0565b620002aa81620002a38454620001e6565b8462000222565b602080601f831160018114620002e25760008415620002c95750858301515b600019600386901b1c1916600185901b1785556200026e565b600085815260208120601f198616915b828110156200031357888601518255948401946001909101908401620002f2565b5085821015620003325787850151600019600388901b60f8161c191681555b5050505050600190811b01905550565b634e487b7160e01b600052601160045260246000fd5b600181815b80851115620003995781600019048211156200037d576200037d62000342565b808516156200038b57918102915b93841c93908002906200035d565b509250929050565b600082620003b25750600162000451565b81620003c15750600062000451565b8160018114620003da5760028114620003e55762000405565b600191505062000451565b60ff841115620003f957620003f962000342565b50506001821b62000451565b5060208310610133831016604e8410600b84101617156200042a575081810a62000451565b62000436838362000358565b80600019048211156200044d576200044d62000342565b0290505b92915050565b60006200046860ff841683620003a1565b9392505050565b808202811582820484141762000451576200045162000342565b8082018082111562000451576200045162000342565b61123b80620004af6000396000f3fe608060405234801561001057600080fd5b50600436106101375760003560e01c8063715018a6116100b8578063971f368d1161007c578063971f368d14610287578063a457c2d71461029a578063a9059cbb146102ad578063d86f0fae146102c0578063dd62ed3e146102e3578063f2fde38b146102f657600080fd5b8063715018a6146102365780637905e5a81461023e57806379cc6790146102515780638da5cb5b1461026457806395d89b411461027f57600080fd5b806339509351116100ff57806339509351146101b157806342966c68146101c45780636234ba27146101d95780636c24a76f146101e557806370a082311461020d57600080fd5b806306fdde031461013c578063095ea7b31461015a57806318160ddd1461017d57806323b872dd1461018f578063313ce567146101a2575b600080fd5b610144610309565b604051610151919061100e565b60405180910390f35b61016d610168366004611079565b61039b565b6040519015158152602001610151565b6002545b604051908152602001610151565b61016d61019d3660046110a3565b6103b5565b60405160128152602001610151565b61016d6101bf366004611079565b6104e9565b6101d76101d23660046110df565b61050b565b005b610181640757b12c0081565b6101f86101f33660046110f8565b610518565b60408051928352602083019190915201610151565b61018161021b3660046110f8565b6001600160a01b031660009081526020819052604090205490565b6101d7610550565b6101d761024c366004611113565b610564565b6101d761025f366004611079565b610574565b6006546040516001600160a01b039091168152602001610151565b61014461058d565b6101816102953660046110f8565b61059c565b61016d6102a8366004611079565b610634565b61016d6102bb366004611079565b6106ba565b61016d6102ce3660046110f8565b60086020526000908152604090205460ff1681565b6101816102f1366004611146565b6107de565b6101d76103043660046110f8565b610809565b60606003805461031890611179565b80601f016020809104026020016040519081016040528092919081815260200182805461034490611179565b80156103915780601f1061036657610100808354040283529160200191610391565b820191906000526020600020905b81548152906001019060200180831161037457829003601f168201915b5050505050905090565b6000336103a981858561087f565b60019150505b92915050565b60006001600160a01b0383166104125760405162461bcd60e51b815260206004820152601f60248201527f45524332303a207472616e7366657220746f207a65726f20616464726573730060448201526064015b60405180910390fd5b600082116104625760405162461bcd60e51b815260206004820181905260248201527f5472616e7366657220616d6f756e74206d75737420626520706f7369746976656044820152606401610409565b6001600160a01b038416600090815260076020526040902054156104d65761048a84836109a3565b6104d65760405162461bcd60e51b815260206004820152601d60248201527f496e73756666696369656e7420756e6c6f636b65642062616c616e63650000006044820152606401610409565b6104e18484846109e8565b949350505050565b6000336103a98185856104fc83836107de565b61050691906111c9565b61087f565b6105153382610a01565b50565b6001600160a01b038116600090815260208190526040812054908061053c8461059c565b90506105488382610b33565b915050915091565b610558610b3f565b6105626000610b99565b565b61056f838383610beb565b505050565b61057f823383610dda565b6105898282610a01565b5050565b60606004805461031890611179565b6001600160a01b038116600090815260076020526040812081805b825481101561062c578281815481106105d2576105d26111dc565b90600052602060002090600302016002015442101561062457610621838281548110610600576106006111dc565b90600052602060002090600302016001015483610e5490919063ffffffff16565b91505b6001016105b7565b509392505050565b6000338161064282866107de565b9050838110156106a25760405162461bcd60e51b815260206004820152602560248201527f45524332303a2064656372656173656420616c6c6f77616e63652062656c6f77604482015264207a65726f60d81b6064820152608401610409565b6106af828686840361087f565b506001949350505050565b60006001600160a01b0383166107125760405162461bcd60e51b815260206004820152601f60248201527f45524332303a207472616e7366657220746f207a65726f2061646472657373006044820152606401610409565b600082116107625760405162461bcd60e51b815260206004820181905260248201527f5472616e7366657220616d6f756e74206d75737420626520706f7369746976656044820152606401610409565b33600090815260076020526040902054156107cd5761078133836109a3565b6107cd5760405162461bcd60e51b815260206004820152601d60248201527f496e73756666696369656e7420756e6c6f636b65642062616c616e63650000006044820152606401610409565b6107d78383610e60565b9392505050565b6001600160a01b03918216600090815260016020908152604080832093909416825291909152205490565b610811610b3f565b6001600160a01b0381166108765760405162461bcd60e51b815260206004820152602660248201527f4f776e61626c653a206e6577206f776e657220697320746865207a65726f206160448201526564647265737360d01b6064820152608401610409565b61051581610b99565b6001600160a01b0383166108e15760405162461bcd60e51b8152602060048201526024808201527f45524332303a20617070726f76652066726f6d20746865207a65726f206164646044820152637265737360e01b6064820152608401610409565b6001600160a01b0382166109425760405162461bcd60e51b815260206004820152602260248201527f45524332303a20617070726f766520746f20746865207a65726f206164647265604482015261737360f01b6064820152608401610409565b6001600160a01b0383811660008181526001602090815260408083209487168084529482529182902085905590518481527f8c5be1e5ebec7d5bd14f71427d1e84f3dd0314c0f7b2291e5b200ac8c7c3b925910160405180910390a3505050565b6000806109af8461059c565b905060006109dc826109d6876001600160a01b031660009081526020819052604090205490565b90610b33565b90931115949350505050565b6000336109f6858285610dda565b6106af858585610e6a565b6001600160a01b038216610a615760405162461bcd60e51b815260206004820152602160248201527f45524332303a206275726e2066726f6d20746865207a65726f206164647265736044820152607360f81b6064820152608401610409565b6001600160a01b03821660009081526020819052604090205481811015610ad55760405162461bcd60e51b815260206004820152602260248201527f45524332303a206275726e20616d6f756e7420657863656564732062616c616e604482015261636560f01b6064820152608401610409565b6001600160a01b0383166000818152602081815260408083208686039055600280548790039055518581529192917fddf252ad1be2c89b69c2b068fc378daa952ba7f163c4a11628f55a4df523b3ef910160405180910390a3505050565b60006107d782846111f2565b6006546001600160a01b031633146105625760405162461bcd60e51b815260206004820181905260248201527f4f776e61626c653a2063616c6c6572206973206e6f7420746865206f776e65726044820152606401610409565b600680546001600160a01b038381166001600160a01b0319831681179093556040519116919082907f8be0079c531659141344cd1fd0a4f28419497f9722a3daafe3b4186f6b6457e090600090a35050565b6001600160a01b038316610c335760405162461bcd60e51b815260206004820152600f60248201526e496e76616c6964206164647265737360881b6044820152606401610409565b60008211610c835760405162461bcd60e51b815260206004820152601760248201527f416d6f756e74206d75737420626520706f7369746976650000000000000000006044820152606401610409565b60008111610cd35760405162461bcd60e51b815260206004820152601e60248201527f4c6f636b206475726174696f6e206d75737420626520706f73697469766500006044820152606401610409565b6001600160a01b03831660009081526007602052604090208054606411610d345760405162461bcd60e51b8152602060048201526015602482015274546f6f206d616e79206c6f636b20656e747269657360581b6044820152606401610409565b426000610d4184836111c9565b604080516060810182528481526020808201898152828401858152885460018082018b5560008b815285902095516003909202909501908155915193820193909355915160029092019190915581518881529081018390529192506001600160a01b038816917fd741e738a23fd18a03a26522320d9fc6cac1fed483e215ea9150fbc2fc43385d910160405180910390a2505050505050565b6000610de684846107de565b90506000198114610e4e5781811015610e415760405162461bcd60e51b815260206004820152601d60248201527f45524332303a20696e73756666696369656e7420616c6c6f77616e63650000006044820152606401610409565b610e4e848484840361087f565b50505050565b60006107d782846111c9565b6000336103a98185855b6001600160a01b038316610ece5760405162461bcd60e51b815260206004820152602560248201527f45524332303a207472616e736665722066726f6d20746865207a65726f206164604482015264647265737360d81b6064820152608401610409565b6001600160a01b038216610f305760405162461bcd60e51b815260206004820152602360248201527f45524332303a207472616e7366657220746f20746865207a65726f206164647260448201526265737360e81b6064820152608401610409565b6001600160a01b03831660009081526020819052604090205481811015610fa85760405162461bcd60e51b815260206004820152602660248201527f45524332303a207472616e7366657220616d6f756e7420657863656564732062604482015265616c616e636560d01b6064820152608401610409565b6001600160a01b03848116600081815260208181526040808320878703905593871680835291849020805487019055925185815290927fddf252ad1be2c89b69c2b068fc378daa952ba7f163c4a11628f55a4df523b3ef910160405180910390a3610e4e565b60006020808352835180602085015260005b8181101561103c57858101830151858201604001528201611020565b506000604082860101526040601f19601f8301168501019250505092915050565b80356001600160a01b038116811461107457600080fd5b919050565b6000806040838503121561108c57600080fd5b6110958361105d565b946020939093013593505050565b6000806000606084860312156110b857600080fd5b6110c18461105d565b92506110cf6020850161105d565b9150604084013590509250925092565b6000602082840312156110f157600080fd5b5035919050565b60006020828403121561110a57600080fd5b6107d78261105d565b60008060006060848603121561112857600080fd5b6111318461105d565b95602085013595506040909401359392505050565b6000806040838503121561115957600080fd5b6111628361105d565b91506111706020840161105d565b90509250929050565b600181811c9082168061118d57607f821691505b6020821081036111ad57634e487b7160e01b600052602260045260246000fd5b50919050565b634e487b7160e01b600052601160045260246000fd5b808201808211156103af576103af6111b3565b634e487b7160e01b600052603260045260246000fd5b818103818111156103af576103af6111b356fea264697066735822122013e83a7ac141c15532a8995ab83c98b11867d0f834f397c5692656271fc779f164736f6c63430008160033",
  "linkReferences": {},
  "deployedLinkReferences": {}
}