{
  "_format": "hh-sol-artifact-1",
  "contractName": "XAIAgentDRC20",
  "sourceName": "contracts/XAIAgentDRC20.sol",
  "abi": [
    {
      "inputs": [],
      "stateMutability": "nonpayable",
      "type": "constructor"
    },
    {
      "anonymous": false,
      "inputs": [
        {
          "indexed": true,
          "internalType": "address",
          "name": "owner",
          "type": "address"
        },
        {
          "indexed": true,
          "internalType": "address",
          "name": "spender",
          "type": "address"
        },
        {
          "indexed": false,
          "internalType": "uint256",
          "name": "value",
          "type": "uint256"
        }
      ],
      "name": "Approval",
      "type": "event"
    },
    {
      "anonymous": false,
      "inputs": [
        {
          "indexed": true,
          "internalType": "address",
          "name": "previousOwner",
          "type": "address"
        },
        {
          "indexed": true,
          "internalType": "address",
          "name": "newOwner",
          "type": "address"
        }
      ],
      "name": "OwnershipTransferred",
      "type": "event"
    },
    {
      "anonymous": false,
      "inputs": [
        {
          "indexed": true,
          "internalType": "address",
          "name": "wallet",
          "type": "address"
        },
        {
          "indexed": false,
          "internalType": "uint256",
          "name": "amount",
          "type": "uint256"
        },
        {
          "indexed": false,
          "internalType": "uint256",
          "name": "unlockTime",
          "type": "uint256"
        }
      ],
      "name": "TokensLocked",
      "type": "event"
    },
    {
      "anonymous": false,
      "inputs": [
        {
          "indexed": true,
          "internalType": "address",
          "name": "from",
          "type": "address"
        },
        {
          "indexed": true,
          "internalType": "address",
          "name": "to",
          "type": "address"
        },
        {
          "indexed": false,
          "internalType": "uint256",
          "name": "value",
          "type": "uint256"
        }
      ],
      "name": "Transfer",
      "type": "event"
    },
    {
      "inputs": [],
      "name": "PERMANENT_LOCK_DURATION",
      "outputs": [
        {
          "internalType": "uint256",
          "name": "",
          "type": "uint256"
        }
      ],
      "stateMutability": "view",
      "type": "function"
    },
    {
      "inputs": [
        {
          "internalType": "address",
          "name": "owner",
          "type": "address"
        },
        {
          "internalType": "address",
          "name": "spender",
          "type": "address"
        }
      ],
      "name": "allowance",
      "outputs": [
        {
          "internalType": "uint256",
          "name": "",
          "type": "uint256"
        }
      ],
      "stateMutability": "view",
      "type": "function"
    },
    {
      "inputs": [
        {
          "internalType": "address",
          "name": "spender",
          "type": "address"
        },
        {
          "internalType": "uint256",
          "name": "amount",
          "type": "uint256"
        }
      ],
      "name": "approve",
      "outputs": [
        {
          "internalType": "bool",
          "name": "",
          "type": "bool"
        }
      ],
      "stateMutability": "nonpayable",
      "type": "function"
    },
    {
      "inputs": [
        {
          "internalType": "address",
          "name": "account",
          "type": "address"
        }
      ],
      "name": "balanceOf",
      "outputs": [
        {
          "internalType": "uint256",
          "name": "",
          "type": "uint256"
        }
      ],
      "stateMutability": "view",
      "type": "function"
    },
    {
      "inputs": [
        {
          "internalType": "uint256",
          "name": "amount",
          "type": "uint256"
        }
      ],
      "name": "burn",
      "outputs": [],
      "stateMutability": "nonpayable",
      "type": "function"
    },
    {
      "inputs": [
        {
          "internalType": "address",
          "name": "account",
          "type": "address"
        },
        {
          "internalType": "uint256",
          "name": "amount",
          "type": "uint256"
        }
      ],
      "name": "burnFrom",
      "outputs": [],
      "stateMutability": "nonpayable",
      "type": "function"
    },
    {
      "inputs": [
        {
          "internalType": "address",
          "name": "from",
          "type": "address"
        }
      ],
      "name": "calculateLockedAmount",
      "outputs": [
        {
          "internalType": "uint256",
          "name": "",
          "type": "uint256"
        }
      ],
      "stateMutability": "view",
      "type": "function"
    },
    {
      "inputs": [],
      "name": "decimals",
      "outputs": [
        {
          "internalType": "uint8",
          "name": "",
          "type": "uint8"
        }
      ],
      "stateMutability": "view",
      "type": "function"
    },
    {
      "inputs": [
        {
          "internalType": "address",
          "name": "spender",
          "type": "address"
        },
        {
          "internalType": "uint256",
          "name": "subtractedValue",
          "type": "uint256"
        }
      ],
      "name": "decreaseAllowance",
      "outputs": [
        {
          "internalType": "bool",
          "name": "",
          "type": "bool"
        }
      ],
      "stateMutability": "nonpayable",
      "type": "function"
    },
    {
      "inputs": [
        {
          "internalType": "address",
          "name": "account",
          "type": "address"
        }
      ],
      "name": "getAvailableBalance",
      "outputs": [
        {
          "internalType": "uint256",
          "name": "total",
          "type": "uint256"
        },
        {
          "internalType": "uint256",
          "name": "available",
          "type": "uint256"
        }
      ],
      "stateMutability": "view",
      "type": "function"
    },
    {
      "inputs": [
        {
          "internalType": "address",
          "name": "spender",
          "type": "address"
        },
        {
          "internalType": "uint256",
          "name": "addedValue",
          "type": "uint256"
        }
      ],
      "name": "increaseAllowance",
      "outputs": [
        {
          "internalType": "bool",
          "name": "",
          "type": "bool"
        }
      ],
      "stateMutability": "nonpayable",
      "type": "function"
    },
    {
      "inputs": [],
      "name": "name",
      "outputs": [
        {
          "internalType": "string",
          "name": "",
          "type": "string"
        }
      ],
      "stateMutability": "view",
      "type": "function"
    },
    {
      "inputs": [],
      "name": "owner",
      "outputs": [
        {
          "internalType": "address",
          "name": "",
          "type": "address"
        }
      ],
      "stateMutability": "view",
      "type": "function"
    },
    {
      "inputs": [],
      "name": "renounceOwnership",
      "outputs": [],
      "stateMutability": "nonpayable",
      "type": "function"
    },
    {
      "inputs": [],
      "name": "symbol",
      "outputs": [
        {
          "internalType": "string",
          "name": "",
          "type": "string"
        }
      ],
      "stateMutability": "view",
      "type": "function"
    },
    {
      "inputs": [
        {
          "internalType": "address",
          "name": "to",
          "type": "address"
        },
        {
          "internalType": "uint256",
          "name": "amount",
          "type": "uint256"
        },
        {
          "internalType": "uint256",
          "name": "duration",
          "type": "uint256"
        }
      ],
      "name": "testLockTokens",
      "outputs": [],
      "stateMutability": "nonpayable",
      "type": "function"
    },
    {
      "inputs": [],
      "name": "totalSupply",
      "outputs": [
        {
          "internalType": "uint256",
          "name": "",
          "type": "uint256"
        }
      ],
      "stateMutability": "view",
      "type": "function"
    },
    {
      "inputs": [
        {
          "internalType": "address",
          "name": "to",
          "type": "address"
        },
        {
          "internalType": "uint256",
          "name": "amount",
          "type": "uint256"
        }
      ],
      "name": "transfer",
      "outputs": [
        {
          "internalType": "bool",
          "name": "",
          "type": "bool"
        }
      ],
      "stateMutability": "nonpayable",
      "type": "function"
    },
    {
      "inputs": [
        {
          "internalType": "address",
          "name": "from",
          "type": "address"
        },
        {
          "internalType": "address",
          "name": "to",
          "type": "address"
        },
        {
          "internalType": "uint256",
          "name": "amount",
          "type": "uint256"
        }
      ],
      "name": "transferFrom",
      "outputs": [
        {
          "internalType": "bool",
          "name": "",
          "type": "bool"
        }
      ],
      "stateMutability": "nonpayable",
      "type": "function"
    },
    {
      "inputs": [
        {
          "internalType": "address",
          "name": "newOwner",
          "type": "address"
        }
      ],
      "name": "transferOwnership",
      "outputs": [],
      "stateMutability": "nonpayable",
      "type": "function"
    }
  ],
  "bytecode": "0x60806040523480156200001157600080fd5b50604051806040016040528060098152602001682c20a0902a37b5b2b760b91b8152506040518060400160405280600381526020016258414160e81b815250816003908162000061919062000276565b50600462000070828262000276565b50506001600555506200008333620000b3565b620000ad33620000966012600a62000457565b620000a79064e8d4a510006200046f565b62000105565b6200049f565b600680546001600160a01b038381166001600160a01b0319831681179093556040519116919082907f8be0079c531659141344cd1fd0a4f28419497f9722a3daafe3b4186f6b6457e090600090a35050565b6001600160a01b038216620001605760405162461bcd60e51b815260206004820152601f60248201527f45524332303a206d696e7420746f20746865207a65726f206164647265737300604482015260640160405180910390fd5b806002600082825462000174919062000489565b90915550506001600160a01b038216600081815260208181526040808320805486019055518481527fddf252ad1be2c89b69c2b068fc378daa952ba7f163c4a11628f55a4df523b3ef910160405180910390a35050565b505050565b634e487b7160e01b600052604160045260246000fd5b600181811c90821680620001fb57607f821691505b6020821081036200021c57634e487b7160e01b600052602260045260246000fd5b50919050565b601f821115620001cb576000816000526020600020601f850160051c810160208610156200024d5750805b601f850160051c820191505b818110156200026e5782815560010162000259565b505050505050565b81516001600160401b03811115620002925762000292620001d0565b620002aa81620002a38454620001e6565b8462000222565b602080601f831160018114620002e25760008415620002c95750858301515b600019600386901b1c1916600185901b1785556200026e565b600085815260208120601f198616915b828110156200031357888601518255948401946001909101908401620002f2565b5085821015620003325787850151600019600388901b60f8161c191681555b5050505050600190811b01905550565b634e487b7160e01b600052601160045260246000fd5b600181815b80851115620003995781600019048211156200037d576200037d62000342565b808516156200038b57918102915b93841c93908002906200035d565b509250929050565b600082620003b25750600162000451565b81620003c15750600062000451565b8160018114620003da5760028114620003e55762000405565b600191505062000451565b60ff841115620003f957620003f962000342565b50506001821b62000451565b5060208310610133831016604e8410600b84101617156200042a575081810a62000451565b62000436838362000358565b80600019048211156200044d576200044d62000342565b0290505b92915050565b60006200046860ff841683620003a1565b9392505050565b808202811582820484141762000451576200045162000342565b8082018082111562000451576200045162000342565b61120d80620004af6000396000f3fe608060405234801561001057600080fd5b506004361061012c5760003560e01c8063715018a6116100ad578063971f368d11610071578063971f368d1461027c578063a457c2d71461028f578063a9059cbb146102a2578063dd62ed3e146102b5578063f2fde38b146102c857600080fd5b8063715018a61461022b5780637905e5a81461023357806379cc6790146102465780638da5cb5b1461025957806395d89b411461027457600080fd5b806339509351116100f457806339509351146101a657806342966c68146101b95780636234ba27146101ce5780636c24a76f146101da57806370a082311461020257600080fd5b806306fdde0314610131578063095ea7b31461014f57806318160ddd1461017257806323b872dd14610184578063313ce56714610197575b600080fd5b6101396102db565b6040516101469190610fe0565b60405180910390f35b61016261015d36600461104b565b61036d565b6040519015158152602001610146565b6002545b604051908152602001610146565b610162610192366004611075565b610387565b60405160128152602001610146565b6101626101b436600461104b565b6104bb565b6101cc6101c73660046110b1565b6104dd565b005b610176640757b12c0081565b6101ed6101e83660046110ca565b6104ea565b60408051928352602083019190915201610146565b6101766102103660046110ca565b6001600160a01b031660009081526020819052604090205490565b6101cc610522565b6101cc6102413660046110e5565b610536565b6101cc61025436600461104b565b610546565b6006546040516001600160a01b039091168152602001610146565b61013961055f565b61017661028a3660046110ca565b61056e565b61016261029d36600461104b565b610606565b6101626102b036600461104b565b61068c565b6101766102c3366004611118565b6107b0565b6101cc6102d63660046110ca565b6107db565b6060600380546102ea9061114b565b80601f01602080910402602001604051908101604052809291908181526020018280546103169061114b565b80156103635780601f1061033857610100808354040283529160200191610363565b820191906000526020600020905b81548152906001019060200180831161034657829003601f168201915b5050505050905090565b60003361037b818585610851565b60019150505b92915050565b60006001600160a01b0383166103e45760405162461bcd60e51b815260206004820152601f60248201527f45524332303a207472616e7366657220746f207a65726f20616464726573730060448201526064015b60405180910390fd5b600082116104345760405162461bcd60e51b815260206004820181905260248201527f5472616e7366657220616d6f756e74206d75737420626520706f73697469766560448201526064016103db565b6001600160a01b038416600090815260076020526040902054156104a85761045c8483610975565b6104a85760405162461bcd60e51b815260206004820152601d60248201527f496e73756666696369656e7420756e6c6f636b65642062616c616e636500000060448201526064016103db565b6104b38484846109ba565b949350505050565b60003361037b8185856104ce83836107b0565b6104d8919061119b565b610851565b6104e733826109d3565b50565b6001600160a01b038116600090815260208190526040812054908061050e8461056e565b905061051a8382610b05565b915050915091565b61052a610b11565b6105346000610b6b565b565b610541838383610bbd565b505050565b610551823383610dac565b61055b82826109d3565b5050565b6060600480546102ea9061114b565b6001600160a01b038116600090815260076020526040812081805b82548110156105fe578281815481106105a4576105a46111ae565b9060005260206000209060030201600201544210156105f6576105f38382815481106105d2576105d26111ae565b90600052602060002090600302016001015483610e2690919063ffffffff16565b91505b600101610589565b509392505050565b6000338161061482866107b0565b9050838110156106745760405162461bcd60e51b815260206004820152602560248201527f45524332303a2064656372656173656420616c6c6f77616e63652062656c6f77604482015264207a65726f60d81b60648201526084016103db565b6106818286868403610851565b506001949350505050565b60006001600160a01b0383166106e45760405162461bcd60e51b815260206004820152601f60248201527f45524332303a207472616e7366657220746f207a65726f20616464726573730060448201526064016103db565b600082116107345760405162461bcd60e51b815260206004820181905260248201527f5472616e7366657220616d6f756e74206d75737420626520706f73697469766560448201526064016103db565b336000908152600760205260409020541561079f576107533383610975565b61079f5760405162461bcd60e51b815260206004820152601d60248201527f496e73756666696369656e7420756e6c6f636b65642062616c616e636500000060448201526064016103db565b6107a98383610e32565b9392505050565b6001600160a01b03918216600090815260016020908152604080832093909416825291909152205490565b6107e3610b11565b6001600160a01b0381166108485760405162461bcd60e51b815260206004820152602660248201527f4f776e61626c653a206e6577206f776e657220697320746865207a65726f206160448201526564647265737360d01b60648201526084016103db565b6104e781610b6b565b6001600160a01b0383166108b35760405162461bcd60e51b8152602060048201526024808201527f45524332303a20617070726f76652066726f6d20746865207a65726f206164646044820152637265737360e01b60648201526084016103db565b6001600160a01b0382166109145760405162461bcd60e51b815260206004820152602260248201527f45524332303a20617070726f766520746f20746865207a65726f206164647265604482015261737360f01b60648201526084016103db565b6001600160a01b0383811660008181526001602090815260408083209487168084529482529182902085905590518481527f8c5be1e5ebec7d5bd14f71427d1e84f3dd0314c0f7b2291e5b200ac8c7c3b925910160405180910390a3505050565b6000806109818461056e565b905060006109ae826109a8876001600160a01b031660009081526020819052604090205490565b90610b05565b90931115949350505050565b6000336109c8858285610dac565b610681858585610e3c565b6001600160a01b038216610a335760405162461bcd60e51b815260206004820152602160248201527f45524332303a206275726e2066726f6d20746865207a65726f206164647265736044820152607360f81b60648201526084016103db565b6001600160a01b03821660009081526020819052604090205481811015610aa75760405162461bcd60e51b815260206004820152602260248201527f45524332303a206275726e20616d6f756e7420657863656564732062616c616e604482015261636560f01b60648201526084016103db565b6001600160a01b0383166000818152602081815260408083208686039055600280548790039055518581529192917fddf252ad1be2c89b69c2b068fc378daa952ba7f163c4a11628f55a4df523b3ef910160405180910390a3505050565b60006107a982846111c4565b6006546001600160a01b031633146105345760405162461bcd60e51b815260206004820181905260248201527f4f776e61626c653a2063616c6c6572206973206e6f7420746865206f776e657260448201526064016103db565b600680546001600160a01b038381166001600160a01b0319831681179093556040519116919082907f8be0079c531659141344cd1fd0a4f28419497f9722a3daafe3b4186f6b6457e090600090a35050565b6001600160a01b038316610c055760405162461bcd60e51b815260206004820152600f60248201526e496e76616c6964206164647265737360881b60448201526064016103db565b60008211610c555760405162461bcd60e51b815260206004820152601760248201527f416d6f756e74206d75737420626520706f73697469766500000000000000000060448201526064016103db565b60008111610ca55760405162461bcd60e51b815260206004820152601e60248201527f4c6f636b206475726174696f6e206d75737420626520706f736974697665000060448201526064016103db565b6001600160a01b03831660009081526007602052604090208054606411610d065760405162461bcd60e51b8152602060048201526015602482015274546f6f206d616e79206c6f636b20656e747269657360581b60448201526064016103db565b426000610d13848361119b565b604080516060810182528481526020808201898152828401858152885460018082018b5560008b815285902095516003909202909501908155915193820193909355915160029092019190915581518881529081018390529192506001600160a01b038816917fd741e738a23fd18a03a26522320d9fc6cac1fed483e215ea9150fbc2fc43385d910160405180910390a2505050505050565b6000610db884846107b0565b90506000198114610e205781811015610e135760405162461bcd60e51b815260206004820152601d60248201527f45524332303a20696e73756666696369656e7420616c6c6f77616e636500000060448201526064016103db565b610e208484848403610851565b50505050565b60006107a9828461119b565b60003361037b8185855b6001600160a01b038316610ea05760405162461bcd60e51b815260206004820152602560248201527f45524332303a207472616e736665722066726f6d20746865207a65726f206164604482015264647265737360d81b60648201526084016103db565b6001600160a01b038216610f025760405162461bcd60e51b815260206004820152602360248201527f45524332303a207472616e7366657220746f20746865207a65726f206164647260448201526265737360e81b60648201526084016103db565b6001600160a01b03831660009081526020819052604090205481811015610f7a5760405162461bcd60e51b815260206004820152602660248201527f45524332303a207472616e7366657220616d6f756e7420657863656564732062604482015265616c616e636560d01b60648201526084016103db565b6001600160a01b03848116600081815260208181526040808320878703905593871680835291849020805487019055925185815290927fddf252ad1be2c89b69c2b068fc378daa952ba7f163c4a11628f55a4df523b3ef910160405180910390a3610e20565b60006020808352835180602085015260005b8181101561100e57858101830151858201604001528201610ff2565b506000604082860101526040601f19601f8301168501019250505092915050565b80356001600160a01b038116811461104657600080fd5b919050565b6000806040838503121561105e57600080fd5b6110678361102f565b946020939093013593505050565b60008060006060848603121561108a57600080fd5b6110938461102f565b92506110a16020850161102f565b9150604084013590509250925092565b6000602082840312156110c357600080fd5b5035919050565b6000602082840312156110dc57600080fd5b6107a98261102f565b6000806000606084860312156110fa57600080fd5b6111038461102f565b95602085013595506040909401359392505050565b6000806040838503121561112b57600080fd5b6111348361102f565b91506111426020840161102f565b90509250929050565b600181811c9082168061115f57607f821691505b60208210810361117f57634e487b7160e01b600052602260045260246000fd5b50919050565b634e487b7160e01b600052601160045260246000fd5b8082018082111561038157610381611185565b634e487b7160e01b600052603260045260246000fd5b818103818111156103815761038161118556fea264697066735822122070578c8cc915d58156bc44ff23c7e5554c629cc8418c9f7352cd98330e0300f364736f6c63430008160033",
  "linkReferences": {},
  "deployedLinkReferences": {}
}